{
	"src/contracts/NewGenesisMaster.sol": {
		"Genesis": {
			"abi": [
				{
					"inputs": [
						{
							"internalType": "uint256",
							"name": "_projectTax",
							"type": "uint256"
						}
					],
					"stateMutability": "nonpayable",
					"type": "constructor"
				},
				{
					"anonymous": false,
					"inputs": [
						{
							"indexed": false,
							"internalType": "uint256",
							"name": "id",
							"type": "uint256"
						},
						{
							"indexed": false,
							"internalType": "string",
							"name": "actionType",
							"type": "string"
						},
						{
							"indexed": true,
							"internalType": "address",
							"name": "executor",
							"type": "address"
						},
						{
							"indexed": false,
							"internalType": "uint256",
							"name": "timestamp",
							"type": "uint256"
						}
					],
					"name": "Action",
					"type": "event"
				},
				{
					"inputs": [
						{
							"internalType": "uint256",
							"name": "id",
							"type": "uint256"
						}
					],
					"name": "backProject",
					"outputs": [
						{
							"internalType": "bool",
							"name": "",
							"type": "bool"
						}
					],
					"stateMutability": "payable",
					"type": "function"
				},
				{
					"inputs": [],
					"name": "balance",
					"outputs": [
						{
							"internalType": "uint256",
							"name": "",
							"type": "uint256"
						}
					],
					"stateMutability": "view",
					"type": "function"
				},
				{
					"inputs": [
						{
							"internalType": "uint256",
							"name": "_taxPct",
							"type": "uint256"
						}
					],
					"name": "changeTax",
					"outputs": [],
					"stateMutability": "nonpayable",
					"type": "function"
				},
				{
					"inputs": [
						{
							"internalType": "string",
							"name": "title",
							"type": "string"
						},
						{
							"internalType": "string",
							"name": "description",
							"type": "string"
						},
						{
							"internalType": "string",
							"name": "imageURL",
							"type": "string"
						},
						{
							"internalType": "uint256",
							"name": "cost",
							"type": "uint256"
						},
						{
							"internalType": "uint256",
							"name": "expiresAt",
							"type": "uint256"
						},
						{
							"internalType": "string",
							"name": "Syarat",
							"type": "string"
						}
					],
					"name": "createProject",
					"outputs": [
						{
							"internalType": "bool",
							"name": "",
							"type": "bool"
						}
					],
					"stateMutability": "nonpayable",
					"type": "function"
				},
				{
					"inputs": [
						{
							"internalType": "uint256",
							"name": "id",
							"type": "uint256"
						}
					],
					"name": "deleteProject",
					"outputs": [
						{
							"internalType": "bool",
							"name": "",
							"type": "bool"
						}
					],
					"stateMutability": "nonpayable",
					"type": "function"
				},
				{
					"inputs": [
						{
							"internalType": "uint256",
							"name": "id",
							"type": "uint256"
						}
					],
					"name": "getBackers",
					"outputs": [
						{
							"components": [
								{
									"internalType": "address",
									"name": "owner",
									"type": "address"
								},
								{
									"internalType": "uint256",
									"name": "contribution",
									"type": "uint256"
								},
								{
									"internalType": "uint256",
									"name": "timestamp",
									"type": "uint256"
								},
								{
									"internalType": "bool",
									"name": "refunded",
									"type": "bool"
								}
							],
							"internalType": "struct Genesis.backerStruct[]",
							"name": "",
							"type": "tuple[]"
						}
					],
					"stateMutability": "view",
					"type": "function"
				},
				{
					"inputs": [
						{
							"internalType": "uint256",
							"name": "id",
							"type": "uint256"
						}
					],
					"name": "getProject",
					"outputs": [
						{
							"components": [
								{
									"internalType": "uint256",
									"name": "id",
									"type": "uint256"
								},
								{
									"internalType": "address",
									"name": "owner",
									"type": "address"
								},
								{
									"internalType": "string",
									"name": "title",
									"type": "string"
								},
								{
									"internalType": "string",
									"name": "description",
									"type": "string"
								},
								{
									"internalType": "string",
									"name": "imageURL",
									"type": "string"
								},
								{
									"internalType": "uint256",
									"name": "cost",
									"type": "uint256"
								},
								{
									"internalType": "uint256",
									"name": "raised",
									"type": "uint256"
								},
								{
									"internalType": "uint256",
									"name": "timestamp",
									"type": "uint256"
								},
								{
									"internalType": "uint256",
									"name": "expiresAt",
									"type": "uint256"
								},
								{
									"internalType": "uint256",
									"name": "backers",
									"type": "uint256"
								},
								{
									"internalType": "enum Genesis.statusEnum",
									"name": "status",
									"type": "uint8"
								},
								{
									"internalType": "string",
									"name": "Syarat",
									"type": "string"
								},
								{
									"internalType": "bool",
									"name": "validated",
									"type": "bool"
								},
								{
									"internalType": "string",
									"name": "validationMessage",
									"type": "string"
								}
							],
							"internalType": "struct Genesis.projectStruct",
							"name": "",
							"type": "tuple"
						}
					],
					"stateMutability": "view",
					"type": "function"
				},
				{
					"inputs": [],
					"name": "getProjects",
					"outputs": [
						{
							"components": [
								{
									"internalType": "uint256",
									"name": "id",
									"type": "uint256"
								},
								{
									"internalType": "address",
									"name": "owner",
									"type": "address"
								},
								{
									"internalType": "string",
									"name": "title",
									"type": "string"
								},
								{
									"internalType": "string",
									"name": "description",
									"type": "string"
								},
								{
									"internalType": "string",
									"name": "imageURL",
									"type": "string"
								},
								{
									"internalType": "uint256",
									"name": "cost",
									"type": "uint256"
								},
								{
									"internalType": "uint256",
									"name": "raised",
									"type": "uint256"
								},
								{
									"internalType": "uint256",
									"name": "timestamp",
									"type": "uint256"
								},
								{
									"internalType": "uint256",
									"name": "expiresAt",
									"type": "uint256"
								},
								{
									"internalType": "uint256",
									"name": "backers",
									"type": "uint256"
								},
								{
									"internalType": "enum Genesis.statusEnum",
									"name": "status",
									"type": "uint8"
								},
								{
									"internalType": "string",
									"name": "Syarat",
									"type": "string"
								},
								{
									"internalType": "bool",
									"name": "validated",
									"type": "bool"
								},
								{
									"internalType": "string",
									"name": "validationMessage",
									"type": "string"
								}
							],
							"internalType": "struct Genesis.projectStruct[]",
							"name": "",
							"type": "tuple[]"
						}
					],
					"stateMutability": "view",
					"type": "function"
				},
				{
					"inputs": [],
					"name": "owner",
					"outputs": [
						{
							"internalType": "address",
							"name": "",
							"type": "address"
						}
					],
					"stateMutability": "view",
					"type": "function"
				},
				{
					"inputs": [
						{
							"internalType": "uint256",
							"name": "id",
							"type": "uint256"
						}
					],
					"name": "payOutProject",
					"outputs": [
						{
							"internalType": "bool",
							"name": "",
							"type": "bool"
						}
					],
					"stateMutability": "nonpayable",
					"type": "function"
				},
				{
					"inputs": [],
					"name": "projectCount",
					"outputs": [
						{
							"internalType": "uint256",
							"name": "",
							"type": "uint256"
						}
					],
					"stateMutability": "view",
					"type": "function"
				},
				{
					"inputs": [
						{
							"internalType": "uint256",
							"name": "",
							"type": "uint256"
						}
					],
					"name": "projectExist",
					"outputs": [
						{
							"internalType": "bool",
							"name": "",
							"type": "bool"
						}
					],
					"stateMutability": "view",
					"type": "function"
				},
				{
					"inputs": [],
					"name": "projectTax",
					"outputs": [
						{
							"internalType": "uint256",
							"name": "",
							"type": "uint256"
						}
					],
					"stateMutability": "view",
					"type": "function"
				},
				{
					"inputs": [
						{
							"internalType": "address",
							"name": "_validator",
							"type": "address"
						},
						{
							"internalType": "string",
							"name": "_name",
							"type": "string"
						}
					],
					"name": "registerValidator",
					"outputs": [],
					"stateMutability": "nonpayable",
					"type": "function"
				},
				{
					"inputs": [
						{
							"internalType": "uint256",
							"name": "id",
							"type": "uint256"
						}
					],
					"name": "requestRefund",
					"outputs": [
						{
							"internalType": "bool",
							"name": "",
							"type": "bool"
						}
					],
					"stateMutability": "nonpayable",
					"type": "function"
				},
				{
					"inputs": [],
					"name": "stats",
					"outputs": [
						{
							"internalType": "uint256",
							"name": "totalProjects",
							"type": "uint256"
						},
						{
							"internalType": "uint256",
							"name": "totalBacking",
							"type": "uint256"
						},
						{
							"internalType": "uint256",
							"name": "totalDonations",
							"type": "uint256"
						},
						{
							"internalType": "uint256",
							"name": "validatedProjects",
							"type": "uint256"
						},
						{
							"internalType": "uint256",
							"name": "nonValidatedProjects",
							"type": "uint256"
						}
					],
					"stateMutability": "view",
					"type": "function"
				},
				{
					"inputs": [
						{
							"internalType": "uint256",
							"name": "id",
							"type": "uint256"
						},
						{
							"internalType": "string",
							"name": "title",
							"type": "string"
						},
						{
							"internalType": "string",
							"name": "description",
							"type": "string"
						},
						{
							"internalType": "string",
							"name": "imageURL",
							"type": "string"
						},
						{
							"internalType": "uint256",
							"name": "expiresAt",
							"type": "uint256"
						},
						{
							"internalType": "string",
							"name": "Syarat",
							"type": "string"
						}
					],
					"name": "updateProject",
					"outputs": [
						{
							"internalType": "bool",
							"name": "",
							"type": "bool"
						}
					],
					"stateMutability": "nonpayable",
					"type": "function"
				},
				{
					"inputs": [
						{
							"internalType": "uint256",
							"name": "_id",
							"type": "uint256"
						},
						{
							"internalType": "string",
							"name": "_validationMessage",
							"type": "string"
						}
					],
					"name": "validateProject",
					"outputs": [
						{
							"internalType": "bool",
							"name": "",
							"type": "bool"
						}
					],
					"stateMutability": "nonpayable",
					"type": "function"
				},
				{
					"inputs": [
						{
							"internalType": "address",
							"name": "",
							"type": "address"
						}
					],
					"name": "validatorNames",
					"outputs": [
						{
							"internalType": "string",
							"name": "",
							"type": "string"
						}
					],
					"stateMutability": "view",
					"type": "function"
				},
				{
					"inputs": [
						{
							"internalType": "address",
							"name": "",
							"type": "address"
						}
					],
					"name": "validators",
					"outputs": [
						{
							"internalType": "bool",
							"name": "",
							"type": "bool"
						}
					],
					"stateMutability": "view",
					"type": "function"
				}
			],
			"devdoc": {
				"kind": "dev",
				"methods": {},
				"version": 1
			},
			"evm": {
				"assembly": "    /* \"src/contracts/NewGenesisMaster.sol\":69:9469  contract Genesis {... */\n  mstore(0x40, 0x80)\n    /* \"src/contracts/NewGenesisMaster.sol\":1802:1904  constructor(uint _projectTax) {... */\n  callvalue\n  dup1\n  iszero\n  tag_1\n  jumpi\n  0x00\n  dup1\n  revert\ntag_1:\n  pop\n  mload(0x40)\n  sub(codesize, bytecodeSize)\n  dup1\n  bytecodeSize\n  dup4\n  codecopy\n  dup2\n  dup2\n  add\n  0x40\n  mstore\n  dup2\n  add\n  swap1\n  tag_2\n  swap2\n  swap1\n  tag_3\n  jump\t// in\ntag_2:\n    /* \"src/contracts/NewGenesisMaster.sol\":1851:1861  msg.sender */\n  caller\n    /* \"src/contracts/NewGenesisMaster.sol\":1843:1848  owner */\n  0x00\n  dup1\n    /* \"src/contracts/NewGenesisMaster.sol\":1843:1861  owner = msg.sender */\n  0x0100\n  exp\n  dup2\n  sload\n  dup2\n  0xffffffffffffffffffffffffffffffffffffffff\n  mul\n  not\n  and\n  swap1\n  dup4\n  0xffffffffffffffffffffffffffffffffffffffff\n  and\n  mul\n  or\n  swap1\n  sstore\n  pop\n    /* \"src/contracts/NewGenesisMaster.sol\":1885:1896  _projectTax */\n  dup1\n    /* \"src/contracts/NewGenesisMaster.sol\":1872:1882  projectTax */\n  0x01\n    /* \"src/contracts/NewGenesisMaster.sol\":1872:1896  projectTax = _projectTax */\n  dup2\n  swap1\n  sstore\n  pop\n    /* \"src/contracts/NewGenesisMaster.sol\":1802:1904  constructor(uint _projectTax) {... */\n  pop\n    /* \"src/contracts/NewGenesisMaster.sol\":69:9469  contract Genesis {... */\n  jump(tag_6)\n    /* \"#utility.yul\":88:205   */\ntag_8:\n    /* \"#utility.yul\":197:198   */\n  0x00\n    /* \"#utility.yul\":194:195   */\n  dup1\n    /* \"#utility.yul\":187:199   */\n  revert\n    /* \"#utility.yul\":334:411   */\ntag_10:\n    /* \"#utility.yul\":371:378   */\n  0x00\n    /* \"#utility.yul\":400:405   */\n  dup2\n    /* \"#utility.yul\":389:405   */\n  swap1\n  pop\n    /* \"#utility.yul\":334:411   */\n  swap2\n  swap1\n  pop\n  jump\t// out\n    /* \"#utility.yul\":417:539   */\ntag_11:\n    /* \"#utility.yul\":490:514   */\n  tag_19\n    /* \"#utility.yul\":508:513   */\n  dup2\n    /* \"#utility.yul\":490:514   */\n  tag_10\n  jump\t// in\ntag_19:\n    /* \"#utility.yul\":483:488   */\n  dup2\n    /* \"#utility.yul\":480:515   */\n  eq\n    /* \"#utility.yul\":470:533   */\n  tag_20\n  jumpi\n    /* \"#utility.yul\":529:530   */\n  0x00\n    /* \"#utility.yul\":526:527   */\n  dup1\n    /* \"#utility.yul\":519:531   */\n  revert\n    /* \"#utility.yul\":470:533   */\ntag_20:\n    /* \"#utility.yul\":417:539   */\n  pop\n  jump\t// out\n    /* \"#utility.yul\":545:688   */\ntag_12:\n    /* \"#utility.yul\":602:607   */\n  0x00\n    /* \"#utility.yul\":633:639   */\n  dup2\n    /* \"#utility.yul\":627:640   */\n  mload\n    /* \"#utility.yul\":618:640   */\n  swap1\n  pop\n    /* \"#utility.yul\":649:682   */\n  tag_22\n    /* \"#utility.yul\":676:681   */\n  dup2\n    /* \"#utility.yul\":649:682   */\n  tag_11\n  jump\t// in\ntag_22:\n    /* \"#utility.yul\":545:688   */\n  swap3\n  swap2\n  pop\n  pop\n  jump\t// out\n    /* \"#utility.yul\":694:1045   */\ntag_3:\n    /* \"#utility.yul\":764:770   */\n  0x00\n    /* \"#utility.yul\":813:815   */\n  0x20\n    /* \"#utility.yul\":801:810   */\n  dup3\n    /* \"#utility.yul\":792:799   */\n  dup5\n    /* \"#utility.yul\":788:811   */\n  sub\n    /* \"#utility.yul\":784:816   */\n  slt\n    /* \"#utility.yul\":781:900   */\n  iszero\n  tag_24\n  jumpi\n    /* \"#utility.yul\":819:898   */\n  tag_25\n  tag_8\n  jump\t// in\ntag_25:\n    /* \"#utility.yul\":781:900   */\ntag_24:\n    /* \"#utility.yul\":939:940   */\n  0x00\n    /* \"#utility.yul\":964:1028   */\n  tag_26\n    /* \"#utility.yul\":1020:1027   */\n  dup5\n    /* \"#utility.yul\":1011:1017   */\n  dup3\n    /* \"#utility.yul\":1000:1009   */\n  dup6\n    /* \"#utility.yul\":996:1018   */\n  add\n    /* \"#utility.yul\":964:1028   */\n  tag_12\n  jump\t// in\ntag_26:\n    /* \"#utility.yul\":954:1028   */\n  swap2\n  pop\n    /* \"#utility.yul\":910:1038   */\n  pop\n    /* \"#utility.yul\":694:1045   */\n  swap3\n  swap2\n  pop\n  pop\n  jump\t// out\n    /* \"src/contracts/NewGenesisMaster.sol\":69:9469  contract Genesis {... */\ntag_6:\n  dataSize(sub_0)\n  dup1\n  dataOffset(sub_0)\n  0x00\n  codecopy\n  0x00\n  return\nstop\n\nsub_0: assembly {\n        /* \"src/contracts/NewGenesisMaster.sol\":69:9469  contract Genesis {... */\n      mstore(0x40, 0x80)\n      jumpi(tag_1, lt(calldatasize, 0x04))\n      shr(0xe0, calldataload(0x00))\n      dup1\n      0x9f39a194\n      gt\n      tag_22\n      jumpi\n      dup1\n      0xd24cd3ec\n      gt\n      tag_23\n      jumpi\n      dup1\n      0xd24cd3ec\n      eq\n      tag_17\n      jumpi\n      dup1\n      0xd80528ae\n      eq\n      tag_18\n      jumpi\n      dup1\n      0xdcc60128\n      eq\n      tag_19\n      jumpi\n      dup1\n      0xf0f3f2c8\n      eq\n      tag_20\n      jumpi\n      dup1\n      0xfa52c7d8\n      eq\n      tag_21\n      jumpi\n      jump(tag_1)\n    tag_23:\n      dup1\n      0x9f39a194\n      eq\n      tag_12\n      jumpi\n      dup1\n      0xa4b2409e\n      eq\n      tag_13\n      jumpi\n      dup1\n      0xb531dcba\n      eq\n      tag_14\n      jumpi\n      dup1\n      0xb69ef8a8\n      eq\n      tag_15\n      jumpi\n      dup1\n      0xc9168b72\n      eq\n      tag_16\n      jumpi\n      jump(tag_1)\n    tag_22:\n      dup1\n      0x50fc6d76\n      gt\n      tag_24\n      jumpi\n      dup1\n      0x50fc6d76\n      eq\n      tag_7\n      jumpi\n      dup1\n      0x75c0f6b2\n      eq\n      tag_8\n      jumpi\n      dup1\n      0x812be123\n      eq\n      tag_9\n      jumpi\n      dup1\n      0x8593054b\n      eq\n      tag_10\n      jumpi\n      dup1\n      0x8da5cb5b\n      eq\n      tag_11\n      jumpi\n      jump(tag_1)\n    tag_24:\n      dup1\n      0x01b77599\n      eq\n      tag_2\n      jumpi\n      dup1\n      0x1fb49712\n      eq\n      tag_3\n      jumpi\n      dup1\n      0x36fbad26\n      eq\n      tag_4\n      jumpi\n      dup1\n      0x3e45c8af\n      eq\n      tag_5\n      jumpi\n      dup1\n      0x4cd0cb28\n      eq\n      tag_6\n      jumpi\n    tag_1:\n      0x00\n      dup1\n      revert\n        /* \"src/contracts/NewGenesisMaster.sol\":468:516  mapping(address => string) public validatorNames */\n    tag_2:\n      callvalue\n      dup1\n      iszero\n      tag_25\n      jumpi\n      0x00\n      dup1\n      revert\n    tag_25:\n      pop\n      tag_26\n      0x04\n      dup1\n      calldatasize\n      sub\n      dup2\n      add\n      swap1\n      tag_27\n      swap2\n      swap1\n      tag_28\n      jump\t// in\n    tag_27:\n      tag_29\n      jump\t// in\n    tag_26:\n      mload(0x40)\n      tag_30\n      swap2\n      swap1\n      tag_31\n      jump\t// in\n    tag_30:\n      mload(0x40)\n      dup1\n      swap2\n      sub\n      swap1\n      return\n        /* \"src/contracts/NewGenesisMaster.sol\":2262:3762  function createProject(... */\n    tag_3:\n      callvalue\n      dup1\n      iszero\n      tag_32\n      jumpi\n      0x00\n      dup1\n      revert\n    tag_32:\n      pop\n      tag_33\n      0x04\n      dup1\n      calldatasize\n      sub\n      dup2\n      add\n      swap1\n      tag_34\n      swap2\n      swap1\n      tag_35\n      jump\t// in\n    tag_34:\n      tag_36\n      jump\t// in\n    tag_33:\n      mload(0x40)\n      tag_37\n      swap2\n      swap1\n      tag_38\n      jump\t// in\n    tag_37:\n      mload(0x40)\n      dup1\n      swap2\n      sub\n      swap1\n      return\n        /* \"src/contracts/NewGenesisMaster.sol\":149:173  uint public projectCount */\n    tag_4:\n      callvalue\n      dup1\n      iszero\n      tag_39\n      jumpi\n      0x00\n      dup1\n      revert\n    tag_39:\n      pop\n      tag_40\n      tag_41\n      jump\t// in\n    tag_40:\n      mload(0x40)\n      tag_42\n      swap2\n      swap1\n      tag_43\n      jump\t// in\n    tag_42:\n      mload(0x40)\n      dup1\n      swap2\n      sub\n      swap1\n      return\n        /* \"src/contracts/NewGenesisMaster.sol\":8810:8899  function changeTax(uint _taxPct) public ownerOnly {... */\n    tag_5:\n      callvalue\n      dup1\n      iszero\n      tag_44\n      jumpi\n      0x00\n      dup1\n      revert\n    tag_44:\n      pop\n      tag_45\n      0x04\n      dup1\n      calldatasize\n      sub\n      dup2\n      add\n      swap1\n      tag_46\n      swap2\n      swap1\n      tag_47\n      jump\t// in\n    tag_46:\n      tag_48\n      jump\t// in\n    tag_45:\n      stop\n        /* \"src/contracts/NewGenesisMaster.sol\":5443:5884  function deleteProject(uint id) public returns (bool) {... */\n    tag_6:\n      callvalue\n      dup1\n      iszero\n      tag_49\n      jumpi\n      0x00\n      dup1\n      revert\n    tag_49:\n      pop\n      tag_50\n      0x04\n      dup1\n      calldatasize\n      sub\n      dup2\n      add\n      swap1\n      tag_51\n      swap2\n      swap1\n      tag_47\n      jump\t// in\n    tag_51:\n      tag_52\n      jump\t// in\n    tag_50:\n      mload(0x40)\n      tag_53\n      swap2\n      swap1\n      tag_38\n      jump\t// in\n    tag_53:\n      mload(0x40)\n      dup1\n      swap2\n      sub\n      swap1\n      return\n        /* \"src/contracts/NewGenesisMaster.sol\":4520:5435  function updateProject(... */\n    tag_7:\n      callvalue\n      dup1\n      iszero\n      tag_54\n      jumpi\n      0x00\n      dup1\n      revert\n    tag_54:\n      pop\n      tag_55\n      0x04\n      dup1\n      calldatasize\n      sub\n      dup2\n      add\n      swap1\n      tag_56\n      swap2\n      swap1\n      tag_57\n      jump\t// in\n    tag_56:\n      tag_58\n      jump\t// in\n    tag_55:\n      mload(0x40)\n      tag_59\n      swap2\n      swap1\n      tag_38\n      jump\t// in\n    tag_59:\n      mload(0x40)\n      dup1\n      swap2\n      sub\n      swap1\n      return\n        /* \"src/contracts/NewGenesisMaster.sol\":1912:2254  function registerValidator(address _validator, string memory _name)... */\n    tag_8:\n      callvalue\n      dup1\n      iszero\n      tag_60\n      jumpi\n      0x00\n      dup1\n      revert\n    tag_60:\n      pop\n      tag_61\n      0x04\n      dup1\n      calldatasize\n      sub\n      dup2\n      add\n      swap1\n      tag_62\n      swap2\n      swap1\n      tag_63\n      jump\t// in\n    tag_62:\n      tag_64\n      jump\t// in\n    tag_61:\n      stop\n        /* \"src/contracts/NewGenesisMaster.sol\":3770:4512  function validateProject(... */\n    tag_9:\n      callvalue\n      dup1\n      iszero\n      tag_65\n      jumpi\n      0x00\n      dup1\n      revert\n    tag_65:\n      pop\n      tag_66\n      0x04\n      dup1\n      calldatasize\n      sub\n      dup2\n      add\n      swap1\n      tag_67\n      swap2\n      swap1\n      tag_68\n      jump\t// in\n    tag_67:\n      tag_69\n      jump\t// in\n    tag_66:\n      mload(0x40)\n      tag_70\n      swap2\n      swap1\n      tag_38\n      jump\t// in\n    tag_70:\n      mload(0x40)\n      dup1\n      swap2\n      sub\n      swap1\n      return\n        /* \"src/contracts/NewGenesisMaster.sol\":371:412  mapping(uint => bool) public projectExist */\n    tag_10:\n      callvalue\n      dup1\n      iszero\n      tag_71\n      jumpi\n      0x00\n      dup1\n      revert\n    tag_71:\n      pop\n      tag_72\n      0x04\n      dup1\n      calldatasize\n      sub\n      dup2\n      add\n      swap1\n      tag_73\n      swap2\n      swap1\n      tag_47\n      jump\t// in\n    tag_73:\n      tag_74\n      jump\t// in\n    tag_72:\n      mload(0x40)\n      tag_75\n      swap2\n      swap1\n      tag_38\n      jump\t// in\n    tag_75:\n      mload(0x40)\n      dup1\n      swap2\n      sub\n      swap1\n      return\n        /* \"src/contracts/NewGenesisMaster.sol\":93:113  address public owner */\n    tag_11:\n      callvalue\n      dup1\n      iszero\n      tag_76\n      jumpi\n      0x00\n      dup1\n      revert\n    tag_76:\n      pop\n      tag_77\n      tag_78\n      jump\t// in\n    tag_77:\n      mload(0x40)\n      tag_79\n      swap2\n      swap1\n      tag_80\n      jump\t// in\n    tag_79:\n      mload(0x40)\n      dup1\n      swap2\n      sub\n      swap1\n      return\n        /* \"src/contracts/NewGenesisMaster.sol\":6381:7640  function backProject(uint id) public payable returns (bool) {... */\n    tag_12:\n      tag_81\n      0x04\n      dup1\n      calldatasize\n      sub\n      dup2\n      add\n      swap1\n      tag_82\n      swap2\n      swap1\n      tag_47\n      jump\t// in\n    tag_82:\n      tag_83\n      jump\t// in\n    tag_81:\n      mload(0x40)\n      tag_84\n      swap2\n      swap1\n      tag_38\n      jump\t// in\n    tag_84:\n      mload(0x40)\n      dup1\n      swap2\n      sub\n      swap1\n      return\n        /* \"src/contracts/NewGenesisMaster.sol\":8053:8422  function requestRefund(uint id) public returns (bool) {... */\n    tag_13:\n      callvalue\n      dup1\n      iszero\n      tag_85\n      jumpi\n      0x00\n      dup1\n      revert\n    tag_85:\n      pop\n      tag_86\n      0x04\n      dup1\n      calldatasize\n      sub\n      dup2\n      add\n      swap1\n      tag_87\n      swap2\n      swap1\n      tag_47\n      jump\t// in\n    tag_87:\n      tag_88\n      jump\t// in\n    tag_86:\n      mload(0x40)\n      tag_89\n      swap2\n      swap1\n      tag_38\n      jump\t// in\n    tag_89:\n      mload(0x40)\n      dup1\n      swap2\n      sub\n      swap1\n      return\n        /* \"src/contracts/NewGenesisMaster.sol\":8430:8802  function payOutProject(uint id) public returns (bool) {... */\n    tag_14:\n      callvalue\n      dup1\n      iszero\n      tag_90\n      jumpi\n      0x00\n      dup1\n      revert\n    tag_90:\n      pop\n      tag_91\n      0x04\n      dup1\n      calldatasize\n      sub\n      dup2\n      add\n      swap1\n      tag_92\n      swap2\n      swap1\n      tag_47\n      jump\t// in\n    tag_92:\n      tag_93\n      jump\t// in\n    tag_91:\n      mload(0x40)\n      tag_94\n      swap2\n      swap1\n      tag_38\n      jump\t// in\n    tag_94:\n      mload(0x40)\n      dup1\n      swap2\n      sub\n      swap1\n      return\n        /* \"src/contracts/NewGenesisMaster.sol\":180:199  uint public balance */\n    tag_15:\n      callvalue\n      dup1\n      iszero\n      tag_95\n      jumpi\n      0x00\n      dup1\n      revert\n    tag_95:\n      pop\n      tag_96\n      tag_97\n      jump\t// in\n    tag_96:\n      mload(0x40)\n      tag_98\n      swap2\n      swap1\n      tag_43\n      jump\t// in\n    tag_98:\n      mload(0x40)\n      dup1\n      swap2\n      sub\n      swap1\n      return\n        /* \"src/contracts/NewGenesisMaster.sol\":9194:9306  function getBackers(uint id) public view returns (backerStruct[] memory) {... */\n    tag_16:\n      callvalue\n      dup1\n      iszero\n      tag_99\n      jumpi\n      0x00\n      dup1\n      revert\n    tag_99:\n      pop\n      tag_100\n      0x04\n      dup1\n      calldatasize\n      sub\n      dup2\n      add\n      swap1\n      tag_101\n      swap2\n      swap1\n      tag_47\n      jump\t// in\n    tag_101:\n      tag_102\n      jump\t// in\n    tag_100:\n      mload(0x40)\n      tag_103\n      swap2\n      swap1\n      tag_104\n      jump\t// in\n    tag_103:\n      mload(0x40)\n      dup1\n      swap2\n      sub\n      swap1\n      return\n        /* \"src/contracts/NewGenesisMaster.sol\":120:142  uint public projectTax */\n    tag_17:\n      callvalue\n      dup1\n      iszero\n      tag_105\n      jumpi\n      0x00\n      dup1\n      revert\n    tag_105:\n      pop\n      tag_106\n      tag_107\n      jump\t// in\n    tag_106:\n      mload(0x40)\n      tag_108\n      swap2\n      swap1\n      tag_43\n      jump\t// in\n    tag_108:\n      mload(0x40)\n      dup1\n      swap2\n      sub\n      swap1\n      return\n        /* \"src/contracts/NewGenesisMaster.sol\":206:230  statsStruct public stats */\n    tag_18:\n      callvalue\n      dup1\n      iszero\n      tag_109\n      jumpi\n      0x00\n      dup1\n      revert\n    tag_109:\n      pop\n      tag_110\n      tag_111\n      jump\t// in\n    tag_110:\n      mload(0x40)\n      tag_112\n      swap6\n      swap5\n      swap4\n      swap3\n      swap2\n      swap1\n      tag_113\n      jump\t// in\n    tag_112:\n      mload(0x40)\n      dup1\n      swap2\n      sub\n      swap1\n      return\n        /* \"src/contracts/NewGenesisMaster.sol\":9084:9186  function getProjects() public view returns (projectStruct[] memory) {... */\n    tag_19:\n      callvalue\n      dup1\n      iszero\n      tag_114\n      jumpi\n      0x00\n      dup1\n      revert\n    tag_114:\n      pop\n      tag_115\n      tag_116\n      jump\t// in\n    tag_115:\n      mload(0x40)\n      tag_117\n      swap2\n      swap1\n      tag_118\n      jump\t// in\n    tag_117:\n      mload(0x40)\n      dup1\n      swap2\n      sub\n      swap1\n      return\n        /* \"src/contracts/NewGenesisMaster.sol\":8907:9076  function getProject(uint id) public view returns (projectStruct memory) {... */\n    tag_20:\n      callvalue\n      dup1\n      iszero\n      tag_119\n      jumpi\n      0x00\n      dup1\n      revert\n    tag_119:\n      pop\n      tag_120\n      0x04\n      dup1\n      calldatasize\n      sub\n      dup2\n      add\n      swap1\n      tag_121\n      swap2\n      swap1\n      tag_47\n      jump\t// in\n    tag_121:\n      tag_122\n      jump\t// in\n    tag_120:\n      mload(0x40)\n      tag_123\n      swap2\n      swap1\n      tag_124\n      jump\t// in\n    tag_123:\n      mload(0x40)\n      dup1\n      swap2\n      sub\n      swap1\n      return\n        /* \"src/contracts/NewGenesisMaster.sol\":419:461  mapping(address => bool) public validators */\n    tag_21:\n      callvalue\n      dup1\n      iszero\n      tag_125\n      jumpi\n      0x00\n      dup1\n      revert\n    tag_125:\n      pop\n      tag_126\n      0x04\n      dup1\n      calldatasize\n      sub\n      dup2\n      add\n      swap1\n      tag_127\n      swap2\n      swap1\n      tag_28\n      jump\t// in\n    tag_127:\n      tag_128\n      jump\t// in\n    tag_126:\n      mload(0x40)\n      tag_129\n      swap2\n      swap1\n      tag_38\n      jump\t// in\n    tag_129:\n      mload(0x40)\n      dup1\n      swap2\n      sub\n      swap1\n      return\n        /* \"src/contracts/NewGenesisMaster.sol\":468:516  mapping(address => string) public validatorNames */\n    tag_29:\n      mstore(0x20, 0x0e)\n      dup1\n      0x00\n      mstore\n      keccak256(0x00, 0x40)\n      0x00\n      swap2\n      pop\n      swap1\n      pop\n      dup1\n      sload\n      tag_130\n      swap1\n      tag_131\n      jump\t// in\n    tag_130:\n      dup1\n      0x1f\n      add\n      0x20\n      dup1\n      swap2\n      div\n      mul\n      0x20\n      add\n      mload(0x40)\n      swap1\n      dup2\n      add\n      0x40\n      mstore\n      dup1\n      swap3\n      swap2\n      swap1\n      dup2\n      dup2\n      mstore\n      0x20\n      add\n      dup3\n      dup1\n      sload\n      tag_132\n      swap1\n      tag_131\n      jump\t// in\n    tag_132:\n      dup1\n      iszero\n      tag_133\n      jumpi\n      dup1\n      0x1f\n      lt\n      tag_134\n      jumpi\n      0x0100\n      dup1\n      dup4\n      sload\n      div\n      mul\n      dup4\n      mstore\n      swap2\n      0x20\n      add\n      swap2\n      jump(tag_133)\n    tag_134:\n      dup3\n      add\n      swap2\n      swap1\n      0x00\n      mstore\n      keccak256(0x00, 0x20)\n      swap1\n    tag_135:\n      dup2\n      sload\n      dup2\n      mstore\n      swap1\n      0x01\n      add\n      swap1\n      0x20\n      add\n      dup1\n      dup4\n      gt\n      tag_135\n      jumpi\n      dup3\n      swap1\n      sub\n      0x1f\n      and\n      dup3\n      add\n      swap2\n    tag_133:\n      pop\n      pop\n      pop\n      pop\n      pop\n      dup2\n      jump\t// out\n        /* \"src/contracts/NewGenesisMaster.sol\":2262:3762  function createProject(... */\n    tag_36:\n        /* \"src/contracts/NewGenesisMaster.sol\":2483:2487  bool */\n      0x00\n        /* \"src/contracts/NewGenesisMaster.sol\":2530:2531  0 */\n      dup1\n        /* \"src/contracts/NewGenesisMaster.sol\":2514:2519  title */\n      dup8\n        /* \"src/contracts/NewGenesisMaster.sol\":2508:2527  bytes(title).length */\n      mload\n        /* \"src/contracts/NewGenesisMaster.sol\":2508:2531  bytes(title).length > 0 */\n      gt\n        /* \"src/contracts/NewGenesisMaster.sol\":2500:2557  require(bytes(title).length > 0, \"Title cannot be empty\") */\n      tag_137\n      jumpi\n      mload(0x40)\n      0x08c379a000000000000000000000000000000000000000000000000000000000\n      dup2\n      mstore\n      0x04\n      add\n      tag_138\n      swap1\n      tag_139\n      jump\t// in\n    tag_138:\n      mload(0x40)\n      dup1\n      swap2\n      sub\n      swap1\n      revert\n    tag_137:\n        /* \"src/contracts/NewGenesisMaster.sol\":2604:2605  0 */\n      0x00\n        /* \"src/contracts/NewGenesisMaster.sol\":2582:2593  description */\n      dup7\n        /* \"src/contracts/NewGenesisMaster.sol\":2576:2601  bytes(description).length */\n      mload\n        /* \"src/contracts/NewGenesisMaster.sol\":2576:2605  bytes(description).length > 0 */\n      gt\n        /* \"src/contracts/NewGenesisMaster.sol\":2568:2637  require(bytes(description).length > 0, \"Description cannot be empty\") */\n      tag_140\n      jumpi\n      mload(0x40)\n      0x08c379a000000000000000000000000000000000000000000000000000000000\n      dup2\n      mstore\n      0x04\n      add\n      tag_141\n      swap1\n      tag_142\n      jump\t// in\n    tag_141:\n      mload(0x40)\n      dup1\n      swap2\n      sub\n      swap1\n      revert\n    tag_140:\n        /* \"src/contracts/NewGenesisMaster.sol\":2681:2682  0 */\n      0x00\n        /* \"src/contracts/NewGenesisMaster.sol\":2662:2670  imageURL */\n      dup6\n        /* \"src/contracts/NewGenesisMaster.sol\":2656:2678  bytes(imageURL).length */\n      mload\n        /* \"src/contracts/NewGenesisMaster.sol\":2656:2682  bytes(imageURL).length > 0 */\n      gt\n        /* \"src/contracts/NewGenesisMaster.sol\":2648:2711  require(bytes(imageURL).length > 0, \"ImageURL cannot be empty\") */\n      tag_143\n      jumpi\n      mload(0x40)\n      0x08c379a000000000000000000000000000000000000000000000000000000000\n      dup2\n      mstore\n      0x04\n      add\n      tag_144\n      swap1\n      tag_145\n      jump\t// in\n    tag_144:\n      mload(0x40)\n      dup1\n      swap2\n      sub\n      swap1\n      revert\n    tag_143:\n        /* \"src/contracts/NewGenesisMaster.sol\":2737:2744  0 ether */\n      0x00\n        /* \"src/contracts/NewGenesisMaster.sol\":2730:2734  cost */\n      dup5\n        /* \"src/contracts/NewGenesisMaster.sol\":2730:2744  cost > 0 ether */\n      gt\n        /* \"src/contracts/NewGenesisMaster.sol\":2722:2768  require(cost > 0 ether, \"Cost cannot be zero\") */\n      tag_146\n      jumpi\n      mload(0x40)\n      0x08c379a000000000000000000000000000000000000000000000000000000000\n      dup2\n      mstore\n      0x04\n      add\n      tag_147\n      swap1\n      tag_148\n      jump\t// in\n    tag_147:\n      mload(0x40)\n      dup1\n      swap2\n      sub\n      swap1\n      revert\n    tag_146:\n        /* \"src/contracts/NewGenesisMaster.sol\":2810:2811  0 */\n      0x00\n        /* \"src/contracts/NewGenesisMaster.sol\":2793:2799  Syarat */\n      dup3\n        /* \"src/contracts/NewGenesisMaster.sol\":2787:2807  bytes(Syarat).length */\n      mload\n        /* \"src/contracts/NewGenesisMaster.sol\":2787:2811  bytes(Syarat).length > 0 */\n      gt\n        /* \"src/contracts/NewGenesisMaster.sol\":2779:2842  require(bytes(Syarat).length > 0, \"Syarat URL cannot be empty\") */\n      tag_149\n      jumpi\n      mload(0x40)\n      0x08c379a000000000000000000000000000000000000000000000000000000000\n      dup2\n      mstore\n      0x04\n      add\n      tag_150\n      swap1\n      tag_151\n      jump\t// in\n    tag_150:\n      mload(0x40)\n      dup1\n      swap2\n      sub\n      swap1\n      revert\n    tag_149:\n        /* \"src/contracts/NewGenesisMaster.sol\":2855:2883  projectStruct memory project */\n      tag_152\n      tag_153\n      jump\t// in\n    tag_152:\n        /* \"src/contracts/NewGenesisMaster.sol\":2907:2919  projectCount */\n      sload(0x02)\n        /* \"src/contracts/NewGenesisMaster.sol\":2894:2901  project */\n      dup2\n        /* \"src/contracts/NewGenesisMaster.sol\":2894:2904  project.id */\n      0x00\n      add\n        /* \"src/contracts/NewGenesisMaster.sol\":2894:2919  project.id = projectCount */\n      dup2\n      dup2\n      mstore\n      pop\n      pop\n        /* \"src/contracts/NewGenesisMaster.sol\":2946:2956  msg.sender */\n      caller\n        /* \"src/contracts/NewGenesisMaster.sol\":2930:2937  project */\n      dup2\n        /* \"src/contracts/NewGenesisMaster.sol\":2930:2943  project.owner */\n      0x20\n      add\n        /* \"src/contracts/NewGenesisMaster.sol\":2930:2956  project.owner = msg.sender */\n      swap1\n      0xffffffffffffffffffffffffffffffffffffffff\n      and\n      swap1\n      dup2\n      0xffffffffffffffffffffffffffffffffffffffff\n      and\n      dup2\n      mstore\n      pop\n      pop\n        /* \"src/contracts/NewGenesisMaster.sol\":2983:2988  title */\n      dup8\n        /* \"src/contracts/NewGenesisMaster.sol\":2967:2974  project */\n      dup2\n        /* \"src/contracts/NewGenesisMaster.sol\":2967:2980  project.title */\n      0x40\n      add\n        /* \"src/contracts/NewGenesisMaster.sol\":2967:2988  project.title = title */\n      dup2\n      swap1\n      mstore\n      pop\n        /* \"src/contracts/NewGenesisMaster.sol\":3021:3032  description */\n      dup7\n        /* \"src/contracts/NewGenesisMaster.sol\":2999:3006  project */\n      dup2\n        /* \"src/contracts/NewGenesisMaster.sol\":2999:3018  project.description */\n      0x60\n      add\n        /* \"src/contracts/NewGenesisMaster.sol\":2999:3032  project.description = description */\n      dup2\n      swap1\n      mstore\n      pop\n        /* \"src/contracts/NewGenesisMaster.sol\":3062:3070  imageURL */\n      dup6\n        /* \"src/contracts/NewGenesisMaster.sol\":3043:3050  project */\n      dup2\n        /* \"src/contracts/NewGenesisMaster.sol\":3043:3059  project.imageURL */\n      0x80\n      add\n        /* \"src/contracts/NewGenesisMaster.sol\":3043:3070  project.imageURL = imageURL */\n      dup2\n      swap1\n      mstore\n      pop\n        /* \"src/contracts/NewGenesisMaster.sol\":3096:3100  cost */\n      dup5\n        /* \"src/contracts/NewGenesisMaster.sol\":3081:3088  project */\n      dup2\n        /* \"src/contracts/NewGenesisMaster.sol\":3081:3093  project.cost */\n      0xa0\n      add\n        /* \"src/contracts/NewGenesisMaster.sol\":3081:3100  project.cost = cost */\n      dup2\n      dup2\n      mstore\n      pop\n      pop\n        /* \"src/contracts/NewGenesisMaster.sol\":3131:3146  block.timestamp */\n      timestamp\n        /* \"src/contracts/NewGenesisMaster.sol\":3111:3118  project */\n      dup2\n        /* \"src/contracts/NewGenesisMaster.sol\":3111:3128  project.timestamp */\n      0xe0\n      add\n        /* \"src/contracts/NewGenesisMaster.sol\":3111:3146  project.timestamp = block.timestamp */\n      dup2\n      dup2\n      mstore\n      pop\n      pop\n        /* \"src/contracts/NewGenesisMaster.sol\":3177:3186  expiresAt */\n      dup4\n        /* \"src/contracts/NewGenesisMaster.sol\":3157:3164  project */\n      dup2\n        /* \"src/contracts/NewGenesisMaster.sol\":3157:3174  project.expiresAt */\n      0x0100\n      add\n        /* \"src/contracts/NewGenesisMaster.sol\":3157:3186  project.expiresAt = expiresAt */\n      dup2\n      dup2\n      mstore\n      pop\n      pop\n        /* \"src/contracts/NewGenesisMaster.sol\":3214:3220  Syarat */\n      dup3\n        /* \"src/contracts/NewGenesisMaster.sol\":3197:3204  project */\n      dup2\n        /* \"src/contracts/NewGenesisMaster.sol\":3197:3211  project.Syarat */\n      0x0160\n      add\n        /* \"src/contracts/NewGenesisMaster.sol\":3197:3220  project.Syarat = Syarat */\n      dup2\n      swap1\n      mstore\n      pop\n        /* \"src/contracts/NewGenesisMaster.sol\":3248:3266  statusEnum.PENDING */\n      0x00\n        /* \"src/contracts/NewGenesisMaster.sol\":3231:3238  project */\n      dup2\n        /* \"src/contracts/NewGenesisMaster.sol\":3231:3245  project.status */\n      0x0140\n      add\n        /* \"src/contracts/NewGenesisMaster.sol\":3231:3266  project.status = statusEnum.PENDING */\n      swap1\n      0x05\n      dup2\n      gt\n      iszero\n      tag_154\n      jumpi\n      tag_155\n      tag_156\n      jump\t// in\n    tag_155:\n    tag_154:\n      swap1\n      dup2\n      0x05\n      dup2\n      gt\n      iszero\n      tag_157\n      jumpi\n      tag_158\n      tag_156\n      jump\t// in\n    tag_158:\n    tag_157:\n      dup2\n      mstore\n      pop\n      pop\n        /* \"src/contracts/NewGenesisMaster.sol\":3297:3302  false */\n      0x00\n        /* \"src/contracts/NewGenesisMaster.sol\":3277:3284  project */\n      dup2\n        /* \"src/contracts/NewGenesisMaster.sol\":3277:3294  project.validated */\n      0x0180\n      add\n        /* \"src/contracts/NewGenesisMaster.sol\":3277:3302  project.validated = false */\n      swap1\n      iszero\n      iszero\n      swap1\n      dup2\n      iszero\n      iszero\n      dup2\n      mstore\n      pop\n      pop\n        /* \"src/contracts/NewGenesisMaster.sol\":3313:3378  project.validationMessage = \"This Projected is not Validated Yet\" */\n      mload(0x40)\n      dup1\n      0x60\n      add\n      0x40\n      mstore\n      dup1\n      0x23\n      dup2\n      mstore\n      0x20\n      add\n      data_757a967fde73ff28bd1aae10840307133baa1cde440836373b3a39a35bb5c708\n      0x23\n      swap2\n      codecopy\n        /* \"src/contracts/NewGenesisMaster.sol\":3313:3320  project */\n      dup2\n        /* \"src/contracts/NewGenesisMaster.sol\":3313:3338  project.validationMessage */\n      0x01a0\n      add\n        /* \"src/contracts/NewGenesisMaster.sol\":3313:3378  project.validationMessage = \"This Projected is not Validated Yet\" */\n      dup2\n      swap1\n      mstore\n      pop\n        /* \"src/contracts/NewGenesisMaster.sol\":3391:3399  projects */\n      0x09\n        /* \"src/contracts/NewGenesisMaster.sol\":3405:3412  project */\n      dup2\n        /* \"src/contracts/NewGenesisMaster.sol\":3391:3413  projects.push(project) */\n      swap1\n      dup1\n      0x01\n      dup2\n      sload\n      add\n      dup1\n      dup3\n      sstore\n      dup1\n      swap2\n      pop\n      pop\n      0x01\n      swap1\n      sub\n      swap1\n      0x00\n      mstore\n      keccak256(0x00, 0x20)\n      swap1\n      0x0e\n      mul\n      add\n      0x00\n      swap1\n      swap2\n      swap1\n      swap2\n      swap1\n      swap2\n      pop\n      0x00\n      dup3\n      add\n      mload\n      dup2\n      0x00\n      add\n      sstore\n      0x20\n      dup3\n      add\n      mload\n      dup2\n      0x01\n      add\n      exp(0x0100, 0x00)\n      dup2\n      sload\n      dup2\n      0xffffffffffffffffffffffffffffffffffffffff\n      mul\n      not\n      and\n      swap1\n      dup4\n      0xffffffffffffffffffffffffffffffffffffffff\n      and\n      mul\n      or\n      swap1\n      sstore\n      pop\n      0x40\n      dup3\n      add\n      mload\n      dup2\n      0x02\n      add\n      swap1\n      dup2\n      tag_160\n      swap2\n      swap1\n      tag_161\n      jump\t// in\n    tag_160:\n      pop\n      0x60\n      dup3\n      add\n      mload\n      dup2\n      0x03\n      add\n      swap1\n      dup2\n      tag_162\n      swap2\n      swap1\n      tag_161\n      jump\t// in\n    tag_162:\n      pop\n      0x80\n      dup3\n      add\n      mload\n      dup2\n      0x04\n      add\n      swap1\n      dup2\n      tag_163\n      swap2\n      swap1\n      tag_161\n      jump\t// in\n    tag_163:\n      pop\n      0xa0\n      dup3\n      add\n      mload\n      dup2\n      0x05\n      add\n      sstore\n      0xc0\n      dup3\n      add\n      mload\n      dup2\n      0x06\n      add\n      sstore\n      0xe0\n      dup3\n      add\n      mload\n      dup2\n      0x07\n      add\n      sstore\n      0x0100\n      dup3\n      add\n      mload\n      dup2\n      0x08\n      add\n      sstore\n      0x0120\n      dup3\n      add\n      mload\n      dup2\n      0x09\n      add\n      sstore\n      0x0140\n      dup3\n      add\n      mload\n      dup2\n      0x0a\n      add\n      exp(0x0100, 0x00)\n      dup2\n      sload\n      dup2\n      0xff\n      mul\n      not\n      and\n      swap1\n      dup4\n      0x05\n      dup2\n      gt\n      iszero\n      tag_164\n      jumpi\n      tag_165\n      tag_156\n      jump\t// in\n    tag_165:\n    tag_164:\n      mul\n      or\n      swap1\n      sstore\n      pop\n      0x0160\n      dup3\n      add\n      mload\n      dup2\n      0x0b\n      add\n      swap1\n      dup2\n      tag_166\n      swap2\n      swap1\n      tag_161\n      jump\t// in\n    tag_166:\n      pop\n      0x0180\n      dup3\n      add\n      mload\n      dup2\n      0x0c\n      add\n      exp(0x0100, 0x00)\n      dup2\n      sload\n      dup2\n      0xff\n      mul\n      not\n      and\n      swap1\n      dup4\n      iszero\n      iszero\n      mul\n      or\n      swap1\n      sstore\n      pop\n      0x01a0\n      dup3\n      add\n      mload\n      dup2\n      0x0d\n      add\n      swap1\n      dup2\n      tag_167\n      swap2\n      swap1\n      tag_161\n      jump\t// in\n    tag_167:\n      pop\n      pop\n      pop\n        /* \"src/contracts/NewGenesisMaster.sol\":3453:3457  true */\n      0x01\n        /* \"src/contracts/NewGenesisMaster.sol\":3424:3436  projectExist */\n      0x0c\n        /* \"src/contracts/NewGenesisMaster.sol\":3424:3450  projectExist[projectCount] */\n      0x00\n        /* \"src/contracts/NewGenesisMaster.sol\":3437:3449  projectCount */\n      sload(0x02)\n        /* \"src/contracts/NewGenesisMaster.sol\":3424:3450  projectExist[projectCount] */\n      dup2\n      mstore\n      0x20\n      add\n      swap1\n      dup2\n      mstore\n      0x20\n      add\n      0x00\n      keccak256\n      0x00\n        /* \"src/contracts/NewGenesisMaster.sol\":3424:3457  projectExist[projectCount] = true */\n      0x0100\n      exp\n      dup2\n      sload\n      dup2\n      0xff\n      mul\n      not\n      and\n      swap1\n      dup4\n      iszero\n      iszero\n      mul\n      or\n      swap1\n      sstore\n      pop\n        /* \"src/contracts/NewGenesisMaster.sol\":3468:3478  projectsOf */\n      0x0a\n        /* \"src/contracts/NewGenesisMaster.sol\":3468:3490  projectsOf[msg.sender] */\n      0x00\n        /* \"src/contracts/NewGenesisMaster.sol\":3479:3489  msg.sender */\n      caller\n        /* \"src/contracts/NewGenesisMaster.sol\":3468:3490  projectsOf[msg.sender] */\n      0xffffffffffffffffffffffffffffffffffffffff\n      and\n      0xffffffffffffffffffffffffffffffffffffffff\n      and\n      dup2\n      mstore\n      0x20\n      add\n      swap1\n      dup2\n      mstore\n      0x20\n      add\n      0x00\n      keccak256\n        /* \"src/contracts/NewGenesisMaster.sol\":3496:3503  project */\n      dup2\n        /* \"src/contracts/NewGenesisMaster.sol\":3468:3504  projectsOf[msg.sender].push(project) */\n      swap1\n      dup1\n      0x01\n      dup2\n      sload\n      add\n      dup1\n      dup3\n      sstore\n      dup1\n      swap2\n      pop\n      pop\n      0x01\n      swap1\n      sub\n      swap1\n      0x00\n      mstore\n      keccak256(0x00, 0x20)\n      swap1\n      0x0e\n      mul\n      add\n      0x00\n      swap1\n      swap2\n      swap1\n      swap2\n      swap1\n      swap2\n      pop\n      0x00\n      dup3\n      add\n      mload\n      dup2\n      0x00\n      add\n      sstore\n      0x20\n      dup3\n      add\n      mload\n      dup2\n      0x01\n      add\n      exp(0x0100, 0x00)\n      dup2\n      sload\n      dup2\n      0xffffffffffffffffffffffffffffffffffffffff\n      mul\n      not\n      and\n      swap1\n      dup4\n      0xffffffffffffffffffffffffffffffffffffffff\n      and\n      mul\n      or\n      swap1\n      sstore\n      pop\n      0x40\n      dup3\n      add\n      mload\n      dup2\n      0x02\n      add\n      swap1\n      dup2\n      tag_169\n      swap2\n      swap1\n      tag_161\n      jump\t// in\n    tag_169:\n      pop\n      0x60\n      dup3\n      add\n      mload\n      dup2\n      0x03\n      add\n      swap1\n      dup2\n      tag_170\n      swap2\n      swap1\n      tag_161\n      jump\t// in\n    tag_170:\n      pop\n      0x80\n      dup3\n      add\n      mload\n      dup2\n      0x04\n      add\n      swap1\n      dup2\n      tag_171\n      swap2\n      swap1\n      tag_161\n      jump\t// in\n    tag_171:\n      pop\n      0xa0\n      dup3\n      add\n      mload\n      dup2\n      0x05\n      add\n      sstore\n      0xc0\n      dup3\n      add\n      mload\n      dup2\n      0x06\n      add\n      sstore\n      0xe0\n      dup3\n      add\n      mload\n      dup2\n      0x07\n      add\n      sstore\n      0x0100\n      dup3\n      add\n      mload\n      dup2\n      0x08\n      add\n      sstore\n      0x0120\n      dup3\n      add\n      mload\n      dup2\n      0x09\n      add\n      sstore\n      0x0140\n      dup3\n      add\n      mload\n      dup2\n      0x0a\n      add\n      exp(0x0100, 0x00)\n      dup2\n      sload\n      dup2\n      0xff\n      mul\n      not\n      and\n      swap1\n      dup4\n      0x05\n      dup2\n      gt\n      iszero\n      tag_172\n      jumpi\n      tag_173\n      tag_156\n      jump\t// in\n    tag_173:\n    tag_172:\n      mul\n      or\n      swap1\n      sstore\n      pop\n      0x0160\n      dup3\n      add\n      mload\n      dup2\n      0x0b\n      add\n      swap1\n      dup2\n      tag_174\n      swap2\n      swap1\n      tag_161\n      jump\t// in\n    tag_174:\n      pop\n      0x0180\n      dup3\n      add\n      mload\n      dup2\n      0x0c\n      add\n      exp(0x0100, 0x00)\n      dup2\n      sload\n      dup2\n      0xff\n      mul\n      not\n      and\n      swap1\n      dup4\n      iszero\n      iszero\n      mul\n      or\n      swap1\n      sstore\n      pop\n      0x01a0\n      dup3\n      add\n      mload\n      dup2\n      0x0d\n      add\n      swap1\n      dup2\n      tag_175\n      swap2\n      swap1\n      tag_161\n      jump\t// in\n    tag_175:\n      pop\n      pop\n      pop\n        /* \"src/contracts/NewGenesisMaster.sol\":3538:3539  1 */\n      0x01\n        /* \"src/contracts/NewGenesisMaster.sol\":3515:3520  stats */\n      0x04\n        /* \"src/contracts/NewGenesisMaster.sol\":3515:3534  stats.totalProjects */\n      0x00\n      add\n      0x00\n        /* \"src/contracts/NewGenesisMaster.sol\":3515:3539  stats.totalProjects += 1 */\n      dup3\n      dup3\n      sload\n      tag_176\n      swap2\n      swap1\n      tag_177\n      jump\t// in\n    tag_176:\n      swap3\n      pop\n      pop\n      dup2\n      swap1\n      sstore\n      pop\n        /* \"src/contracts/NewGenesisMaster.sol\":3580:3581  1 */\n      0x01\n        /* \"src/contracts/NewGenesisMaster.sol\":3550:3555  stats */\n      0x04\n        /* \"src/contracts/NewGenesisMaster.sol\":3550:3576  stats.nonValidatedProjects */\n      dup1\n      add\n      0x00\n        /* \"src/contracts/NewGenesisMaster.sol\":3550:3581  stats.nonValidatedProjects += 1 */\n      dup3\n      dup3\n      sload\n      tag_178\n      swap2\n      swap1\n      tag_177\n      jump\t// in\n    tag_178:\n      swap3\n      pop\n      pop\n      dup2\n      swap1\n      sstore\n      pop\n        /* \"src/contracts/NewGenesisMaster.sol\":3681:3691  msg.sender */\n      caller\n        /* \"src/contracts/NewGenesisMaster.sol\":3599:3732  Action(... */\n      0xffffffffffffffffffffffffffffffffffffffff\n      and\n      0xaee8e5d3bbb2f71a951b5632cee20f7ac487b9f8ab4f66a236f7694b13af7c6a\n        /* \"src/contracts/NewGenesisMaster.sol\":3620:3632  projectCount */\n      0x02\n      0x00\n        /* \"src/contracts/NewGenesisMaster.sol\":3620:3634  projectCount++ */\n      dup2\n      sload\n      dup1\n      swap3\n      swap2\n      swap1\n      tag_179\n      swap1\n      tag_180\n      jump\t// in\n    tag_179:\n      swap2\n      swap1\n      pop\n      sstore\n        /* \"src/contracts/NewGenesisMaster.sol\":3706:3721  block.timestamp */\n      timestamp\n        /* \"src/contracts/NewGenesisMaster.sol\":3599:3732  Action(... */\n      mload(0x40)\n      tag_181\n      swap3\n      swap2\n      swap1\n      tag_182\n      jump\t// in\n    tag_181:\n      mload(0x40)\n      dup1\n      swap2\n      sub\n      swap1\n      log2\n        /* \"src/contracts/NewGenesisMaster.sol\":3750:3754  true */\n      0x01\n        /* \"src/contracts/NewGenesisMaster.sol\":3743:3754  return true */\n      swap2\n      pop\n      pop\n        /* \"src/contracts/NewGenesisMaster.sol\":2262:3762  function createProject(... */\n      swap7\n      swap6\n      pop\n      pop\n      pop\n      pop\n      pop\n      pop\n      jump\t// out\n        /* \"src/contracts/NewGenesisMaster.sol\":149:173  uint public projectCount */\n    tag_41:\n      sload(0x02)\n      dup2\n      jump\t// out\n        /* \"src/contracts/NewGenesisMaster.sol\":8810:8899  function changeTax(uint _taxPct) public ownerOnly {... */\n    tag_48:\n        /* \"src/contracts/NewGenesisMaster.sol\":1429:1434  owner */\n      0x00\n      dup1\n      sload\n      swap1\n      0x0100\n      exp\n      swap1\n      div\n      0xffffffffffffffffffffffffffffffffffffffff\n      and\n        /* \"src/contracts/NewGenesisMaster.sol\":1415:1434  msg.sender == owner */\n      0xffffffffffffffffffffffffffffffffffffffff\n      and\n        /* \"src/contracts/NewGenesisMaster.sol\":1415:1425  msg.sender */\n      caller\n        /* \"src/contracts/NewGenesisMaster.sol\":1415:1434  msg.sender == owner */\n      0xffffffffffffffffffffffffffffffffffffffff\n      and\n      eq\n        /* \"src/contracts/NewGenesisMaster.sol\":1407:1458  require(msg.sender == owner, \"Owner reserved only\") */\n      tag_184\n      jumpi\n      mload(0x40)\n      0x08c379a000000000000000000000000000000000000000000000000000000000\n      dup2\n      mstore\n      0x04\n      add\n      tag_185\n      swap1\n      tag_186\n      jump\t// in\n    tag_185:\n      mload(0x40)\n      dup1\n      swap2\n      sub\n      swap1\n      revert\n    tag_184:\n        /* \"src/contracts/NewGenesisMaster.sol\":8884:8891  _taxPct */\n      dup1\n        /* \"src/contracts/NewGenesisMaster.sol\":8871:8881  projectTax */\n      0x01\n        /* \"src/contracts/NewGenesisMaster.sol\":8871:8891  projectTax = _taxPct */\n      dup2\n      swap1\n      sstore\n      pop\n        /* \"src/contracts/NewGenesisMaster.sol\":8810:8899  function changeTax(uint _taxPct) public ownerOnly {... */\n      pop\n      jump\t// out\n        /* \"src/contracts/NewGenesisMaster.sol\":5443:5884  function deleteProject(uint id) public returns (bool) {... */\n    tag_52:\n        /* \"src/contracts/NewGenesisMaster.sol\":5491:5495  bool */\n      0x00\n        /* \"src/contracts/NewGenesisMaster.sol\":5553:5568  statusEnum.OPEN */\n      0x01\n        /* \"src/contracts/NewGenesisMaster.sol\":5530:5568  projects[id].status == statusEnum.OPEN */\n      0x05\n      dup2\n      gt\n      iszero\n      tag_189\n      jumpi\n      tag_190\n      tag_156\n      jump\t// in\n    tag_190:\n    tag_189:\n        /* \"src/contracts/NewGenesisMaster.sol\":5530:5538  projects */\n      0x09\n        /* \"src/contracts/NewGenesisMaster.sol\":5539:5541  id */\n      dup4\n        /* \"src/contracts/NewGenesisMaster.sol\":5530:5542  projects[id] */\n      dup2\n      sload\n      dup2\n      lt\n      tag_191\n      jumpi\n      tag_192\n      tag_193\n      jump\t// in\n    tag_192:\n    tag_191:\n      swap1\n      0x00\n      mstore\n      keccak256(0x00, 0x20)\n      swap1\n      0x0e\n      mul\n      add\n        /* \"src/contracts/NewGenesisMaster.sol\":5530:5549  projects[id].status */\n      0x0a\n      add\n      0x00\n      swap1\n      sload\n      swap1\n      0x0100\n      exp\n      swap1\n      div\n      0xff\n      and\n        /* \"src/contracts/NewGenesisMaster.sol\":5530:5568  projects[id].status == statusEnum.OPEN */\n      0x05\n      dup2\n      gt\n      iszero\n      tag_195\n      jumpi\n      tag_196\n      tag_156\n      jump\t// in\n    tag_196:\n    tag_195:\n      eq\n        /* \"src/contracts/NewGenesisMaster.sol\":5508:5620  require(... */\n      tag_197\n      jumpi\n      mload(0x40)\n      0x08c379a000000000000000000000000000000000000000000000000000000000\n      dup2\n      mstore\n      0x04\n      add\n      tag_198\n      swap1\n      tag_199\n      jump\t// in\n    tag_198:\n      mload(0x40)\n      dup1\n      swap2\n      sub\n      swap1\n      revert\n    tag_197:\n        /* \"src/contracts/NewGenesisMaster.sol\":5653:5661  projects */\n      0x09\n        /* \"src/contracts/NewGenesisMaster.sol\":5662:5664  id */\n      dup3\n        /* \"src/contracts/NewGenesisMaster.sol\":5653:5665  projects[id] */\n      dup2\n      sload\n      dup2\n      lt\n      tag_200\n      jumpi\n      tag_201\n      tag_193\n      jump\t// in\n    tag_201:\n    tag_200:\n      swap1\n      0x00\n      mstore\n      keccak256(0x00, 0x20)\n      swap1\n      0x0e\n      mul\n      add\n        /* \"src/contracts/NewGenesisMaster.sol\":5653:5671  projects[id].owner */\n      0x01\n      add\n      0x00\n      swap1\n      sload\n      swap1\n      0x0100\n      exp\n      swap1\n      div\n      0xffffffffffffffffffffffffffffffffffffffff\n      and\n        /* \"src/contracts/NewGenesisMaster.sol\":5639:5671  msg.sender == projects[id].owner */\n      0xffffffffffffffffffffffffffffffffffffffff\n      and\n        /* \"src/contracts/NewGenesisMaster.sol\":5639:5649  msg.sender */\n      caller\n        /* \"src/contracts/NewGenesisMaster.sol\":5639:5671  msg.sender == projects[id].owner */\n      0xffffffffffffffffffffffffffffffffffffffff\n      and\n      eq\n        /* \"src/contracts/NewGenesisMaster.sol\":5631:5695  require(msg.sender == projects[id].owner, \"Unauthorized Entity\") */\n      tag_203\n      jumpi\n      mload(0x40)\n      0x08c379a000000000000000000000000000000000000000000000000000000000\n      dup2\n      mstore\n      0x04\n      add\n      tag_204\n      swap1\n      tag_205\n      jump\t// in\n    tag_204:\n      mload(0x40)\n      dup1\n      swap2\n      sub\n      swap1\n      revert\n    tag_203:\n        /* \"src/contracts/NewGenesisMaster.sol\":5730:5748  statusEnum.DELETED */\n      0x04\n        /* \"src/contracts/NewGenesisMaster.sol\":5708:5716  projects */\n      0x09\n        /* \"src/contracts/NewGenesisMaster.sol\":5717:5719  id */\n      dup4\n        /* \"src/contracts/NewGenesisMaster.sol\":5708:5720  projects[id] */\n      dup2\n      sload\n      dup2\n      lt\n      tag_206\n      jumpi\n      tag_207\n      tag_193\n      jump\t// in\n    tag_207:\n    tag_206:\n      swap1\n      0x00\n      mstore\n      keccak256(0x00, 0x20)\n      swap1\n      0x0e\n      mul\n      add\n        /* \"src/contracts/NewGenesisMaster.sol\":5708:5727  projects[id].status */\n      0x0a\n      add\n      0x00\n        /* \"src/contracts/NewGenesisMaster.sol\":5708:5748  projects[id].status = statusEnum.DELETED */\n      0x0100\n      exp\n      dup2\n      sload\n      dup2\n      0xff\n      mul\n      not\n      and\n      swap1\n      dup4\n      0x05\n      dup2\n      gt\n      iszero\n      tag_209\n      jumpi\n      tag_210\n      tag_156\n      jump\t// in\n    tag_210:\n    tag_209:\n      mul\n      or\n      swap1\n      sstore\n      pop\n        /* \"src/contracts/NewGenesisMaster.sol\":5759:5776  performRefund(id) */\n      tag_211\n        /* \"src/contracts/NewGenesisMaster.sol\":5773:5775  id */\n      dup3\n        /* \"src/contracts/NewGenesisMaster.sol\":5759:5772  performRefund */\n      tag_212\n        /* \"src/contracts/NewGenesisMaster.sol\":5759:5776  performRefund(id) */\n      jump\t// in\n    tag_211:\n        /* \"src/contracts/NewGenesisMaster.sol\":5824:5834  msg.sender */\n      caller\n        /* \"src/contracts/NewGenesisMaster.sol\":5794:5852  Action(id, \"PROJECT DELETED\", msg.sender, block.timestamp) */\n      0xffffffffffffffffffffffffffffffffffffffff\n      and\n      0xaee8e5d3bbb2f71a951b5632cee20f7ac487b9f8ab4f66a236f7694b13af7c6a\n        /* \"src/contracts/NewGenesisMaster.sol\":5801:5803  id */\n      dup4\n        /* \"src/contracts/NewGenesisMaster.sol\":5836:5851  block.timestamp */\n      timestamp\n        /* \"src/contracts/NewGenesisMaster.sol\":5794:5852  Action(id, \"PROJECT DELETED\", msg.sender, block.timestamp) */\n      mload(0x40)\n      tag_213\n      swap3\n      swap2\n      swap1\n      tag_214\n      jump\t// in\n    tag_213:\n      mload(0x40)\n      dup1\n      swap2\n      sub\n      swap1\n      log2\n        /* \"src/contracts/NewGenesisMaster.sol\":5872:5876  true */\n      0x01\n        /* \"src/contracts/NewGenesisMaster.sol\":5865:5876  return true */\n      swap1\n      pop\n        /* \"src/contracts/NewGenesisMaster.sol\":5443:5884  function deleteProject(uint id) public returns (bool) {... */\n      swap2\n      swap1\n      pop\n      jump\t// out\n        /* \"src/contracts/NewGenesisMaster.sol\":4520:5435  function updateProject(... */\n    tag_58:\n        /* \"src/contracts/NewGenesisMaster.sol\":4739:4743  bool */\n      0x00\n        /* \"src/contracts/NewGenesisMaster.sol\":4778:4786  projects */\n      0x09\n        /* \"src/contracts/NewGenesisMaster.sol\":4787:4789  id */\n      dup8\n        /* \"src/contracts/NewGenesisMaster.sol\":4778:4790  projects[id] */\n      dup2\n      sload\n      dup2\n      lt\n      tag_216\n      jumpi\n      tag_217\n      tag_193\n      jump\t// in\n    tag_217:\n    tag_216:\n      swap1\n      0x00\n      mstore\n      keccak256(0x00, 0x20)\n      swap1\n      0x0e\n      mul\n      add\n        /* \"src/contracts/NewGenesisMaster.sol\":4778:4796  projects[id].owner */\n      0x01\n      add\n      0x00\n      swap1\n      sload\n      swap1\n      0x0100\n      exp\n      swap1\n      div\n      0xffffffffffffffffffffffffffffffffffffffff\n      and\n        /* \"src/contracts/NewGenesisMaster.sol\":4764:4796  msg.sender == projects[id].owner */\n      0xffffffffffffffffffffffffffffffffffffffff\n      and\n        /* \"src/contracts/NewGenesisMaster.sol\":4764:4774  msg.sender */\n      caller\n        /* \"src/contracts/NewGenesisMaster.sol\":4764:4796  msg.sender == projects[id].owner */\n      0xffffffffffffffffffffffffffffffffffffffff\n      and\n      eq\n        /* \"src/contracts/NewGenesisMaster.sol\":4756:4820  require(msg.sender == projects[id].owner, \"Unauthorized Entity\") */\n      tag_219\n      jumpi\n      mload(0x40)\n      0x08c379a000000000000000000000000000000000000000000000000000000000\n      dup2\n      mstore\n      0x04\n      add\n      tag_220\n      swap1\n      tag_205\n      jump\t// in\n    tag_220:\n      mload(0x40)\n      dup1\n      swap2\n      sub\n      swap1\n      revert\n    tag_219:\n        /* \"src/contracts/NewGenesisMaster.sol\":4861:4862  0 */\n      0x00\n        /* \"src/contracts/NewGenesisMaster.sol\":4845:4850  title */\n      dup7\n        /* \"src/contracts/NewGenesisMaster.sol\":4839:4858  bytes(title).length */\n      mload\n        /* \"src/contracts/NewGenesisMaster.sol\":4839:4862  bytes(title).length > 0 */\n      gt\n        /* \"src/contracts/NewGenesisMaster.sol\":4831:4888  require(bytes(title).length > 0, \"Title cannot be empty\") */\n      tag_221\n      jumpi\n      mload(0x40)\n      0x08c379a000000000000000000000000000000000000000000000000000000000\n      dup2\n      mstore\n      0x04\n      add\n      tag_222\n      swap1\n      tag_139\n      jump\t// in\n    tag_222:\n      mload(0x40)\n      dup1\n      swap2\n      sub\n      swap1\n      revert\n    tag_221:\n        /* \"src/contracts/NewGenesisMaster.sol\":4935:4936  0 */\n      0x00\n        /* \"src/contracts/NewGenesisMaster.sol\":4913:4924  description */\n      dup6\n        /* \"src/contracts/NewGenesisMaster.sol\":4907:4932  bytes(description).length */\n      mload\n        /* \"src/contracts/NewGenesisMaster.sol\":4907:4936  bytes(description).length > 0 */\n      gt\n        /* \"src/contracts/NewGenesisMaster.sol\":4899:4968  require(bytes(description).length > 0, \"Description cannot be empty\") */\n      tag_223\n      jumpi\n      mload(0x40)\n      0x08c379a000000000000000000000000000000000000000000000000000000000\n      dup2\n      mstore\n      0x04\n      add\n      tag_224\n      swap1\n      tag_142\n      jump\t// in\n    tag_224:\n      mload(0x40)\n      dup1\n      swap2\n      sub\n      swap1\n      revert\n    tag_223:\n        /* \"src/contracts/NewGenesisMaster.sol\":5012:5013  0 */\n      0x00\n        /* \"src/contracts/NewGenesisMaster.sol\":4993:5001  imageURL */\n      dup5\n        /* \"src/contracts/NewGenesisMaster.sol\":4987:5009  bytes(imageURL).length */\n      mload\n        /* \"src/contracts/NewGenesisMaster.sol\":4987:5013  bytes(imageURL).length > 0 */\n      gt\n        /* \"src/contracts/NewGenesisMaster.sol\":4979:5042  require(bytes(imageURL).length > 0, \"ImageURL cannot be empty\") */\n      tag_225\n      jumpi\n      mload(0x40)\n      0x08c379a000000000000000000000000000000000000000000000000000000000\n      dup2\n      mstore\n      0x04\n      add\n      tag_226\n      swap1\n      tag_145\n      jump\t// in\n    tag_226:\n      mload(0x40)\n      dup1\n      swap2\n      sub\n      swap1\n      revert\n    tag_225:\n        /* \"src/contracts/NewGenesisMaster.sol\":5084:5085  0 */\n      0x00\n        /* \"src/contracts/NewGenesisMaster.sol\":5067:5073  Syarat */\n      dup3\n        /* \"src/contracts/NewGenesisMaster.sol\":5061:5081  bytes(Syarat).length */\n      mload\n        /* \"src/contracts/NewGenesisMaster.sol\":5061:5085  bytes(Syarat).length > 0 */\n      gt\n        /* \"src/contracts/NewGenesisMaster.sol\":5053:5112  require(bytes(Syarat).length > 0, \"Syarat cannot be empty\") */\n      tag_227\n      jumpi\n      mload(0x40)\n      0x08c379a000000000000000000000000000000000000000000000000000000000\n      dup2\n      mstore\n      0x04\n      add\n      tag_228\n      swap1\n      tag_229\n      jump\t// in\n    tag_228:\n      mload(0x40)\n      dup1\n      swap2\n      sub\n      swap1\n      revert\n    tag_227:\n        /* \"src/contracts/NewGenesisMaster.sol\":5146:5151  title */\n      dup6\n        /* \"src/contracts/NewGenesisMaster.sol\":5125:5133  projects */\n      0x09\n        /* \"src/contracts/NewGenesisMaster.sol\":5134:5136  id */\n      dup9\n        /* \"src/contracts/NewGenesisMaster.sol\":5125:5137  projects[id] */\n      dup2\n      sload\n      dup2\n      lt\n      tag_230\n      jumpi\n      tag_231\n      tag_193\n      jump\t// in\n    tag_231:\n    tag_230:\n      swap1\n      0x00\n      mstore\n      keccak256(0x00, 0x20)\n      swap1\n      0x0e\n      mul\n      add\n        /* \"src/contracts/NewGenesisMaster.sol\":5125:5143  projects[id].title */\n      0x02\n      add\n        /* \"src/contracts/NewGenesisMaster.sol\":5125:5151  projects[id].title = title */\n      swap1\n      dup2\n      tag_233\n      swap2\n      swap1\n      tag_161\n      jump\t// in\n    tag_233:\n      pop\n        /* \"src/contracts/NewGenesisMaster.sol\":5189:5200  description */\n      dup5\n        /* \"src/contracts/NewGenesisMaster.sol\":5162:5170  projects */\n      0x09\n        /* \"src/contracts/NewGenesisMaster.sol\":5171:5173  id */\n      dup9\n        /* \"src/contracts/NewGenesisMaster.sol\":5162:5174  projects[id] */\n      dup2\n      sload\n      dup2\n      lt\n      tag_234\n      jumpi\n      tag_235\n      tag_193\n      jump\t// in\n    tag_235:\n    tag_234:\n      swap1\n      0x00\n      mstore\n      keccak256(0x00, 0x20)\n      swap1\n      0x0e\n      mul\n      add\n        /* \"src/contracts/NewGenesisMaster.sol\":5162:5186  projects[id].description */\n      0x03\n      add\n        /* \"src/contracts/NewGenesisMaster.sol\":5162:5200  projects[id].description = description */\n      swap1\n      dup2\n      tag_237\n      swap2\n      swap1\n      tag_161\n      jump\t// in\n    tag_237:\n      pop\n        /* \"src/contracts/NewGenesisMaster.sol\":5235:5243  imageURL */\n      dup4\n        /* \"src/contracts/NewGenesisMaster.sol\":5211:5219  projects */\n      0x09\n        /* \"src/contracts/NewGenesisMaster.sol\":5220:5222  id */\n      dup9\n        /* \"src/contracts/NewGenesisMaster.sol\":5211:5223  projects[id] */\n      dup2\n      sload\n      dup2\n      lt\n      tag_238\n      jumpi\n      tag_239\n      tag_193\n      jump\t// in\n    tag_239:\n    tag_238:\n      swap1\n      0x00\n      mstore\n      keccak256(0x00, 0x20)\n      swap1\n      0x0e\n      mul\n      add\n        /* \"src/contracts/NewGenesisMaster.sol\":5211:5232  projects[id].imageURL */\n      0x04\n      add\n        /* \"src/contracts/NewGenesisMaster.sol\":5211:5243  projects[id].imageURL = imageURL */\n      swap1\n      dup2\n      tag_241\n      swap2\n      swap1\n      tag_161\n      jump\t// in\n    tag_241:\n      pop\n        /* \"src/contracts/NewGenesisMaster.sol\":5279:5288  expiresAt */\n      dup3\n        /* \"src/contracts/NewGenesisMaster.sol\":5254:5262  projects */\n      0x09\n        /* \"src/contracts/NewGenesisMaster.sol\":5263:5265  id */\n      dup9\n        /* \"src/contracts/NewGenesisMaster.sol\":5254:5266  projects[id] */\n      dup2\n      sload\n      dup2\n      lt\n      tag_242\n      jumpi\n      tag_243\n      tag_193\n      jump\t// in\n    tag_243:\n    tag_242:\n      swap1\n      0x00\n      mstore\n      keccak256(0x00, 0x20)\n      swap1\n      0x0e\n      mul\n      add\n        /* \"src/contracts/NewGenesisMaster.sol\":5254:5276  projects[id].expiresAt */\n      0x08\n      add\n        /* \"src/contracts/NewGenesisMaster.sol\":5254:5288  projects[id].expiresAt = expiresAt */\n      dup2\n      swap1\n      sstore\n      pop\n        /* \"src/contracts/NewGenesisMaster.sol\":5321:5327  Syarat */\n      dup2\n        /* \"src/contracts/NewGenesisMaster.sol\":5299:5307  projects */\n      0x09\n        /* \"src/contracts/NewGenesisMaster.sol\":5308:5310  id */\n      dup9\n        /* \"src/contracts/NewGenesisMaster.sol\":5299:5311  projects[id] */\n      dup2\n      sload\n      dup2\n      lt\n      tag_245\n      jumpi\n      tag_246\n      tag_193\n      jump\t// in\n    tag_246:\n    tag_245:\n      swap1\n      0x00\n      mstore\n      keccak256(0x00, 0x20)\n      swap1\n      0x0e\n      mul\n      add\n        /* \"src/contracts/NewGenesisMaster.sol\":5299:5318  projects[id].Syarat */\n      0x0b\n      add\n        /* \"src/contracts/NewGenesisMaster.sol\":5299:5327  projects[id].Syarat = Syarat */\n      swap1\n      dup2\n      tag_248\n      swap2\n      swap1\n      tag_161\n      jump\t// in\n    tag_248:\n      pop\n        /* \"src/contracts/NewGenesisMaster.sol\":5375:5385  msg.sender */\n      caller\n        /* \"src/contracts/NewGenesisMaster.sol\":5345:5403  Action(id, \"PROJECT UPDATED\", msg.sender, block.timestamp) */\n      0xffffffffffffffffffffffffffffffffffffffff\n      and\n      0xaee8e5d3bbb2f71a951b5632cee20f7ac487b9f8ab4f66a236f7694b13af7c6a\n        /* \"src/contracts/NewGenesisMaster.sol\":5352:5354  id */\n      dup9\n        /* \"src/contracts/NewGenesisMaster.sol\":5387:5402  block.timestamp */\n      timestamp\n        /* \"src/contracts/NewGenesisMaster.sol\":5345:5403  Action(id, \"PROJECT UPDATED\", msg.sender, block.timestamp) */\n      mload(0x40)\n      tag_249\n      swap3\n      swap2\n      swap1\n      tag_250\n      jump\t// in\n    tag_249:\n      mload(0x40)\n      dup1\n      swap2\n      sub\n      swap1\n      log2\n        /* \"src/contracts/NewGenesisMaster.sol\":5423:5427  true */\n      0x01\n        /* \"src/contracts/NewGenesisMaster.sol\":5416:5427  return true */\n      swap1\n      pop\n        /* \"src/contracts/NewGenesisMaster.sol\":4520:5435  function updateProject(... */\n      swap7\n      swap6\n      pop\n      pop\n      pop\n      pop\n      pop\n      pop\n      jump\t// out\n        /* \"src/contracts/NewGenesisMaster.sol\":1912:2254  function registerValidator(address _validator, string memory _name)... */\n    tag_64:\n        /* \"src/contracts/NewGenesisMaster.sol\":2042:2043  0 */\n      0x00\n        /* \"src/contracts/NewGenesisMaster.sol\":2020:2044  _validator != address(0) */\n      0xffffffffffffffffffffffffffffffffffffffff\n      and\n        /* \"src/contracts/NewGenesisMaster.sol\":2020:2030  _validator */\n      dup3\n        /* \"src/contracts/NewGenesisMaster.sol\":2020:2044  _validator != address(0) */\n      0xffffffffffffffffffffffffffffffffffffffff\n      and\n      sub\n        /* \"src/contracts/NewGenesisMaster.sol\":2012:2082  require(_validator != address(0), \"Validator address cannot be empty\") */\n      tag_252\n      jumpi\n      mload(0x40)\n      0x08c379a000000000000000000000000000000000000000000000000000000000\n      dup2\n      mstore\n      0x04\n      add\n      tag_253\n      swap1\n      tag_254\n      jump\t// in\n    tag_253:\n      mload(0x40)\n      dup1\n      swap2\n      sub\n      swap1\n      revert\n    tag_252:\n        /* \"src/contracts/NewGenesisMaster.sol\":2123:2124  0 */\n      0x00\n        /* \"src/contracts/NewGenesisMaster.sol\":2107:2112  _name */\n      dup2\n        /* \"src/contracts/NewGenesisMaster.sol\":2101:2120  bytes(_name).length */\n      mload\n        /* \"src/contracts/NewGenesisMaster.sol\":2101:2124  bytes(_name).length > 0 */\n      gt\n        /* \"src/contracts/NewGenesisMaster.sol\":2093:2159  require(bytes(_name).length > 0, \"Validator Name cannot be empty\") */\n      tag_255\n      jumpi\n      mload(0x40)\n      0x08c379a000000000000000000000000000000000000000000000000000000000\n      dup2\n      mstore\n      0x04\n      add\n      tag_256\n      swap1\n      tag_257\n      jump\t// in\n    tag_256:\n      mload(0x40)\n      dup1\n      swap2\n      sub\n      swap1\n      revert\n    tag_255:\n        /* \"src/contracts/NewGenesisMaster.sol\":2197:2201  true */\n      0x01\n        /* \"src/contracts/NewGenesisMaster.sol\":2172:2182  validators */\n      0x0d\n        /* \"src/contracts/NewGenesisMaster.sol\":2172:2194  validators[_validator] */\n      0x00\n        /* \"src/contracts/NewGenesisMaster.sol\":2183:2193  _validator */\n      dup5\n        /* \"src/contracts/NewGenesisMaster.sol\":2172:2194  validators[_validator] */\n      0xffffffffffffffffffffffffffffffffffffffff\n      and\n      0xffffffffffffffffffffffffffffffffffffffff\n      and\n      dup2\n      mstore\n      0x20\n      add\n      swap1\n      dup2\n      mstore\n      0x20\n      add\n      0x00\n      keccak256\n      0x00\n        /* \"src/contracts/NewGenesisMaster.sol\":2172:2201  validators[_validator] = true */\n      0x0100\n      exp\n      dup2\n      sload\n      dup2\n      0xff\n      mul\n      not\n      and\n      swap1\n      dup4\n      iszero\n      iszero\n      mul\n      or\n      swap1\n      sstore\n      pop\n        /* \"src/contracts/NewGenesisMaster.sol\":2241:2246  _name */\n      dup1\n        /* \"src/contracts/NewGenesisMaster.sol\":2212:2226  validatorNames */\n      0x0e\n        /* \"src/contracts/NewGenesisMaster.sol\":2212:2238  validatorNames[_validator] */\n      0x00\n        /* \"src/contracts/NewGenesisMaster.sol\":2227:2237  _validator */\n      dup5\n        /* \"src/contracts/NewGenesisMaster.sol\":2212:2238  validatorNames[_validator] */\n      0xffffffffffffffffffffffffffffffffffffffff\n      and\n      0xffffffffffffffffffffffffffffffffffffffff\n      and\n      dup2\n      mstore\n      0x20\n      add\n      swap1\n      dup2\n      mstore\n      0x20\n      add\n      0x00\n      keccak256\n        /* \"src/contracts/NewGenesisMaster.sol\":2212:2246  validatorNames[_validator] = _name */\n      swap1\n      dup2\n      tag_258\n      swap2\n      swap1\n      tag_161\n      jump\t// in\n    tag_258:\n      pop\n        /* \"src/contracts/NewGenesisMaster.sol\":1912:2254  function registerValidator(address _validator, string memory _name)... */\n      pop\n      pop\n      jump\t// out\n        /* \"src/contracts/NewGenesisMaster.sol\":3770:4512  function validateProject(... */\n    tag_69:\n        /* \"src/contracts/NewGenesisMaster.sol\":3894:3898  bool */\n      0x00\n        /* \"src/contracts/NewGenesisMaster.sol\":1544:1554  validators */\n      0x0d\n        /* \"src/contracts/NewGenesisMaster.sol\":1544:1566  validators[msg.sender] */\n      0x00\n        /* \"src/contracts/NewGenesisMaster.sol\":1555:1565  msg.sender */\n      caller\n        /* \"src/contracts/NewGenesisMaster.sol\":1544:1566  validators[msg.sender] */\n      0xffffffffffffffffffffffffffffffffffffffff\n      and\n      0xffffffffffffffffffffffffffffffffffffffff\n      and\n      dup2\n      mstore\n      0x20\n      add\n      swap1\n      dup2\n      mstore\n      0x20\n      add\n      0x00\n      keccak256\n      0x00\n      swap1\n      sload\n      swap1\n      0x0100\n      exp\n      swap1\n      div\n      0xff\n      and\n        /* \"src/contracts/NewGenesisMaster.sol\":1522:1634  require(... */\n      tag_260\n      jumpi\n      mload(0x40)\n      0x08c379a000000000000000000000000000000000000000000000000000000000\n      dup2\n      mstore\n      0x04\n      add\n      tag_261\n      swap1\n      tag_262\n      jump\t// in\n    tag_261:\n      mload(0x40)\n      dup1\n      swap2\n      sub\n      swap1\n      revert\n    tag_260:\n        /* \"src/contracts/NewGenesisMaster.sol\":3919:3931  projectExist */\n      0x0c\n        /* \"src/contracts/NewGenesisMaster.sol\":3919:3936  projectExist[_id] */\n      0x00\n        /* \"src/contracts/NewGenesisMaster.sol\":3932:3935  _id */\n      dup5\n        /* \"src/contracts/NewGenesisMaster.sol\":3919:3936  projectExist[_id] */\n      dup2\n      mstore\n      0x20\n      add\n      swap1\n      dup2\n      mstore\n      0x20\n      add\n      0x00\n      keccak256\n      0x00\n      swap1\n      sload\n      swap1\n      0x0100\n      exp\n      swap1\n      div\n      0xff\n      and\n        /* \"src/contracts/NewGenesisMaster.sol\":3911:3958  require(projectExist[_id], \"Project not found\") */\n      tag_264\n      jumpi\n      mload(0x40)\n      0x08c379a000000000000000000000000000000000000000000000000000000000\n      dup2\n      mstore\n      0x04\n      add\n      tag_265\n      swap1\n      tag_266\n      jump\t// in\n    tag_265:\n      mload(0x40)\n      dup1\n      swap2\n      sub\n      swap1\n      revert\n    tag_264:\n        /* \"src/contracts/NewGenesisMaster.sol\":3978:3986  projects */\n      0x09\n        /* \"src/contracts/NewGenesisMaster.sol\":3987:3990  _id */\n      dup4\n        /* \"src/contracts/NewGenesisMaster.sol\":3978:3991  projects[_id] */\n      dup2\n      sload\n      dup2\n      lt\n      tag_267\n      jumpi\n      tag_268\n      tag_193\n      jump\t// in\n    tag_268:\n    tag_267:\n      swap1\n      0x00\n      mstore\n      keccak256(0x00, 0x20)\n      swap1\n      0x0e\n      mul\n      add\n        /* \"src/contracts/NewGenesisMaster.sol\":3978:4001  projects[_id].validated */\n      0x0c\n      add\n      0x00\n      swap1\n      sload\n      swap1\n      0x0100\n      exp\n      swap1\n      div\n      0xff\n      and\n        /* \"src/contracts/NewGenesisMaster.sol\":3977:4001  !projects[_id].validated */\n      iszero\n        /* \"src/contracts/NewGenesisMaster.sol\":3969:4034  require(!projects[_id].validated, \"Project is Already Validated\") */\n      tag_270\n      jumpi\n      mload(0x40)\n      0x08c379a000000000000000000000000000000000000000000000000000000000\n      dup2\n      mstore\n      0x04\n      add\n      tag_271\n      swap1\n      tag_272\n      jump\t// in\n    tag_271:\n      mload(0x40)\n      dup1\n      swap2\n      sub\n      swap1\n      revert\n    tag_270:\n        /* \"src/contracts/NewGenesisMaster.sol\":4102:4103  0 */\n      0x00\n        /* \"src/contracts/NewGenesisMaster.sol\":4073:4091  _validationMessage */\n      dup3\n        /* \"src/contracts/NewGenesisMaster.sol\":4067:4099  bytes(_validationMessage).length */\n      mload\n        /* \"src/contracts/NewGenesisMaster.sol\":4067:4103  bytes(_validationMessage).length > 0 */\n      gt\n        /* \"src/contracts/NewGenesisMaster.sol\":4045:4165  require(... */\n      tag_273\n      jumpi\n      mload(0x40)\n      0x08c379a000000000000000000000000000000000000000000000000000000000\n      dup2\n      mstore\n      0x04\n      add\n      tag_274\n      swap1\n      tag_275\n      jump\t// in\n    tag_274:\n      mload(0x40)\n      dup1\n      swap2\n      sub\n      swap1\n      revert\n    tag_273:\n        /* \"src/contracts/NewGenesisMaster.sol\":4201:4216  statusEnum.OPEN */\n      0x01\n        /* \"src/contracts/NewGenesisMaster.sol\":4178:4186  projects */\n      0x09\n        /* \"src/contracts/NewGenesisMaster.sol\":4187:4190  _id */\n      dup5\n        /* \"src/contracts/NewGenesisMaster.sol\":4178:4191  projects[_id] */\n      dup2\n      sload\n      dup2\n      lt\n      tag_276\n      jumpi\n      tag_277\n      tag_193\n      jump\t// in\n    tag_277:\n    tag_276:\n      swap1\n      0x00\n      mstore\n      keccak256(0x00, 0x20)\n      swap1\n      0x0e\n      mul\n      add\n        /* \"src/contracts/NewGenesisMaster.sol\":4178:4198  projects[_id].status */\n      0x0a\n      add\n      0x00\n        /* \"src/contracts/NewGenesisMaster.sol\":4178:4216  projects[_id].status = statusEnum.OPEN */\n      0x0100\n      exp\n      dup2\n      sload\n      dup2\n      0xff\n      mul\n      not\n      and\n      swap1\n      dup4\n      0x05\n      dup2\n      gt\n      iszero\n      tag_279\n      jumpi\n      tag_280\n      tag_156\n      jump\t// in\n    tag_280:\n    tag_279:\n      mul\n      or\n      swap1\n      sstore\n      pop\n        /* \"src/contracts/NewGenesisMaster.sol\":4253:4257  true */\n      0x01\n        /* \"src/contracts/NewGenesisMaster.sol\":4227:4235  projects */\n      0x09\n        /* \"src/contracts/NewGenesisMaster.sol\":4236:4239  _id */\n      dup5\n        /* \"src/contracts/NewGenesisMaster.sol\":4227:4240  projects[_id] */\n      dup2\n      sload\n      dup2\n      lt\n      tag_281\n      jumpi\n      tag_282\n      tag_193\n      jump\t// in\n    tag_282:\n    tag_281:\n      swap1\n      0x00\n      mstore\n      keccak256(0x00, 0x20)\n      swap1\n      0x0e\n      mul\n      add\n        /* \"src/contracts/NewGenesisMaster.sol\":4227:4250  projects[_id].validated */\n      0x0c\n      add\n      0x00\n        /* \"src/contracts/NewGenesisMaster.sol\":4227:4257  projects[_id].validated = true */\n      0x0100\n      exp\n      dup2\n      sload\n      dup2\n      0xff\n      mul\n      not\n      and\n      swap1\n      dup4\n      iszero\n      iszero\n      mul\n      or\n      swap1\n      sstore\n      pop\n        /* \"src/contracts/NewGenesisMaster.sol\":4302:4320  _validationMessage */\n      dup2\n        /* \"src/contracts/NewGenesisMaster.sol\":4268:4276  projects */\n      0x09\n        /* \"src/contracts/NewGenesisMaster.sol\":4277:4280  _id */\n      dup5\n        /* \"src/contracts/NewGenesisMaster.sol\":4268:4281  projects[_id] */\n      dup2\n      sload\n      dup2\n      lt\n      tag_284\n      jumpi\n      tag_285\n      tag_193\n      jump\t// in\n    tag_285:\n    tag_284:\n      swap1\n      0x00\n      mstore\n      keccak256(0x00, 0x20)\n      swap1\n      0x0e\n      mul\n      add\n        /* \"src/contracts/NewGenesisMaster.sol\":4268:4299  projects[_id].validationMessage */\n      0x0d\n      add\n        /* \"src/contracts/NewGenesisMaster.sol\":4268:4320  projects[_id].validationMessage = _validationMessage */\n      swap1\n      dup2\n      tag_287\n      swap2\n      swap1\n      tag_161\n      jump\t// in\n    tag_287:\n      pop\n        /* \"src/contracts/NewGenesisMaster.sol\":4361:4362  1 */\n      0x01\n        /* \"src/contracts/NewGenesisMaster.sol\":4331:4336  stats */\n      0x04\n        /* \"src/contracts/NewGenesisMaster.sol\":4331:4357  stats.nonValidatedProjects */\n      dup1\n      add\n      0x00\n        /* \"src/contracts/NewGenesisMaster.sol\":4331:4362  stats.nonValidatedProjects -= 1 */\n      dup3\n      dup3\n      sload\n      tag_288\n      swap2\n      swap1\n      tag_289\n      jump\t// in\n    tag_288:\n      swap3\n      pop\n      pop\n      dup2\n      swap1\n      sstore\n      pop\n        /* \"src/contracts/NewGenesisMaster.sol\":4400:4401  1 */\n      0x01\n        /* \"src/contracts/NewGenesisMaster.sol\":4373:4378  stats */\n      0x04\n        /* \"src/contracts/NewGenesisMaster.sol\":4373:4396  stats.validatedProjects */\n      0x03\n      add\n      0x00\n        /* \"src/contracts/NewGenesisMaster.sol\":4373:4401  stats.validatedProjects += 1 */\n      dup3\n      dup3\n      sload\n      tag_290\n      swap2\n      swap1\n      tag_177\n      jump\t// in\n    tag_290:\n      swap3\n      pop\n      pop\n      dup2\n      swap1\n      sstore\n      pop\n        /* \"src/contracts/NewGenesisMaster.sol\":4452:4462  msg.sender */\n      caller\n        /* \"src/contracts/NewGenesisMaster.sol\":4419:4480  Action(_id, \"PROJECT VALIDATED\", msg.sender, block.timestamp) */\n      0xffffffffffffffffffffffffffffffffffffffff\n      and\n      0xaee8e5d3bbb2f71a951b5632cee20f7ac487b9f8ab4f66a236f7694b13af7c6a\n        /* \"src/contracts/NewGenesisMaster.sol\":4426:4429  _id */\n      dup5\n        /* \"src/contracts/NewGenesisMaster.sol\":4464:4479  block.timestamp */\n      timestamp\n        /* \"src/contracts/NewGenesisMaster.sol\":4419:4480  Action(_id, \"PROJECT VALIDATED\", msg.sender, block.timestamp) */\n      mload(0x40)\n      tag_291\n      swap3\n      swap2\n      swap1\n      tag_292\n      jump\t// in\n    tag_291:\n      mload(0x40)\n      dup1\n      swap2\n      sub\n      swap1\n      log2\n        /* \"src/contracts/NewGenesisMaster.sol\":4500:4504  true */\n      0x01\n        /* \"src/contracts/NewGenesisMaster.sol\":4493:4504  return true */\n      swap1\n      pop\n        /* \"src/contracts/NewGenesisMaster.sol\":3770:4512  function validateProject(... */\n      swap3\n      swap2\n      pop\n      pop\n      jump\t// out\n        /* \"src/contracts/NewGenesisMaster.sol\":371:412  mapping(uint => bool) public projectExist */\n    tag_74:\n      mstore(0x20, 0x0c)\n      dup1\n      0x00\n      mstore\n      keccak256(0x00, 0x40)\n      0x00\n      swap2\n      pop\n      sload\n      swap1\n      0x0100\n      exp\n      swap1\n      div\n      0xff\n      and\n      dup2\n      jump\t// out\n        /* \"src/contracts/NewGenesisMaster.sol\":93:113  address public owner */\n    tag_78:\n      0x00\n      dup1\n      sload\n      swap1\n      0x0100\n      exp\n      swap1\n      div\n      0xffffffffffffffffffffffffffffffffffffffff\n      and\n      dup2\n      jump\t// out\n        /* \"src/contracts/NewGenesisMaster.sol\":6381:7640  function backProject(uint id) public payable returns (bool) {... */\n    tag_83:\n        /* \"src/contracts/NewGenesisMaster.sol\":6435:6439  bool */\n      0x00\n        /* \"src/contracts/NewGenesisMaster.sol\":6472:6479  0 ether */\n      dup1\n        /* \"src/contracts/NewGenesisMaster.sol\":6460:6469  msg.value */\n      callvalue\n        /* \"src/contracts/NewGenesisMaster.sol\":6460:6479  msg.value > 0 ether */\n      gt\n        /* \"src/contracts/NewGenesisMaster.sol\":6452:6515  require(msg.value > 0 ether, \"Ether must be greater than zero\") */\n      tag_294\n      jumpi\n      mload(0x40)\n      0x08c379a000000000000000000000000000000000000000000000000000000000\n      dup2\n      mstore\n      0x04\n      add\n      tag_295\n      swap1\n      tag_296\n      jump\t// in\n    tag_295:\n      mload(0x40)\n      dup1\n      swap2\n      sub\n      swap1\n      revert\n    tag_294:\n        /* \"src/contracts/NewGenesisMaster.sol\":6534:6546  projectExist */\n      0x0c\n        /* \"src/contracts/NewGenesisMaster.sol\":6534:6550  projectExist[id] */\n      0x00\n        /* \"src/contracts/NewGenesisMaster.sol\":6547:6549  id */\n      dup4\n        /* \"src/contracts/NewGenesisMaster.sol\":6534:6550  projectExist[id] */\n      dup2\n      mstore\n      0x20\n      add\n      swap1\n      dup2\n      mstore\n      0x20\n      add\n      0x00\n      keccak256\n      0x00\n      swap1\n      sload\n      swap1\n      0x0100\n      exp\n      swap1\n      div\n      0xff\n      and\n        /* \"src/contracts/NewGenesisMaster.sol\":6526:6595  require(projectExist[id], \"Project with the given ID does not exist\") */\n      tag_297\n      jumpi\n      mload(0x40)\n      0x08c379a000000000000000000000000000000000000000000000000000000000\n      dup2\n      mstore\n      0x04\n      add\n      tag_298\n      swap1\n      tag_299\n      jump\t// in\n    tag_298:\n      mload(0x40)\n      dup1\n      swap2\n      sub\n      swap1\n      revert\n    tag_297:\n        /* \"src/contracts/NewGenesisMaster.sol\":6654:6658  true */\n      0x01\n        /* \"src/contracts/NewGenesisMaster.sol\":6628:6658  projects[id].validated == true */\n      iszero\n      iszero\n        /* \"src/contracts/NewGenesisMaster.sol\":6628:6636  projects */\n      0x09\n        /* \"src/contracts/NewGenesisMaster.sol\":6637:6639  id */\n      dup4\n        /* \"src/contracts/NewGenesisMaster.sol\":6628:6640  projects[id] */\n      dup2\n      sload\n      dup2\n      lt\n      tag_300\n      jumpi\n      tag_301\n      tag_193\n      jump\t// in\n    tag_301:\n    tag_300:\n      swap1\n      0x00\n      mstore\n      keccak256(0x00, 0x20)\n      swap1\n      0x0e\n      mul\n      add\n        /* \"src/contracts/NewGenesisMaster.sol\":6628:6650  projects[id].validated */\n      0x0c\n      add\n      0x00\n      swap1\n      sload\n      swap1\n      0x0100\n      exp\n      swap1\n      div\n      0xff\n      and\n        /* \"src/contracts/NewGenesisMaster.sol\":6628:6658  projects[id].validated == true */\n      iszero\n      iszero\n      eq\n        /* \"src/contracts/NewGenesisMaster.sol\":6606:6721  require(... */\n      tag_303\n      jumpi\n      mload(0x40)\n      0x08c379a000000000000000000000000000000000000000000000000000000000\n      dup2\n      mstore\n      0x04\n      add\n      tag_304\n      swap1\n      tag_305\n      jump\t// in\n    tag_304:\n      mload(0x40)\n      dup1\n      swap2\n      sub\n      swap1\n      revert\n    tag_303:\n        /* \"src/contracts/NewGenesisMaster.sol\":6777:6792  statusEnum.OPEN */\n      0x01\n        /* \"src/contracts/NewGenesisMaster.sol\":6754:6792  projects[id].status == statusEnum.OPEN */\n      0x05\n      dup2\n      gt\n      iszero\n      tag_306\n      jumpi\n      tag_307\n      tag_156\n      jump\t// in\n    tag_307:\n    tag_306:\n        /* \"src/contracts/NewGenesisMaster.sol\":6754:6762  projects */\n      0x09\n        /* \"src/contracts/NewGenesisMaster.sol\":6763:6765  id */\n      dup4\n        /* \"src/contracts/NewGenesisMaster.sol\":6754:6766  projects[id] */\n      dup2\n      sload\n      dup2\n      lt\n      tag_308\n      jumpi\n      tag_309\n      tag_193\n      jump\t// in\n    tag_309:\n    tag_308:\n      swap1\n      0x00\n      mstore\n      keccak256(0x00, 0x20)\n      swap1\n      0x0e\n      mul\n      add\n        /* \"src/contracts/NewGenesisMaster.sol\":6754:6773  projects[id].status */\n      0x0a\n      add\n      0x00\n      swap1\n      sload\n      swap1\n      0x0100\n      exp\n      swap1\n      div\n      0xff\n      and\n        /* \"src/contracts/NewGenesisMaster.sol\":6754:6792  projects[id].status == statusEnum.OPEN */\n      0x05\n      dup2\n      gt\n      iszero\n      tag_311\n      jumpi\n      tag_312\n      tag_156\n      jump\t// in\n    tag_312:\n    tag_311:\n      eq\n        /* \"src/contracts/NewGenesisMaster.sol\":6732:6844  require(... */\n      tag_313\n      jumpi\n      mload(0x40)\n      0x08c379a000000000000000000000000000000000000000000000000000000000\n      dup2\n      mstore\n      0x04\n      add\n      tag_314\n      swap1\n      tag_199\n      jump\t// in\n    tag_314:\n      mload(0x40)\n      dup1\n      swap2\n      sub\n      swap1\n      revert\n    tag_313:\n        /* \"src/contracts/NewGenesisMaster.sol\":6881:6882  1 */\n      0x01\n        /* \"src/contracts/NewGenesisMaster.sol\":6857:6865  projects */\n      0x09\n        /* \"src/contracts/NewGenesisMaster.sol\":6866:6868  id */\n      dup4\n        /* \"src/contracts/NewGenesisMaster.sol\":6857:6869  projects[id] */\n      dup2\n      sload\n      dup2\n      lt\n      tag_315\n      jumpi\n      tag_316\n      tag_193\n      jump\t// in\n    tag_316:\n    tag_315:\n      swap1\n      0x00\n      mstore\n      keccak256(0x00, 0x20)\n      swap1\n      0x0e\n      mul\n      add\n        /* \"src/contracts/NewGenesisMaster.sol\":6857:6877  projects[id].backers */\n      0x09\n      add\n      0x00\n        /* \"src/contracts/NewGenesisMaster.sol\":6857:6882  projects[id].backers += 1 */\n      dup3\n      dup3\n      sload\n      tag_318\n      swap2\n      swap1\n      tag_177\n      jump\t// in\n    tag_318:\n      swap3\n      pop\n      pop\n      dup2\n      swap1\n      sstore\n      pop\n        /* \"src/contracts/NewGenesisMaster.sol\":6915:6916  1 */\n      0x01\n        /* \"src/contracts/NewGenesisMaster.sol\":6893:6898  stats */\n      0x04\n        /* \"src/contracts/NewGenesisMaster.sol\":6893:6911  stats.totalBacking */\n      0x01\n      add\n      0x00\n        /* \"src/contracts/NewGenesisMaster.sol\":6893:6916  stats.totalBacking += 1 */\n      dup3\n      dup3\n      sload\n      tag_319\n      swap2\n      swap1\n      tag_177\n      jump\t// in\n    tag_319:\n      swap3\n      pop\n      pop\n      dup2\n      swap1\n      sstore\n      pop\n        /* \"src/contracts/NewGenesisMaster.sol\":6950:6959  msg.value */\n      callvalue\n        /* \"src/contracts/NewGenesisMaster.sol\":6927:6935  projects */\n      0x09\n        /* \"src/contracts/NewGenesisMaster.sol\":6936:6938  id */\n      dup4\n        /* \"src/contracts/NewGenesisMaster.sol\":6927:6939  projects[id] */\n      dup2\n      sload\n      dup2\n      lt\n      tag_320\n      jumpi\n      tag_321\n      tag_193\n      jump\t// in\n    tag_321:\n    tag_320:\n      swap1\n      0x00\n      mstore\n      keccak256(0x00, 0x20)\n      swap1\n      0x0e\n      mul\n      add\n        /* \"src/contracts/NewGenesisMaster.sol\":6927:6946  projects[id].raised */\n      0x06\n      add\n      0x00\n        /* \"src/contracts/NewGenesisMaster.sol\":6927:6959  projects[id].raised += msg.value */\n      dup3\n      dup3\n      sload\n      tag_323\n      swap2\n      swap1\n      tag_177\n      jump\t// in\n    tag_323:\n      swap3\n      pop\n      pop\n      dup2\n      swap1\n      sstore\n      pop\n        /* \"src/contracts/NewGenesisMaster.sol\":6994:7003  msg.value */\n      callvalue\n        /* \"src/contracts/NewGenesisMaster.sol\":6970:6975  stats */\n      0x04\n        /* \"src/contracts/NewGenesisMaster.sol\":6970:6990  stats.totalDonations */\n      0x02\n      add\n      0x00\n        /* \"src/contracts/NewGenesisMaster.sol\":6970:7003  stats.totalDonations += msg.value */\n      dup3\n      dup3\n      sload\n      tag_324\n      swap2\n      swap1\n      tag_177\n      jump\t// in\n    tag_324:\n      swap3\n      pop\n      pop\n      dup2\n      swap1\n      sstore\n      pop\n        /* \"src/contracts/NewGenesisMaster.sol\":7016:7025  backersOf */\n      0x0b\n        /* \"src/contracts/NewGenesisMaster.sol\":7016:7029  backersOf[id] */\n      0x00\n        /* \"src/contracts/NewGenesisMaster.sol\":7026:7028  id */\n      dup4\n        /* \"src/contracts/NewGenesisMaster.sol\":7016:7029  backersOf[id] */\n      dup2\n      mstore\n      0x20\n      add\n      swap1\n      dup2\n      mstore\n      0x20\n      add\n      0x00\n      keccak256\n        /* \"src/contracts/NewGenesisMaster.sol\":7049:7108  backerStruct(msg.sender, msg.value, block.timestamp, false) */\n      mload(0x40)\n      dup1\n      0x80\n      add\n      0x40\n      mstore\n      dup1\n        /* \"src/contracts/NewGenesisMaster.sol\":7062:7072  msg.sender */\n      caller\n        /* \"src/contracts/NewGenesisMaster.sol\":7049:7108  backerStruct(msg.sender, msg.value, block.timestamp, false) */\n      0xffffffffffffffffffffffffffffffffffffffff\n      and\n      dup2\n      mstore\n      0x20\n      add\n        /* \"src/contracts/NewGenesisMaster.sol\":7074:7083  msg.value */\n      callvalue\n        /* \"src/contracts/NewGenesisMaster.sol\":7049:7108  backerStruct(msg.sender, msg.value, block.timestamp, false) */\n      dup2\n      mstore\n      0x20\n      add\n        /* \"src/contracts/NewGenesisMaster.sol\":7085:7100  block.timestamp */\n      timestamp\n        /* \"src/contracts/NewGenesisMaster.sol\":7049:7108  backerStruct(msg.sender, msg.value, block.timestamp, false) */\n      dup2\n      mstore\n      0x20\n      add\n        /* \"src/contracts/NewGenesisMaster.sol\":7102:7107  false */\n      0x00\n        /* \"src/contracts/NewGenesisMaster.sol\":7049:7108  backerStruct(msg.sender, msg.value, block.timestamp, false) */\n      iszero\n      iszero\n      dup2\n      mstore\n      pop\n        /* \"src/contracts/NewGenesisMaster.sol\":7016:7119  backersOf[id].push(... */\n      swap1\n      dup1\n      0x01\n      dup2\n      sload\n      add\n      dup1\n      dup3\n      sstore\n      dup1\n      swap2\n      pop\n      pop\n      0x01\n      swap1\n      sub\n      swap1\n      0x00\n      mstore\n      keccak256(0x00, 0x20)\n      swap1\n      0x04\n      mul\n      add\n      0x00\n      swap1\n      swap2\n      swap1\n      swap2\n      swap1\n      swap2\n      pop\n      0x00\n      dup3\n      add\n      mload\n      dup2\n      0x00\n      add\n      exp(0x0100, 0x00)\n      dup2\n      sload\n      dup2\n      0xffffffffffffffffffffffffffffffffffffffff\n      mul\n      not\n      and\n      swap1\n      dup4\n      0xffffffffffffffffffffffffffffffffffffffff\n      and\n      mul\n      or\n      swap1\n      sstore\n      pop\n      0x20\n      dup3\n      add\n      mload\n      dup2\n      0x01\n      add\n      sstore\n      0x40\n      dup3\n      add\n      mload\n      dup2\n      0x02\n      add\n      sstore\n      0x60\n      dup3\n      add\n      mload\n      dup2\n      0x03\n      add\n      exp(0x0100, 0x00)\n      dup2\n      sload\n      dup2\n      0xff\n      mul\n      not\n      and\n      swap1\n      dup4\n      iszero\n      iszero\n      mul\n      or\n      swap1\n      sstore\n      pop\n      pop\n      pop\n        /* \"src/contracts/NewGenesisMaster.sol\":7166:7176  msg.sender */\n      caller\n        /* \"src/contracts/NewGenesisMaster.sol\":7137:7194  Action(id, \"PROJECT BACKED\", msg.sender, block.timestamp) */\n      0xffffffffffffffffffffffffffffffffffffffff\n      and\n      0xaee8e5d3bbb2f71a951b5632cee20f7ac487b9f8ab4f66a236f7694b13af7c6a\n        /* \"src/contracts/NewGenesisMaster.sol\":7144:7146  id */\n      dup4\n        /* \"src/contracts/NewGenesisMaster.sol\":7178:7193  block.timestamp */\n      timestamp\n        /* \"src/contracts/NewGenesisMaster.sol\":7137:7194  Action(id, \"PROJECT BACKED\", msg.sender, block.timestamp) */\n      mload(0x40)\n      tag_326\n      swap3\n      swap2\n      swap1\n      tag_327\n      jump\t// in\n    tag_326:\n      mload(0x40)\n      dup1\n      swap2\n      sub\n      swap1\n      log2\n        /* \"src/contracts/NewGenesisMaster.sol\":7234:7242  projects */\n      0x09\n        /* \"src/contracts/NewGenesisMaster.sol\":7243:7245  id */\n      dup3\n        /* \"src/contracts/NewGenesisMaster.sol\":7234:7246  projects[id] */\n      dup2\n      sload\n      dup2\n      lt\n      tag_328\n      jumpi\n      tag_329\n      tag_193\n      jump\t// in\n    tag_329:\n    tag_328:\n      swap1\n      0x00\n      mstore\n      keccak256(0x00, 0x20)\n      swap1\n      0x0e\n      mul\n      add\n        /* \"src/contracts/NewGenesisMaster.sol\":7234:7251  projects[id].cost */\n      0x05\n      add\n      sload\n        /* \"src/contracts/NewGenesisMaster.sol\":7211:7219  projects */\n      0x09\n        /* \"src/contracts/NewGenesisMaster.sol\":7220:7222  id */\n      dup4\n        /* \"src/contracts/NewGenesisMaster.sol\":7211:7223  projects[id] */\n      dup2\n      sload\n      dup2\n      lt\n      tag_331\n      jumpi\n      tag_332\n      tag_193\n      jump\t// in\n    tag_332:\n    tag_331:\n      swap1\n      0x00\n      mstore\n      keccak256(0x00, 0x20)\n      swap1\n      0x0e\n      mul\n      add\n        /* \"src/contracts/NewGenesisMaster.sol\":7211:7230  projects[id].raised */\n      0x06\n      add\n      sload\n        /* \"src/contracts/NewGenesisMaster.sol\":7211:7251  projects[id].raised >= projects[id].cost */\n      lt\n        /* \"src/contracts/NewGenesisMaster.sol\":7207:7424  if (projects[id].raised >= projects[id].cost) {... */\n      tag_334\n      jumpi\n        /* \"src/contracts/NewGenesisMaster.sol\":7290:7309  statusEnum.APPROVED */\n      0x02\n        /* \"src/contracts/NewGenesisMaster.sol\":7268:7276  projects */\n      0x09\n        /* \"src/contracts/NewGenesisMaster.sol\":7277:7279  id */\n      dup4\n        /* \"src/contracts/NewGenesisMaster.sol\":7268:7280  projects[id] */\n      dup2\n      sload\n      dup2\n      lt\n      tag_335\n      jumpi\n      tag_336\n      tag_193\n      jump\t// in\n    tag_336:\n    tag_335:\n      swap1\n      0x00\n      mstore\n      keccak256(0x00, 0x20)\n      swap1\n      0x0e\n      mul\n      add\n        /* \"src/contracts/NewGenesisMaster.sol\":7268:7287  projects[id].status */\n      0x0a\n      add\n      0x00\n        /* \"src/contracts/NewGenesisMaster.sol\":7268:7309  projects[id].status = statusEnum.APPROVED */\n      0x0100\n      exp\n      dup2\n      sload\n      dup2\n      0xff\n      mul\n      not\n      and\n      swap1\n      dup4\n      0x05\n      dup2\n      gt\n      iszero\n      tag_338\n      jumpi\n      tag_339\n      tag_156\n      jump\t// in\n    tag_339:\n    tag_338:\n      mul\n      or\n      swap1\n      sstore\n      pop\n        /* \"src/contracts/NewGenesisMaster.sol\":7335:7343  projects */\n      0x09\n        /* \"src/contracts/NewGenesisMaster.sol\":7344:7346  id */\n      dup3\n        /* \"src/contracts/NewGenesisMaster.sol\":7335:7347  projects[id] */\n      dup2\n      sload\n      dup2\n      lt\n      tag_340\n      jumpi\n      tag_341\n      tag_193\n      jump\t// in\n    tag_341:\n    tag_340:\n      swap1\n      0x00\n      mstore\n      keccak256(0x00, 0x20)\n      swap1\n      0x0e\n      mul\n      add\n        /* \"src/contracts/NewGenesisMaster.sol\":7335:7354  projects[id].raised */\n      0x06\n      add\n      sload\n        /* \"src/contracts/NewGenesisMaster.sol\":7324:7331  balance */\n      0x03\n      0x00\n        /* \"src/contracts/NewGenesisMaster.sol\":7324:7354  balance += projects[id].raised */\n      dup3\n      dup3\n      sload\n      tag_343\n      swap2\n      swap1\n      tag_177\n      jump\t// in\n    tag_343:\n      swap3\n      pop\n      pop\n      dup2\n      swap1\n      sstore\n      pop\n        /* \"src/contracts/NewGenesisMaster.sol\":7369:7386  performPayout(id) */\n      tag_344\n        /* \"src/contracts/NewGenesisMaster.sol\":7383:7385  id */\n      dup3\n        /* \"src/contracts/NewGenesisMaster.sol\":7369:7382  performPayout */\n      tag_345\n        /* \"src/contracts/NewGenesisMaster.sol\":7369:7386  performPayout(id) */\n      jump\t// in\n    tag_344:\n        /* \"src/contracts/NewGenesisMaster.sol\":7408:7412  true */\n      0x01\n        /* \"src/contracts/NewGenesisMaster.sol\":7401:7412  return true */\n      swap1\n      pop\n      jump(tag_293)\n        /* \"src/contracts/NewGenesisMaster.sol\":7207:7424  if (projects[id].raised >= projects[id].cost) {... */\n    tag_334:\n        /* \"src/contracts/NewGenesisMaster.sol\":7459:7467  projects */\n      0x09\n        /* \"src/contracts/NewGenesisMaster.sol\":7468:7470  id */\n      dup3\n        /* \"src/contracts/NewGenesisMaster.sol\":7459:7471  projects[id] */\n      dup2\n      sload\n      dup2\n      lt\n      tag_346\n      jumpi\n      tag_347\n      tag_193\n      jump\t// in\n    tag_347:\n    tag_346:\n      swap1\n      0x00\n      mstore\n      keccak256(0x00, 0x20)\n      swap1\n      0x0e\n      mul\n      add\n        /* \"src/contracts/NewGenesisMaster.sol\":7459:7481  projects[id].expiresAt */\n      0x08\n      add\n      sload\n        /* \"src/contracts/NewGenesisMaster.sol\":7440:7455  block.timestamp */\n      timestamp\n        /* \"src/contracts/NewGenesisMaster.sol\":7440:7481  block.timestamp >= projects[id].expiresAt */\n      lt\n        /* \"src/contracts/NewGenesisMaster.sol\":7436:7609  if (block.timestamp >= projects[id].expiresAt) {... */\n      tag_349\n      jumpi\n        /* \"src/contracts/NewGenesisMaster.sol\":7520:7539  statusEnum.REVERTED */\n      0x03\n        /* \"src/contracts/NewGenesisMaster.sol\":7498:7506  projects */\n      0x09\n        /* \"src/contracts/NewGenesisMaster.sol\":7507:7509  id */\n      dup4\n        /* \"src/contracts/NewGenesisMaster.sol\":7498:7510  projects[id] */\n      dup2\n      sload\n      dup2\n      lt\n      tag_350\n      jumpi\n      tag_351\n      tag_193\n      jump\t// in\n    tag_351:\n    tag_350:\n      swap1\n      0x00\n      mstore\n      keccak256(0x00, 0x20)\n      swap1\n      0x0e\n      mul\n      add\n        /* \"src/contracts/NewGenesisMaster.sol\":7498:7517  projects[id].status */\n      0x0a\n      add\n      0x00\n        /* \"src/contracts/NewGenesisMaster.sol\":7498:7539  projects[id].status = statusEnum.REVERTED */\n      0x0100\n      exp\n      dup2\n      sload\n      dup2\n      0xff\n      mul\n      not\n      and\n      swap1\n      dup4\n      0x05\n      dup2\n      gt\n      iszero\n      tag_353\n      jumpi\n      tag_354\n      tag_156\n      jump\t// in\n    tag_354:\n    tag_353:\n      mul\n      or\n      swap1\n      sstore\n      pop\n        /* \"src/contracts/NewGenesisMaster.sol\":7554:7571  performRefund(id) */\n      tag_355\n        /* \"src/contracts/NewGenesisMaster.sol\":7568:7570  id */\n      dup3\n        /* \"src/contracts/NewGenesisMaster.sol\":7554:7567  performRefund */\n      tag_212\n        /* \"src/contracts/NewGenesisMaster.sol\":7554:7571  performRefund(id) */\n      jump\t// in\n    tag_355:\n        /* \"src/contracts/NewGenesisMaster.sol\":7593:7597  true */\n      0x01\n        /* \"src/contracts/NewGenesisMaster.sol\":7586:7597  return true */\n      swap1\n      pop\n      jump(tag_293)\n        /* \"src/contracts/NewGenesisMaster.sol\":7436:7609  if (block.timestamp >= projects[id].expiresAt) {... */\n    tag_349:\n        /* \"src/contracts/NewGenesisMaster.sol\":7628:7632  true */\n      0x01\n        /* \"src/contracts/NewGenesisMaster.sol\":7621:7632  return true */\n      swap1\n      pop\n        /* \"src/contracts/NewGenesisMaster.sol\":6381:7640  function backProject(uint id) public payable returns (bool) {... */\n    tag_293:\n      swap2\n      swap1\n      pop\n      jump\t// out\n        /* \"src/contracts/NewGenesisMaster.sol\":8053:8422  function requestRefund(uint id) public returns (bool) {... */\n    tag_88:\n        /* \"src/contracts/NewGenesisMaster.sol\":8101:8105  bool */\n      0x00\n        /* \"src/contracts/NewGenesisMaster.sol\":8163:8182  statusEnum.REVERTED */\n      0x03\n        /* \"src/contracts/NewGenesisMaster.sol\":8140:8182  projects[id].status != statusEnum.REVERTED */\n      0x05\n      dup2\n      gt\n      iszero\n      tag_357\n      jumpi\n      tag_358\n      tag_156\n      jump\t// in\n    tag_358:\n    tag_357:\n        /* \"src/contracts/NewGenesisMaster.sol\":8140:8148  projects */\n      0x09\n        /* \"src/contracts/NewGenesisMaster.sol\":8149:8151  id */\n      dup4\n        /* \"src/contracts/NewGenesisMaster.sol\":8140:8152  projects[id] */\n      dup2\n      sload\n      dup2\n      lt\n      tag_359\n      jumpi\n      tag_360\n      tag_193\n      jump\t// in\n    tag_360:\n    tag_359:\n      swap1\n      0x00\n      mstore\n      keccak256(0x00, 0x20)\n      swap1\n      0x0e\n      mul\n      add\n        /* \"src/contracts/NewGenesisMaster.sol\":8140:8159  projects[id].status */\n      0x0a\n      add\n      0x00\n      swap1\n      sload\n      swap1\n      0x0100\n      exp\n      swap1\n      div\n      0xff\n      and\n        /* \"src/contracts/NewGenesisMaster.sol\":8140:8182  projects[id].status != statusEnum.REVERTED */\n      0x05\n      dup2\n      gt\n      iszero\n      tag_362\n      jumpi\n      tag_363\n      tag_156\n      jump\t// in\n    tag_363:\n    tag_362:\n      eq\n      iszero\n        /* \"src/contracts/NewGenesisMaster.sol\":8140:8244  projects[id].status != statusEnum.REVERTED ||... */\n      dup1\n      tag_364\n      jumpi\n      pop\n        /* \"src/contracts/NewGenesisMaster.sol\":8226:8244  statusEnum.DELETED */\n      0x04\n        /* \"src/contracts/NewGenesisMaster.sol\":8203:8244  projects[id].status != statusEnum.DELETED */\n      0x05\n      dup2\n      gt\n      iszero\n      tag_365\n      jumpi\n      tag_366\n      tag_156\n      jump\t// in\n    tag_366:\n    tag_365:\n        /* \"src/contracts/NewGenesisMaster.sol\":8203:8211  projects */\n      0x09\n        /* \"src/contracts/NewGenesisMaster.sol\":8212:8214  id */\n      dup4\n        /* \"src/contracts/NewGenesisMaster.sol\":8203:8215  projects[id] */\n      dup2\n      sload\n      dup2\n      lt\n      tag_367\n      jumpi\n      tag_368\n      tag_193\n      jump\t// in\n    tag_368:\n    tag_367:\n      swap1\n      0x00\n      mstore\n      keccak256(0x00, 0x20)\n      swap1\n      0x0e\n      mul\n      add\n        /* \"src/contracts/NewGenesisMaster.sol\":8203:8222  projects[id].status */\n      0x0a\n      add\n      0x00\n      swap1\n      sload\n      swap1\n      0x0100\n      exp\n      swap1\n      div\n      0xff\n      and\n        /* \"src/contracts/NewGenesisMaster.sol\":8203:8244  projects[id].status != statusEnum.DELETED */\n      0x05\n      dup2\n      gt\n      iszero\n      tag_370\n      jumpi\n      tag_371\n      tag_156\n      jump\t// in\n    tag_371:\n    tag_370:\n      eq\n      iszero\n        /* \"src/contracts/NewGenesisMaster.sol\":8140:8244  projects[id].status != statusEnum.REVERTED ||... */\n    tag_364:\n        /* \"src/contracts/NewGenesisMaster.sol\":8118:8310  require(... */\n      tag_372\n      jumpi\n      mload(0x40)\n      0x08c379a000000000000000000000000000000000000000000000000000000000\n      dup2\n      mstore\n      0x04\n      add\n      tag_373\n      swap1\n      tag_374\n      jump\t// in\n    tag_373:\n      mload(0x40)\n      dup1\n      swap2\n      sub\n      swap1\n      revert\n    tag_372:\n        /* \"src/contracts/NewGenesisMaster.sol\":8345:8364  statusEnum.REVERTED */\n      0x03\n        /* \"src/contracts/NewGenesisMaster.sol\":8323:8331  projects */\n      0x09\n        /* \"src/contracts/NewGenesisMaster.sol\":8332:8334  id */\n      dup4\n        /* \"src/contracts/NewGenesisMaster.sol\":8323:8335  projects[id] */\n      dup2\n      sload\n      dup2\n      lt\n      tag_375\n      jumpi\n      tag_376\n      tag_193\n      jump\t// in\n    tag_376:\n    tag_375:\n      swap1\n      0x00\n      mstore\n      keccak256(0x00, 0x20)\n      swap1\n      0x0e\n      mul\n      add\n        /* \"src/contracts/NewGenesisMaster.sol\":8323:8342  projects[id].status */\n      0x0a\n      add\n      0x00\n        /* \"src/contracts/NewGenesisMaster.sol\":8323:8364  projects[id].status = statusEnum.REVERTED */\n      0x0100\n      exp\n      dup2\n      sload\n      dup2\n      0xff\n      mul\n      not\n      and\n      swap1\n      dup4\n      0x05\n      dup2\n      gt\n      iszero\n      tag_378\n      jumpi\n      tag_379\n      tag_156\n      jump\t// in\n    tag_379:\n    tag_378:\n      mul\n      or\n      swap1\n      sstore\n      pop\n        /* \"src/contracts/NewGenesisMaster.sol\":8375:8392  performRefund(id) */\n      tag_380\n        /* \"src/contracts/NewGenesisMaster.sol\":8389:8391  id */\n      dup3\n        /* \"src/contracts/NewGenesisMaster.sol\":8375:8388  performRefund */\n      tag_212\n        /* \"src/contracts/NewGenesisMaster.sol\":8375:8392  performRefund(id) */\n      jump\t// in\n    tag_380:\n        /* \"src/contracts/NewGenesisMaster.sol\":8410:8414  true */\n      0x01\n        /* \"src/contracts/NewGenesisMaster.sol\":8403:8414  return true */\n      swap1\n      pop\n        /* \"src/contracts/NewGenesisMaster.sol\":8053:8422  function requestRefund(uint id) public returns (bool) {... */\n      swap2\n      swap1\n      pop\n      jump\t// out\n        /* \"src/contracts/NewGenesisMaster.sol\":8430:8802  function payOutProject(uint id) public returns (bool) {... */\n    tag_93:\n        /* \"src/contracts/NewGenesisMaster.sol\":8478:8482  bool */\n      0x00\n        /* \"src/contracts/NewGenesisMaster.sol\":8540:8559  statusEnum.APPROVED */\n      0x02\n        /* \"src/contracts/NewGenesisMaster.sol\":8517:8559  projects[id].status == statusEnum.APPROVED */\n      0x05\n      dup2\n      gt\n      iszero\n      tag_382\n      jumpi\n      tag_383\n      tag_156\n      jump\t// in\n    tag_383:\n    tag_382:\n        /* \"src/contracts/NewGenesisMaster.sol\":8517:8525  projects */\n      0x09\n        /* \"src/contracts/NewGenesisMaster.sol\":8526:8528  id */\n      dup4\n        /* \"src/contracts/NewGenesisMaster.sol\":8517:8529  projects[id] */\n      dup2\n      sload\n      dup2\n      lt\n      tag_384\n      jumpi\n      tag_385\n      tag_193\n      jump\t// in\n    tag_385:\n    tag_384:\n      swap1\n      0x00\n      mstore\n      keccak256(0x00, 0x20)\n      swap1\n      0x0e\n      mul\n      add\n        /* \"src/contracts/NewGenesisMaster.sol\":8517:8536  projects[id].status */\n      0x0a\n      add\n      0x00\n      swap1\n      sload\n      swap1\n      0x0100\n      exp\n      swap1\n      div\n      0xff\n      and\n        /* \"src/contracts/NewGenesisMaster.sol\":8517:8559  projects[id].status == statusEnum.APPROVED */\n      0x05\n      dup2\n      gt\n      iszero\n      tag_387\n      jumpi\n      tag_388\n      tag_156\n      jump\t// in\n    tag_388:\n    tag_387:\n      eq\n        /* \"src/contracts/NewGenesisMaster.sol\":8495:8607  require(... */\n      tag_389\n      jumpi\n      mload(0x40)\n      0x08c379a000000000000000000000000000000000000000000000000000000000\n      dup2\n      mstore\n      0x04\n      add\n      tag_390\n      swap1\n      tag_391\n      jump\t// in\n    tag_390:\n      mload(0x40)\n      dup1\n      swap2\n      sub\n      swap1\n      revert\n    tag_389:\n        /* \"src/contracts/NewGenesisMaster.sol\":8654:8662  projects */\n      0x09\n        /* \"src/contracts/NewGenesisMaster.sol\":8663:8665  id */\n      dup3\n        /* \"src/contracts/NewGenesisMaster.sol\":8654:8666  projects[id] */\n      dup2\n      sload\n      dup2\n      lt\n      tag_392\n      jumpi\n      tag_393\n      tag_193\n      jump\t// in\n    tag_393:\n    tag_392:\n      swap1\n      0x00\n      mstore\n      keccak256(0x00, 0x20)\n      swap1\n      0x0e\n      mul\n      add\n        /* \"src/contracts/NewGenesisMaster.sol\":8654:8672  projects[id].owner */\n      0x01\n      add\n      0x00\n      swap1\n      sload\n      swap1\n      0x0100\n      exp\n      swap1\n      div\n      0xffffffffffffffffffffffffffffffffffffffff\n      and\n        /* \"src/contracts/NewGenesisMaster.sol\":8640:8672  msg.sender == projects[id].owner */\n      0xffffffffffffffffffffffffffffffffffffffff\n      and\n        /* \"src/contracts/NewGenesisMaster.sol\":8640:8650  msg.sender */\n      caller\n        /* \"src/contracts/NewGenesisMaster.sol\":8640:8672  msg.sender == projects[id].owner */\n      0xffffffffffffffffffffffffffffffffffffffff\n      and\n      eq\n        /* \"src/contracts/NewGenesisMaster.sol\":8640:8695  msg.sender == projects[id].owner || msg.sender == owner */\n      dup1\n      tag_395\n      jumpi\n      pop\n        /* \"src/contracts/NewGenesisMaster.sol\":8690:8695  owner */\n      0x00\n      dup1\n      sload\n      swap1\n      0x0100\n      exp\n      swap1\n      div\n      0xffffffffffffffffffffffffffffffffffffffff\n      and\n        /* \"src/contracts/NewGenesisMaster.sol\":8676:8695  msg.sender == owner */\n      0xffffffffffffffffffffffffffffffffffffffff\n      and\n        /* \"src/contracts/NewGenesisMaster.sol\":8676:8686  msg.sender */\n      caller\n        /* \"src/contracts/NewGenesisMaster.sol\":8676:8695  msg.sender == owner */\n      0xffffffffffffffffffffffffffffffffffffffff\n      and\n      eq\n        /* \"src/contracts/NewGenesisMaster.sol\":8640:8695  msg.sender == projects[id].owner || msg.sender == owner */\n    tag_395:\n        /* \"src/contracts/NewGenesisMaster.sol\":8618:8742  require(... */\n      tag_396\n      jumpi\n      mload(0x40)\n      0x08c379a000000000000000000000000000000000000000000000000000000000\n      dup2\n      mstore\n      0x04\n      add\n      tag_397\n      swap1\n      tag_205\n      jump\t// in\n    tag_397:\n      mload(0x40)\n      dup1\n      swap2\n      sub\n      swap1\n      revert\n    tag_396:\n        /* \"src/contracts/NewGenesisMaster.sol\":8755:8772  performPayout(id) */\n      tag_398\n        /* \"src/contracts/NewGenesisMaster.sol\":8769:8771  id */\n      dup3\n        /* \"src/contracts/NewGenesisMaster.sol\":8755:8768  performPayout */\n      tag_345\n        /* \"src/contracts/NewGenesisMaster.sol\":8755:8772  performPayout(id) */\n      jump\t// in\n    tag_398:\n        /* \"src/contracts/NewGenesisMaster.sol\":8790:8794  true */\n      0x01\n        /* \"src/contracts/NewGenesisMaster.sol\":8783:8794  return true */\n      swap1\n      pop\n        /* \"src/contracts/NewGenesisMaster.sol\":8430:8802  function payOutProject(uint id) public returns (bool) {... */\n      swap2\n      swap1\n      pop\n      jump\t// out\n        /* \"src/contracts/NewGenesisMaster.sol\":180:199  uint public balance */\n    tag_97:\n      sload(0x03)\n      dup2\n      jump\t// out\n        /* \"src/contracts/NewGenesisMaster.sol\":9194:9306  function getBackers(uint id) public view returns (backerStruct[] memory) {... */\n    tag_102:\n        /* \"src/contracts/NewGenesisMaster.sol\":9244:9265  backerStruct[] memory */\n      0x60\n        /* \"src/contracts/NewGenesisMaster.sol\":9285:9294  backersOf */\n      0x0b\n        /* \"src/contracts/NewGenesisMaster.sol\":9285:9298  backersOf[id] */\n      0x00\n        /* \"src/contracts/NewGenesisMaster.sol\":9295:9297  id */\n      dup4\n        /* \"src/contracts/NewGenesisMaster.sol\":9285:9298  backersOf[id] */\n      dup2\n      mstore\n      0x20\n      add\n      swap1\n      dup2\n      mstore\n      0x20\n      add\n      0x00\n      keccak256\n        /* \"src/contracts/NewGenesisMaster.sol\":9278:9298  return backersOf[id] */\n      dup1\n      sload\n      dup1\n      0x20\n      mul\n      0x20\n      add\n      mload(0x40)\n      swap1\n      dup2\n      add\n      0x40\n      mstore\n      dup1\n      swap3\n      swap2\n      swap1\n      dup2\n      dup2\n      mstore\n      0x20\n      add\n      0x00\n      swap1\n    tag_400:\n      dup3\n      dup3\n      lt\n      iszero\n      tag_401\n      jumpi\n      dup4\n      dup3\n      swap1\n      0x00\n      mstore\n      keccak256(0x00, 0x20)\n      swap1\n      0x04\n      mul\n      add\n      mload(0x40)\n      dup1\n      0x80\n      add\n      0x40\n      mstore\n      swap1\n      dup2\n      0x00\n      dup3\n      add\n      0x00\n      swap1\n      sload\n      swap1\n      0x0100\n      exp\n      swap1\n      div\n      0xffffffffffffffffffffffffffffffffffffffff\n      and\n      0xffffffffffffffffffffffffffffffffffffffff\n      and\n      0xffffffffffffffffffffffffffffffffffffffff\n      and\n      dup2\n      mstore\n      0x20\n      add\n      0x01\n      dup3\n      add\n      sload\n      dup2\n      mstore\n      0x20\n      add\n      0x02\n      dup3\n      add\n      sload\n      dup2\n      mstore\n      0x20\n      add\n      0x03\n      dup3\n      add\n      0x00\n      swap1\n      sload\n      swap1\n      0x0100\n      exp\n      swap1\n      div\n      0xff\n      and\n      iszero\n      iszero\n      iszero\n      iszero\n      dup2\n      mstore\n      pop\n      pop\n      dup2\n      mstore\n      0x20\n      add\n      swap1\n      0x01\n      add\n      swap1\n      jump(tag_400)\n    tag_401:\n      pop\n      pop\n      pop\n      pop\n      swap1\n      pop\n        /* \"src/contracts/NewGenesisMaster.sol\":9194:9306  function getBackers(uint id) public view returns (backerStruct[] memory) {... */\n      swap2\n      swap1\n      pop\n      jump\t// out\n        /* \"src/contracts/NewGenesisMaster.sol\":120:142  uint public projectTax */\n    tag_107:\n      sload(0x01)\n      dup2\n      jump\t// out\n        /* \"src/contracts/NewGenesisMaster.sol\":206:230  statsStruct public stats */\n    tag_111:\n      0x04\n      dup1\n      0x00\n      add\n      sload\n      swap1\n      dup1\n      0x01\n      add\n      sload\n      swap1\n      dup1\n      0x02\n      add\n      sload\n      swap1\n      dup1\n      0x03\n      add\n      sload\n      swap1\n      dup1\n      0x04\n      add\n      sload\n      swap1\n      pop\n      dup6\n      jump\t// out\n        /* \"src/contracts/NewGenesisMaster.sol\":9084:9186  function getProjects() public view returns (projectStruct[] memory) {... */\n    tag_116:\n        /* \"src/contracts/NewGenesisMaster.sol\":9128:9150  projectStruct[] memory */\n      0x60\n        /* \"src/contracts/NewGenesisMaster.sol\":9170:9178  projects */\n      0x09\n        /* \"src/contracts/NewGenesisMaster.sol\":9163:9178  return projects */\n      dup1\n      sload\n      dup1\n      0x20\n      mul\n      0x20\n      add\n      mload(0x40)\n      swap1\n      dup2\n      add\n      0x40\n      mstore\n      dup1\n      swap3\n      swap2\n      swap1\n      dup2\n      dup2\n      mstore\n      0x20\n      add\n      0x00\n      swap1\n    tag_404:\n      dup3\n      dup3\n      lt\n      iszero\n      tag_405\n      jumpi\n      dup4\n      dup3\n      swap1\n      0x00\n      mstore\n      keccak256(0x00, 0x20)\n      swap1\n      0x0e\n      mul\n      add\n      mload(0x40)\n      dup1\n      0x01c0\n      add\n      0x40\n      mstore\n      swap1\n      dup2\n      0x00\n      dup3\n      add\n      sload\n      dup2\n      mstore\n      0x20\n      add\n      0x01\n      dup3\n      add\n      0x00\n      swap1\n      sload\n      swap1\n      0x0100\n      exp\n      swap1\n      div\n      0xffffffffffffffffffffffffffffffffffffffff\n      and\n      0xffffffffffffffffffffffffffffffffffffffff\n      and\n      0xffffffffffffffffffffffffffffffffffffffff\n      and\n      dup2\n      mstore\n      0x20\n      add\n      0x02\n      dup3\n      add\n      dup1\n      sload\n      tag_407\n      swap1\n      tag_131\n      jump\t// in\n    tag_407:\n      dup1\n      0x1f\n      add\n      0x20\n      dup1\n      swap2\n      div\n      mul\n      0x20\n      add\n      mload(0x40)\n      swap1\n      dup2\n      add\n      0x40\n      mstore\n      dup1\n      swap3\n      swap2\n      swap1\n      dup2\n      dup2\n      mstore\n      0x20\n      add\n      dup3\n      dup1\n      sload\n      tag_408\n      swap1\n      tag_131\n      jump\t// in\n    tag_408:\n      dup1\n      iszero\n      tag_409\n      jumpi\n      dup1\n      0x1f\n      lt\n      tag_410\n      jumpi\n      0x0100\n      dup1\n      dup4\n      sload\n      div\n      mul\n      dup4\n      mstore\n      swap2\n      0x20\n      add\n      swap2\n      jump(tag_409)\n    tag_410:\n      dup3\n      add\n      swap2\n      swap1\n      0x00\n      mstore\n      keccak256(0x00, 0x20)\n      swap1\n    tag_411:\n      dup2\n      sload\n      dup2\n      mstore\n      swap1\n      0x01\n      add\n      swap1\n      0x20\n      add\n      dup1\n      dup4\n      gt\n      tag_411\n      jumpi\n      dup3\n      swap1\n      sub\n      0x1f\n      and\n      dup3\n      add\n      swap2\n    tag_409:\n      pop\n      pop\n      pop\n      pop\n      pop\n      dup2\n      mstore\n      0x20\n      add\n      0x03\n      dup3\n      add\n      dup1\n      sload\n      tag_412\n      swap1\n      tag_131\n      jump\t// in\n    tag_412:\n      dup1\n      0x1f\n      add\n      0x20\n      dup1\n      swap2\n      div\n      mul\n      0x20\n      add\n      mload(0x40)\n      swap1\n      dup2\n      add\n      0x40\n      mstore\n      dup1\n      swap3\n      swap2\n      swap1\n      dup2\n      dup2\n      mstore\n      0x20\n      add\n      dup3\n      dup1\n      sload\n      tag_413\n      swap1\n      tag_131\n      jump\t// in\n    tag_413:\n      dup1\n      iszero\n      tag_414\n      jumpi\n      dup1\n      0x1f\n      lt\n      tag_415\n      jumpi\n      0x0100\n      dup1\n      dup4\n      sload\n      div\n      mul\n      dup4\n      mstore\n      swap2\n      0x20\n      add\n      swap2\n      jump(tag_414)\n    tag_415:\n      dup3\n      add\n      swap2\n      swap1\n      0x00\n      mstore\n      keccak256(0x00, 0x20)\n      swap1\n    tag_416:\n      dup2\n      sload\n      dup2\n      mstore\n      swap1\n      0x01\n      add\n      swap1\n      0x20\n      add\n      dup1\n      dup4\n      gt\n      tag_416\n      jumpi\n      dup3\n      swap1\n      sub\n      0x1f\n      and\n      dup3\n      add\n      swap2\n    tag_414:\n      pop\n      pop\n      pop\n      pop\n      pop\n      dup2\n      mstore\n      0x20\n      add\n      0x04\n      dup3\n      add\n      dup1\n      sload\n      tag_417\n      swap1\n      tag_131\n      jump\t// in\n    tag_417:\n      dup1\n      0x1f\n      add\n      0x20\n      dup1\n      swap2\n      div\n      mul\n      0x20\n      add\n      mload(0x40)\n      swap1\n      dup2\n      add\n      0x40\n      mstore\n      dup1\n      swap3\n      swap2\n      swap1\n      dup2\n      dup2\n      mstore\n      0x20\n      add\n      dup3\n      dup1\n      sload\n      tag_418\n      swap1\n      tag_131\n      jump\t// in\n    tag_418:\n      dup1\n      iszero\n      tag_419\n      jumpi\n      dup1\n      0x1f\n      lt\n      tag_420\n      jumpi\n      0x0100\n      dup1\n      dup4\n      sload\n      div\n      mul\n      dup4\n      mstore\n      swap2\n      0x20\n      add\n      swap2\n      jump(tag_419)\n    tag_420:\n      dup3\n      add\n      swap2\n      swap1\n      0x00\n      mstore\n      keccak256(0x00, 0x20)\n      swap1\n    tag_421:\n      dup2\n      sload\n      dup2\n      mstore\n      swap1\n      0x01\n      add\n      swap1\n      0x20\n      add\n      dup1\n      dup4\n      gt\n      tag_421\n      jumpi\n      dup3\n      swap1\n      sub\n      0x1f\n      and\n      dup3\n      add\n      swap2\n    tag_419:\n      pop\n      pop\n      pop\n      pop\n      pop\n      dup2\n      mstore\n      0x20\n      add\n      0x05\n      dup3\n      add\n      sload\n      dup2\n      mstore\n      0x20\n      add\n      0x06\n      dup3\n      add\n      sload\n      dup2\n      mstore\n      0x20\n      add\n      0x07\n      dup3\n      add\n      sload\n      dup2\n      mstore\n      0x20\n      add\n      0x08\n      dup3\n      add\n      sload\n      dup2\n      mstore\n      0x20\n      add\n      0x09\n      dup3\n      add\n      sload\n      dup2\n      mstore\n      0x20\n      add\n      0x0a\n      dup3\n      add\n      0x00\n      swap1\n      sload\n      swap1\n      0x0100\n      exp\n      swap1\n      div\n      0xff\n      and\n      0x05\n      dup2\n      gt\n      iszero\n      tag_422\n      jumpi\n      tag_423\n      tag_156\n      jump\t// in\n    tag_423:\n    tag_422:\n      0x05\n      dup2\n      gt\n      iszero\n      tag_424\n      jumpi\n      tag_425\n      tag_156\n      jump\t// in\n    tag_425:\n    tag_424:\n      dup2\n      mstore\n      0x20\n      add\n      0x0b\n      dup3\n      add\n      dup1\n      sload\n      tag_426\n      swap1\n      tag_131\n      jump\t// in\n    tag_426:\n      dup1\n      0x1f\n      add\n      0x20\n      dup1\n      swap2\n      div\n      mul\n      0x20\n      add\n      mload(0x40)\n      swap1\n      dup2\n      add\n      0x40\n      mstore\n      dup1\n      swap3\n      swap2\n      swap1\n      dup2\n      dup2\n      mstore\n      0x20\n      add\n      dup3\n      dup1\n      sload\n      tag_427\n      swap1\n      tag_131\n      jump\t// in\n    tag_427:\n      dup1\n      iszero\n      tag_428\n      jumpi\n      dup1\n      0x1f\n      lt\n      tag_429\n      jumpi\n      0x0100\n      dup1\n      dup4\n      sload\n      div\n      mul\n      dup4\n      mstore\n      swap2\n      0x20\n      add\n      swap2\n      jump(tag_428)\n    tag_429:\n      dup3\n      add\n      swap2\n      swap1\n      0x00\n      mstore\n      keccak256(0x00, 0x20)\n      swap1\n    tag_430:\n      dup2\n      sload\n      dup2\n      mstore\n      swap1\n      0x01\n      add\n      swap1\n      0x20\n      add\n      dup1\n      dup4\n      gt\n      tag_430\n      jumpi\n      dup3\n      swap1\n      sub\n      0x1f\n      and\n      dup3\n      add\n      swap2\n    tag_428:\n      pop\n      pop\n      pop\n      pop\n      pop\n      dup2\n      mstore\n      0x20\n      add\n      0x0c\n      dup3\n      add\n      0x00\n      swap1\n      sload\n      swap1\n      0x0100\n      exp\n      swap1\n      div\n      0xff\n      and\n      iszero\n      iszero\n      iszero\n      iszero\n      dup2\n      mstore\n      0x20\n      add\n      0x0d\n      dup3\n      add\n      dup1\n      sload\n      tag_431\n      swap1\n      tag_131\n      jump\t// in\n    tag_431:\n      dup1\n      0x1f\n      add\n      0x20\n      dup1\n      swap2\n      div\n      mul\n      0x20\n      add\n      mload(0x40)\n      swap1\n      dup2\n      add\n      0x40\n      mstore\n      dup1\n      swap3\n      swap2\n      swap1\n      dup2\n      dup2\n      mstore\n      0x20\n      add\n      dup3\n      dup1\n      sload\n      tag_432\n      swap1\n      tag_131\n      jump\t// in\n    tag_432:\n      dup1\n      iszero\n      tag_433\n      jumpi\n      dup1\n      0x1f\n      lt\n      tag_434\n      jumpi\n      0x0100\n      dup1\n      dup4\n      sload\n      div\n      mul\n      dup4\n      mstore\n      swap2\n      0x20\n      add\n      swap2\n      jump(tag_433)\n    tag_434:\n      dup3\n      add\n      swap2\n      swap1\n      0x00\n      mstore\n      keccak256(0x00, 0x20)\n      swap1\n    tag_435:\n      dup2\n      sload\n      dup2\n      mstore\n      swap1\n      0x01\n      add\n      swap1\n      0x20\n      add\n      dup1\n      dup4\n      gt\n      tag_435\n      jumpi\n      dup3\n      swap1\n      sub\n      0x1f\n      and\n      dup3\n      add\n      swap2\n    tag_433:\n      pop\n      pop\n      pop\n      pop\n      pop\n      dup2\n      mstore\n      pop\n      pop\n      dup2\n      mstore\n      0x20\n      add\n      swap1\n      0x01\n      add\n      swap1\n      jump(tag_404)\n    tag_405:\n      pop\n      pop\n      pop\n      pop\n      swap1\n      pop\n        /* \"src/contracts/NewGenesisMaster.sol\":9084:9186  function getProjects() public view returns (projectStruct[] memory) {... */\n      swap1\n      jump\t// out\n        /* \"src/contracts/NewGenesisMaster.sol\":8907:9076  function getProject(uint id) public view returns (projectStruct memory) {... */\n    tag_122:\n        /* \"src/contracts/NewGenesisMaster.sol\":8957:8977  projectStruct memory */\n      tag_436\n      tag_153\n      jump\t// in\n    tag_436:\n        /* \"src/contracts/NewGenesisMaster.sol\":8998:9010  projectExist */\n      0x0c\n        /* \"src/contracts/NewGenesisMaster.sol\":8998:9014  projectExist[id] */\n      0x00\n        /* \"src/contracts/NewGenesisMaster.sol\":9011:9013  id */\n      dup4\n        /* \"src/contracts/NewGenesisMaster.sol\":8998:9014  projectExist[id] */\n      dup2\n      mstore\n      0x20\n      add\n      swap1\n      dup2\n      mstore\n      0x20\n      add\n      0x00\n      keccak256\n      0x00\n      swap1\n      sload\n      swap1\n      0x0100\n      exp\n      swap1\n      div\n      0xff\n      and\n        /* \"src/contracts/NewGenesisMaster.sol\":8990:9036  require(projectExist[id], \"Project not found\") */\n      tag_438\n      jumpi\n      mload(0x40)\n      0x08c379a000000000000000000000000000000000000000000000000000000000\n      dup2\n      mstore\n      0x04\n      add\n      tag_439\n      swap1\n      tag_266\n      jump\t// in\n    tag_439:\n      mload(0x40)\n      dup1\n      swap2\n      sub\n      swap1\n      revert\n    tag_438:\n        /* \"src/contracts/NewGenesisMaster.sol\":9056:9064  projects */\n      0x09\n        /* \"src/contracts/NewGenesisMaster.sol\":9065:9067  id */\n      dup3\n        /* \"src/contracts/NewGenesisMaster.sol\":9056:9068  projects[id] */\n      dup2\n      sload\n      dup2\n      lt\n      tag_440\n      jumpi\n      tag_441\n      tag_193\n      jump\t// in\n    tag_441:\n    tag_440:\n      swap1\n      0x00\n      mstore\n      keccak256(0x00, 0x20)\n      swap1\n      0x0e\n      mul\n      add\n        /* \"src/contracts/NewGenesisMaster.sol\":9049:9068  return projects[id] */\n      mload(0x40)\n      dup1\n      0x01c0\n      add\n      0x40\n      mstore\n      swap1\n      dup2\n      0x00\n      dup3\n      add\n      sload\n      dup2\n      mstore\n      0x20\n      add\n      0x01\n      dup3\n      add\n      0x00\n      swap1\n      sload\n      swap1\n      0x0100\n      exp\n      swap1\n      div\n      0xffffffffffffffffffffffffffffffffffffffff\n      and\n      0xffffffffffffffffffffffffffffffffffffffff\n      and\n      0xffffffffffffffffffffffffffffffffffffffff\n      and\n      dup2\n      mstore\n      0x20\n      add\n      0x02\n      dup3\n      add\n      dup1\n      sload\n      tag_443\n      swap1\n      tag_131\n      jump\t// in\n    tag_443:\n      dup1\n      0x1f\n      add\n      0x20\n      dup1\n      swap2\n      div\n      mul\n      0x20\n      add\n      mload(0x40)\n      swap1\n      dup2\n      add\n      0x40\n      mstore\n      dup1\n      swap3\n      swap2\n      swap1\n      dup2\n      dup2\n      mstore\n      0x20\n      add\n      dup3\n      dup1\n      sload\n      tag_444\n      swap1\n      tag_131\n      jump\t// in\n    tag_444:\n      dup1\n      iszero\n      tag_445\n      jumpi\n      dup1\n      0x1f\n      lt\n      tag_446\n      jumpi\n      0x0100\n      dup1\n      dup4\n      sload\n      div\n      mul\n      dup4\n      mstore\n      swap2\n      0x20\n      add\n      swap2\n      jump(tag_445)\n    tag_446:\n      dup3\n      add\n      swap2\n      swap1\n      0x00\n      mstore\n      keccak256(0x00, 0x20)\n      swap1\n    tag_447:\n      dup2\n      sload\n      dup2\n      mstore\n      swap1\n      0x01\n      add\n      swap1\n      0x20\n      add\n      dup1\n      dup4\n      gt\n      tag_447\n      jumpi\n      dup3\n      swap1\n      sub\n      0x1f\n      and\n      dup3\n      add\n      swap2\n    tag_445:\n      pop\n      pop\n      pop\n      pop\n      pop\n      dup2\n      mstore\n      0x20\n      add\n      0x03\n      dup3\n      add\n      dup1\n      sload\n      tag_448\n      swap1\n      tag_131\n      jump\t// in\n    tag_448:\n      dup1\n      0x1f\n      add\n      0x20\n      dup1\n      swap2\n      div\n      mul\n      0x20\n      add\n      mload(0x40)\n      swap1\n      dup2\n      add\n      0x40\n      mstore\n      dup1\n      swap3\n      swap2\n      swap1\n      dup2\n      dup2\n      mstore\n      0x20\n      add\n      dup3\n      dup1\n      sload\n      tag_449\n      swap1\n      tag_131\n      jump\t// in\n    tag_449:\n      dup1\n      iszero\n      tag_450\n      jumpi\n      dup1\n      0x1f\n      lt\n      tag_451\n      jumpi\n      0x0100\n      dup1\n      dup4\n      sload\n      div\n      mul\n      dup4\n      mstore\n      swap2\n      0x20\n      add\n      swap2\n      jump(tag_450)\n    tag_451:\n      dup3\n      add\n      swap2\n      swap1\n      0x00\n      mstore\n      keccak256(0x00, 0x20)\n      swap1\n    tag_452:\n      dup2\n      sload\n      dup2\n      mstore\n      swap1\n      0x01\n      add\n      swap1\n      0x20\n      add\n      dup1\n      dup4\n      gt\n      tag_452\n      jumpi\n      dup3\n      swap1\n      sub\n      0x1f\n      and\n      dup3\n      add\n      swap2\n    tag_450:\n      pop\n      pop\n      pop\n      pop\n      pop\n      dup2\n      mstore\n      0x20\n      add\n      0x04\n      dup3\n      add\n      dup1\n      sload\n      tag_453\n      swap1\n      tag_131\n      jump\t// in\n    tag_453:\n      dup1\n      0x1f\n      add\n      0x20\n      dup1\n      swap2\n      div\n      mul\n      0x20\n      add\n      mload(0x40)\n      swap1\n      dup2\n      add\n      0x40\n      mstore\n      dup1\n      swap3\n      swap2\n      swap1\n      dup2\n      dup2\n      mstore\n      0x20\n      add\n      dup3\n      dup1\n      sload\n      tag_454\n      swap1\n      tag_131\n      jump\t// in\n    tag_454:\n      dup1\n      iszero\n      tag_455\n      jumpi\n      dup1\n      0x1f\n      lt\n      tag_456\n      jumpi\n      0x0100\n      dup1\n      dup4\n      sload\n      div\n      mul\n      dup4\n      mstore\n      swap2\n      0x20\n      add\n      swap2\n      jump(tag_455)\n    tag_456:\n      dup3\n      add\n      swap2\n      swap1\n      0x00\n      mstore\n      keccak256(0x00, 0x20)\n      swap1\n    tag_457:\n      dup2\n      sload\n      dup2\n      mstore\n      swap1\n      0x01\n      add\n      swap1\n      0x20\n      add\n      dup1\n      dup4\n      gt\n      tag_457\n      jumpi\n      dup3\n      swap1\n      sub\n      0x1f\n      and\n      dup3\n      add\n      swap2\n    tag_455:\n      pop\n      pop\n      pop\n      pop\n      pop\n      dup2\n      mstore\n      0x20\n      add\n      0x05\n      dup3\n      add\n      sload\n      dup2\n      mstore\n      0x20\n      add\n      0x06\n      dup3\n      add\n      sload\n      dup2\n      mstore\n      0x20\n      add\n      0x07\n      dup3\n      add\n      sload\n      dup2\n      mstore\n      0x20\n      add\n      0x08\n      dup3\n      add\n      sload\n      dup2\n      mstore\n      0x20\n      add\n      0x09\n      dup3\n      add\n      sload\n      dup2\n      mstore\n      0x20\n      add\n      0x0a\n      dup3\n      add\n      0x00\n      swap1\n      sload\n      swap1\n      0x0100\n      exp\n      swap1\n      div\n      0xff\n      and\n      0x05\n      dup2\n      gt\n      iszero\n      tag_458\n      jumpi\n      tag_459\n      tag_156\n      jump\t// in\n    tag_459:\n    tag_458:\n      0x05\n      dup2\n      gt\n      iszero\n      tag_460\n      jumpi\n      tag_461\n      tag_156\n      jump\t// in\n    tag_461:\n    tag_460:\n      dup2\n      mstore\n      0x20\n      add\n      0x0b\n      dup3\n      add\n      dup1\n      sload\n      tag_462\n      swap1\n      tag_131\n      jump\t// in\n    tag_462:\n      dup1\n      0x1f\n      add\n      0x20\n      dup1\n      swap2\n      div\n      mul\n      0x20\n      add\n      mload(0x40)\n      swap1\n      dup2\n      add\n      0x40\n      mstore\n      dup1\n      swap3\n      swap2\n      swap1\n      dup2\n      dup2\n      mstore\n      0x20\n      add\n      dup3\n      dup1\n      sload\n      tag_463\n      swap1\n      tag_131\n      jump\t// in\n    tag_463:\n      dup1\n      iszero\n      tag_464\n      jumpi\n      dup1\n      0x1f\n      lt\n      tag_465\n      jumpi\n      0x0100\n      dup1\n      dup4\n      sload\n      div\n      mul\n      dup4\n      mstore\n      swap2\n      0x20\n      add\n      swap2\n      jump(tag_464)\n    tag_465:\n      dup3\n      add\n      swap2\n      swap1\n      0x00\n      mstore\n      keccak256(0x00, 0x20)\n      swap1\n    tag_466:\n      dup2\n      sload\n      dup2\n      mstore\n      swap1\n      0x01\n      add\n      swap1\n      0x20\n      add\n      dup1\n      dup4\n      gt\n      tag_466\n      jumpi\n      dup3\n      swap1\n      sub\n      0x1f\n      and\n      dup3\n      add\n      swap2\n    tag_464:\n      pop\n      pop\n      pop\n      pop\n      pop\n      dup2\n      mstore\n      0x20\n      add\n      0x0c\n      dup3\n      add\n      0x00\n      swap1\n      sload\n      swap1\n      0x0100\n      exp\n      swap1\n      div\n      0xff\n      and\n      iszero\n      iszero\n      iszero\n      iszero\n      dup2\n      mstore\n      0x20\n      add\n      0x0d\n      dup3\n      add\n      dup1\n      sload\n      tag_467\n      swap1\n      tag_131\n      jump\t// in\n    tag_467:\n      dup1\n      0x1f\n      add\n      0x20\n      dup1\n      swap2\n      div\n      mul\n      0x20\n      add\n      mload(0x40)\n      swap1\n      dup2\n      add\n      0x40\n      mstore\n      dup1\n      swap3\n      swap2\n      swap1\n      dup2\n      dup2\n      mstore\n      0x20\n      add\n      dup3\n      dup1\n      sload\n      tag_468\n      swap1\n      tag_131\n      jump\t// in\n    tag_468:\n      dup1\n      iszero\n      tag_469\n      jumpi\n      dup1\n      0x1f\n      lt\n      tag_470\n      jumpi\n      0x0100\n      dup1\n      dup4\n      sload\n      div\n      mul\n      dup4\n      mstore\n      swap2\n      0x20\n      add\n      swap2\n      jump(tag_469)\n    tag_470:\n      dup3\n      add\n      swap2\n      swap1\n      0x00\n      mstore\n      keccak256(0x00, 0x20)\n      swap1\n    tag_471:\n      dup2\n      sload\n      dup2\n      mstore\n      swap1\n      0x01\n      add\n      swap1\n      0x20\n      add\n      dup1\n      dup4\n      gt\n      tag_471\n      jumpi\n      dup3\n      swap1\n      sub\n      0x1f\n      and\n      dup3\n      add\n      swap2\n    tag_469:\n      pop\n      pop\n      pop\n      pop\n      pop\n      dup2\n      mstore\n      pop\n      pop\n      swap1\n      pop\n        /* \"src/contracts/NewGenesisMaster.sol\":8907:9076  function getProject(uint id) public view returns (projectStruct memory) {... */\n      swap2\n      swap1\n      pop\n      jump\t// out\n        /* \"src/contracts/NewGenesisMaster.sol\":419:461  mapping(address => bool) public validators */\n    tag_128:\n      mstore(0x20, 0x0d)\n      dup1\n      0x00\n      mstore\n      keccak256(0x00, 0x40)\n      0x00\n      swap2\n      pop\n      sload\n      swap1\n      0x0100\n      exp\n      swap1\n      div\n      0xff\n      and\n      dup2\n      jump\t// out\n        /* \"src/contracts/NewGenesisMaster.sol\":5892:6373  function performRefund(uint id) internal {... */\n    tag_212:\n        /* \"src/contracts/NewGenesisMaster.sol\":5949:5955  uint i */\n      0x00\n        /* \"src/contracts/NewGenesisMaster.sol\":5944:6366  for (uint i = 0; i < backersOf[id].length; i++) {... */\n    tag_473:\n        /* \"src/contracts/NewGenesisMaster.sol\":5965:5974  backersOf */\n      0x0b\n        /* \"src/contracts/NewGenesisMaster.sol\":5965:5978  backersOf[id] */\n      0x00\n        /* \"src/contracts/NewGenesisMaster.sol\":5975:5977  id */\n      dup4\n        /* \"src/contracts/NewGenesisMaster.sol\":5965:5978  backersOf[id] */\n      dup2\n      mstore\n      0x20\n      add\n      swap1\n      dup2\n      mstore\n      0x20\n      add\n      0x00\n      keccak256\n        /* \"src/contracts/NewGenesisMaster.sol\":5965:5985  backersOf[id].length */\n      dup1\n      sload\n      swap1\n      pop\n        /* \"src/contracts/NewGenesisMaster.sol\":5961:5962  i */\n      dup2\n        /* \"src/contracts/NewGenesisMaster.sol\":5961:5985  i < backersOf[id].length */\n      lt\n        /* \"src/contracts/NewGenesisMaster.sol\":5944:6366  for (uint i = 0; i < backersOf[id].length; i++) {... */\n      iszero\n      tag_474\n      jumpi\n        /* \"src/contracts/NewGenesisMaster.sol\":6007:6021  address _owner */\n      0x00\n        /* \"src/contracts/NewGenesisMaster.sol\":6024:6033  backersOf */\n      0x0b\n        /* \"src/contracts/NewGenesisMaster.sol\":6024:6037  backersOf[id] */\n      0x00\n        /* \"src/contracts/NewGenesisMaster.sol\":6034:6036  id */\n      dup5\n        /* \"src/contracts/NewGenesisMaster.sol\":6024:6037  backersOf[id] */\n      dup2\n      mstore\n      0x20\n      add\n      swap1\n      dup2\n      mstore\n      0x20\n      add\n      0x00\n      keccak256\n        /* \"src/contracts/NewGenesisMaster.sol\":6038:6039  i */\n      dup3\n        /* \"src/contracts/NewGenesisMaster.sol\":6024:6040  backersOf[id][i] */\n      dup2\n      sload\n      dup2\n      lt\n      tag_476\n      jumpi\n      tag_477\n      tag_193\n      jump\t// in\n    tag_477:\n    tag_476:\n      swap1\n      0x00\n      mstore\n      keccak256(0x00, 0x20)\n      swap1\n      0x04\n      mul\n      add\n        /* \"src/contracts/NewGenesisMaster.sol\":6024:6046  backersOf[id][i].owner */\n      0x00\n      add\n      0x00\n      swap1\n      sload\n      swap1\n      0x0100\n      exp\n      swap1\n      div\n      0xffffffffffffffffffffffffffffffffffffffff\n      and\n        /* \"src/contracts/NewGenesisMaster.sol\":6007:6046  address _owner = backersOf[id][i].owner */\n      swap1\n      pop\n        /* \"src/contracts/NewGenesisMaster.sol\":6061:6079  uint _contribution */\n      0x00\n        /* \"src/contracts/NewGenesisMaster.sol\":6082:6091  backersOf */\n      0x0b\n        /* \"src/contracts/NewGenesisMaster.sol\":6082:6095  backersOf[id] */\n      0x00\n        /* \"src/contracts/NewGenesisMaster.sol\":6092:6094  id */\n      dup6\n        /* \"src/contracts/NewGenesisMaster.sol\":6082:6095  backersOf[id] */\n      dup2\n      mstore\n      0x20\n      add\n      swap1\n      dup2\n      mstore\n      0x20\n      add\n      0x00\n      keccak256\n        /* \"src/contracts/NewGenesisMaster.sol\":6096:6097  i */\n      dup4\n        /* \"src/contracts/NewGenesisMaster.sol\":6082:6098  backersOf[id][i] */\n      dup2\n      sload\n      dup2\n      lt\n      tag_479\n      jumpi\n      tag_480\n      tag_193\n      jump\t// in\n    tag_480:\n    tag_479:\n      swap1\n      0x00\n      mstore\n      keccak256(0x00, 0x20)\n      swap1\n      0x04\n      mul\n      add\n        /* \"src/contracts/NewGenesisMaster.sol\":6082:6111  backersOf[id][i].contribution */\n      0x01\n      add\n      sload\n        /* \"src/contracts/NewGenesisMaster.sol\":6061:6111  uint _contribution = backersOf[id][i].contribution */\n      swap1\n      pop\n        /* \"src/contracts/NewGenesisMaster.sol\":6156:6160  true */\n      0x01\n        /* \"src/contracts/NewGenesisMaster.sol\":6128:6137  backersOf */\n      0x0b\n        /* \"src/contracts/NewGenesisMaster.sol\":6128:6141  backersOf[id] */\n      0x00\n        /* \"src/contracts/NewGenesisMaster.sol\":6138:6140  id */\n      dup7\n        /* \"src/contracts/NewGenesisMaster.sol\":6128:6141  backersOf[id] */\n      dup2\n      mstore\n      0x20\n      add\n      swap1\n      dup2\n      mstore\n      0x20\n      add\n      0x00\n      keccak256\n        /* \"src/contracts/NewGenesisMaster.sol\":6142:6143  i */\n      dup5\n        /* \"src/contracts/NewGenesisMaster.sol\":6128:6144  backersOf[id][i] */\n      dup2\n      sload\n      dup2\n      lt\n      tag_482\n      jumpi\n      tag_483\n      tag_193\n      jump\t// in\n    tag_483:\n    tag_482:\n      swap1\n      0x00\n      mstore\n      keccak256(0x00, 0x20)\n      swap1\n      0x04\n      mul\n      add\n        /* \"src/contracts/NewGenesisMaster.sol\":6128:6153  backersOf[id][i].refunded */\n      0x03\n      add\n      0x00\n        /* \"src/contracts/NewGenesisMaster.sol\":6128:6160  backersOf[id][i].refunded = true */\n      0x0100\n      exp\n      dup2\n      sload\n      dup2\n      0xff\n      mul\n      not\n      and\n      swap1\n      dup4\n      iszero\n      iszero\n      mul\n      or\n      swap1\n      sstore\n      pop\n        /* \"src/contracts/NewGenesisMaster.sol\":6204:6219  block.timestamp */\n      timestamp\n        /* \"src/contracts/NewGenesisMaster.sol\":6175:6184  backersOf */\n      0x0b\n        /* \"src/contracts/NewGenesisMaster.sol\":6175:6188  backersOf[id] */\n      0x00\n        /* \"src/contracts/NewGenesisMaster.sol\":6185:6187  id */\n      dup7\n        /* \"src/contracts/NewGenesisMaster.sol\":6175:6188  backersOf[id] */\n      dup2\n      mstore\n      0x20\n      add\n      swap1\n      dup2\n      mstore\n      0x20\n      add\n      0x00\n      keccak256\n        /* \"src/contracts/NewGenesisMaster.sol\":6189:6190  i */\n      dup5\n        /* \"src/contracts/NewGenesisMaster.sol\":6175:6191  backersOf[id][i] */\n      dup2\n      sload\n      dup2\n      lt\n      tag_485\n      jumpi\n      tag_486\n      tag_193\n      jump\t// in\n    tag_486:\n    tag_485:\n      swap1\n      0x00\n      mstore\n      keccak256(0x00, 0x20)\n      swap1\n      0x04\n      mul\n      add\n        /* \"src/contracts/NewGenesisMaster.sol\":6175:6201  backersOf[id][i].timestamp */\n      0x02\n      add\n        /* \"src/contracts/NewGenesisMaster.sol\":6175:6219  backersOf[id][i].timestamp = block.timestamp */\n      dup2\n      swap1\n      sstore\n      pop\n        /* \"src/contracts/NewGenesisMaster.sol\":6234:6262  payTo(_owner, _contribution) */\n      tag_488\n        /* \"src/contracts/NewGenesisMaster.sol\":6240:6246  _owner */\n      dup3\n        /* \"src/contracts/NewGenesisMaster.sol\":6248:6261  _contribution */\n      dup3\n        /* \"src/contracts/NewGenesisMaster.sol\":6234:6239  payTo */\n      tag_489\n        /* \"src/contracts/NewGenesisMaster.sol\":6234:6262  payTo(_owner, _contribution) */\n      jump\t// in\n    tag_488:\n        /* \"src/contracts/NewGenesisMaster.sol\":6301:6302  1 */\n      0x01\n        /* \"src/contracts/NewGenesisMaster.sol\":6279:6284  stats */\n      0x04\n        /* \"src/contracts/NewGenesisMaster.sol\":6279:6297  stats.totalBacking */\n      0x01\n      add\n      0x00\n        /* \"src/contracts/NewGenesisMaster.sol\":6279:6302  stats.totalBacking -= 1 */\n      dup3\n      dup3\n      sload\n      tag_490\n      swap2\n      swap1\n      tag_289\n      jump\t// in\n    tag_490:\n      swap3\n      pop\n      pop\n      dup2\n      swap1\n      sstore\n      pop\n        /* \"src/contracts/NewGenesisMaster.sol\":6341:6354  _contribution */\n      dup1\n        /* \"src/contracts/NewGenesisMaster.sol\":6317:6322  stats */\n      0x04\n        /* \"src/contracts/NewGenesisMaster.sol\":6317:6337  stats.totalDonations */\n      0x02\n      add\n      0x00\n        /* \"src/contracts/NewGenesisMaster.sol\":6317:6354  stats.totalDonations -= _contribution */\n      dup3\n      dup3\n      sload\n      tag_491\n      swap2\n      swap1\n      tag_289\n      jump\t// in\n    tag_491:\n      swap3\n      pop\n      pop\n      dup2\n      swap1\n      sstore\n      pop\n        /* \"src/contracts/NewGenesisMaster.sol\":5992:6366  {... */\n      pop\n      pop\n        /* \"src/contracts/NewGenesisMaster.sol\":5987:5990  i++ */\n      dup1\n      dup1\n      0x01\n      add\n      swap2\n      pop\n      pop\n        /* \"src/contracts/NewGenesisMaster.sol\":5944:6366  for (uint i = 0; i < backersOf[id].length; i++) {... */\n      jump(tag_473)\n    tag_474:\n      pop\n        /* \"src/contracts/NewGenesisMaster.sol\":5892:6373  function performRefund(uint id) internal {... */\n      pop\n      jump\t// out\n        /* \"src/contracts/NewGenesisMaster.sol\":7648:8045  function performPayout(uint id) internal {... */\n    tag_345:\n        /* \"src/contracts/NewGenesisMaster.sol\":7700:7711  uint raised */\n      0x00\n        /* \"src/contracts/NewGenesisMaster.sol\":7714:7722  projects */\n      0x09\n        /* \"src/contracts/NewGenesisMaster.sol\":7723:7725  id */\n      dup3\n        /* \"src/contracts/NewGenesisMaster.sol\":7714:7726  projects[id] */\n      dup2\n      sload\n      dup2\n      lt\n      tag_493\n      jumpi\n      tag_494\n      tag_193\n      jump\t// in\n    tag_494:\n    tag_493:\n      swap1\n      0x00\n      mstore\n      keccak256(0x00, 0x20)\n      swap1\n      0x0e\n      mul\n      add\n        /* \"src/contracts/NewGenesisMaster.sol\":7714:7733  projects[id].raised */\n      0x06\n      add\n      sload\n        /* \"src/contracts/NewGenesisMaster.sol\":7700:7733  uint raised = projects[id].raised */\n      swap1\n      pop\n        /* \"src/contracts/NewGenesisMaster.sol\":7744:7752  uint tax */\n      0x00\n        /* \"src/contracts/NewGenesisMaster.sol\":7779:7782  100 */\n      0x64\n        /* \"src/contracts/NewGenesisMaster.sol\":7765:7775  projectTax */\n      sload(0x01)\n        /* \"src/contracts/NewGenesisMaster.sol\":7756:7762  raised */\n      dup4\n        /* \"src/contracts/NewGenesisMaster.sol\":7756:7775  raised * projectTax */\n      tag_496\n      swap2\n      swap1\n      tag_497\n      jump\t// in\n    tag_496:\n        /* \"src/contracts/NewGenesisMaster.sol\":7755:7782  (raised * projectTax) / 100 */\n      tag_498\n      swap2\n      swap1\n      tag_499\n      jump\t// in\n    tag_498:\n        /* \"src/contracts/NewGenesisMaster.sol\":7744:7782  uint tax = (raised * projectTax) / 100 */\n      swap1\n      pop\n        /* \"src/contracts/NewGenesisMaster.sol\":7817:7835  statusEnum.PAIDOUT */\n      0x05\n        /* \"src/contracts/NewGenesisMaster.sol\":7795:7803  projects */\n      0x09\n        /* \"src/contracts/NewGenesisMaster.sol\":7804:7806  id */\n      dup5\n        /* \"src/contracts/NewGenesisMaster.sol\":7795:7807  projects[id] */\n      dup2\n      sload\n      dup2\n      lt\n      tag_500\n      jumpi\n      tag_501\n      tag_193\n      jump\t// in\n    tag_501:\n    tag_500:\n      swap1\n      0x00\n      mstore\n      keccak256(0x00, 0x20)\n      swap1\n      0x0e\n      mul\n      add\n        /* \"src/contracts/NewGenesisMaster.sol\":7795:7814  projects[id].status */\n      0x0a\n      add\n      0x00\n        /* \"src/contracts/NewGenesisMaster.sol\":7795:7835  projects[id].status = statusEnum.PAIDOUT */\n      0x0100\n      exp\n      dup2\n      sload\n      dup2\n      0xff\n      mul\n      not\n      and\n      swap1\n      dup4\n      0x05\n      dup2\n      gt\n      iszero\n      tag_503\n      jumpi\n      tag_504\n      tag_156\n      jump\t// in\n    tag_504:\n    tag_503:\n      mul\n      or\n      swap1\n      sstore\n      pop\n        /* \"src/contracts/NewGenesisMaster.sol\":7848:7889  payTo(projects[id].owner, (raised - tax)) */\n      tag_505\n        /* \"src/contracts/NewGenesisMaster.sol\":7854:7862  projects */\n      0x09\n        /* \"src/contracts/NewGenesisMaster.sol\":7863:7865  id */\n      dup5\n        /* \"src/contracts/NewGenesisMaster.sol\":7854:7866  projects[id] */\n      dup2\n      sload\n      dup2\n      lt\n      tag_506\n      jumpi\n      tag_507\n      tag_193\n      jump\t// in\n    tag_507:\n    tag_506:\n      swap1\n      0x00\n      mstore\n      keccak256(0x00, 0x20)\n      swap1\n      0x0e\n      mul\n      add\n        /* \"src/contracts/NewGenesisMaster.sol\":7854:7872  projects[id].owner */\n      0x01\n      add\n      0x00\n      swap1\n      sload\n      swap1\n      0x0100\n      exp\n      swap1\n      div\n      0xffffffffffffffffffffffffffffffffffffffff\n      and\n        /* \"src/contracts/NewGenesisMaster.sol\":7884:7887  tax */\n      dup3\n        /* \"src/contracts/NewGenesisMaster.sol\":7875:7881  raised */\n      dup5\n        /* \"src/contracts/NewGenesisMaster.sol\":7875:7887  raised - tax */\n      tag_509\n      swap2\n      swap1\n      tag_289\n      jump\t// in\n    tag_509:\n        /* \"src/contracts/NewGenesisMaster.sol\":7848:7853  payTo */\n      tag_489\n        /* \"src/contracts/NewGenesisMaster.sol\":7848:7889  payTo(projects[id].owner, (raised - tax)) */\n      jump\t// in\n    tag_505:\n        /* \"src/contracts/NewGenesisMaster.sol\":7900:7917  payTo(owner, tax) */\n      tag_510\n        /* \"src/contracts/NewGenesisMaster.sol\":7906:7911  owner */\n      0x00\n      dup1\n      sload\n      swap1\n      0x0100\n      exp\n      swap1\n      div\n      0xffffffffffffffffffffffffffffffffffffffff\n      and\n        /* \"src/contracts/NewGenesisMaster.sol\":7913:7916  tax */\n      dup3\n        /* \"src/contracts/NewGenesisMaster.sol\":7900:7905  payTo */\n      tag_489\n        /* \"src/contracts/NewGenesisMaster.sol\":7900:7917  payTo(owner, tax) */\n      jump\t// in\n    tag_510:\n        /* \"src/contracts/NewGenesisMaster.sol\":7941:7949  projects */\n      0x09\n        /* \"src/contracts/NewGenesisMaster.sol\":7950:7952  id */\n      dup4\n        /* \"src/contracts/NewGenesisMaster.sol\":7941:7953  projects[id] */\n      dup2\n      sload\n      dup2\n      lt\n      tag_511\n      jumpi\n      tag_512\n      tag_193\n      jump\t// in\n    tag_512:\n    tag_511:\n      swap1\n      0x00\n      mstore\n      keccak256(0x00, 0x20)\n      swap1\n      0x0e\n      mul\n      add\n        /* \"src/contracts/NewGenesisMaster.sol\":7941:7960  projects[id].raised */\n      0x06\n      add\n      sload\n        /* \"src/contracts/NewGenesisMaster.sol\":7930:7937  balance */\n      0x03\n      0x00\n        /* \"src/contracts/NewGenesisMaster.sol\":7930:7960  balance -= projects[id].raised */\n      dup3\n      dup3\n      sload\n      tag_514\n      swap2\n      swap1\n      tag_289\n      jump\t// in\n    tag_514:\n      swap3\n      pop\n      pop\n      dup2\n      swap1\n      sstore\n      pop\n        /* \"src/contracts/NewGenesisMaster.sol\":8009:8019  msg.sender */\n      caller\n        /* \"src/contracts/NewGenesisMaster.sol\":7978:8037  Action(id, \"PROJECT PAID OUT\", msg.sender, block.timestamp) */\n      0xffffffffffffffffffffffffffffffffffffffff\n      and\n      0xaee8e5d3bbb2f71a951b5632cee20f7ac487b9f8ab4f66a236f7694b13af7c6a\n        /* \"src/contracts/NewGenesisMaster.sol\":7985:7987  id */\n      dup5\n        /* \"src/contracts/NewGenesisMaster.sol\":8021:8036  block.timestamp */\n      timestamp\n        /* \"src/contracts/NewGenesisMaster.sol\":7978:8037  Action(id, \"PROJECT PAID OUT\", msg.sender, block.timestamp) */\n      mload(0x40)\n      tag_515\n      swap3\n      swap2\n      swap1\n      tag_516\n      jump\t// in\n    tag_515:\n      mload(0x40)\n      dup1\n      swap2\n      sub\n      swap1\n      log2\n        /* \"src/contracts/NewGenesisMaster.sol\":7689:8045  {... */\n      pop\n      pop\n        /* \"src/contracts/NewGenesisMaster.sol\":7648:8045  function performPayout(uint id) internal {... */\n      pop\n      jump\t// out\n        /* \"src/contracts/NewGenesisMaster.sol\":9314:9466  function payTo(address to, uint256 amount) internal {... */\n    tag_489:\n        /* \"src/contracts/NewGenesisMaster.sol\":9378:9390  bool success */\n      0x00\n        /* \"src/contracts/NewGenesisMaster.sol\":9404:9406  to */\n      dup3\n        /* \"src/contracts/NewGenesisMaster.sol\":9396:9412  payable(to).call */\n      0xffffffffffffffffffffffffffffffffffffffff\n      and\n        /* \"src/contracts/NewGenesisMaster.sol\":9420:9426  amount */\n      dup3\n        /* \"src/contracts/NewGenesisMaster.sol\":9396:9431  payable(to).call{value: amount}(\"\") */\n      mload(0x40)\n      tag_518\n      swap1\n      tag_519\n      jump\t// in\n    tag_518:\n      0x00\n      mload(0x40)\n      dup1\n      dup4\n      sub\n      dup2\n      dup6\n      dup8\n      gas\n      call\n      swap3\n      pop\n      pop\n      pop\n      returndatasize\n      dup1\n      0x00\n      dup2\n      eq\n      tag_522\n      jumpi\n      mload(0x40)\n      swap2\n      pop\n      and(add(returndatasize, 0x3f), not(0x1f))\n      dup3\n      add\n      0x40\n      mstore\n      returndatasize\n      dup3\n      mstore\n      returndatasize\n      0x00\n      0x20\n      dup5\n      add\n      returndatacopy\n      jump(tag_521)\n    tag_522:\n      0x60\n      swap2\n      pop\n    tag_521:\n      pop\n        /* \"src/contracts/NewGenesisMaster.sol\":9377:9431  (bool success, ) = payable(to).call{value: amount}(\"\") */\n      pop\n      swap1\n      pop\n        /* \"src/contracts/NewGenesisMaster.sol\":9450:9457  success */\n      dup1\n        /* \"src/contracts/NewGenesisMaster.sol\":9442:9458  require(success) */\n      tag_523\n      jumpi\n      0x00\n      dup1\n      revert\n    tag_523:\n        /* \"src/contracts/NewGenesisMaster.sol\":9366:9466  {... */\n      pop\n        /* \"src/contracts/NewGenesisMaster.sol\":9314:9466  function payTo(address to, uint256 amount) internal {... */\n      pop\n      pop\n      jump\t// out\n    tag_153:\n      mload(0x40)\n      dup1\n      0x01c0\n      add\n      0x40\n      mstore\n      dup1\n      0x00\n      dup2\n      mstore\n      0x20\n      add\n      and(0xffffffffffffffffffffffffffffffffffffffff, 0x00)\n      dup2\n      mstore\n      0x20\n      add\n      0x60\n      dup2\n      mstore\n      0x20\n      add\n      0x60\n      dup2\n      mstore\n      0x20\n      add\n      0x60\n      dup2\n      mstore\n      0x20\n      add\n      0x00\n      dup2\n      mstore\n      0x20\n      add\n      0x00\n      dup2\n      mstore\n      0x20\n      add\n      0x00\n      dup2\n      mstore\n      0x20\n      add\n      0x00\n      dup2\n      mstore\n      0x20\n      add\n      0x00\n      dup2\n      mstore\n      0x20\n      add\n      0x00\n      0x05\n      dup2\n      gt\n      iszero\n      tag_524\n      jumpi\n      tag_525\n      tag_156\n      jump\t// in\n    tag_525:\n    tag_524:\n      dup2\n      mstore\n      0x20\n      add\n      0x60\n      dup2\n      mstore\n      0x20\n      add\n      iszero(iszero(0x00))\n      dup2\n      mstore\n      0x20\n      add\n      0x60\n      dup2\n      mstore\n      pop\n      swap1\n      jump\t// out\n        /* \"#utility.yul\":7:82   */\n    tag_526:\n        /* \"#utility.yul\":40:46   */\n      0x00\n        /* \"#utility.yul\":73:75   */\n      0x40\n        /* \"#utility.yul\":67:76   */\n      mload\n        /* \"#utility.yul\":57:76   */\n      swap1\n      pop\n        /* \"#utility.yul\":7:82   */\n      swap1\n      jump\t// out\n        /* \"#utility.yul\":88:205   */\n    tag_527:\n        /* \"#utility.yul\":197:198   */\n      0x00\n        /* \"#utility.yul\":194:195   */\n      dup1\n        /* \"#utility.yul\":187:199   */\n      revert\n        /* \"#utility.yul\":211:328   */\n    tag_528:\n        /* \"#utility.yul\":320:321   */\n      0x00\n        /* \"#utility.yul\":317:318   */\n      dup1\n        /* \"#utility.yul\":310:322   */\n      revert\n        /* \"#utility.yul\":334:460   */\n    tag_529:\n        /* \"#utility.yul\":371:378   */\n      0x00\n        /* \"#utility.yul\":411:453   */\n      0xffffffffffffffffffffffffffffffffffffffff\n        /* \"#utility.yul\":404:409   */\n      dup3\n        /* \"#utility.yul\":400:454   */\n      and\n        /* \"#utility.yul\":389:454   */\n      swap1\n      pop\n        /* \"#utility.yul\":334:460   */\n      swap2\n      swap1\n      pop\n      jump\t// out\n        /* \"#utility.yul\":466:562   */\n    tag_530:\n        /* \"#utility.yul\":503:510   */\n      0x00\n        /* \"#utility.yul\":532:556   */\n      tag_657\n        /* \"#utility.yul\":550:555   */\n      dup3\n        /* \"#utility.yul\":532:556   */\n      tag_529\n      jump\t// in\n    tag_657:\n        /* \"#utility.yul\":521:556   */\n      swap1\n      pop\n        /* \"#utility.yul\":466:562   */\n      swap2\n      swap1\n      pop\n      jump\t// out\n        /* \"#utility.yul\":568:690   */\n    tag_531:\n        /* \"#utility.yul\":641:665   */\n      tag_659\n        /* \"#utility.yul\":659:664   */\n      dup2\n        /* \"#utility.yul\":641:665   */\n      tag_530\n      jump\t// in\n    tag_659:\n        /* \"#utility.yul\":634:639   */\n      dup2\n        /* \"#utility.yul\":631:666   */\n      eq\n        /* \"#utility.yul\":621:684   */\n      tag_660\n      jumpi\n        /* \"#utility.yul\":680:681   */\n      0x00\n        /* \"#utility.yul\":677:678   */\n      dup1\n        /* \"#utility.yul\":670:682   */\n      revert\n        /* \"#utility.yul\":621:684   */\n    tag_660:\n        /* \"#utility.yul\":568:690   */\n      pop\n      jump\t// out\n        /* \"#utility.yul\":696:835   */\n    tag_532:\n        /* \"#utility.yul\":742:747   */\n      0x00\n        /* \"#utility.yul\":780:786   */\n      dup2\n        /* \"#utility.yul\":767:787   */\n      calldataload\n        /* \"#utility.yul\":758:787   */\n      swap1\n      pop\n        /* \"#utility.yul\":796:829   */\n      tag_662\n        /* \"#utility.yul\":823:828   */\n      dup2\n        /* \"#utility.yul\":796:829   */\n      tag_531\n      jump\t// in\n    tag_662:\n        /* \"#utility.yul\":696:835   */\n      swap3\n      swap2\n      pop\n      pop\n      jump\t// out\n        /* \"#utility.yul\":841:1170   */\n    tag_28:\n        /* \"#utility.yul\":900:906   */\n      0x00\n        /* \"#utility.yul\":949:951   */\n      0x20\n        /* \"#utility.yul\":937:946   */\n      dup3\n        /* \"#utility.yul\":928:935   */\n      dup5\n        /* \"#utility.yul\":924:947   */\n      sub\n        /* \"#utility.yul\":920:952   */\n      slt\n        /* \"#utility.yul\":917:1036   */\n      iszero\n      tag_664\n      jumpi\n        /* \"#utility.yul\":955:1034   */\n      tag_665\n      tag_527\n      jump\t// in\n    tag_665:\n        /* \"#utility.yul\":917:1036   */\n    tag_664:\n        /* \"#utility.yul\":1075:1076   */\n      0x00\n        /* \"#utility.yul\":1100:1153   */\n      tag_666\n        /* \"#utility.yul\":1145:1152   */\n      dup5\n        /* \"#utility.yul\":1136:1142   */\n      dup3\n        /* \"#utility.yul\":1125:1134   */\n      dup6\n        /* \"#utility.yul\":1121:1143   */\n      add\n        /* \"#utility.yul\":1100:1153   */\n      tag_532\n      jump\t// in\n    tag_666:\n        /* \"#utility.yul\":1090:1153   */\n      swap2\n      pop\n        /* \"#utility.yul\":1046:1163   */\n      pop\n        /* \"#utility.yul\":841:1170   */\n      swap3\n      swap2\n      pop\n      pop\n      jump\t// out\n        /* \"#utility.yul\":1176:1275   */\n    tag_533:\n        /* \"#utility.yul\":1228:1234   */\n      0x00\n        /* \"#utility.yul\":1262:1267   */\n      dup2\n        /* \"#utility.yul\":1256:1268   */\n      mload\n        /* \"#utility.yul\":1246:1268   */\n      swap1\n      pop\n        /* \"#utility.yul\":1176:1275   */\n      swap2\n      swap1\n      pop\n      jump\t// out\n        /* \"#utility.yul\":1281:1450   */\n    tag_534:\n        /* \"#utility.yul\":1365:1376   */\n      0x00\n        /* \"#utility.yul\":1399:1405   */\n      dup3\n        /* \"#utility.yul\":1394:1397   */\n      dup3\n        /* \"#utility.yul\":1387:1406   */\n      mstore\n        /* \"#utility.yul\":1439:1443   */\n      0x20\n        /* \"#utility.yul\":1434:1437   */\n      dup3\n        /* \"#utility.yul\":1430:1444   */\n      add\n        /* \"#utility.yul\":1415:1444   */\n      swap1\n      pop\n        /* \"#utility.yul\":1281:1450   */\n      swap3\n      swap2\n      pop\n      pop\n      jump\t// out\n        /* \"#utility.yul\":1456:1595   */\n    tag_535:\n        /* \"#utility.yul\":1545:1551   */\n      dup3\n        /* \"#utility.yul\":1540:1543   */\n      dup2\n        /* \"#utility.yul\":1535:1538   */\n      dup4\n        /* \"#utility.yul\":1529:1552   */\n      mcopy\n        /* \"#utility.yul\":1586:1587   */\n      0x00\n        /* \"#utility.yul\":1577:1583   */\n      dup4\n        /* \"#utility.yul\":1572:1575   */\n      dup4\n        /* \"#utility.yul\":1568:1584   */\n      add\n        /* \"#utility.yul\":1561:1588   */\n      mstore\n        /* \"#utility.yul\":1456:1595   */\n      pop\n      pop\n      pop\n      jump\t// out\n        /* \"#utility.yul\":1601:1703   */\n    tag_536:\n        /* \"#utility.yul\":1642:1648   */\n      0x00\n        /* \"#utility.yul\":1693:1695   */\n      0x1f\n        /* \"#utility.yul\":1689:1696   */\n      not\n        /* \"#utility.yul\":1684:1686   */\n      0x1f\n        /* \"#utility.yul\":1677:1682   */\n      dup4\n        /* \"#utility.yul\":1673:1687   */\n      add\n        /* \"#utility.yul\":1669:1697   */\n      and\n        /* \"#utility.yul\":1659:1697   */\n      swap1\n      pop\n        /* \"#utility.yul\":1601:1703   */\n      swap2\n      swap1\n      pop\n      jump\t// out\n        /* \"#utility.yul\":1709:2086   */\n    tag_537:\n        /* \"#utility.yul\":1797:1800   */\n      0x00\n        /* \"#utility.yul\":1825:1864   */\n      tag_672\n        /* \"#utility.yul\":1858:1863   */\n      dup3\n        /* \"#utility.yul\":1825:1864   */\n      tag_533\n      jump\t// in\n    tag_672:\n        /* \"#utility.yul\":1880:1951   */\n      tag_673\n        /* \"#utility.yul\":1944:1950   */\n      dup2\n        /* \"#utility.yul\":1939:1942   */\n      dup6\n        /* \"#utility.yul\":1880:1951   */\n      tag_534\n      jump\t// in\n    tag_673:\n        /* \"#utility.yul\":1873:1951   */\n      swap4\n      pop\n        /* \"#utility.yul\":1960:2025   */\n      tag_674\n        /* \"#utility.yul\":2018:2024   */\n      dup2\n        /* \"#utility.yul\":2013:2016   */\n      dup6\n        /* \"#utility.yul\":2006:2010   */\n      0x20\n        /* \"#utility.yul\":1999:2004   */\n      dup7\n        /* \"#utility.yul\":1995:2011   */\n      add\n        /* \"#utility.yul\":1960:2025   */\n      tag_535\n      jump\t// in\n    tag_674:\n        /* \"#utility.yul\":2050:2079   */\n      tag_675\n        /* \"#utility.yul\":2072:2078   */\n      dup2\n        /* \"#utility.yul\":2050:2079   */\n      tag_536\n      jump\t// in\n    tag_675:\n        /* \"#utility.yul\":2045:2048   */\n      dup5\n        /* \"#utility.yul\":2041:2080   */\n      add\n        /* \"#utility.yul\":2034:2080   */\n      swap2\n      pop\n        /* \"#utility.yul\":1801:2086   */\n      pop\n        /* \"#utility.yul\":1709:2086   */\n      swap3\n      swap2\n      pop\n      pop\n      jump\t// out\n        /* \"#utility.yul\":2092:2405   */\n    tag_31:\n        /* \"#utility.yul\":2205:2209   */\n      0x00\n        /* \"#utility.yul\":2243:2245   */\n      0x20\n        /* \"#utility.yul\":2232:2241   */\n      dup3\n        /* \"#utility.yul\":2228:2246   */\n      add\n        /* \"#utility.yul\":2220:2246   */\n      swap1\n      pop\n        /* \"#utility.yul\":2292:2301   */\n      dup2\n        /* \"#utility.yul\":2286:2290   */\n      dup2\n        /* \"#utility.yul\":2282:2302   */\n      sub\n        /* \"#utility.yul\":2278:2279   */\n      0x00\n        /* \"#utility.yul\":2267:2276   */\n      dup4\n        /* \"#utility.yul\":2263:2280   */\n      add\n        /* \"#utility.yul\":2256:2303   */\n      mstore\n        /* \"#utility.yul\":2320:2398   */\n      tag_677\n        /* \"#utility.yul\":2393:2397   */\n      dup2\n        /* \"#utility.yul\":2384:2390   */\n      dup5\n        /* \"#utility.yul\":2320:2398   */\n      tag_537\n      jump\t// in\n    tag_677:\n        /* \"#utility.yul\":2312:2398   */\n      swap1\n      pop\n        /* \"#utility.yul\":2092:2405   */\n      swap3\n      swap2\n      pop\n      pop\n      jump\t// out\n        /* \"#utility.yul\":2411:2528   */\n    tag_538:\n        /* \"#utility.yul\":2520:2521   */\n      0x00\n        /* \"#utility.yul\":2517:2518   */\n      dup1\n        /* \"#utility.yul\":2510:2522   */\n      revert\n        /* \"#utility.yul\":2534:2651   */\n    tag_539:\n        /* \"#utility.yul\":2643:2644   */\n      0x00\n        /* \"#utility.yul\":2640:2641   */\n      dup1\n        /* \"#utility.yul\":2633:2645   */\n      revert\n        /* \"#utility.yul\":2657:2837   */\n    tag_540:\n        /* \"#utility.yul\":2705:2782   */\n      0x4e487b7100000000000000000000000000000000000000000000000000000000\n        /* \"#utility.yul\":2702:2703   */\n      0x00\n        /* \"#utility.yul\":2695:2783   */\n      mstore\n        /* \"#utility.yul\":2802:2806   */\n      0x41\n        /* \"#utility.yul\":2799:2800   */\n      0x04\n        /* \"#utility.yul\":2792:2807   */\n      mstore\n        /* \"#utility.yul\":2826:2830   */\n      0x24\n        /* \"#utility.yul\":2823:2824   */\n      0x00\n        /* \"#utility.yul\":2816:2831   */\n      revert\n        /* \"#utility.yul\":2843:3124   */\n    tag_541:\n        /* \"#utility.yul\":2926:2953   */\n      tag_682\n        /* \"#utility.yul\":2948:2952   */\n      dup3\n        /* \"#utility.yul\":2926:2953   */\n      tag_536\n      jump\t// in\n    tag_682:\n        /* \"#utility.yul\":2918:2924   */\n      dup2\n        /* \"#utility.yul\":2914:2954   */\n      add\n        /* \"#utility.yul\":3056:3062   */\n      dup2\n        /* \"#utility.yul\":3044:3054   */\n      dup2\n        /* \"#utility.yul\":3041:3063   */\n      lt\n        /* \"#utility.yul\":3020:3038   */\n      0xffffffffffffffff\n        /* \"#utility.yul\":3008:3018   */\n      dup3\n        /* \"#utility.yul\":3005:3039   */\n      gt\n        /* \"#utility.yul\":3002:3064   */\n      or\n        /* \"#utility.yul\":2999:3087   */\n      iszero\n      tag_683\n      jumpi\n        /* \"#utility.yul\":3067:3085   */\n      tag_684\n      tag_540\n      jump\t// in\n    tag_684:\n        /* \"#utility.yul\":2999:3087   */\n    tag_683:\n        /* \"#utility.yul\":3107:3117   */\n      dup1\n        /* \"#utility.yul\":3103:3105   */\n      0x40\n        /* \"#utility.yul\":3096:3118   */\n      mstore\n        /* \"#utility.yul\":2886:3124   */\n      pop\n        /* \"#utility.yul\":2843:3124   */\n      pop\n      pop\n      jump\t// out\n        /* \"#utility.yul\":3130:3259   */\n    tag_542:\n        /* \"#utility.yul\":3164:3170   */\n      0x00\n        /* \"#utility.yul\":3191:3211   */\n      tag_686\n      tag_526\n      jump\t// in\n    tag_686:\n        /* \"#utility.yul\":3181:3211   */\n      swap1\n      pop\n        /* \"#utility.yul\":3220:3253   */\n      tag_687\n        /* \"#utility.yul\":3248:3252   */\n      dup3\n        /* \"#utility.yul\":3240:3246   */\n      dup3\n        /* \"#utility.yul\":3220:3253   */\n      tag_541\n      jump\t// in\n    tag_687:\n        /* \"#utility.yul\":3130:3259   */\n      swap2\n      swap1\n      pop\n      jump\t// out\n        /* \"#utility.yul\":3265:3573   */\n    tag_543:\n        /* \"#utility.yul\":3327:3331   */\n      0x00\n        /* \"#utility.yul\":3417:3435   */\n      0xffffffffffffffff\n        /* \"#utility.yul\":3409:3415   */\n      dup3\n        /* \"#utility.yul\":3406:3436   */\n      gt\n        /* \"#utility.yul\":3403:3459   */\n      iszero\n      tag_689\n      jumpi\n        /* \"#utility.yul\":3439:3457   */\n      tag_690\n      tag_540\n      jump\t// in\n    tag_690:\n        /* \"#utility.yul\":3403:3459   */\n    tag_689:\n        /* \"#utility.yul\":3477:3506   */\n      tag_691\n        /* \"#utility.yul\":3499:3505   */\n      dup3\n        /* \"#utility.yul\":3477:3506   */\n      tag_536\n      jump\t// in\n    tag_691:\n        /* \"#utility.yul\":3469:3506   */\n      swap1\n      pop\n        /* \"#utility.yul\":3561:3565   */\n      0x20\n        /* \"#utility.yul\":3555:3559   */\n      dup2\n        /* \"#utility.yul\":3551:3566   */\n      add\n        /* \"#utility.yul\":3543:3566   */\n      swap1\n      pop\n        /* \"#utility.yul\":3265:3573   */\n      swap2\n      swap1\n      pop\n      jump\t// out\n        /* \"#utility.yul\":3579:3727   */\n    tag_544:\n        /* \"#utility.yul\":3677:3683   */\n      dup3\n        /* \"#utility.yul\":3672:3675   */\n      dup2\n        /* \"#utility.yul\":3667:3670   */\n      dup4\n        /* \"#utility.yul\":3654:3684   */\n      calldatacopy\n        /* \"#utility.yul\":3718:3719   */\n      0x00\n        /* \"#utility.yul\":3709:3715   */\n      dup4\n        /* \"#utility.yul\":3704:3707   */\n      dup4\n        /* \"#utility.yul\":3700:3716   */\n      add\n        /* \"#utility.yul\":3693:3720   */\n      mstore\n        /* \"#utility.yul\":3579:3727   */\n      pop\n      pop\n      pop\n      jump\t// out\n        /* \"#utility.yul\":3733:4158   */\n    tag_545:\n        /* \"#utility.yul\":3811:3816   */\n      0x00\n        /* \"#utility.yul\":3836:3902   */\n      tag_694\n        /* \"#utility.yul\":3852:3901   */\n      tag_695\n        /* \"#utility.yul\":3894:3900   */\n      dup5\n        /* \"#utility.yul\":3852:3901   */\n      tag_543\n      jump\t// in\n    tag_695:\n        /* \"#utility.yul\":3836:3902   */\n      tag_542\n      jump\t// in\n    tag_694:\n        /* \"#utility.yul\":3827:3902   */\n      swap1\n      pop\n        /* \"#utility.yul\":3925:3931   */\n      dup3\n        /* \"#utility.yul\":3918:3923   */\n      dup2\n        /* \"#utility.yul\":3911:3932   */\n      mstore\n        /* \"#utility.yul\":3963:3967   */\n      0x20\n        /* \"#utility.yul\":3956:3961   */\n      dup2\n        /* \"#utility.yul\":3952:3968   */\n      add\n        /* \"#utility.yul\":4001:4004   */\n      dup5\n        /* \"#utility.yul\":3992:3998   */\n      dup5\n        /* \"#utility.yul\":3987:3990   */\n      dup5\n        /* \"#utility.yul\":3983:3999   */\n      add\n        /* \"#utility.yul\":3980:4005   */\n      gt\n        /* \"#utility.yul\":3977:4089   */\n      iszero\n      tag_696\n      jumpi\n        /* \"#utility.yul\":4008:4087   */\n      tag_697\n      tag_539\n      jump\t// in\n    tag_697:\n        /* \"#utility.yul\":3977:4089   */\n    tag_696:\n        /* \"#utility.yul\":4098:4152   */\n      tag_698\n        /* \"#utility.yul\":4145:4151   */\n      dup5\n        /* \"#utility.yul\":4140:4143   */\n      dup3\n        /* \"#utility.yul\":4135:4138   */\n      dup6\n        /* \"#utility.yul\":4098:4152   */\n      tag_544\n      jump\t// in\n    tag_698:\n        /* \"#utility.yul\":3817:4158   */\n      pop\n        /* \"#utility.yul\":3733:4158   */\n      swap4\n      swap3\n      pop\n      pop\n      pop\n      jump\t// out\n        /* \"#utility.yul\":4178:4518   */\n    tag_546:\n        /* \"#utility.yul\":4234:4239   */\n      0x00\n        /* \"#utility.yul\":4283:4286   */\n      dup3\n        /* \"#utility.yul\":4276:4280   */\n      0x1f\n        /* \"#utility.yul\":4268:4274   */\n      dup4\n        /* \"#utility.yul\":4264:4281   */\n      add\n        /* \"#utility.yul\":4260:4287   */\n      slt\n        /* \"#utility.yul\":4250:4372   */\n      tag_700\n      jumpi\n        /* \"#utility.yul\":4291:4370   */\n      tag_701\n      tag_538\n      jump\t// in\n    tag_701:\n        /* \"#utility.yul\":4250:4372   */\n    tag_700:\n        /* \"#utility.yul\":4408:4414   */\n      dup2\n        /* \"#utility.yul\":4395:4415   */\n      calldataload\n        /* \"#utility.yul\":4433:4512   */\n      tag_702\n        /* \"#utility.yul\":4508:4511   */\n      dup5\n        /* \"#utility.yul\":4500:4506   */\n      dup3\n        /* \"#utility.yul\":4493:4497   */\n      0x20\n        /* \"#utility.yul\":4485:4491   */\n      dup7\n        /* \"#utility.yul\":4481:4498   */\n      add\n        /* \"#utility.yul\":4433:4512   */\n      tag_545\n      jump\t// in\n    tag_702:\n        /* \"#utility.yul\":4424:4512   */\n      swap2\n      pop\n        /* \"#utility.yul\":4240:4518   */\n      pop\n        /* \"#utility.yul\":4178:4518   */\n      swap3\n      swap2\n      pop\n      pop\n      jump\t// out\n        /* \"#utility.yul\":4524:4601   */\n    tag_547:\n        /* \"#utility.yul\":4561:4568   */\n      0x00\n        /* \"#utility.yul\":4590:4595   */\n      dup2\n        /* \"#utility.yul\":4579:4595   */\n      swap1\n      pop\n        /* \"#utility.yul\":4524:4601   */\n      swap2\n      swap1\n      pop\n      jump\t// out\n        /* \"#utility.yul\":4607:4729   */\n    tag_548:\n        /* \"#utility.yul\":4680:4704   */\n      tag_705\n        /* \"#utility.yul\":4698:4703   */\n      dup2\n        /* \"#utility.yul\":4680:4704   */\n      tag_547\n      jump\t// in\n    tag_705:\n        /* \"#utility.yul\":4673:4678   */\n      dup2\n        /* \"#utility.yul\":4670:4705   */\n      eq\n        /* \"#utility.yul\":4660:4723   */\n      tag_706\n      jumpi\n        /* \"#utility.yul\":4719:4720   */\n      0x00\n        /* \"#utility.yul\":4716:4717   */\n      dup1\n        /* \"#utility.yul\":4709:4721   */\n      revert\n        /* \"#utility.yul\":4660:4723   */\n    tag_706:\n        /* \"#utility.yul\":4607:4729   */\n      pop\n      jump\t// out\n        /* \"#utility.yul\":4735:4874   */\n    tag_549:\n        /* \"#utility.yul\":4781:4786   */\n      0x00\n        /* \"#utility.yul\":4819:4825   */\n      dup2\n        /* \"#utility.yul\":4806:4826   */\n      calldataload\n        /* \"#utility.yul\":4797:4826   */\n      swap1\n      pop\n        /* \"#utility.yul\":4835:4868   */\n      tag_708\n        /* \"#utility.yul\":4862:4867   */\n      dup2\n        /* \"#utility.yul\":4835:4868   */\n      tag_548\n      jump\t// in\n    tag_708:\n        /* \"#utility.yul\":4735:4874   */\n      swap3\n      swap2\n      pop\n      pop\n      jump\t// out\n        /* \"#utility.yul\":4880:6657   */\n    tag_35:\n        /* \"#utility.yul\":5024:5030   */\n      0x00\n        /* \"#utility.yul\":5032:5038   */\n      dup1\n        /* \"#utility.yul\":5040:5046   */\n      0x00\n        /* \"#utility.yul\":5048:5054   */\n      dup1\n        /* \"#utility.yul\":5056:5062   */\n      0x00\n        /* \"#utility.yul\":5064:5070   */\n      dup1\n        /* \"#utility.yul\":5113:5116   */\n      0xc0\n        /* \"#utility.yul\":5101:5110   */\n      dup8\n        /* \"#utility.yul\":5092:5099   */\n      dup10\n        /* \"#utility.yul\":5088:5111   */\n      sub\n        /* \"#utility.yul\":5084:5117   */\n      slt\n        /* \"#utility.yul\":5081:5201   */\n      iszero\n      tag_710\n      jumpi\n        /* \"#utility.yul\":5120:5199   */\n      tag_711\n      tag_527\n      jump\t// in\n    tag_711:\n        /* \"#utility.yul\":5081:5201   */\n    tag_710:\n        /* \"#utility.yul\":5268:5269   */\n      0x00\n        /* \"#utility.yul\":5257:5266   */\n      dup8\n        /* \"#utility.yul\":5253:5270   */\n      add\n        /* \"#utility.yul\":5240:5271   */\n      calldataload\n        /* \"#utility.yul\":5298:5316   */\n      0xffffffffffffffff\n        /* \"#utility.yul\":5290:5296   */\n      dup2\n        /* \"#utility.yul\":5287:5317   */\n      gt\n        /* \"#utility.yul\":5284:5401   */\n      iszero\n      tag_712\n      jumpi\n        /* \"#utility.yul\":5320:5399   */\n      tag_713\n      tag_528\n      jump\t// in\n    tag_713:\n        /* \"#utility.yul\":5284:5401   */\n    tag_712:\n        /* \"#utility.yul\":5425:5488   */\n      tag_714\n        /* \"#utility.yul\":5480:5487   */\n      dup10\n        /* \"#utility.yul\":5471:5477   */\n      dup3\n        /* \"#utility.yul\":5460:5469   */\n      dup11\n        /* \"#utility.yul\":5456:5478   */\n      add\n        /* \"#utility.yul\":5425:5488   */\n      tag_546\n      jump\t// in\n    tag_714:\n        /* \"#utility.yul\":5415:5488   */\n      swap7\n      pop\n        /* \"#utility.yul\":5211:5498   */\n      pop\n        /* \"#utility.yul\":5565:5567   */\n      0x20\n        /* \"#utility.yul\":5554:5563   */\n      dup8\n        /* \"#utility.yul\":5550:5568   */\n      add\n        /* \"#utility.yul\":5537:5569   */\n      calldataload\n        /* \"#utility.yul\":5596:5614   */\n      0xffffffffffffffff\n        /* \"#utility.yul\":5588:5594   */\n      dup2\n        /* \"#utility.yul\":5585:5615   */\n      gt\n        /* \"#utility.yul\":5582:5699   */\n      iszero\n      tag_715\n      jumpi\n        /* \"#utility.yul\":5618:5697   */\n      tag_716\n      tag_528\n      jump\t// in\n    tag_716:\n        /* \"#utility.yul\":5582:5699   */\n    tag_715:\n        /* \"#utility.yul\":5723:5786   */\n      tag_717\n        /* \"#utility.yul\":5778:5785   */\n      dup10\n        /* \"#utility.yul\":5769:5775   */\n      dup3\n        /* \"#utility.yul\":5758:5767   */\n      dup11\n        /* \"#utility.yul\":5754:5776   */\n      add\n        /* \"#utility.yul\":5723:5786   */\n      tag_546\n      jump\t// in\n    tag_717:\n        /* \"#utility.yul\":5713:5786   */\n      swap6\n      pop\n        /* \"#utility.yul\":5508:5796   */\n      pop\n        /* \"#utility.yul\":5863:5865   */\n      0x40\n        /* \"#utility.yul\":5852:5861   */\n      dup8\n        /* \"#utility.yul\":5848:5866   */\n      add\n        /* \"#utility.yul\":5835:5867   */\n      calldataload\n        /* \"#utility.yul\":5894:5912   */\n      0xffffffffffffffff\n        /* \"#utility.yul\":5886:5892   */\n      dup2\n        /* \"#utility.yul\":5883:5913   */\n      gt\n        /* \"#utility.yul\":5880:5997   */\n      iszero\n      tag_718\n      jumpi\n        /* \"#utility.yul\":5916:5995   */\n      tag_719\n      tag_528\n      jump\t// in\n    tag_719:\n        /* \"#utility.yul\":5880:5997   */\n    tag_718:\n        /* \"#utility.yul\":6021:6084   */\n      tag_720\n        /* \"#utility.yul\":6076:6083   */\n      dup10\n        /* \"#utility.yul\":6067:6073   */\n      dup3\n        /* \"#utility.yul\":6056:6065   */\n      dup11\n        /* \"#utility.yul\":6052:6074   */\n      add\n        /* \"#utility.yul\":6021:6084   */\n      tag_546\n      jump\t// in\n    tag_720:\n        /* \"#utility.yul\":6011:6084   */\n      swap5\n      pop\n        /* \"#utility.yul\":5806:6094   */\n      pop\n        /* \"#utility.yul\":6133:6135   */\n      0x60\n        /* \"#utility.yul\":6159:6212   */\n      tag_721\n        /* \"#utility.yul\":6204:6211   */\n      dup10\n        /* \"#utility.yul\":6195:6201   */\n      dup3\n        /* \"#utility.yul\":6184:6193   */\n      dup11\n        /* \"#utility.yul\":6180:6202   */\n      add\n        /* \"#utility.yul\":6159:6212   */\n      tag_549\n      jump\t// in\n    tag_721:\n        /* \"#utility.yul\":6149:6212   */\n      swap4\n      pop\n        /* \"#utility.yul\":6104:6222   */\n      pop\n        /* \"#utility.yul\":6261:6264   */\n      0x80\n        /* \"#utility.yul\":6288:6341   */\n      tag_722\n        /* \"#utility.yul\":6333:6340   */\n      dup10\n        /* \"#utility.yul\":6324:6330   */\n      dup3\n        /* \"#utility.yul\":6313:6322   */\n      dup11\n        /* \"#utility.yul\":6309:6331   */\n      add\n        /* \"#utility.yul\":6288:6341   */\n      tag_549\n      jump\t// in\n    tag_722:\n        /* \"#utility.yul\":6278:6341   */\n      swap3\n      pop\n        /* \"#utility.yul\":6232:6351   */\n      pop\n        /* \"#utility.yul\":6418:6421   */\n      0xa0\n        /* \"#utility.yul\":6407:6416   */\n      dup8\n        /* \"#utility.yul\":6403:6422   */\n      add\n        /* \"#utility.yul\":6390:6423   */\n      calldataload\n        /* \"#utility.yul\":6450:6468   */\n      0xffffffffffffffff\n        /* \"#utility.yul\":6442:6448   */\n      dup2\n        /* \"#utility.yul\":6439:6469   */\n      gt\n        /* \"#utility.yul\":6436:6553   */\n      iszero\n      tag_723\n      jumpi\n        /* \"#utility.yul\":6472:6551   */\n      tag_724\n      tag_528\n      jump\t// in\n    tag_724:\n        /* \"#utility.yul\":6436:6553   */\n    tag_723:\n        /* \"#utility.yul\":6577:6640   */\n      tag_725\n        /* \"#utility.yul\":6632:6639   */\n      dup10\n        /* \"#utility.yul\":6623:6629   */\n      dup3\n        /* \"#utility.yul\":6612:6621   */\n      dup11\n        /* \"#utility.yul\":6608:6630   */\n      add\n        /* \"#utility.yul\":6577:6640   */\n      tag_546\n      jump\t// in\n    tag_725:\n        /* \"#utility.yul\":6567:6640   */\n      swap2\n      pop\n        /* \"#utility.yul\":6361:6650   */\n      pop\n        /* \"#utility.yul\":4880:6657   */\n      swap3\n      swap6\n      pop\n      swap3\n      swap6\n      pop\n      swap3\n      swap6\n      jump\t// out\n        /* \"#utility.yul\":6663:6753   */\n    tag_550:\n        /* \"#utility.yul\":6697:6704   */\n      0x00\n        /* \"#utility.yul\":6740:6745   */\n      dup2\n        /* \"#utility.yul\":6733:6746   */\n      iszero\n        /* \"#utility.yul\":6726:6747   */\n      iszero\n        /* \"#utility.yul\":6715:6747   */\n      swap1\n      pop\n        /* \"#utility.yul\":6663:6753   */\n      swap2\n      swap1\n      pop\n      jump\t// out\n        /* \"#utility.yul\":6759:6868   */\n    tag_551:\n        /* \"#utility.yul\":6840:6861   */\n      tag_728\n        /* \"#utility.yul\":6855:6860   */\n      dup2\n        /* \"#utility.yul\":6840:6861   */\n      tag_550\n      jump\t// in\n    tag_728:\n        /* \"#utility.yul\":6835:6838   */\n      dup3\n        /* \"#utility.yul\":6828:6862   */\n      mstore\n        /* \"#utility.yul\":6759:6868   */\n      pop\n      pop\n      jump\t// out\n        /* \"#utility.yul\":6874:7084   */\n    tag_38:\n        /* \"#utility.yul\":6961:6965   */\n      0x00\n        /* \"#utility.yul\":6999:7001   */\n      0x20\n        /* \"#utility.yul\":6988:6997   */\n      dup3\n        /* \"#utility.yul\":6984:7002   */\n      add\n        /* \"#utility.yul\":6976:7002   */\n      swap1\n      pop\n        /* \"#utility.yul\":7012:7077   */\n      tag_730\n        /* \"#utility.yul\":7074:7075   */\n      0x00\n        /* \"#utility.yul\":7063:7072   */\n      dup4\n        /* \"#utility.yul\":7059:7076   */\n      add\n        /* \"#utility.yul\":7050:7056   */\n      dup5\n        /* \"#utility.yul\":7012:7077   */\n      tag_551\n      jump\t// in\n    tag_730:\n        /* \"#utility.yul\":6874:7084   */\n      swap3\n      swap2\n      pop\n      pop\n      jump\t// out\n        /* \"#utility.yul\":7090:7208   */\n    tag_552:\n        /* \"#utility.yul\":7177:7201   */\n      tag_732\n        /* \"#utility.yul\":7195:7200   */\n      dup2\n        /* \"#utility.yul\":7177:7201   */\n      tag_547\n      jump\t// in\n    tag_732:\n        /* \"#utility.yul\":7172:7175   */\n      dup3\n        /* \"#utility.yul\":7165:7202   */\n      mstore\n        /* \"#utility.yul\":7090:7208   */\n      pop\n      pop\n      jump\t// out\n        /* \"#utility.yul\":7214:7436   */\n    tag_43:\n        /* \"#utility.yul\":7307:7311   */\n      0x00\n        /* \"#utility.yul\":7345:7347   */\n      0x20\n        /* \"#utility.yul\":7334:7343   */\n      dup3\n        /* \"#utility.yul\":7330:7348   */\n      add\n        /* \"#utility.yul\":7322:7348   */\n      swap1\n      pop\n        /* \"#utility.yul\":7358:7429   */\n      tag_734\n        /* \"#utility.yul\":7426:7427   */\n      0x00\n        /* \"#utility.yul\":7415:7424   */\n      dup4\n        /* \"#utility.yul\":7411:7428   */\n      add\n        /* \"#utility.yul\":7402:7408   */\n      dup5\n        /* \"#utility.yul\":7358:7429   */\n      tag_552\n      jump\t// in\n    tag_734:\n        /* \"#utility.yul\":7214:7436   */\n      swap3\n      swap2\n      pop\n      pop\n      jump\t// out\n        /* \"#utility.yul\":7442:7771   */\n    tag_47:\n        /* \"#utility.yul\":7501:7507   */\n      0x00\n        /* \"#utility.yul\":7550:7552   */\n      0x20\n        /* \"#utility.yul\":7538:7547   */\n      dup3\n        /* \"#utility.yul\":7529:7536   */\n      dup5\n        /* \"#utility.yul\":7525:7548   */\n      sub\n        /* \"#utility.yul\":7521:7553   */\n      slt\n        /* \"#utility.yul\":7518:7637   */\n      iszero\n      tag_736\n      jumpi\n        /* \"#utility.yul\":7556:7635   */\n      tag_737\n      tag_527\n      jump\t// in\n    tag_737:\n        /* \"#utility.yul\":7518:7637   */\n    tag_736:\n        /* \"#utility.yul\":7676:7677   */\n      0x00\n        /* \"#utility.yul\":7701:7754   */\n      tag_738\n        /* \"#utility.yul\":7746:7753   */\n      dup5\n        /* \"#utility.yul\":7737:7743   */\n      dup3\n        /* \"#utility.yul\":7726:7735   */\n      dup6\n        /* \"#utility.yul\":7722:7744   */\n      add\n        /* \"#utility.yul\":7701:7754   */\n      tag_549\n      jump\t// in\n    tag_738:\n        /* \"#utility.yul\":7691:7754   */\n      swap2\n      pop\n        /* \"#utility.yul\":7647:7764   */\n      pop\n        /* \"#utility.yul\":7442:7771   */\n      swap3\n      swap2\n      pop\n      pop\n      jump\t// out\n        /* \"#utility.yul\":7777:9554   */\n    tag_57:\n        /* \"#utility.yul\":7921:7927   */\n      0x00\n        /* \"#utility.yul\":7929:7935   */\n      dup1\n        /* \"#utility.yul\":7937:7943   */\n      0x00\n        /* \"#utility.yul\":7945:7951   */\n      dup1\n        /* \"#utility.yul\":7953:7959   */\n      0x00\n        /* \"#utility.yul\":7961:7967   */\n      dup1\n        /* \"#utility.yul\":8010:8013   */\n      0xc0\n        /* \"#utility.yul\":7998:8007   */\n      dup8\n        /* \"#utility.yul\":7989:7996   */\n      dup10\n        /* \"#utility.yul\":7985:8008   */\n      sub\n        /* \"#utility.yul\":7981:8014   */\n      slt\n        /* \"#utility.yul\":7978:8098   */\n      iszero\n      tag_740\n      jumpi\n        /* \"#utility.yul\":8017:8096   */\n      tag_741\n      tag_527\n      jump\t// in\n    tag_741:\n        /* \"#utility.yul\":7978:8098   */\n    tag_740:\n        /* \"#utility.yul\":8137:8138   */\n      0x00\n        /* \"#utility.yul\":8162:8215   */\n      tag_742\n        /* \"#utility.yul\":8207:8214   */\n      dup10\n        /* \"#utility.yul\":8198:8204   */\n      dup3\n        /* \"#utility.yul\":8187:8196   */\n      dup11\n        /* \"#utility.yul\":8183:8205   */\n      add\n        /* \"#utility.yul\":8162:8215   */\n      tag_549\n      jump\t// in\n    tag_742:\n        /* \"#utility.yul\":8152:8215   */\n      swap7\n      pop\n        /* \"#utility.yul\":8108:8225   */\n      pop\n        /* \"#utility.yul\":8292:8294   */\n      0x20\n        /* \"#utility.yul\":8281:8290   */\n      dup8\n        /* \"#utility.yul\":8277:8295   */\n      add\n        /* \"#utility.yul\":8264:8296   */\n      calldataload\n        /* \"#utility.yul\":8323:8341   */\n      0xffffffffffffffff\n        /* \"#utility.yul\":8315:8321   */\n      dup2\n        /* \"#utility.yul\":8312:8342   */\n      gt\n        /* \"#utility.yul\":8309:8426   */\n      iszero\n      tag_743\n      jumpi\n        /* \"#utility.yul\":8345:8424   */\n      tag_744\n      tag_528\n      jump\t// in\n    tag_744:\n        /* \"#utility.yul\":8309:8426   */\n    tag_743:\n        /* \"#utility.yul\":8450:8513   */\n      tag_745\n        /* \"#utility.yul\":8505:8512   */\n      dup10\n        /* \"#utility.yul\":8496:8502   */\n      dup3\n        /* \"#utility.yul\":8485:8494   */\n      dup11\n        /* \"#utility.yul\":8481:8503   */\n      add\n        /* \"#utility.yul\":8450:8513   */\n      tag_546\n      jump\t// in\n    tag_745:\n        /* \"#utility.yul\":8440:8513   */\n      swap6\n      pop\n        /* \"#utility.yul\":8235:8523   */\n      pop\n        /* \"#utility.yul\":8590:8592   */\n      0x40\n        /* \"#utility.yul\":8579:8588   */\n      dup8\n        /* \"#utility.yul\":8575:8593   */\n      add\n        /* \"#utility.yul\":8562:8594   */\n      calldataload\n        /* \"#utility.yul\":8621:8639   */\n      0xffffffffffffffff\n        /* \"#utility.yul\":8613:8619   */\n      dup2\n        /* \"#utility.yul\":8610:8640   */\n      gt\n        /* \"#utility.yul\":8607:8724   */\n      iszero\n      tag_746\n      jumpi\n        /* \"#utility.yul\":8643:8722   */\n      tag_747\n      tag_528\n      jump\t// in\n    tag_747:\n        /* \"#utility.yul\":8607:8724   */\n    tag_746:\n        /* \"#utility.yul\":8748:8811   */\n      tag_748\n        /* \"#utility.yul\":8803:8810   */\n      dup10\n        /* \"#utility.yul\":8794:8800   */\n      dup3\n        /* \"#utility.yul\":8783:8792   */\n      dup11\n        /* \"#utility.yul\":8779:8801   */\n      add\n        /* \"#utility.yul\":8748:8811   */\n      tag_546\n      jump\t// in\n    tag_748:\n        /* \"#utility.yul\":8738:8811   */\n      swap5\n      pop\n        /* \"#utility.yul\":8533:8821   */\n      pop\n        /* \"#utility.yul\":8888:8890   */\n      0x60\n        /* \"#utility.yul\":8877:8886   */\n      dup8\n        /* \"#utility.yul\":8873:8891   */\n      add\n        /* \"#utility.yul\":8860:8892   */\n      calldataload\n        /* \"#utility.yul\":8919:8937   */\n      0xffffffffffffffff\n        /* \"#utility.yul\":8911:8917   */\n      dup2\n        /* \"#utility.yul\":8908:8938   */\n      gt\n        /* \"#utility.yul\":8905:9022   */\n      iszero\n      tag_749\n      jumpi\n        /* \"#utility.yul\":8941:9020   */\n      tag_750\n      tag_528\n      jump\t// in\n    tag_750:\n        /* \"#utility.yul\":8905:9022   */\n    tag_749:\n        /* \"#utility.yul\":9046:9109   */\n      tag_751\n        /* \"#utility.yul\":9101:9108   */\n      dup10\n        /* \"#utility.yul\":9092:9098   */\n      dup3\n        /* \"#utility.yul\":9081:9090   */\n      dup11\n        /* \"#utility.yul\":9077:9099   */\n      add\n        /* \"#utility.yul\":9046:9109   */\n      tag_546\n      jump\t// in\n    tag_751:\n        /* \"#utility.yul\":9036:9109   */\n      swap4\n      pop\n        /* \"#utility.yul\":8831:9119   */\n      pop\n        /* \"#utility.yul\":9158:9161   */\n      0x80\n        /* \"#utility.yul\":9185:9238   */\n      tag_752\n        /* \"#utility.yul\":9230:9237   */\n      dup10\n        /* \"#utility.yul\":9221:9227   */\n      dup3\n        /* \"#utility.yul\":9210:9219   */\n      dup11\n        /* \"#utility.yul\":9206:9228   */\n      add\n        /* \"#utility.yul\":9185:9238   */\n      tag_549\n      jump\t// in\n    tag_752:\n        /* \"#utility.yul\":9175:9238   */\n      swap3\n      pop\n        /* \"#utility.yul\":9129:9248   */\n      pop\n        /* \"#utility.yul\":9315:9318   */\n      0xa0\n        /* \"#utility.yul\":9304:9313   */\n      dup8\n        /* \"#utility.yul\":9300:9319   */\n      add\n        /* \"#utility.yul\":9287:9320   */\n      calldataload\n        /* \"#utility.yul\":9347:9365   */\n      0xffffffffffffffff\n        /* \"#utility.yul\":9339:9345   */\n      dup2\n        /* \"#utility.yul\":9336:9366   */\n      gt\n        /* \"#utility.yul\":9333:9450   */\n      iszero\n      tag_753\n      jumpi\n        /* \"#utility.yul\":9369:9448   */\n      tag_754\n      tag_528\n      jump\t// in\n    tag_754:\n        /* \"#utility.yul\":9333:9450   */\n    tag_753:\n        /* \"#utility.yul\":9474:9537   */\n      tag_755\n        /* \"#utility.yul\":9529:9536   */\n      dup10\n        /* \"#utility.yul\":9520:9526   */\n      dup3\n        /* \"#utility.yul\":9509:9518   */\n      dup11\n        /* \"#utility.yul\":9505:9527   */\n      add\n        /* \"#utility.yul\":9474:9537   */\n      tag_546\n      jump\t// in\n    tag_755:\n        /* \"#utility.yul\":9464:9537   */\n      swap2\n      pop\n        /* \"#utility.yul\":9258:9547   */\n      pop\n        /* \"#utility.yul\":7777:9554   */\n      swap3\n      swap6\n      pop\n      swap3\n      swap6\n      pop\n      swap3\n      swap6\n      jump\t// out\n        /* \"#utility.yul\":9560:10214   */\n    tag_63:\n        /* \"#utility.yul\":9638:9644   */\n      0x00\n        /* \"#utility.yul\":9646:9652   */\n      dup1\n        /* \"#utility.yul\":9695:9697   */\n      0x40\n        /* \"#utility.yul\":9683:9692   */\n      dup4\n        /* \"#utility.yul\":9674:9681   */\n      dup6\n        /* \"#utility.yul\":9670:9693   */\n      sub\n        /* \"#utility.yul\":9666:9698   */\n      slt\n        /* \"#utility.yul\":9663:9782   */\n      iszero\n      tag_757\n      jumpi\n        /* \"#utility.yul\":9701:9780   */\n      tag_758\n      tag_527\n      jump\t// in\n    tag_758:\n        /* \"#utility.yul\":9663:9782   */\n    tag_757:\n        /* \"#utility.yul\":9821:9822   */\n      0x00\n        /* \"#utility.yul\":9846:9899   */\n      tag_759\n        /* \"#utility.yul\":9891:9898   */\n      dup6\n        /* \"#utility.yul\":9882:9888   */\n      dup3\n        /* \"#utility.yul\":9871:9880   */\n      dup7\n        /* \"#utility.yul\":9867:9889   */\n      add\n        /* \"#utility.yul\":9846:9899   */\n      tag_532\n      jump\t// in\n    tag_759:\n        /* \"#utility.yul\":9836:9899   */\n      swap3\n      pop\n        /* \"#utility.yul\":9792:9909   */\n      pop\n        /* \"#utility.yul\":9976:9978   */\n      0x20\n        /* \"#utility.yul\":9965:9974   */\n      dup4\n        /* \"#utility.yul\":9961:9979   */\n      add\n        /* \"#utility.yul\":9948:9980   */\n      calldataload\n        /* \"#utility.yul\":10007:10025   */\n      0xffffffffffffffff\n        /* \"#utility.yul\":9999:10005   */\n      dup2\n        /* \"#utility.yul\":9996:10026   */\n      gt\n        /* \"#utility.yul\":9993:10110   */\n      iszero\n      tag_760\n      jumpi\n        /* \"#utility.yul\":10029:10108   */\n      tag_761\n      tag_528\n      jump\t// in\n    tag_761:\n        /* \"#utility.yul\":9993:10110   */\n    tag_760:\n        /* \"#utility.yul\":10134:10197   */\n      tag_762\n        /* \"#utility.yul\":10189:10196   */\n      dup6\n        /* \"#utility.yul\":10180:10186   */\n      dup3\n        /* \"#utility.yul\":10169:10178   */\n      dup7\n        /* \"#utility.yul\":10165:10187   */\n      add\n        /* \"#utility.yul\":10134:10197   */\n      tag_546\n      jump\t// in\n    tag_762:\n        /* \"#utility.yul\":10124:10197   */\n      swap2\n      pop\n        /* \"#utility.yul\":9919:10207   */\n      pop\n        /* \"#utility.yul\":9560:10214   */\n      swap3\n      pop\n      swap3\n      swap1\n      pop\n      jump\t// out\n        /* \"#utility.yul\":10220:10874   */\n    tag_68:\n        /* \"#utility.yul\":10298:10304   */\n      0x00\n        /* \"#utility.yul\":10306:10312   */\n      dup1\n        /* \"#utility.yul\":10355:10357   */\n      0x40\n        /* \"#utility.yul\":10343:10352   */\n      dup4\n        /* \"#utility.yul\":10334:10341   */\n      dup6\n        /* \"#utility.yul\":10330:10353   */\n      sub\n        /* \"#utility.yul\":10326:10358   */\n      slt\n        /* \"#utility.yul\":10323:10442   */\n      iszero\n      tag_764\n      jumpi\n        /* \"#utility.yul\":10361:10440   */\n      tag_765\n      tag_527\n      jump\t// in\n    tag_765:\n        /* \"#utility.yul\":10323:10442   */\n    tag_764:\n        /* \"#utility.yul\":10481:10482   */\n      0x00\n        /* \"#utility.yul\":10506:10559   */\n      tag_766\n        /* \"#utility.yul\":10551:10558   */\n      dup6\n        /* \"#utility.yul\":10542:10548   */\n      dup3\n        /* \"#utility.yul\":10531:10540   */\n      dup7\n        /* \"#utility.yul\":10527:10549   */\n      add\n        /* \"#utility.yul\":10506:10559   */\n      tag_549\n      jump\t// in\n    tag_766:\n        /* \"#utility.yul\":10496:10559   */\n      swap3\n      pop\n        /* \"#utility.yul\":10452:10569   */\n      pop\n        /* \"#utility.yul\":10636:10638   */\n      0x20\n        /* \"#utility.yul\":10625:10634   */\n      dup4\n        /* \"#utility.yul\":10621:10639   */\n      add\n        /* \"#utility.yul\":10608:10640   */\n      calldataload\n        /* \"#utility.yul\":10667:10685   */\n      0xffffffffffffffff\n        /* \"#utility.yul\":10659:10665   */\n      dup2\n        /* \"#utility.yul\":10656:10686   */\n      gt\n        /* \"#utility.yul\":10653:10770   */\n      iszero\n      tag_767\n      jumpi\n        /* \"#utility.yul\":10689:10768   */\n      tag_768\n      tag_528\n      jump\t// in\n    tag_768:\n        /* \"#utility.yul\":10653:10770   */\n    tag_767:\n        /* \"#utility.yul\":10794:10857   */\n      tag_769\n        /* \"#utility.yul\":10849:10856   */\n      dup6\n        /* \"#utility.yul\":10840:10846   */\n      dup3\n        /* \"#utility.yul\":10829:10838   */\n      dup7\n        /* \"#utility.yul\":10825:10847   */\n      add\n        /* \"#utility.yul\":10794:10857   */\n      tag_546\n      jump\t// in\n    tag_769:\n        /* \"#utility.yul\":10784:10857   */\n      swap2\n      pop\n        /* \"#utility.yul\":10579:10867   */\n      pop\n        /* \"#utility.yul\":10220:10874   */\n      swap3\n      pop\n      swap3\n      swap1\n      pop\n      jump\t// out\n        /* \"#utility.yul\":10880:10998   */\n    tag_553:\n        /* \"#utility.yul\":10967:10991   */\n      tag_771\n        /* \"#utility.yul\":10985:10990   */\n      dup2\n        /* \"#utility.yul\":10967:10991   */\n      tag_530\n      jump\t// in\n    tag_771:\n        /* \"#utility.yul\":10962:10965   */\n      dup3\n        /* \"#utility.yul\":10955:10992   */\n      mstore\n        /* \"#utility.yul\":10880:10998   */\n      pop\n      pop\n      jump\t// out\n        /* \"#utility.yul\":11004:11226   */\n    tag_80:\n        /* \"#utility.yul\":11097:11101   */\n      0x00\n        /* \"#utility.yul\":11135:11137   */\n      0x20\n        /* \"#utility.yul\":11124:11133   */\n      dup3\n        /* \"#utility.yul\":11120:11138   */\n      add\n        /* \"#utility.yul\":11112:11138   */\n      swap1\n      pop\n        /* \"#utility.yul\":11148:11219   */\n      tag_773\n        /* \"#utility.yul\":11216:11217   */\n      0x00\n        /* \"#utility.yul\":11205:11214   */\n      dup4\n        /* \"#utility.yul\":11201:11218   */\n      add\n        /* \"#utility.yul\":11192:11198   */\n      dup5\n        /* \"#utility.yul\":11148:11219   */\n      tag_553\n      jump\t// in\n    tag_773:\n        /* \"#utility.yul\":11004:11226   */\n      swap3\n      swap2\n      pop\n      pop\n      jump\t// out\n        /* \"#utility.yul\":11232:11374   */\n    tag_554:\n        /* \"#utility.yul\":11327:11333   */\n      0x00\n        /* \"#utility.yul\":11361:11366   */\n      dup2\n        /* \"#utility.yul\":11355:11367   */\n      mload\n        /* \"#utility.yul\":11345:11367   */\n      swap1\n      pop\n        /* \"#utility.yul\":11232:11374   */\n      swap2\n      swap1\n      pop\n      jump\t// out\n        /* \"#utility.yul\":11380:11592   */\n    tag_555:\n        /* \"#utility.yul\":11507:11518   */\n      0x00\n        /* \"#utility.yul\":11541:11547   */\n      dup3\n        /* \"#utility.yul\":11536:11539   */\n      dup3\n        /* \"#utility.yul\":11529:11548   */\n      mstore\n        /* \"#utility.yul\":11581:11585   */\n      0x20\n        /* \"#utility.yul\":11576:11579   */\n      dup3\n        /* \"#utility.yul\":11572:11586   */\n      add\n        /* \"#utility.yul\":11557:11586   */\n      swap1\n      pop\n        /* \"#utility.yul\":11380:11592   */\n      swap3\n      swap2\n      pop\n      pop\n      jump\t// out\n        /* \"#utility.yul\":11598:11758   */\n    tag_556:\n        /* \"#utility.yul\":11693:11697   */\n      0x00\n        /* \"#utility.yul\":11716:11719   */\n      dup2\n        /* \"#utility.yul\":11708:11719   */\n      swap1\n      pop\n        /* \"#utility.yul\":11746:11750   */\n      0x20\n        /* \"#utility.yul\":11741:11744   */\n      dup3\n        /* \"#utility.yul\":11737:11751   */\n      add\n        /* \"#utility.yul\":11729:11751   */\n      swap1\n      pop\n        /* \"#utility.yul\":11598:11758   */\n      swap2\n      swap1\n      pop\n      jump\t// out\n        /* \"#utility.yul\":11764:11872   */\n    tag_557:\n        /* \"#utility.yul\":11841:11865   */\n      tag_778\n        /* \"#utility.yul\":11859:11864   */\n      dup2\n        /* \"#utility.yul\":11841:11865   */\n      tag_530\n      jump\t// in\n    tag_778:\n        /* \"#utility.yul\":11836:11839   */\n      dup3\n        /* \"#utility.yul\":11829:11866   */\n      mstore\n        /* \"#utility.yul\":11764:11872   */\n      pop\n      pop\n      jump\t// out\n        /* \"#utility.yul\":11878:11986   */\n    tag_558:\n        /* \"#utility.yul\":11955:11979   */\n      tag_780\n        /* \"#utility.yul\":11973:11978   */\n      dup2\n        /* \"#utility.yul\":11955:11979   */\n      tag_547\n      jump\t// in\n    tag_780:\n        /* \"#utility.yul\":11950:11953   */\n      dup3\n        /* \"#utility.yul\":11943:11980   */\n      mstore\n        /* \"#utility.yul\":11878:11986   */\n      pop\n      pop\n      jump\t// out\n        /* \"#utility.yul\":11992:12091   */\n    tag_559:\n        /* \"#utility.yul\":12063:12084   */\n      tag_782\n        /* \"#utility.yul\":12078:12083   */\n      dup2\n        /* \"#utility.yul\":12063:12084   */\n      tag_550\n      jump\t// in\n    tag_782:\n        /* \"#utility.yul\":12058:12061   */\n      dup3\n        /* \"#utility.yul\":12051:12085   */\n      mstore\n        /* \"#utility.yul\":11992:12091   */\n      pop\n      pop\n      jump\t// out\n        /* \"#utility.yul\":12163:13026   */\n    tag_560:\n        /* \"#utility.yul\":12306:12310   */\n      0x80\n        /* \"#utility.yul\":12301:12304   */\n      dup3\n        /* \"#utility.yul\":12297:12311   */\n      add\n        /* \"#utility.yul\":12394:12398   */\n      0x00\n        /* \"#utility.yul\":12387:12392   */\n      dup3\n        /* \"#utility.yul\":12383:12399   */\n      add\n        /* \"#utility.yul\":12377:12400   */\n      mload\n        /* \"#utility.yul\":12413:12476   */\n      tag_784\n        /* \"#utility.yul\":12470:12474   */\n      0x00\n        /* \"#utility.yul\":12465:12468   */\n      dup6\n        /* \"#utility.yul\":12461:12475   */\n      add\n        /* \"#utility.yul\":12447:12459   */\n      dup3\n        /* \"#utility.yul\":12413:12476   */\n      tag_557\n      jump\t// in\n    tag_784:\n        /* \"#utility.yul\":12321:12486   */\n      pop\n        /* \"#utility.yul\":12576:12580   */\n      0x20\n        /* \"#utility.yul\":12569:12574   */\n      dup3\n        /* \"#utility.yul\":12565:12581   */\n      add\n        /* \"#utility.yul\":12559:12582   */\n      mload\n        /* \"#utility.yul\":12595:12658   */\n      tag_785\n        /* \"#utility.yul\":12652:12656   */\n      0x20\n        /* \"#utility.yul\":12647:12650   */\n      dup6\n        /* \"#utility.yul\":12643:12657   */\n      add\n        /* \"#utility.yul\":12629:12641   */\n      dup3\n        /* \"#utility.yul\":12595:12658   */\n      tag_558\n      jump\t// in\n    tag_785:\n        /* \"#utility.yul\":12496:12668   */\n      pop\n        /* \"#utility.yul\":12755:12759   */\n      0x40\n        /* \"#utility.yul\":12748:12753   */\n      dup3\n        /* \"#utility.yul\":12744:12760   */\n      add\n        /* \"#utility.yul\":12738:12761   */\n      mload\n        /* \"#utility.yul\":12774:12837   */\n      tag_786\n        /* \"#utility.yul\":12831:12835   */\n      0x40\n        /* \"#utility.yul\":12826:12829   */\n      dup6\n        /* \"#utility.yul\":12822:12836   */\n      add\n        /* \"#utility.yul\":12808:12820   */\n      dup3\n        /* \"#utility.yul\":12774:12837   */\n      tag_558\n      jump\t// in\n    tag_786:\n        /* \"#utility.yul\":12678:12847   */\n      pop\n        /* \"#utility.yul\":12933:12937   */\n      0x60\n        /* \"#utility.yul\":12926:12931   */\n      dup3\n        /* \"#utility.yul\":12922:12938   */\n      add\n        /* \"#utility.yul\":12916:12939   */\n      mload\n        /* \"#utility.yul\":12952:13009   */\n      tag_787\n        /* \"#utility.yul\":13003:13007   */\n      0x60\n        /* \"#utility.yul\":12998:13001   */\n      dup6\n        /* \"#utility.yul\":12994:13008   */\n      add\n        /* \"#utility.yul\":12980:12992   */\n      dup3\n        /* \"#utility.yul\":12952:13009   */\n      tag_559\n      jump\t// in\n    tag_787:\n        /* \"#utility.yul\":12857:13019   */\n      pop\n        /* \"#utility.yul\":12275:13026   */\n      pop\n        /* \"#utility.yul\":12163:13026   */\n      pop\n      pop\n      jump\t// out\n        /* \"#utility.yul\":13032:13323   */\n    tag_561:\n        /* \"#utility.yul\":13157:13167   */\n      0x00\n        /* \"#utility.yul\":13178:13280   */\n      tag_789\n        /* \"#utility.yul\":13276:13279   */\n      dup4\n        /* \"#utility.yul\":13268:13274   */\n      dup4\n        /* \"#utility.yul\":13178:13280   */\n      tag_560\n      jump\t// in\n    tag_789:\n        /* \"#utility.yul\":13312:13316   */\n      0x80\n        /* \"#utility.yul\":13307:13310   */\n      dup4\n        /* \"#utility.yul\":13303:13317   */\n      add\n        /* \"#utility.yul\":13289:13317   */\n      swap1\n      pop\n        /* \"#utility.yul\":13032:13323   */\n      swap3\n      swap2\n      pop\n      pop\n      jump\t// out\n        /* \"#utility.yul\":13329:13470   */\n    tag_562:\n        /* \"#utility.yul\":13427:13431   */\n      0x00\n        /* \"#utility.yul\":13459:13463   */\n      0x20\n        /* \"#utility.yul\":13454:13457   */\n      dup3\n        /* \"#utility.yul\":13450:13464   */\n      add\n        /* \"#utility.yul\":13442:13464   */\n      swap1\n      pop\n        /* \"#utility.yul\":13329:13470   */\n      swap2\n      swap1\n      pop\n      jump\t// out\n        /* \"#utility.yul\":13546:14502   */\n    tag_563:\n        /* \"#utility.yul\":13721:13724   */\n      0x00\n        /* \"#utility.yul\":13750:13832   */\n      tag_792\n        /* \"#utility.yul\":13826:13831   */\n      dup3\n        /* \"#utility.yul\":13750:13832   */\n      tag_554\n      jump\t// in\n    tag_792:\n        /* \"#utility.yul\":13848:13962   */\n      tag_793\n        /* \"#utility.yul\":13955:13961   */\n      dup2\n        /* \"#utility.yul\":13950:13953   */\n      dup6\n        /* \"#utility.yul\":13848:13962   */\n      tag_555\n      jump\t// in\n    tag_793:\n        /* \"#utility.yul\":13841:13962   */\n      swap4\n      pop\n        /* \"#utility.yul\":13986:14070   */\n      tag_794\n        /* \"#utility.yul\":14064:14069   */\n      dup4\n        /* \"#utility.yul\":13986:14070   */\n      tag_556\n      jump\t// in\n    tag_794:\n        /* \"#utility.yul\":14093:14100   */\n      dup1\n        /* \"#utility.yul\":14124:14125   */\n      0x00\n        /* \"#utility.yul\":14109:14477   */\n    tag_795:\n        /* \"#utility.yul\":14134:14140   */\n      dup4\n        /* \"#utility.yul\":14131:14132   */\n      dup2\n        /* \"#utility.yul\":14128:14141   */\n      lt\n        /* \"#utility.yul\":14109:14477   */\n      iszero\n      tag_797\n      jumpi\n        /* \"#utility.yul\":14210:14216   */\n      dup2\n        /* \"#utility.yul\":14204:14217   */\n      mload\n        /* \"#utility.yul\":14237:14356   */\n      tag_798\n        /* \"#utility.yul\":14352:14355   */\n      dup9\n        /* \"#utility.yul\":14337:14350   */\n      dup3\n        /* \"#utility.yul\":14237:14356   */\n      tag_561\n      jump\t// in\n    tag_798:\n        /* \"#utility.yul\":14230:14356   */\n      swap8\n      pop\n        /* \"#utility.yul\":14379:14467   */\n      tag_799\n        /* \"#utility.yul\":14460:14466   */\n      dup4\n        /* \"#utility.yul\":14379:14467   */\n      tag_562\n      jump\t// in\n    tag_799:\n        /* \"#utility.yul\":14369:14467   */\n      swap3\n      pop\n        /* \"#utility.yul\":14169:14477   */\n      pop\n        /* \"#utility.yul\":14156:14157   */\n      0x01\n        /* \"#utility.yul\":14153:14154   */\n      dup2\n        /* \"#utility.yul\":14149:14158   */\n      add\n        /* \"#utility.yul\":14144:14158   */\n      swap1\n      pop\n        /* \"#utility.yul\":14109:14477   */\n      jump(tag_795)\n    tag_797:\n        /* \"#utility.yul\":14113:14127   */\n      pop\n        /* \"#utility.yul\":14493:14496   */\n      dup6\n        /* \"#utility.yul\":14486:14496   */\n      swap4\n      pop\n        /* \"#utility.yul\":13726:14502   */\n      pop\n      pop\n      pop\n        /* \"#utility.yul\":13546:14502   */\n      swap3\n      swap2\n      pop\n      pop\n      jump\t// out\n        /* \"#utility.yul\":14508:14993   */\n    tag_104:\n        /* \"#utility.yul\":14707:14711   */\n      0x00\n        /* \"#utility.yul\":14745:14747   */\n      0x20\n        /* \"#utility.yul\":14734:14743   */\n      dup3\n        /* \"#utility.yul\":14730:14748   */\n      add\n        /* \"#utility.yul\":14722:14748   */\n      swap1\n      pop\n        /* \"#utility.yul\":14794:14803   */\n      dup2\n        /* \"#utility.yul\":14788:14792   */\n      dup2\n        /* \"#utility.yul\":14784:14804   */\n      sub\n        /* \"#utility.yul\":14780:14781   */\n      0x00\n        /* \"#utility.yul\":14769:14778   */\n      dup4\n        /* \"#utility.yul\":14765:14782   */\n      add\n        /* \"#utility.yul\":14758:14805   */\n      mstore\n        /* \"#utility.yul\":14822:14986   */\n      tag_801\n        /* \"#utility.yul\":14981:14985   */\n      dup2\n        /* \"#utility.yul\":14972:14978   */\n      dup5\n        /* \"#utility.yul\":14822:14986   */\n      tag_563\n      jump\t// in\n    tag_801:\n        /* \"#utility.yul\":14814:14986   */\n      swap1\n      pop\n        /* \"#utility.yul\":14508:14993   */\n      swap3\n      swap2\n      pop\n      pop\n      jump\t// out\n        /* \"#utility.yul\":14999:15663   */\n    tag_113:\n        /* \"#utility.yul\":15204:15208   */\n      0x00\n        /* \"#utility.yul\":15242:15245   */\n      0xa0\n        /* \"#utility.yul\":15231:15240   */\n      dup3\n        /* \"#utility.yul\":15227:15246   */\n      add\n        /* \"#utility.yul\":15219:15246   */\n      swap1\n      pop\n        /* \"#utility.yul\":15256:15327   */\n      tag_803\n        /* \"#utility.yul\":15324:15325   */\n      0x00\n        /* \"#utility.yul\":15313:15322   */\n      dup4\n        /* \"#utility.yul\":15309:15326   */\n      add\n        /* \"#utility.yul\":15300:15306   */\n      dup9\n        /* \"#utility.yul\":15256:15327   */\n      tag_552\n      jump\t// in\n    tag_803:\n        /* \"#utility.yul\":15337:15409   */\n      tag_804\n        /* \"#utility.yul\":15405:15407   */\n      0x20\n        /* \"#utility.yul\":15394:15403   */\n      dup4\n        /* \"#utility.yul\":15390:15408   */\n      add\n        /* \"#utility.yul\":15381:15387   */\n      dup8\n        /* \"#utility.yul\":15337:15409   */\n      tag_552\n      jump\t// in\n    tag_804:\n        /* \"#utility.yul\":15419:15491   */\n      tag_805\n        /* \"#utility.yul\":15487:15489   */\n      0x40\n        /* \"#utility.yul\":15476:15485   */\n      dup4\n        /* \"#utility.yul\":15472:15490   */\n      add\n        /* \"#utility.yul\":15463:15469   */\n      dup7\n        /* \"#utility.yul\":15419:15491   */\n      tag_552\n      jump\t// in\n    tag_805:\n        /* \"#utility.yul\":15501:15573   */\n      tag_806\n        /* \"#utility.yul\":15569:15571   */\n      0x60\n        /* \"#utility.yul\":15558:15567   */\n      dup4\n        /* \"#utility.yul\":15554:15572   */\n      add\n        /* \"#utility.yul\":15545:15551   */\n      dup6\n        /* \"#utility.yul\":15501:15573   */\n      tag_552\n      jump\t// in\n    tag_806:\n        /* \"#utility.yul\":15583:15656   */\n      tag_807\n        /* \"#utility.yul\":15651:15654   */\n      0x80\n        /* \"#utility.yul\":15640:15649   */\n      dup4\n        /* \"#utility.yul\":15636:15655   */\n      add\n        /* \"#utility.yul\":15627:15633   */\n      dup5\n        /* \"#utility.yul\":15583:15656   */\n      tag_552\n      jump\t// in\n    tag_807:\n        /* \"#utility.yul\":14999:15663   */\n      swap7\n      swap6\n      pop\n      pop\n      pop\n      pop\n      pop\n      pop\n      jump\t// out\n        /* \"#utility.yul\":15669:15812   */\n    tag_564:\n        /* \"#utility.yul\":15765:15771   */\n      0x00\n        /* \"#utility.yul\":15799:15804   */\n      dup2\n        /* \"#utility.yul\":15793:15805   */\n      mload\n        /* \"#utility.yul\":15783:15805   */\n      swap1\n      pop\n        /* \"#utility.yul\":15669:15812   */\n      swap2\n      swap1\n      pop\n      jump\t// out\n        /* \"#utility.yul\":15818:16031   */\n    tag_565:\n        /* \"#utility.yul\":15946:15957   */\n      0x00\n        /* \"#utility.yul\":15980:15986   */\n      dup3\n        /* \"#utility.yul\":15975:15978   */\n      dup3\n        /* \"#utility.yul\":15968:15987   */\n      mstore\n        /* \"#utility.yul\":16020:16024   */\n      0x20\n        /* \"#utility.yul\":16015:16018   */\n      dup3\n        /* \"#utility.yul\":16011:16025   */\n      add\n        /* \"#utility.yul\":15996:16025   */\n      swap1\n      pop\n        /* \"#utility.yul\":15818:16031   */\n      swap3\n      swap2\n      pop\n      pop\n      jump\t// out\n        /* \"#utility.yul\":16037:16198   */\n    tag_566:\n        /* \"#utility.yul\":16133:16137   */\n      0x00\n        /* \"#utility.yul\":16156:16159   */\n      dup2\n        /* \"#utility.yul\":16148:16159   */\n      swap1\n      pop\n        /* \"#utility.yul\":16186:16190   */\n      0x20\n        /* \"#utility.yul\":16181:16184   */\n      dup3\n        /* \"#utility.yul\":16177:16191   */\n      add\n        /* \"#utility.yul\":16169:16191   */\n      swap1\n      pop\n        /* \"#utility.yul\":16037:16198   */\n      swap2\n      swap1\n      pop\n      jump\t// out\n        /* \"#utility.yul\":16204:16363   */\n    tag_567:\n        /* \"#utility.yul\":16278:16289   */\n      0x00\n        /* \"#utility.yul\":16312:16318   */\n      dup3\n        /* \"#utility.yul\":16307:16310   */\n      dup3\n        /* \"#utility.yul\":16300:16319   */\n      mstore\n        /* \"#utility.yul\":16352:16356   */\n      0x20\n        /* \"#utility.yul\":16347:16350   */\n      dup3\n        /* \"#utility.yul\":16343:16357   */\n      add\n        /* \"#utility.yul\":16328:16357   */\n      swap1\n      pop\n        /* \"#utility.yul\":16204:16363   */\n      swap3\n      swap2\n      pop\n      pop\n      jump\t// out\n        /* \"#utility.yul\":16369:16726   */\n    tag_568:\n        /* \"#utility.yul\":16447:16450   */\n      0x00\n        /* \"#utility.yul\":16475:16514   */\n      tag_813\n        /* \"#utility.yul\":16508:16513   */\n      dup3\n        /* \"#utility.yul\":16475:16514   */\n      tag_533\n      jump\t// in\n    tag_813:\n        /* \"#utility.yul\":16530:16591   */\n      tag_814\n        /* \"#utility.yul\":16584:16590   */\n      dup2\n        /* \"#utility.yul\":16579:16582   */\n      dup6\n        /* \"#utility.yul\":16530:16591   */\n      tag_567\n      jump\t// in\n    tag_814:\n        /* \"#utility.yul\":16523:16591   */\n      swap4\n      pop\n        /* \"#utility.yul\":16600:16665   */\n      tag_815\n        /* \"#utility.yul\":16658:16664   */\n      dup2\n        /* \"#utility.yul\":16653:16656   */\n      dup6\n        /* \"#utility.yul\":16646:16650   */\n      0x20\n        /* \"#utility.yul\":16639:16644   */\n      dup7\n        /* \"#utility.yul\":16635:16651   */\n      add\n        /* \"#utility.yul\":16600:16665   */\n      tag_535\n      jump\t// in\n    tag_815:\n        /* \"#utility.yul\":16690:16719   */\n      tag_816\n        /* \"#utility.yul\":16712:16718   */\n      dup2\n        /* \"#utility.yul\":16690:16719   */\n      tag_536\n      jump\t// in\n    tag_816:\n        /* \"#utility.yul\":16685:16688   */\n      dup5\n        /* \"#utility.yul\":16681:16720   */\n      add\n        /* \"#utility.yul\":16674:16720   */\n      swap2\n      pop\n        /* \"#utility.yul\":16451:16726   */\n      pop\n        /* \"#utility.yul\":16369:16726   */\n      swap3\n      swap2\n      pop\n      pop\n      jump\t// out\n        /* \"#utility.yul\":16732:16912   */\n    tag_156:\n        /* \"#utility.yul\":16780:16857   */\n      0x4e487b7100000000000000000000000000000000000000000000000000000000\n        /* \"#utility.yul\":16777:16778   */\n      0x00\n        /* \"#utility.yul\":16770:16858   */\n      mstore\n        /* \"#utility.yul\":16877:16881   */\n      0x21\n        /* \"#utility.yul\":16874:16875   */\n      0x04\n        /* \"#utility.yul\":16867:16882   */\n      mstore\n        /* \"#utility.yul\":16901:16905   */\n      0x24\n        /* \"#utility.yul\":16898:16899   */\n      0x00\n        /* \"#utility.yul\":16891:16906   */\n      revert\n        /* \"#utility.yul\":16918:17036   */\n    tag_569:\n        /* \"#utility.yul\":17004:17005   */\n      0x06\n        /* \"#utility.yul\":16997:17002   */\n      dup2\n        /* \"#utility.yul\":16994:17006   */\n      lt\n        /* \"#utility.yul\":16984:17030   */\n      tag_819\n      jumpi\n        /* \"#utility.yul\":17010:17028   */\n      tag_820\n      tag_156\n      jump\t// in\n    tag_820:\n        /* \"#utility.yul\":16984:17030   */\n    tag_819:\n        /* \"#utility.yul\":16918:17036   */\n      pop\n      jump\t// out\n        /* \"#utility.yul\":17042:17179   */\n    tag_570:\n        /* \"#utility.yul\":17092:17099   */\n      0x00\n        /* \"#utility.yul\":17121:17126   */\n      dup2\n        /* \"#utility.yul\":17110:17126   */\n      swap1\n      pop\n        /* \"#utility.yul\":17127:17173   */\n      tag_822\n        /* \"#utility.yul\":17167:17172   */\n      dup3\n        /* \"#utility.yul\":17127:17173   */\n      tag_569\n      jump\t// in\n    tag_822:\n        /* \"#utility.yul\":17042:17179   */\n      swap2\n      swap1\n      pop\n      jump\t// out\n        /* \"#utility.yul\":17185:17322   */\n    tag_571:\n        /* \"#utility.yul\":17246:17255   */\n      0x00\n        /* \"#utility.yul\":17279:17316   */\n      tag_824\n        /* \"#utility.yul\":17310:17315   */\n      dup3\n        /* \"#utility.yul\":17279:17316   */\n      tag_570\n      jump\t// in\n    tag_824:\n        /* \"#utility.yul\":17266:17316   */\n      swap1\n      pop\n        /* \"#utility.yul\":17185:17322   */\n      swap2\n      swap1\n      pop\n      jump\t// out\n        /* \"#utility.yul\":17328:17471   */\n    tag_572:\n        /* \"#utility.yul\":17416:17464   */\n      tag_826\n        /* \"#utility.yul\":17458:17463   */\n      dup2\n        /* \"#utility.yul\":17416:17464   */\n      tag_571\n      jump\t// in\n    tag_826:\n        /* \"#utility.yul\":17411:17414   */\n      dup3\n        /* \"#utility.yul\":17404:17465   */\n      mstore\n        /* \"#utility.yul\":17328:17471   */\n      pop\n      pop\n      jump\t// out\n        /* \"#utility.yul\":17545:20600   */\n    tag_573:\n        /* \"#utility.yul\":17662:17665   */\n      0x00\n        /* \"#utility.yul\":17698:17704   */\n      0x01c0\n        /* \"#utility.yul\":17693:17696   */\n      dup4\n        /* \"#utility.yul\":17689:17705   */\n      add\n        /* \"#utility.yul\":17785:17789   */\n      0x00\n        /* \"#utility.yul\":17778:17783   */\n      dup4\n        /* \"#utility.yul\":17774:17790   */\n      add\n        /* \"#utility.yul\":17768:17791   */\n      mload\n        /* \"#utility.yul\":17804:17867   */\n      tag_828\n        /* \"#utility.yul\":17861:17865   */\n      0x00\n        /* \"#utility.yul\":17856:17859   */\n      dup7\n        /* \"#utility.yul\":17852:17866   */\n      add\n        /* \"#utility.yul\":17838:17850   */\n      dup3\n        /* \"#utility.yul\":17804:17867   */\n      tag_558\n      jump\t// in\n    tag_828:\n        /* \"#utility.yul\":17715:17877   */\n      pop\n        /* \"#utility.yul\":17960:17964   */\n      0x20\n        /* \"#utility.yul\":17953:17958   */\n      dup4\n        /* \"#utility.yul\":17949:17965   */\n      add\n        /* \"#utility.yul\":17943:17966   */\n      mload\n        /* \"#utility.yul\":17979:18042   */\n      tag_829\n        /* \"#utility.yul\":18036:18040   */\n      0x20\n        /* \"#utility.yul\":18031:18034   */\n      dup7\n        /* \"#utility.yul\":18027:18041   */\n      add\n        /* \"#utility.yul\":18013:18025   */\n      dup3\n        /* \"#utility.yul\":17979:18042   */\n      tag_557\n      jump\t// in\n    tag_829:\n        /* \"#utility.yul\":17887:18052   */\n      pop\n        /* \"#utility.yul\":18135:18139   */\n      0x40\n        /* \"#utility.yul\":18128:18133   */\n      dup4\n        /* \"#utility.yul\":18124:18140   */\n      add\n        /* \"#utility.yul\":18118:18141   */\n      mload\n        /* \"#utility.yul\":18188:18191   */\n      dup5\n        /* \"#utility.yul\":18182:18186   */\n      dup3\n        /* \"#utility.yul\":18178:18192   */\n      sub\n        /* \"#utility.yul\":18171:18175   */\n      0x40\n        /* \"#utility.yul\":18166:18169   */\n      dup7\n        /* \"#utility.yul\":18162:18176   */\n      add\n        /* \"#utility.yul\":18155:18193   */\n      mstore\n        /* \"#utility.yul\":18214:18287   */\n      tag_830\n        /* \"#utility.yul\":18282:18286   */\n      dup3\n        /* \"#utility.yul\":18268:18280   */\n      dup3\n        /* \"#utility.yul\":18214:18287   */\n      tag_568\n      jump\t// in\n    tag_830:\n        /* \"#utility.yul\":18206:18287   */\n      swap2\n      pop\n        /* \"#utility.yul\":18062:18298   */\n      pop\n        /* \"#utility.yul\":18387:18391   */\n      0x60\n        /* \"#utility.yul\":18380:18385   */\n      dup4\n        /* \"#utility.yul\":18376:18392   */\n      add\n        /* \"#utility.yul\":18370:18393   */\n      mload\n        /* \"#utility.yul\":18440:18443   */\n      dup5\n        /* \"#utility.yul\":18434:18438   */\n      dup3\n        /* \"#utility.yul\":18430:18444   */\n      sub\n        /* \"#utility.yul\":18423:18427   */\n      0x60\n        /* \"#utility.yul\":18418:18421   */\n      dup7\n        /* \"#utility.yul\":18414:18428   */\n      add\n        /* \"#utility.yul\":18407:18445   */\n      mstore\n        /* \"#utility.yul\":18466:18539   */\n      tag_831\n        /* \"#utility.yul\":18534:18538   */\n      dup3\n        /* \"#utility.yul\":18520:18532   */\n      dup3\n        /* \"#utility.yul\":18466:18539   */\n      tag_568\n      jump\t// in\n    tag_831:\n        /* \"#utility.yul\":18458:18539   */\n      swap2\n      pop\n        /* \"#utility.yul\":18308:18550   */\n      pop\n        /* \"#utility.yul\":18636:18640   */\n      0x80\n        /* \"#utility.yul\":18629:18634   */\n      dup4\n        /* \"#utility.yul\":18625:18641   */\n      add\n        /* \"#utility.yul\":18619:18642   */\n      mload\n        /* \"#utility.yul\":18689:18692   */\n      dup5\n        /* \"#utility.yul\":18683:18687   */\n      dup3\n        /* \"#utility.yul\":18679:18693   */\n      sub\n        /* \"#utility.yul\":18672:18676   */\n      0x80\n        /* \"#utility.yul\":18667:18670   */\n      dup7\n        /* \"#utility.yul\":18663:18677   */\n      add\n        /* \"#utility.yul\":18656:18694   */\n      mstore\n        /* \"#utility.yul\":18715:18788   */\n      tag_832\n        /* \"#utility.yul\":18783:18787   */\n      dup3\n        /* \"#utility.yul\":18769:18781   */\n      dup3\n        /* \"#utility.yul\":18715:18788   */\n      tag_568\n      jump\t// in\n    tag_832:\n        /* \"#utility.yul\":18707:18788   */\n      swap2\n      pop\n        /* \"#utility.yul\":18560:18799   */\n      pop\n        /* \"#utility.yul\":18881:18885   */\n      0xa0\n        /* \"#utility.yul\":18874:18879   */\n      dup4\n        /* \"#utility.yul\":18870:18886   */\n      add\n        /* \"#utility.yul\":18864:18887   */\n      mload\n        /* \"#utility.yul\":18900:18963   */\n      tag_833\n        /* \"#utility.yul\":18957:18961   */\n      0xa0\n        /* \"#utility.yul\":18952:18955   */\n      dup7\n        /* \"#utility.yul\":18948:18962   */\n      add\n        /* \"#utility.yul\":18934:18946   */\n      dup3\n        /* \"#utility.yul\":18900:18963   */\n      tag_558\n      jump\t// in\n    tag_833:\n        /* \"#utility.yul\":18809:18973   */\n      pop\n        /* \"#utility.yul\":19057:19061   */\n      0xc0\n        /* \"#utility.yul\":19050:19055   */\n      dup4\n        /* \"#utility.yul\":19046:19062   */\n      add\n        /* \"#utility.yul\":19040:19063   */\n      mload\n        /* \"#utility.yul\":19076:19139   */\n      tag_834\n        /* \"#utility.yul\":19133:19137   */\n      0xc0\n        /* \"#utility.yul\":19128:19131   */\n      dup7\n        /* \"#utility.yul\":19124:19138   */\n      add\n        /* \"#utility.yul\":19110:19122   */\n      dup3\n        /* \"#utility.yul\":19076:19139   */\n      tag_558\n      jump\t// in\n    tag_834:\n        /* \"#utility.yul\":18983:19149   */\n      pop\n        /* \"#utility.yul\":19236:19240   */\n      0xe0\n        /* \"#utility.yul\":19229:19234   */\n      dup4\n        /* \"#utility.yul\":19225:19241   */\n      add\n        /* \"#utility.yul\":19219:19242   */\n      mload\n        /* \"#utility.yul\":19255:19318   */\n      tag_835\n        /* \"#utility.yul\":19312:19316   */\n      0xe0\n        /* \"#utility.yul\":19307:19310   */\n      dup7\n        /* \"#utility.yul\":19303:19317   */\n      add\n        /* \"#utility.yul\":19289:19301   */\n      dup3\n        /* \"#utility.yul\":19255:19318   */\n      tag_558\n      jump\t// in\n    tag_835:\n        /* \"#utility.yul\":19159:19328   */\n      pop\n        /* \"#utility.yul\":19415:19421   */\n      0x0100\n        /* \"#utility.yul\":19408:19413   */\n      dup4\n        /* \"#utility.yul\":19404:19422   */\n      add\n        /* \"#utility.yul\":19398:19423   */\n      mload\n        /* \"#utility.yul\":19436:19501   */\n      tag_836\n        /* \"#utility.yul\":19493:19499   */\n      0x0100\n        /* \"#utility.yul\":19488:19491   */\n      dup7\n        /* \"#utility.yul\":19484:19500   */\n      add\n        /* \"#utility.yul\":19470:19482   */\n      dup3\n        /* \"#utility.yul\":19436:19501   */\n      tag_558\n      jump\t// in\n    tag_836:\n        /* \"#utility.yul\":19338:19511   */\n      pop\n        /* \"#utility.yul\":19596:19602   */\n      0x0120\n        /* \"#utility.yul\":19589:19594   */\n      dup4\n        /* \"#utility.yul\":19585:19603   */\n      add\n        /* \"#utility.yul\":19579:19604   */\n      mload\n        /* \"#utility.yul\":19617:19682   */\n      tag_837\n        /* \"#utility.yul\":19674:19680   */\n      0x0120\n        /* \"#utility.yul\":19669:19672   */\n      dup7\n        /* \"#utility.yul\":19665:19681   */\n      add\n        /* \"#utility.yul\":19651:19663   */\n      dup3\n        /* \"#utility.yul\":19617:19682   */\n      tag_558\n      jump\t// in\n    tag_837:\n        /* \"#utility.yul\":19521:19692   */\n      pop\n        /* \"#utility.yul\":19776:19782   */\n      0x0140\n        /* \"#utility.yul\":19769:19774   */\n      dup4\n        /* \"#utility.yul\":19765:19783   */\n      add\n        /* \"#utility.yul\":19759:19784   */\n      mload\n        /* \"#utility.yul\":19797:19873   */\n      tag_838\n        /* \"#utility.yul\":19865:19871   */\n      0x0140\n        /* \"#utility.yul\":19860:19863   */\n      dup7\n        /* \"#utility.yul\":19856:19872   */\n      add\n        /* \"#utility.yul\":19842:19854   */\n      dup3\n        /* \"#utility.yul\":19797:19873   */\n      tag_572\n      jump\t// in\n    tag_838:\n        /* \"#utility.yul\":19702:19883   */\n      pop\n        /* \"#utility.yul\":19967:19973   */\n      0x0160\n        /* \"#utility.yul\":19960:19965   */\n      dup4\n        /* \"#utility.yul\":19956:19974   */\n      add\n        /* \"#utility.yul\":19950:19975   */\n      mload\n        /* \"#utility.yul\":20024:20027   */\n      dup5\n        /* \"#utility.yul\":20018:20022   */\n      dup3\n        /* \"#utility.yul\":20014:20028   */\n      sub\n        /* \"#utility.yul\":20005:20011   */\n      0x0160\n        /* \"#utility.yul\":20000:20003   */\n      dup7\n        /* \"#utility.yul\":19996:20012   */\n      add\n        /* \"#utility.yul\":19989:20029   */\n      mstore\n        /* \"#utility.yul\":20050:20123   */\n      tag_839\n        /* \"#utility.yul\":20118:20122   */\n      dup3\n        /* \"#utility.yul\":20104:20116   */\n      dup3\n        /* \"#utility.yul\":20050:20123   */\n      tag_568\n      jump\t// in\n    tag_839:\n        /* \"#utility.yul\":20042:20123   */\n      swap2\n      pop\n        /* \"#utility.yul\":19893:20134   */\n      pop\n        /* \"#utility.yul\":20221:20227   */\n      0x0180\n        /* \"#utility.yul\":20214:20219   */\n      dup4\n        /* \"#utility.yul\":20210:20228   */\n      add\n        /* \"#utility.yul\":20204:20229   */\n      mload\n        /* \"#utility.yul\":20242:20301   */\n      tag_840\n        /* \"#utility.yul\":20293:20299   */\n      0x0180\n        /* \"#utility.yul\":20288:20291   */\n      dup7\n        /* \"#utility.yul\":20284:20300   */\n      add\n        /* \"#utility.yul\":20270:20282   */\n      dup3\n        /* \"#utility.yul\":20242:20301   */\n      tag_559\n      jump\t// in\n    tag_840:\n        /* \"#utility.yul\":20144:20311   */\n      pop\n        /* \"#utility.yul\":20406:20412   */\n      0x01a0\n        /* \"#utility.yul\":20399:20404   */\n      dup4\n        /* \"#utility.yul\":20395:20413   */\n      add\n        /* \"#utility.yul\":20389:20414   */\n      mload\n        /* \"#utility.yul\":20463:20466   */\n      dup5\n        /* \"#utility.yul\":20457:20461   */\n      dup3\n        /* \"#utility.yul\":20453:20467   */\n      sub\n        /* \"#utility.yul\":20444:20450   */\n      0x01a0\n        /* \"#utility.yul\":20439:20442   */\n      dup7\n        /* \"#utility.yul\":20435:20451   */\n      add\n        /* \"#utility.yul\":20428:20468   */\n      mstore\n        /* \"#utility.yul\":20489:20562   */\n      tag_841\n        /* \"#utility.yul\":20557:20561   */\n      dup3\n        /* \"#utility.yul\":20543:20555   */\n      dup3\n        /* \"#utility.yul\":20489:20562   */\n      tag_568\n      jump\t// in\n    tag_841:\n        /* \"#utility.yul\":20481:20562   */\n      swap2\n      pop\n        /* \"#utility.yul\":20321:20573   */\n      pop\n        /* \"#utility.yul\":20590:20594   */\n      dup1\n        /* \"#utility.yul\":20583:20594   */\n      swap2\n      pop\n        /* \"#utility.yul\":17667:20600   */\n      pop\n        /* \"#utility.yul\":17545:20600   */\n      swap3\n      swap2\n      pop\n      pop\n      jump\t// out\n        /* \"#utility.yul\":20606:20878   */\n    tag_574:\n        /* \"#utility.yul\":20733:20743   */\n      0x00\n        /* \"#utility.yul\":20768:20872   */\n      tag_843\n        /* \"#utility.yul\":20868:20871   */\n      dup4\n        /* \"#utility.yul\":20860:20866   */\n      dup4\n        /* \"#utility.yul\":20768:20872   */\n      tag_573\n      jump\t// in\n    tag_843:\n        /* \"#utility.yul\":20754:20872   */\n      swap1\n      pop\n        /* \"#utility.yul\":20606:20878   */\n      swap3\n      swap2\n      pop\n      pop\n      jump\t// out\n        /* \"#utility.yul\":20884:21026   */\n    tag_575:\n        /* \"#utility.yul\":20983:20987   */\n      0x00\n        /* \"#utility.yul\":21015:21019   */\n      0x20\n        /* \"#utility.yul\":21010:21013   */\n      dup3\n        /* \"#utility.yul\":21006:21020   */\n      add\n        /* \"#utility.yul\":20998:21020   */\n      swap1\n      pop\n        /* \"#utility.yul\":20884:21026   */\n      swap2\n      swap1\n      pop\n      jump\t// out\n        /* \"#utility.yul\":21104:22247   */\n    tag_576:\n        /* \"#utility.yul\":21281:21284   */\n      0x00\n        /* \"#utility.yul\":21310:21393   */\n      tag_846\n        /* \"#utility.yul\":21387:21392   */\n      dup3\n        /* \"#utility.yul\":21310:21393   */\n      tag_564\n      jump\t// in\n    tag_846:\n        /* \"#utility.yul\":21409:21524   */\n      tag_847\n        /* \"#utility.yul\":21517:21523   */\n      dup2\n        /* \"#utility.yul\":21512:21515   */\n      dup6\n        /* \"#utility.yul\":21409:21524   */\n      tag_565\n      jump\t// in\n    tag_847:\n        /* \"#utility.yul\":21402:21524   */\n      swap4\n      pop\n        /* \"#utility.yul\":21550:21553   */\n      dup4\n        /* \"#utility.yul\":21595:21599   */\n      0x20\n        /* \"#utility.yul\":21587:21593   */\n      dup3\n        /* \"#utility.yul\":21583:21600   */\n      mul\n        /* \"#utility.yul\":21578:21581   */\n      dup6\n        /* \"#utility.yul\":21574:21601   */\n      add\n        /* \"#utility.yul\":21625:21710   */\n      tag_848\n        /* \"#utility.yul\":21704:21709   */\n      dup6\n        /* \"#utility.yul\":21625:21710   */\n      tag_566\n      jump\t// in\n    tag_848:\n        /* \"#utility.yul\":21733:21740   */\n      dup1\n        /* \"#utility.yul\":21764:21765   */\n      0x00\n        /* \"#utility.yul\":21749:22202   */\n    tag_849:\n        /* \"#utility.yul\":21774:21780   */\n      dup6\n        /* \"#utility.yul\":21771:21772   */\n      dup2\n        /* \"#utility.yul\":21768:21781   */\n      lt\n        /* \"#utility.yul\":21749:22202   */\n      iszero\n      tag_851\n      jumpi\n        /* \"#utility.yul\":21845:21854   */\n      dup5\n        /* \"#utility.yul\":21839:21843   */\n      dup5\n        /* \"#utility.yul\":21835:21855   */\n      sub\n        /* \"#utility.yul\":21830:21833   */\n      dup10\n        /* \"#utility.yul\":21823:21856   */\n      mstore\n        /* \"#utility.yul\":21896:21902   */\n      dup2\n        /* \"#utility.yul\":21890:21903   */\n      mload\n        /* \"#utility.yul\":21924:22046   */\n      tag_852\n        /* \"#utility.yul\":22041:22045   */\n      dup6\n        /* \"#utility.yul\":22026:22039   */\n      dup3\n        /* \"#utility.yul\":21924:22046   */\n      tag_574\n      jump\t// in\n    tag_852:\n        /* \"#utility.yul\":21916:22046   */\n      swap5\n      pop\n        /* \"#utility.yul\":22069:22158   */\n      tag_853\n        /* \"#utility.yul\":22151:22157   */\n      dup4\n        /* \"#utility.yul\":22069:22158   */\n      tag_575\n      jump\t// in\n    tag_853:\n        /* \"#utility.yul\":22059:22158   */\n      swap3\n      pop\n        /* \"#utility.yul\":22187:22191   */\n      0x20\n        /* \"#utility.yul\":22182:22185   */\n      dup11\n        /* \"#utility.yul\":22178:22192   */\n      add\n        /* \"#utility.yul\":22171:22192   */\n      swap10\n      pop\n        /* \"#utility.yul\":21809:22202   */\n      pop\n        /* \"#utility.yul\":21796:21797   */\n      0x01\n        /* \"#utility.yul\":21793:21794   */\n      dup2\n        /* \"#utility.yul\":21789:21798   */\n      add\n        /* \"#utility.yul\":21784:21798   */\n      swap1\n      pop\n        /* \"#utility.yul\":21749:22202   */\n      jump(tag_849)\n    tag_851:\n        /* \"#utility.yul\":21753:21767   */\n      pop\n        /* \"#utility.yul\":22218:22222   */\n      dup3\n        /* \"#utility.yul\":22211:22222   */\n      swap8\n      pop\n        /* \"#utility.yul\":22238:22241   */\n      dup8\n        /* \"#utility.yul\":22231:22241   */\n      swap6\n      pop\n        /* \"#utility.yul\":21286:22247   */\n      pop\n      pop\n      pop\n      pop\n      pop\n        /* \"#utility.yul\":21104:22247   */\n      swap3\n      swap2\n      pop\n      pop\n      jump\t// out\n        /* \"#utility.yul\":22253:22742   */\n    tag_118:\n        /* \"#utility.yul\":22454:22458   */\n      0x00\n        /* \"#utility.yul\":22492:22494   */\n      0x20\n        /* \"#utility.yul\":22481:22490   */\n      dup3\n        /* \"#utility.yul\":22477:22495   */\n      add\n        /* \"#utility.yul\":22469:22495   */\n      swap1\n      pop\n        /* \"#utility.yul\":22541:22550   */\n      dup2\n        /* \"#utility.yul\":22535:22539   */\n      dup2\n        /* \"#utility.yul\":22531:22551   */\n      sub\n        /* \"#utility.yul\":22527:22528   */\n      0x00\n        /* \"#utility.yul\":22516:22525   */\n      dup4\n        /* \"#utility.yul\":22512:22529   */\n      add\n        /* \"#utility.yul\":22505:22552   */\n      mstore\n        /* \"#utility.yul\":22569:22735   */\n      tag_855\n        /* \"#utility.yul\":22730:22734   */\n      dup2\n        /* \"#utility.yul\":22721:22727   */\n      dup5\n        /* \"#utility.yul\":22569:22735   */\n      tag_576\n      jump\t// in\n    tag_855:\n        /* \"#utility.yul\":22561:22735   */\n      swap1\n      pop\n        /* \"#utility.yul\":22253:22742   */\n      swap3\n      swap2\n      pop\n      pop\n      jump\t// out\n        /* \"#utility.yul\":22816:25881   */\n    tag_577:\n        /* \"#utility.yul\":22943:22946   */\n      0x00\n        /* \"#utility.yul\":22979:22985   */\n      0x01c0\n        /* \"#utility.yul\":22974:22977   */\n      dup4\n        /* \"#utility.yul\":22970:22986   */\n      add\n        /* \"#utility.yul\":23066:23070   */\n      0x00\n        /* \"#utility.yul\":23059:23064   */\n      dup4\n        /* \"#utility.yul\":23055:23071   */\n      add\n        /* \"#utility.yul\":23049:23072   */\n      mload\n        /* \"#utility.yul\":23085:23148   */\n      tag_857\n        /* \"#utility.yul\":23142:23146   */\n      0x00\n        /* \"#utility.yul\":23137:23140   */\n      dup7\n        /* \"#utility.yul\":23133:23147   */\n      add\n        /* \"#utility.yul\":23119:23131   */\n      dup3\n        /* \"#utility.yul\":23085:23148   */\n      tag_558\n      jump\t// in\n    tag_857:\n        /* \"#utility.yul\":22996:23158   */\n      pop\n        /* \"#utility.yul\":23241:23245   */\n      0x20\n        /* \"#utility.yul\":23234:23239   */\n      dup4\n        /* \"#utility.yul\":23230:23246   */\n      add\n        /* \"#utility.yul\":23224:23247   */\n      mload\n        /* \"#utility.yul\":23260:23323   */\n      tag_858\n        /* \"#utility.yul\":23317:23321   */\n      0x20\n        /* \"#utility.yul\":23312:23315   */\n      dup7\n        /* \"#utility.yul\":23308:23322   */\n      add\n        /* \"#utility.yul\":23294:23306   */\n      dup3\n        /* \"#utility.yul\":23260:23323   */\n      tag_557\n      jump\t// in\n    tag_858:\n        /* \"#utility.yul\":23168:23333   */\n      pop\n        /* \"#utility.yul\":23416:23420   */\n      0x40\n        /* \"#utility.yul\":23409:23414   */\n      dup4\n        /* \"#utility.yul\":23405:23421   */\n      add\n        /* \"#utility.yul\":23399:23422   */\n      mload\n        /* \"#utility.yul\":23469:23472   */\n      dup5\n        /* \"#utility.yul\":23463:23467   */\n      dup3\n        /* \"#utility.yul\":23459:23473   */\n      sub\n        /* \"#utility.yul\":23452:23456   */\n      0x40\n        /* \"#utility.yul\":23447:23450   */\n      dup7\n        /* \"#utility.yul\":23443:23457   */\n      add\n        /* \"#utility.yul\":23436:23474   */\n      mstore\n        /* \"#utility.yul\":23495:23568   */\n      tag_859\n        /* \"#utility.yul\":23563:23567   */\n      dup3\n        /* \"#utility.yul\":23549:23561   */\n      dup3\n        /* \"#utility.yul\":23495:23568   */\n      tag_568\n      jump\t// in\n    tag_859:\n        /* \"#utility.yul\":23487:23568   */\n      swap2\n      pop\n        /* \"#utility.yul\":23343:23579   */\n      pop\n        /* \"#utility.yul\":23668:23672   */\n      0x60\n        /* \"#utility.yul\":23661:23666   */\n      dup4\n        /* \"#utility.yul\":23657:23673   */\n      add\n        /* \"#utility.yul\":23651:23674   */\n      mload\n        /* \"#utility.yul\":23721:23724   */\n      dup5\n        /* \"#utility.yul\":23715:23719   */\n      dup3\n        /* \"#utility.yul\":23711:23725   */\n      sub\n        /* \"#utility.yul\":23704:23708   */\n      0x60\n        /* \"#utility.yul\":23699:23702   */\n      dup7\n        /* \"#utility.yul\":23695:23709   */\n      add\n        /* \"#utility.yul\":23688:23726   */\n      mstore\n        /* \"#utility.yul\":23747:23820   */\n      tag_860\n        /* \"#utility.yul\":23815:23819   */\n      dup3\n        /* \"#utility.yul\":23801:23813   */\n      dup3\n        /* \"#utility.yul\":23747:23820   */\n      tag_568\n      jump\t// in\n    tag_860:\n        /* \"#utility.yul\":23739:23820   */\n      swap2\n      pop\n        /* \"#utility.yul\":23589:23831   */\n      pop\n        /* \"#utility.yul\":23917:23921   */\n      0x80\n        /* \"#utility.yul\":23910:23915   */\n      dup4\n        /* \"#utility.yul\":23906:23922   */\n      add\n        /* \"#utility.yul\":23900:23923   */\n      mload\n        /* \"#utility.yul\":23970:23973   */\n      dup5\n        /* \"#utility.yul\":23964:23968   */\n      dup3\n        /* \"#utility.yul\":23960:23974   */\n      sub\n        /* \"#utility.yul\":23953:23957   */\n      0x80\n        /* \"#utility.yul\":23948:23951   */\n      dup7\n        /* \"#utility.yul\":23944:23958   */\n      add\n        /* \"#utility.yul\":23937:23975   */\n      mstore\n        /* \"#utility.yul\":23996:24069   */\n      tag_861\n        /* \"#utility.yul\":24064:24068   */\n      dup3\n        /* \"#utility.yul\":24050:24062   */\n      dup3\n        /* \"#utility.yul\":23996:24069   */\n      tag_568\n      jump\t// in\n    tag_861:\n        /* \"#utility.yul\":23988:24069   */\n      swap2\n      pop\n        /* \"#utility.yul\":23841:24080   */\n      pop\n        /* \"#utility.yul\":24162:24166   */\n      0xa0\n        /* \"#utility.yul\":24155:24160   */\n      dup4\n        /* \"#utility.yul\":24151:24167   */\n      add\n        /* \"#utility.yul\":24145:24168   */\n      mload\n        /* \"#utility.yul\":24181:24244   */\n      tag_862\n        /* \"#utility.yul\":24238:24242   */\n      0xa0\n        /* \"#utility.yul\":24233:24236   */\n      dup7\n        /* \"#utility.yul\":24229:24243   */\n      add\n        /* \"#utility.yul\":24215:24227   */\n      dup3\n        /* \"#utility.yul\":24181:24244   */\n      tag_558\n      jump\t// in\n    tag_862:\n        /* \"#utility.yul\":24090:24254   */\n      pop\n        /* \"#utility.yul\":24338:24342   */\n      0xc0\n        /* \"#utility.yul\":24331:24336   */\n      dup4\n        /* \"#utility.yul\":24327:24343   */\n      add\n        /* \"#utility.yul\":24321:24344   */\n      mload\n        /* \"#utility.yul\":24357:24420   */\n      tag_863\n        /* \"#utility.yul\":24414:24418   */\n      0xc0\n        /* \"#utility.yul\":24409:24412   */\n      dup7\n        /* \"#utility.yul\":24405:24419   */\n      add\n        /* \"#utility.yul\":24391:24403   */\n      dup3\n        /* \"#utility.yul\":24357:24420   */\n      tag_558\n      jump\t// in\n    tag_863:\n        /* \"#utility.yul\":24264:24430   */\n      pop\n        /* \"#utility.yul\":24517:24521   */\n      0xe0\n        /* \"#utility.yul\":24510:24515   */\n      dup4\n        /* \"#utility.yul\":24506:24522   */\n      add\n        /* \"#utility.yul\":24500:24523   */\n      mload\n        /* \"#utility.yul\":24536:24599   */\n      tag_864\n        /* \"#utility.yul\":24593:24597   */\n      0xe0\n        /* \"#utility.yul\":24588:24591   */\n      dup7\n        /* \"#utility.yul\":24584:24598   */\n      add\n        /* \"#utility.yul\":24570:24582   */\n      dup3\n        /* \"#utility.yul\":24536:24599   */\n      tag_558\n      jump\t// in\n    tag_864:\n        /* \"#utility.yul\":24440:24609   */\n      pop\n        /* \"#utility.yul\":24696:24702   */\n      0x0100\n        /* \"#utility.yul\":24689:24694   */\n      dup4\n        /* \"#utility.yul\":24685:24703   */\n      add\n        /* \"#utility.yul\":24679:24704   */\n      mload\n        /* \"#utility.yul\":24717:24782   */\n      tag_865\n        /* \"#utility.yul\":24774:24780   */\n      0x0100\n        /* \"#utility.yul\":24769:24772   */\n      dup7\n        /* \"#utility.yul\":24765:24781   */\n      add\n        /* \"#utility.yul\":24751:24763   */\n      dup3\n        /* \"#utility.yul\":24717:24782   */\n      tag_558\n      jump\t// in\n    tag_865:\n        /* \"#utility.yul\":24619:24792   */\n      pop\n        /* \"#utility.yul\":24877:24883   */\n      0x0120\n        /* \"#utility.yul\":24870:24875   */\n      dup4\n        /* \"#utility.yul\":24866:24884   */\n      add\n        /* \"#utility.yul\":24860:24885   */\n      mload\n        /* \"#utility.yul\":24898:24963   */\n      tag_866\n        /* \"#utility.yul\":24955:24961   */\n      0x0120\n        /* \"#utility.yul\":24950:24953   */\n      dup7\n        /* \"#utility.yul\":24946:24962   */\n      add\n        /* \"#utility.yul\":24932:24944   */\n      dup3\n        /* \"#utility.yul\":24898:24963   */\n      tag_558\n      jump\t// in\n    tag_866:\n        /* \"#utility.yul\":24802:24973   */\n      pop\n        /* \"#utility.yul\":25057:25063   */\n      0x0140\n        /* \"#utility.yul\":25050:25055   */\n      dup4\n        /* \"#utility.yul\":25046:25064   */\n      add\n        /* \"#utility.yul\":25040:25065   */\n      mload\n        /* \"#utility.yul\":25078:25154   */\n      tag_867\n        /* \"#utility.yul\":25146:25152   */\n      0x0140\n        /* \"#utility.yul\":25141:25144   */\n      dup7\n        /* \"#utility.yul\":25137:25153   */\n      add\n        /* \"#utility.yul\":25123:25135   */\n      dup3\n        /* \"#utility.yul\":25078:25154   */\n      tag_572\n      jump\t// in\n    tag_867:\n        /* \"#utility.yul\":24983:25164   */\n      pop\n        /* \"#utility.yul\":25248:25254   */\n      0x0160\n        /* \"#utility.yul\":25241:25246   */\n      dup4\n        /* \"#utility.yul\":25237:25255   */\n      add\n        /* \"#utility.yul\":25231:25256   */\n      mload\n        /* \"#utility.yul\":25305:25308   */\n      dup5\n        /* \"#utility.yul\":25299:25303   */\n      dup3\n        /* \"#utility.yul\":25295:25309   */\n      sub\n        /* \"#utility.yul\":25286:25292   */\n      0x0160\n        /* \"#utility.yul\":25281:25284   */\n      dup7\n        /* \"#utility.yul\":25277:25293   */\n      add\n        /* \"#utility.yul\":25270:25310   */\n      mstore\n        /* \"#utility.yul\":25331:25404   */\n      tag_868\n        /* \"#utility.yul\":25399:25403   */\n      dup3\n        /* \"#utility.yul\":25385:25397   */\n      dup3\n        /* \"#utility.yul\":25331:25404   */\n      tag_568\n      jump\t// in\n    tag_868:\n        /* \"#utility.yul\":25323:25404   */\n      swap2\n      pop\n        /* \"#utility.yul\":25174:25415   */\n      pop\n        /* \"#utility.yul\":25502:25508   */\n      0x0180\n        /* \"#utility.yul\":25495:25500   */\n      dup4\n        /* \"#utility.yul\":25491:25509   */\n      add\n        /* \"#utility.yul\":25485:25510   */\n      mload\n        /* \"#utility.yul\":25523:25582   */\n      tag_869\n        /* \"#utility.yul\":25574:25580   */\n      0x0180\n        /* \"#utility.yul\":25569:25572   */\n      dup7\n        /* \"#utility.yul\":25565:25581   */\n      add\n        /* \"#utility.yul\":25551:25563   */\n      dup3\n        /* \"#utility.yul\":25523:25582   */\n      tag_559\n      jump\t// in\n    tag_869:\n        /* \"#utility.yul\":25425:25592   */\n      pop\n        /* \"#utility.yul\":25687:25693   */\n      0x01a0\n        /* \"#utility.yul\":25680:25685   */\n      dup4\n        /* \"#utility.yul\":25676:25694   */\n      add\n        /* \"#utility.yul\":25670:25695   */\n      mload\n        /* \"#utility.yul\":25744:25747   */\n      dup5\n        /* \"#utility.yul\":25738:25742   */\n      dup3\n        /* \"#utility.yul\":25734:25748   */\n      sub\n        /* \"#utility.yul\":25725:25731   */\n      0x01a0\n        /* \"#utility.yul\":25720:25723   */\n      dup7\n        /* \"#utility.yul\":25716:25732   */\n      add\n        /* \"#utility.yul\":25709:25749   */\n      mstore\n        /* \"#utility.yul\":25770:25843   */\n      tag_870\n        /* \"#utility.yul\":25838:25842   */\n      dup3\n        /* \"#utility.yul\":25824:25836   */\n      dup3\n        /* \"#utility.yul\":25770:25843   */\n      tag_568\n      jump\t// in\n    tag_870:\n        /* \"#utility.yul\":25762:25843   */\n      swap2\n      pop\n        /* \"#utility.yul\":25602:25854   */\n      pop\n        /* \"#utility.yul\":25871:25875   */\n      dup1\n        /* \"#utility.yul\":25864:25875   */\n      swap2\n      pop\n        /* \"#utility.yul\":22948:25881   */\n      pop\n        /* \"#utility.yul\":22816:25881   */\n      swap3\n      swap2\n      pop\n      pop\n      jump\t// out\n        /* \"#utility.yul\":25887:26276   */\n    tag_124:\n        /* \"#utility.yul\":26038:26042   */\n      0x00\n        /* \"#utility.yul\":26076:26078   */\n      0x20\n        /* \"#utility.yul\":26065:26074   */\n      dup3\n        /* \"#utility.yul\":26061:26079   */\n      add\n        /* \"#utility.yul\":26053:26079   */\n      swap1\n      pop\n        /* \"#utility.yul\":26125:26134   */\n      dup2\n        /* \"#utility.yul\":26119:26123   */\n      dup2\n        /* \"#utility.yul\":26115:26135   */\n      sub\n        /* \"#utility.yul\":26111:26112   */\n      0x00\n        /* \"#utility.yul\":26100:26109   */\n      dup4\n        /* \"#utility.yul\":26096:26113   */\n      add\n        /* \"#utility.yul\":26089:26136   */\n      mstore\n        /* \"#utility.yul\":26153:26269   */\n      tag_872\n        /* \"#utility.yul\":26264:26268   */\n      dup2\n        /* \"#utility.yul\":26255:26261   */\n      dup5\n        /* \"#utility.yul\":26153:26269   */\n      tag_577\n      jump\t// in\n    tag_872:\n        /* \"#utility.yul\":26145:26269   */\n      swap1\n      pop\n        /* \"#utility.yul\":25887:26276   */\n      swap3\n      swap2\n      pop\n      pop\n      jump\t// out\n        /* \"#utility.yul\":26282:26462   */\n    tag_578:\n        /* \"#utility.yul\":26330:26407   */\n      0x4e487b7100000000000000000000000000000000000000000000000000000000\n        /* \"#utility.yul\":26327:26328   */\n      0x00\n        /* \"#utility.yul\":26320:26408   */\n      mstore\n        /* \"#utility.yul\":26427:26431   */\n      0x22\n        /* \"#utility.yul\":26424:26425   */\n      0x04\n        /* \"#utility.yul\":26417:26432   */\n      mstore\n        /* \"#utility.yul\":26451:26455   */\n      0x24\n        /* \"#utility.yul\":26448:26449   */\n      0x00\n        /* \"#utility.yul\":26441:26456   */\n      revert\n        /* \"#utility.yul\":26468:26788   */\n    tag_131:\n        /* \"#utility.yul\":26512:26518   */\n      0x00\n        /* \"#utility.yul\":26549:26550   */\n      0x02\n        /* \"#utility.yul\":26543:26547   */\n      dup3\n        /* \"#utility.yul\":26539:26551   */\n      div\n        /* \"#utility.yul\":26529:26551   */\n      swap1\n      pop\n        /* \"#utility.yul\":26596:26597   */\n      0x01\n        /* \"#utility.yul\":26590:26594   */\n      dup3\n        /* \"#utility.yul\":26586:26598   */\n      and\n        /* \"#utility.yul\":26617:26635   */\n      dup1\n        /* \"#utility.yul\":26607:26688   */\n      tag_875\n      jumpi\n        /* \"#utility.yul\":26673:26677   */\n      0x7f\n        /* \"#utility.yul\":26665:26671   */\n      dup3\n        /* \"#utility.yul\":26661:26678   */\n      and\n        /* \"#utility.yul\":26651:26678   */\n      swap2\n      pop\n        /* \"#utility.yul\":26607:26688   */\n    tag_875:\n        /* \"#utility.yul\":26735:26737   */\n      0x20\n        /* \"#utility.yul\":26727:26733   */\n      dup3\n        /* \"#utility.yul\":26724:26738   */\n      lt\n        /* \"#utility.yul\":26704:26722   */\n      dup2\n        /* \"#utility.yul\":26701:26739   */\n      sub\n        /* \"#utility.yul\":26698:26782   */\n      tag_876\n      jumpi\n        /* \"#utility.yul\":26754:26772   */\n      tag_877\n      tag_578\n      jump\t// in\n    tag_877:\n        /* \"#utility.yul\":26698:26782   */\n    tag_876:\n        /* \"#utility.yul\":26519:26788   */\n      pop\n        /* \"#utility.yul\":26468:26788   */\n      swap2\n      swap1\n      pop\n      jump\t// out\n        /* \"#utility.yul\":26794:26965   */\n    tag_579:\n        /* \"#utility.yul\":26934:26957   */\n      0x5469746c652063616e6e6f7420626520656d7074790000000000000000000000\n        /* \"#utility.yul\":26930:26931   */\n      0x00\n        /* \"#utility.yul\":26922:26928   */\n      dup3\n        /* \"#utility.yul\":26918:26932   */\n      add\n        /* \"#utility.yul\":26911:26958   */\n      mstore\n        /* \"#utility.yul\":26794:26965   */\n      pop\n      jump\t// out\n        /* \"#utility.yul\":26971:27337   */\n    tag_580:\n        /* \"#utility.yul\":27113:27116   */\n      0x00\n        /* \"#utility.yul\":27134:27201   */\n      tag_880\n        /* \"#utility.yul\":27198:27200   */\n      0x15\n        /* \"#utility.yul\":27193:27196   */\n      dup4\n        /* \"#utility.yul\":27134:27201   */\n      tag_534\n      jump\t// in\n    tag_880:\n        /* \"#utility.yul\":27127:27201   */\n      swap2\n      pop\n        /* \"#utility.yul\":27210:27303   */\n      tag_881\n        /* \"#utility.yul\":27299:27302   */\n      dup3\n        /* \"#utility.yul\":27210:27303   */\n      tag_579\n      jump\t// in\n    tag_881:\n        /* \"#utility.yul\":27328:27330   */\n      0x20\n        /* \"#utility.yul\":27323:27326   */\n      dup3\n        /* \"#utility.yul\":27319:27331   */\n      add\n        /* \"#utility.yul\":27312:27331   */\n      swap1\n      pop\n        /* \"#utility.yul\":26971:27337   */\n      swap2\n      swap1\n      pop\n      jump\t// out\n        /* \"#utility.yul\":27343:27762   */\n    tag_139:\n        /* \"#utility.yul\":27509:27513   */\n      0x00\n        /* \"#utility.yul\":27547:27549   */\n      0x20\n        /* \"#utility.yul\":27536:27545   */\n      dup3\n        /* \"#utility.yul\":27532:27550   */\n      add\n        /* \"#utility.yul\":27524:27550   */\n      swap1\n      pop\n        /* \"#utility.yul\":27596:27605   */\n      dup2\n        /* \"#utility.yul\":27590:27594   */\n      dup2\n        /* \"#utility.yul\":27586:27606   */\n      sub\n        /* \"#utility.yul\":27582:27583   */\n      0x00\n        /* \"#utility.yul\":27571:27580   */\n      dup4\n        /* \"#utility.yul\":27567:27584   */\n      add\n        /* \"#utility.yul\":27560:27607   */\n      mstore\n        /* \"#utility.yul\":27624:27755   */\n      tag_883\n        /* \"#utility.yul\":27750:27754   */\n      dup2\n        /* \"#utility.yul\":27624:27755   */\n      tag_580\n      jump\t// in\n    tag_883:\n        /* \"#utility.yul\":27616:27755   */\n      swap1\n      pop\n        /* \"#utility.yul\":27343:27762   */\n      swap2\n      swap1\n      pop\n      jump\t// out\n        /* \"#utility.yul\":27768:27945   */\n    tag_581:\n        /* \"#utility.yul\":27908:27937   */\n      0x4465736372697074696f6e2063616e6e6f7420626520656d7074790000000000\n        /* \"#utility.yul\":27904:27905   */\n      0x00\n        /* \"#utility.yul\":27896:27902   */\n      dup3\n        /* \"#utility.yul\":27892:27906   */\n      add\n        /* \"#utility.yul\":27885:27938   */\n      mstore\n        /* \"#utility.yul\":27768:27945   */\n      pop\n      jump\t// out\n        /* \"#utility.yul\":27951:28317   */\n    tag_582:\n        /* \"#utility.yul\":28093:28096   */\n      0x00\n        /* \"#utility.yul\":28114:28181   */\n      tag_886\n        /* \"#utility.yul\":28178:28180   */\n      0x1b\n        /* \"#utility.yul\":28173:28176   */\n      dup4\n        /* \"#utility.yul\":28114:28181   */\n      tag_534\n      jump\t// in\n    tag_886:\n        /* \"#utility.yul\":28107:28181   */\n      swap2\n      pop\n        /* \"#utility.yul\":28190:28283   */\n      tag_887\n        /* \"#utility.yul\":28279:28282   */\n      dup3\n        /* \"#utility.yul\":28190:28283   */\n      tag_581\n      jump\t// in\n    tag_887:\n        /* \"#utility.yul\":28308:28310   */\n      0x20\n        /* \"#utility.yul\":28303:28306   */\n      dup3\n        /* \"#utility.yul\":28299:28311   */\n      add\n        /* \"#utility.yul\":28292:28311   */\n      swap1\n      pop\n        /* \"#utility.yul\":27951:28317   */\n      swap2\n      swap1\n      pop\n      jump\t// out\n        /* \"#utility.yul\":28323:28742   */\n    tag_142:\n        /* \"#utility.yul\":28489:28493   */\n      0x00\n        /* \"#utility.yul\":28527:28529   */\n      0x20\n        /* \"#utility.yul\":28516:28525   */\n      dup3\n        /* \"#utility.yul\":28512:28530   */\n      add\n        /* \"#utility.yul\":28504:28530   */\n      swap1\n      pop\n        /* \"#utility.yul\":28576:28585   */\n      dup2\n        /* \"#utility.yul\":28570:28574   */\n      dup2\n        /* \"#utility.yul\":28566:28586   */\n      sub\n        /* \"#utility.yul\":28562:28563   */\n      0x00\n        /* \"#utility.yul\":28551:28560   */\n      dup4\n        /* \"#utility.yul\":28547:28564   */\n      add\n        /* \"#utility.yul\":28540:28587   */\n      mstore\n        /* \"#utility.yul\":28604:28735   */\n      tag_889\n        /* \"#utility.yul\":28730:28734   */\n      dup2\n        /* \"#utility.yul\":28604:28735   */\n      tag_582\n      jump\t// in\n    tag_889:\n        /* \"#utility.yul\":28596:28735   */\n      swap1\n      pop\n        /* \"#utility.yul\":28323:28742   */\n      swap2\n      swap1\n      pop\n      jump\t// out\n        /* \"#utility.yul\":28748:28922   */\n    tag_583:\n        /* \"#utility.yul\":28888:28914   */\n      0x496d61676555524c2063616e6e6f7420626520656d7074790000000000000000\n        /* \"#utility.yul\":28884:28885   */\n      0x00\n        /* \"#utility.yul\":28876:28882   */\n      dup3\n        /* \"#utility.yul\":28872:28886   */\n      add\n        /* \"#utility.yul\":28865:28915   */\n      mstore\n        /* \"#utility.yul\":28748:28922   */\n      pop\n      jump\t// out\n        /* \"#utility.yul\":28928:29294   */\n    tag_584:\n        /* \"#utility.yul\":29070:29073   */\n      0x00\n        /* \"#utility.yul\":29091:29158   */\n      tag_892\n        /* \"#utility.yul\":29155:29157   */\n      0x18\n        /* \"#utility.yul\":29150:29153   */\n      dup4\n        /* \"#utility.yul\":29091:29158   */\n      tag_534\n      jump\t// in\n    tag_892:\n        /* \"#utility.yul\":29084:29158   */\n      swap2\n      pop\n        /* \"#utility.yul\":29167:29260   */\n      tag_893\n        /* \"#utility.yul\":29256:29259   */\n      dup3\n        /* \"#utility.yul\":29167:29260   */\n      tag_583\n      jump\t// in\n    tag_893:\n        /* \"#utility.yul\":29285:29287   */\n      0x20\n        /* \"#utility.yul\":29280:29283   */\n      dup3\n        /* \"#utility.yul\":29276:29288   */\n      add\n        /* \"#utility.yul\":29269:29288   */\n      swap1\n      pop\n        /* \"#utility.yul\":28928:29294   */\n      swap2\n      swap1\n      pop\n      jump\t// out\n        /* \"#utility.yul\":29300:29719   */\n    tag_145:\n        /* \"#utility.yul\":29466:29470   */\n      0x00\n        /* \"#utility.yul\":29504:29506   */\n      0x20\n        /* \"#utility.yul\":29493:29502   */\n      dup3\n        /* \"#utility.yul\":29489:29507   */\n      add\n        /* \"#utility.yul\":29481:29507   */\n      swap1\n      pop\n        /* \"#utility.yul\":29553:29562   */\n      dup2\n        /* \"#utility.yul\":29547:29551   */\n      dup2\n        /* \"#utility.yul\":29543:29563   */\n      sub\n        /* \"#utility.yul\":29539:29540   */\n      0x00\n        /* \"#utility.yul\":29528:29537   */\n      dup4\n        /* \"#utility.yul\":29524:29541   */\n      add\n        /* \"#utility.yul\":29517:29564   */\n      mstore\n        /* \"#utility.yul\":29581:29712   */\n      tag_895\n        /* \"#utility.yul\":29707:29711   */\n      dup2\n        /* \"#utility.yul\":29581:29712   */\n      tag_584\n      jump\t// in\n    tag_895:\n        /* \"#utility.yul\":29573:29712   */\n      swap1\n      pop\n        /* \"#utility.yul\":29300:29719   */\n      swap2\n      swap1\n      pop\n      jump\t// out\n        /* \"#utility.yul\":29725:29894   */\n    tag_585:\n        /* \"#utility.yul\":29865:29886   */\n      0x436f73742063616e6e6f74206265207a65726f00000000000000000000000000\n        /* \"#utility.yul\":29861:29862   */\n      0x00\n        /* \"#utility.yul\":29853:29859   */\n      dup3\n        /* \"#utility.yul\":29849:29863   */\n      add\n        /* \"#utility.yul\":29842:29887   */\n      mstore\n        /* \"#utility.yul\":29725:29894   */\n      pop\n      jump\t// out\n        /* \"#utility.yul\":29900:30266   */\n    tag_586:\n        /* \"#utility.yul\":30042:30045   */\n      0x00\n        /* \"#utility.yul\":30063:30130   */\n      tag_898\n        /* \"#utility.yul\":30127:30129   */\n      0x13\n        /* \"#utility.yul\":30122:30125   */\n      dup4\n        /* \"#utility.yul\":30063:30130   */\n      tag_534\n      jump\t// in\n    tag_898:\n        /* \"#utility.yul\":30056:30130   */\n      swap2\n      pop\n        /* \"#utility.yul\":30139:30232   */\n      tag_899\n        /* \"#utility.yul\":30228:30231   */\n      dup3\n        /* \"#utility.yul\":30139:30232   */\n      tag_585\n      jump\t// in\n    tag_899:\n        /* \"#utility.yul\":30257:30259   */\n      0x20\n        /* \"#utility.yul\":30252:30255   */\n      dup3\n        /* \"#utility.yul\":30248:30260   */\n      add\n        /* \"#utility.yul\":30241:30260   */\n      swap1\n      pop\n        /* \"#utility.yul\":29900:30266   */\n      swap2\n      swap1\n      pop\n      jump\t// out\n        /* \"#utility.yul\":30272:30691   */\n    tag_148:\n        /* \"#utility.yul\":30438:30442   */\n      0x00\n        /* \"#utility.yul\":30476:30478   */\n      0x20\n        /* \"#utility.yul\":30465:30474   */\n      dup3\n        /* \"#utility.yul\":30461:30479   */\n      add\n        /* \"#utility.yul\":30453:30479   */\n      swap1\n      pop\n        /* \"#utility.yul\":30525:30534   */\n      dup2\n        /* \"#utility.yul\":30519:30523   */\n      dup2\n        /* \"#utility.yul\":30515:30535   */\n      sub\n        /* \"#utility.yul\":30511:30512   */\n      0x00\n        /* \"#utility.yul\":30500:30509   */\n      dup4\n        /* \"#utility.yul\":30496:30513   */\n      add\n        /* \"#utility.yul\":30489:30536   */\n      mstore\n        /* \"#utility.yul\":30553:30684   */\n      tag_901\n        /* \"#utility.yul\":30679:30683   */\n      dup2\n        /* \"#utility.yul\":30553:30684   */\n      tag_586\n      jump\t// in\n    tag_901:\n        /* \"#utility.yul\":30545:30684   */\n      swap1\n      pop\n        /* \"#utility.yul\":30272:30691   */\n      swap2\n      swap1\n      pop\n      jump\t// out\n        /* \"#utility.yul\":30697:30873   */\n    tag_587:\n        /* \"#utility.yul\":30837:30865   */\n      0x5379617261742055524c2063616e6e6f7420626520656d707479000000000000\n        /* \"#utility.yul\":30833:30834   */\n      0x00\n        /* \"#utility.yul\":30825:30831   */\n      dup3\n        /* \"#utility.yul\":30821:30835   */\n      add\n        /* \"#utility.yul\":30814:30866   */\n      mstore\n        /* \"#utility.yul\":30697:30873   */\n      pop\n      jump\t// out\n        /* \"#utility.yul\":30879:31245   */\n    tag_588:\n        /* \"#utility.yul\":31021:31024   */\n      0x00\n        /* \"#utility.yul\":31042:31109   */\n      tag_904\n        /* \"#utility.yul\":31106:31108   */\n      0x1a\n        /* \"#utility.yul\":31101:31104   */\n      dup4\n        /* \"#utility.yul\":31042:31109   */\n      tag_534\n      jump\t// in\n    tag_904:\n        /* \"#utility.yul\":31035:31109   */\n      swap2\n      pop\n        /* \"#utility.yul\":31118:31211   */\n      tag_905\n        /* \"#utility.yul\":31207:31210   */\n      dup3\n        /* \"#utility.yul\":31118:31211   */\n      tag_587\n      jump\t// in\n    tag_905:\n        /* \"#utility.yul\":31236:31238   */\n      0x20\n        /* \"#utility.yul\":31231:31234   */\n      dup3\n        /* \"#utility.yul\":31227:31239   */\n      add\n        /* \"#utility.yul\":31220:31239   */\n      swap1\n      pop\n        /* \"#utility.yul\":30879:31245   */\n      swap2\n      swap1\n      pop\n      jump\t// out\n        /* \"#utility.yul\":31251:31670   */\n    tag_151:\n        /* \"#utility.yul\":31417:31421   */\n      0x00\n        /* \"#utility.yul\":31455:31457   */\n      0x20\n        /* \"#utility.yul\":31444:31453   */\n      dup3\n        /* \"#utility.yul\":31440:31458   */\n      add\n        /* \"#utility.yul\":31432:31458   */\n      swap1\n      pop\n        /* \"#utility.yul\":31504:31513   */\n      dup2\n        /* \"#utility.yul\":31498:31502   */\n      dup2\n        /* \"#utility.yul\":31494:31514   */\n      sub\n        /* \"#utility.yul\":31490:31491   */\n      0x00\n        /* \"#utility.yul\":31479:31488   */\n      dup4\n        /* \"#utility.yul\":31475:31492   */\n      add\n        /* \"#utility.yul\":31468:31515   */\n      mstore\n        /* \"#utility.yul\":31532:31663   */\n      tag_907\n        /* \"#utility.yul\":31658:31662   */\n      dup2\n        /* \"#utility.yul\":31532:31663   */\n      tag_588\n      jump\t// in\n    tag_907:\n        /* \"#utility.yul\":31524:31663   */\n      swap1\n      pop\n        /* \"#utility.yul\":31251:31670   */\n      swap2\n      swap1\n      pop\n      jump\t// out\n        /* \"#utility.yul\":31676:31817   */\n    tag_589:\n        /* \"#utility.yul\":31725:31729   */\n      0x00\n        /* \"#utility.yul\":31748:31751   */\n      dup2\n        /* \"#utility.yul\":31740:31751   */\n      swap1\n      pop\n        /* \"#utility.yul\":31771:31774   */\n      dup2\n        /* \"#utility.yul\":31768:31769   */\n      0x00\n        /* \"#utility.yul\":31761:31775   */\n      mstore\n        /* \"#utility.yul\":31805:31809   */\n      0x20\n        /* \"#utility.yul\":31802:31803   */\n      0x00\n        /* \"#utility.yul\":31792:31810   */\n      keccak256\n        /* \"#utility.yul\":31784:31810   */\n      swap1\n      pop\n        /* \"#utility.yul\":31676:31817   */\n      swap2\n      swap1\n      pop\n      jump\t// out\n        /* \"#utility.yul\":31823:31916   */\n    tag_590:\n        /* \"#utility.yul\":31860:31866   */\n      0x00\n        /* \"#utility.yul\":31907:31909   */\n      0x20\n        /* \"#utility.yul\":31902:31904   */\n      0x1f\n        /* \"#utility.yul\":31895:31900   */\n      dup4\n        /* \"#utility.yul\":31891:31905   */\n      add\n        /* \"#utility.yul\":31887:31910   */\n      div\n        /* \"#utility.yul\":31877:31910   */\n      swap1\n      pop\n        /* \"#utility.yul\":31823:31916   */\n      swap2\n      swap1\n      pop\n      jump\t// out\n        /* \"#utility.yul\":31922:32029   */\n    tag_591:\n        /* \"#utility.yul\":31966:31974   */\n      0x00\n        /* \"#utility.yul\":32016:32021   */\n      dup3\n        /* \"#utility.yul\":32010:32014   */\n      dup3\n        /* \"#utility.yul\":32006:32022   */\n      shl\n        /* \"#utility.yul\":31985:32022   */\n      swap1\n      pop\n        /* \"#utility.yul\":31922:32029   */\n      swap3\n      swap2\n      pop\n      pop\n      jump\t// out\n        /* \"#utility.yul\":32035:32428   */\n    tag_592:\n        /* \"#utility.yul\":32104:32110   */\n      0x00\n        /* \"#utility.yul\":32154:32155   */\n      0x08\n        /* \"#utility.yul\":32142:32152   */\n      dup4\n        /* \"#utility.yul\":32138:32156   */\n      mul\n        /* \"#utility.yul\":32177:32274   */\n      tag_912\n        /* \"#utility.yul\":32207:32273   */\n      0xffffffffffffffffffffffffffffffffffffffffffffffffffffffffffffffff\n        /* \"#utility.yul\":32196:32205   */\n      dup3\n        /* \"#utility.yul\":32177:32274   */\n      tag_591\n      jump\t// in\n    tag_912:\n        /* \"#utility.yul\":32295:32334   */\n      tag_913\n        /* \"#utility.yul\":32325:32333   */\n      dup7\n        /* \"#utility.yul\":32314:32323   */\n      dup4\n        /* \"#utility.yul\":32295:32334   */\n      tag_591\n      jump\t// in\n    tag_913:\n        /* \"#utility.yul\":32283:32334   */\n      swap6\n      pop\n        /* \"#utility.yul\":32367:32371   */\n      dup1\n        /* \"#utility.yul\":32363:32372   */\n      not\n        /* \"#utility.yul\":32356:32361   */\n      dup5\n        /* \"#utility.yul\":32352:32373   */\n      and\n        /* \"#utility.yul\":32343:32373   */\n      swap4\n      pop\n        /* \"#utility.yul\":32416:32420   */\n      dup1\n        /* \"#utility.yul\":32406:32414   */\n      dup7\n        /* \"#utility.yul\":32402:32421   */\n      and\n        /* \"#utility.yul\":32395:32400   */\n      dup5\n        /* \"#utility.yul\":32392:32422   */\n      or\n        /* \"#utility.yul\":32382:32422   */\n      swap3\n      pop\n        /* \"#utility.yul\":32111:32428   */\n      pop\n      pop\n        /* \"#utility.yul\":32035:32428   */\n      swap4\n      swap3\n      pop\n      pop\n      pop\n      jump\t// out\n        /* \"#utility.yul\":32434:32494   */\n    tag_593:\n        /* \"#utility.yul\":32462:32465   */\n      0x00\n        /* \"#utility.yul\":32483:32488   */\n      dup2\n        /* \"#utility.yul\":32476:32488   */\n      swap1\n      pop\n        /* \"#utility.yul\":32434:32494   */\n      swap2\n      swap1\n      pop\n      jump\t// out\n        /* \"#utility.yul\":32500:32642   */\n    tag_594:\n        /* \"#utility.yul\":32550:32559   */\n      0x00\n        /* \"#utility.yul\":32583:32636   */\n      tag_916\n        /* \"#utility.yul\":32601:32635   */\n      tag_917\n        /* \"#utility.yul\":32610:32634   */\n      tag_918\n        /* \"#utility.yul\":32628:32633   */\n      dup5\n        /* \"#utility.yul\":32610:32634   */\n      tag_547\n      jump\t// in\n    tag_918:\n        /* \"#utility.yul\":32601:32635   */\n      tag_593\n      jump\t// in\n    tag_917:\n        /* \"#utility.yul\":32583:32636   */\n      tag_547\n      jump\t// in\n    tag_916:\n        /* \"#utility.yul\":32570:32636   */\n      swap1\n      pop\n        /* \"#utility.yul\":32500:32642   */\n      swap2\n      swap1\n      pop\n      jump\t// out\n        /* \"#utility.yul\":32648:32723   */\n    tag_595:\n        /* \"#utility.yul\":32691:32694   */\n      0x00\n        /* \"#utility.yul\":32712:32717   */\n      dup2\n        /* \"#utility.yul\":32705:32717   */\n      swap1\n      pop\n        /* \"#utility.yul\":32648:32723   */\n      swap2\n      swap1\n      pop\n      jump\t// out\n        /* \"#utility.yul\":32729:32998   */\n    tag_596:\n        /* \"#utility.yul\":32839:32878   */\n      tag_921\n        /* \"#utility.yul\":32870:32877   */\n      dup4\n        /* \"#utility.yul\":32839:32878   */\n      tag_594\n      jump\t// in\n    tag_921:\n        /* \"#utility.yul\":32900:32991   */\n      tag_922\n        /* \"#utility.yul\":32949:32990   */\n      tag_923\n        /* \"#utility.yul\":32973:32989   */\n      dup3\n        /* \"#utility.yul\":32949:32990   */\n      tag_595\n      jump\t// in\n    tag_923:\n        /* \"#utility.yul\":32941:32947   */\n      dup5\n        /* \"#utility.yul\":32934:32938   */\n      dup5\n        /* \"#utility.yul\":32928:32939   */\n      sload\n        /* \"#utility.yul\":32900:32991   */\n      tag_592\n      jump\t// in\n    tag_922:\n        /* \"#utility.yul\":32894:32898   */\n      dup3\n        /* \"#utility.yul\":32887:32992   */\n      sstore\n        /* \"#utility.yul\":32805:32998   */\n      pop\n        /* \"#utility.yul\":32729:32998   */\n      pop\n      pop\n      pop\n      jump\t// out\n        /* \"#utility.yul\":33004:33077   */\n    tag_597:\n        /* \"#utility.yul\":33049:33052   */\n      0x00\n        /* \"#utility.yul\":33004:33077   */\n      swap1\n      jump\t// out\n        /* \"#utility.yul\":33083:33272   */\n    tag_598:\n        /* \"#utility.yul\":33160:33192   */\n      tag_926\n      tag_597\n      jump\t// in\n    tag_926:\n        /* \"#utility.yul\":33201:33266   */\n      tag_927\n        /* \"#utility.yul\":33259:33265   */\n      dup2\n        /* \"#utility.yul\":33251:33257   */\n      dup5\n        /* \"#utility.yul\":33245:33249   */\n      dup5\n        /* \"#utility.yul\":33201:33266   */\n      tag_596\n      jump\t// in\n    tag_927:\n        /* \"#utility.yul\":33136:33272   */\n      pop\n        /* \"#utility.yul\":33083:33272   */\n      pop\n      pop\n      jump\t// out\n        /* \"#utility.yul\":33278:33464   */\n    tag_599:\n        /* \"#utility.yul\":33338:33458   */\n    tag_929:\n        /* \"#utility.yul\":33355:33358   */\n      dup2\n        /* \"#utility.yul\":33348:33353   */\n      dup2\n        /* \"#utility.yul\":33345:33359   */\n      lt\n        /* \"#utility.yul\":33338:33458   */\n      iszero\n      tag_931\n      jumpi\n        /* \"#utility.yul\":33409:33448   */\n      tag_932\n        /* \"#utility.yul\":33446:33447   */\n      0x00\n        /* \"#utility.yul\":33439:33444   */\n      dup3\n        /* \"#utility.yul\":33409:33448   */\n      tag_598\n      jump\t// in\n    tag_932:\n        /* \"#utility.yul\":33382:33383   */\n      0x01\n        /* \"#utility.yul\":33375:33380   */\n      dup2\n        /* \"#utility.yul\":33371:33384   */\n      add\n        /* \"#utility.yul\":33362:33384   */\n      swap1\n      pop\n        /* \"#utility.yul\":33338:33458   */\n      jump(tag_929)\n    tag_931:\n        /* \"#utility.yul\":33278:33464   */\n      pop\n      pop\n      jump\t// out\n        /* \"#utility.yul\":33470:34013   */\n    tag_600:\n        /* \"#utility.yul\":33571:33573   */\n      0x1f\n        /* \"#utility.yul\":33566:33569   */\n      dup3\n        /* \"#utility.yul\":33563:33574   */\n      gt\n        /* \"#utility.yul\":33560:34006   */\n      iszero\n      tag_934\n      jumpi\n        /* \"#utility.yul\":33605:33643   */\n      tag_935\n        /* \"#utility.yul\":33637:33642   */\n      dup2\n        /* \"#utility.yul\":33605:33643   */\n      tag_589\n      jump\t// in\n    tag_935:\n        /* \"#utility.yul\":33689:33718   */\n      tag_936\n        /* \"#utility.yul\":33707:33717   */\n      dup5\n        /* \"#utility.yul\":33689:33718   */\n      tag_590\n      jump\t// in\n    tag_936:\n        /* \"#utility.yul\":33679:33687   */\n      dup2\n        /* \"#utility.yul\":33675:33719   */\n      add\n        /* \"#utility.yul\":33872:33874   */\n      0x20\n        /* \"#utility.yul\":33860:33870   */\n      dup6\n        /* \"#utility.yul\":33857:33875   */\n      lt\n        /* \"#utility.yul\":33854:33903   */\n      iszero\n      tag_937\n      jumpi\n        /* \"#utility.yul\":33893:33901   */\n      dup2\n        /* \"#utility.yul\":33878:33901   */\n      swap1\n      pop\n        /* \"#utility.yul\":33854:33903   */\n    tag_937:\n        /* \"#utility.yul\":33916:33996   */\n      tag_938\n        /* \"#utility.yul\":33972:33994   */\n      tag_939\n        /* \"#utility.yul\":33990:33993   */\n      dup6\n        /* \"#utility.yul\":33972:33994   */\n      tag_590\n      jump\t// in\n    tag_939:\n        /* \"#utility.yul\":33962:33970   */\n      dup4\n        /* \"#utility.yul\":33958:33995   */\n      add\n        /* \"#utility.yul\":33945:33956   */\n      dup3\n        /* \"#utility.yul\":33916:33996   */\n      tag_599\n      jump\t// in\n    tag_938:\n        /* \"#utility.yul\":33575:34006   */\n      pop\n      pop\n        /* \"#utility.yul\":33560:34006   */\n    tag_934:\n        /* \"#utility.yul\":33470:34013   */\n      pop\n      pop\n      pop\n      jump\t// out\n        /* \"#utility.yul\":34019:34136   */\n    tag_601:\n        /* \"#utility.yul\":34073:34081   */\n      0x00\n        /* \"#utility.yul\":34123:34128   */\n      dup3\n        /* \"#utility.yul\":34117:34121   */\n      dup3\n        /* \"#utility.yul\":34113:34129   */\n      shr\n        /* \"#utility.yul\":34092:34129   */\n      swap1\n      pop\n        /* \"#utility.yul\":34019:34136   */\n      swap3\n      swap2\n      pop\n      pop\n      jump\t// out\n        /* \"#utility.yul\":34142:34311   */\n    tag_602:\n        /* \"#utility.yul\":34186:34192   */\n      0x00\n        /* \"#utility.yul\":34219:34270   */\n      tag_942\n        /* \"#utility.yul\":34267:34268   */\n      0x00\n        /* \"#utility.yul\":34263:34269   */\n      not\n        /* \"#utility.yul\":34255:34260   */\n      dup5\n        /* \"#utility.yul\":34252:34253   */\n      0x08\n        /* \"#utility.yul\":34248:34261   */\n      mul\n        /* \"#utility.yul\":34219:34270   */\n      tag_601\n      jump\t// in\n    tag_942:\n        /* \"#utility.yul\":34215:34271   */\n      not\n        /* \"#utility.yul\":34300:34304   */\n      dup1\n        /* \"#utility.yul\":34294:34298   */\n      dup4\n        /* \"#utility.yul\":34290:34305   */\n      and\n        /* \"#utility.yul\":34280:34305   */\n      swap2\n      pop\n        /* \"#utility.yul\":34193:34311   */\n      pop\n        /* \"#utility.yul\":34142:34311   */\n      swap3\n      swap2\n      pop\n      pop\n      jump\t// out\n        /* \"#utility.yul\":34316:34611   */\n    tag_603:\n        /* \"#utility.yul\":34392:34396   */\n      0x00\n        /* \"#utility.yul\":34538:34567   */\n      tag_944\n        /* \"#utility.yul\":34563:34566   */\n      dup4\n        /* \"#utility.yul\":34557:34561   */\n      dup4\n        /* \"#utility.yul\":34538:34567   */\n      tag_602\n      jump\t// in\n    tag_944:\n        /* \"#utility.yul\":34530:34567   */\n      swap2\n      pop\n        /* \"#utility.yul\":34600:34603   */\n      dup3\n        /* \"#utility.yul\":34597:34598   */\n      0x02\n        /* \"#utility.yul\":34593:34604   */\n      mul\n        /* \"#utility.yul\":34587:34591   */\n      dup3\n        /* \"#utility.yul\":34584:34605   */\n      or\n        /* \"#utility.yul\":34576:34605   */\n      swap1\n      pop\n        /* \"#utility.yul\":34316:34611   */\n      swap3\n      swap2\n      pop\n      pop\n      jump\t// out\n        /* \"#utility.yul\":34616:36011   */\n    tag_161:\n        /* \"#utility.yul\":34733:34770   */\n      tag_946\n        /* \"#utility.yul\":34766:34769   */\n      dup3\n        /* \"#utility.yul\":34733:34770   */\n      tag_533\n      jump\t// in\n    tag_946:\n        /* \"#utility.yul\":34835:34853   */\n      0xffffffffffffffff\n        /* \"#utility.yul\":34827:34833   */\n      dup2\n        /* \"#utility.yul\":34824:34854   */\n      gt\n        /* \"#utility.yul\":34821:34877   */\n      iszero\n      tag_947\n      jumpi\n        /* \"#utility.yul\":34857:34875   */\n      tag_948\n      tag_540\n      jump\t// in\n    tag_948:\n        /* \"#utility.yul\":34821:34877   */\n    tag_947:\n        /* \"#utility.yul\":34901:34939   */\n      tag_949\n        /* \"#utility.yul\":34933:34937   */\n      dup3\n        /* \"#utility.yul\":34927:34938   */\n      sload\n        /* \"#utility.yul\":34901:34939   */\n      tag_131\n      jump\t// in\n    tag_949:\n        /* \"#utility.yul\":34986:35053   */\n      tag_950\n        /* \"#utility.yul\":35046:35052   */\n      dup3\n        /* \"#utility.yul\":35038:35044   */\n      dup3\n        /* \"#utility.yul\":35032:35036   */\n      dup6\n        /* \"#utility.yul\":34986:35053   */\n      tag_600\n      jump\t// in\n    tag_950:\n        /* \"#utility.yul\":35080:35081   */\n      0x00\n        /* \"#utility.yul\":35104:35108   */\n      0x20\n        /* \"#utility.yul\":35091:35108   */\n      swap1\n      pop\n        /* \"#utility.yul\":35136:35138   */\n      0x1f\n        /* \"#utility.yul\":35128:35134   */\n      dup4\n        /* \"#utility.yul\":35125:35139   */\n      gt\n        /* \"#utility.yul\":35153:35154   */\n      0x01\n        /* \"#utility.yul\":35148:35766   */\n      dup2\n      eq\n      tag_952\n      jumpi\n        /* \"#utility.yul\":35810:35811   */\n      0x00\n        /* \"#utility.yul\":35827:35833   */\n      dup5\n        /* \"#utility.yul\":35824:35901   */\n      iszero\n      tag_953\n      jumpi\n        /* \"#utility.yul\":35876:35885   */\n      dup3\n        /* \"#utility.yul\":35871:35874   */\n      dup8\n        /* \"#utility.yul\":35867:35886   */\n      add\n        /* \"#utility.yul\":35861:35887   */\n      mload\n        /* \"#utility.yul\":35852:35887   */\n      swap1\n      pop\n        /* \"#utility.yul\":35824:35901   */\n    tag_953:\n        /* \"#utility.yul\":35927:35994   */\n      tag_954\n        /* \"#utility.yul\":35987:35993   */\n      dup6\n        /* \"#utility.yul\":35980:35985   */\n      dup3\n        /* \"#utility.yul\":35927:35994   */\n      tag_603\n      jump\t// in\n    tag_954:\n        /* \"#utility.yul\":35921:35925   */\n      dup7\n        /* \"#utility.yul\":35914:35995   */\n      sstore\n        /* \"#utility.yul\":35783:36005   */\n      pop\n        /* \"#utility.yul\":35118:36005   */\n      jump(tag_951)\n        /* \"#utility.yul\":35148:35766   */\n    tag_952:\n        /* \"#utility.yul\":35200:35204   */\n      0x1f\n        /* \"#utility.yul\":35196:35205   */\n      not\n        /* \"#utility.yul\":35188:35194   */\n      dup5\n        /* \"#utility.yul\":35184:35206   */\n      and\n        /* \"#utility.yul\":35234:35271   */\n      tag_955\n        /* \"#utility.yul\":35266:35270   */\n      dup7\n        /* \"#utility.yul\":35234:35271   */\n      tag_589\n      jump\t// in\n    tag_955:\n        /* \"#utility.yul\":35293:35294   */\n      0x00\n        /* \"#utility.yul\":35307:35515   */\n    tag_956:\n        /* \"#utility.yul\":35321:35328   */\n      dup3\n        /* \"#utility.yul\":35318:35319   */\n      dup2\n        /* \"#utility.yul\":35315:35329   */\n      lt\n        /* \"#utility.yul\":35307:35515   */\n      iszero\n      tag_958\n      jumpi\n        /* \"#utility.yul\":35400:35409   */\n      dup5\n        /* \"#utility.yul\":35395:35398   */\n      dup10\n        /* \"#utility.yul\":35391:35410   */\n      add\n        /* \"#utility.yul\":35385:35411   */\n      mload\n        /* \"#utility.yul\":35377:35383   */\n      dup3\n        /* \"#utility.yul\":35370:35412   */\n      sstore\n        /* \"#utility.yul\":35451:35452   */\n      0x01\n        /* \"#utility.yul\":35443:35449   */\n      dup3\n        /* \"#utility.yul\":35439:35453   */\n      add\n        /* \"#utility.yul\":35429:35453   */\n      swap2\n      pop\n        /* \"#utility.yul\":35498:35500   */\n      0x20\n        /* \"#utility.yul\":35487:35496   */\n      dup6\n        /* \"#utility.yul\":35483:35501   */\n      add\n        /* \"#utility.yul\":35470:35501   */\n      swap5\n      pop\n        /* \"#utility.yul\":35344:35348   */\n      0x20\n        /* \"#utility.yul\":35341:35342   */\n      dup2\n        /* \"#utility.yul\":35337:35349   */\n      add\n        /* \"#utility.yul\":35332:35349   */\n      swap1\n      pop\n        /* \"#utility.yul\":35307:35515   */\n      jump(tag_956)\n    tag_958:\n        /* \"#utility.yul\":35543:35549   */\n      dup7\n        /* \"#utility.yul\":35534:35541   */\n      dup4\n        /* \"#utility.yul\":35531:35550   */\n      lt\n        /* \"#utility.yul\":35528:35707   */\n      iszero\n      tag_959\n      jumpi\n        /* \"#utility.yul\":35601:35610   */\n      dup5\n        /* \"#utility.yul\":35596:35599   */\n      dup10\n        /* \"#utility.yul\":35592:35611   */\n      add\n        /* \"#utility.yul\":35586:35612   */\n      mload\n        /* \"#utility.yul\":35644:35692   */\n      tag_960\n        /* \"#utility.yul\":35686:35690   */\n      0x1f\n        /* \"#utility.yul\":35678:35684   */\n      dup10\n        /* \"#utility.yul\":35674:35691   */\n      and\n        /* \"#utility.yul\":35663:35672   */\n      dup3\n        /* \"#utility.yul\":35644:35692   */\n      tag_602\n      jump\t// in\n    tag_960:\n        /* \"#utility.yul\":35636:35642   */\n      dup4\n        /* \"#utility.yul\":35629:35693   */\n      sstore\n        /* \"#utility.yul\":35551:35707   */\n      pop\n        /* \"#utility.yul\":35528:35707   */\n    tag_959:\n        /* \"#utility.yul\":35753:35754   */\n      0x01\n        /* \"#utility.yul\":35749:35750   */\n      0x02\n        /* \"#utility.yul\":35741:35747   */\n      dup9\n        /* \"#utility.yul\":35737:35751   */\n      mul\n        /* \"#utility.yul\":35733:35755   */\n      add\n        /* \"#utility.yul\":35727:35731   */\n      dup9\n        /* \"#utility.yul\":35720:35756   */\n      sstore\n        /* \"#utility.yul\":35155:35766   */\n      pop\n      pop\n      pop\n        /* \"#utility.yul\":35118:36005   */\n    tag_951:\n      pop\n        /* \"#utility.yul\":34708:36011   */\n      pop\n      pop\n      pop\n        /* \"#utility.yul\":34616:36011   */\n      pop\n      pop\n      jump\t// out\n        /* \"#utility.yul\":36017:36197   */\n    tag_604:\n        /* \"#utility.yul\":36065:36142   */\n      0x4e487b7100000000000000000000000000000000000000000000000000000000\n        /* \"#utility.yul\":36062:36063   */\n      0x00\n        /* \"#utility.yul\":36055:36143   */\n      mstore\n        /* \"#utility.yul\":36162:36166   */\n      0x11\n        /* \"#utility.yul\":36159:36160   */\n      0x04\n        /* \"#utility.yul\":36152:36167   */\n      mstore\n        /* \"#utility.yul\":36186:36190   */\n      0x24\n        /* \"#utility.yul\":36183:36184   */\n      0x00\n        /* \"#utility.yul\":36176:36191   */\n      revert\n        /* \"#utility.yul\":36203:36394   */\n    tag_177:\n        /* \"#utility.yul\":36243:36246   */\n      0x00\n        /* \"#utility.yul\":36262:36282   */\n      tag_963\n        /* \"#utility.yul\":36280:36281   */\n      dup3\n        /* \"#utility.yul\":36262:36282   */\n      tag_547\n      jump\t// in\n    tag_963:\n        /* \"#utility.yul\":36257:36282   */\n      swap2\n      pop\n        /* \"#utility.yul\":36296:36316   */\n      tag_964\n        /* \"#utility.yul\":36314:36315   */\n      dup4\n        /* \"#utility.yul\":36296:36316   */\n      tag_547\n      jump\t// in\n    tag_964:\n        /* \"#utility.yul\":36291:36316   */\n      swap3\n      pop\n        /* \"#utility.yul\":36339:36340   */\n      dup3\n        /* \"#utility.yul\":36336:36337   */\n      dup3\n        /* \"#utility.yul\":36332:36341   */\n      add\n        /* \"#utility.yul\":36325:36341   */\n      swap1\n      pop\n        /* \"#utility.yul\":36360:36363   */\n      dup1\n        /* \"#utility.yul\":36357:36358   */\n      dup3\n        /* \"#utility.yul\":36354:36364   */\n      gt\n        /* \"#utility.yul\":36351:36387   */\n      iszero\n      tag_965\n      jumpi\n        /* \"#utility.yul\":36367:36385   */\n      tag_966\n      tag_604\n      jump\t// in\n    tag_966:\n        /* \"#utility.yul\":36351:36387   */\n    tag_965:\n        /* \"#utility.yul\":36203:36394   */\n      swap3\n      swap2\n      pop\n      pop\n      jump\t// out\n        /* \"#utility.yul\":36400:36633   */\n    tag_180:\n        /* \"#utility.yul\":36439:36442   */\n      0x00\n        /* \"#utility.yul\":36462:36486   */\n      tag_968\n        /* \"#utility.yul\":36480:36485   */\n      dup3\n        /* \"#utility.yul\":36462:36486   */\n      tag_547\n      jump\t// in\n    tag_968:\n        /* \"#utility.yul\":36453:36486   */\n      swap2\n      pop\n        /* \"#utility.yul\":36508:36574   */\n      0xffffffffffffffffffffffffffffffffffffffffffffffffffffffffffffffff\n        /* \"#utility.yul\":36501:36506   */\n      dup3\n        /* \"#utility.yul\":36498:36575   */\n      sub\n        /* \"#utility.yul\":36495:36598   */\n      tag_969\n      jumpi\n        /* \"#utility.yul\":36578:36596   */\n      tag_970\n      tag_604\n      jump\t// in\n    tag_970:\n        /* \"#utility.yul\":36495:36598   */\n    tag_969:\n        /* \"#utility.yul\":36625:36626   */\n      0x01\n        /* \"#utility.yul\":36618:36623   */\n      dup3\n        /* \"#utility.yul\":36614:36627   */\n      add\n        /* \"#utility.yul\":36607:36627   */\n      swap1\n      pop\n        /* \"#utility.yul\":36400:36633   */\n      swap2\n      swap1\n      pop\n      jump\t// out\n        /* \"#utility.yul\":36639:36804   */\n    tag_605:\n        /* \"#utility.yul\":36779:36796   */\n      0x50524f4a45435420435245415445440000000000000000000000000000000000\n        /* \"#utility.yul\":36775:36776   */\n      0x00\n        /* \"#utility.yul\":36767:36773   */\n      dup3\n        /* \"#utility.yul\":36763:36777   */\n      add\n        /* \"#utility.yul\":36756:36797   */\n      mstore\n        /* \"#utility.yul\":36639:36804   */\n      pop\n      jump\t// out\n        /* \"#utility.yul\":36810:37176   */\n    tag_606:\n        /* \"#utility.yul\":36952:36955   */\n      0x00\n        /* \"#utility.yul\":36973:37040   */\n      tag_973\n        /* \"#utility.yul\":37037:37039   */\n      0x0f\n        /* \"#utility.yul\":37032:37035   */\n      dup4\n        /* \"#utility.yul\":36973:37040   */\n      tag_534\n      jump\t// in\n    tag_973:\n        /* \"#utility.yul\":36966:37040   */\n      swap2\n      pop\n        /* \"#utility.yul\":37049:37142   */\n      tag_974\n        /* \"#utility.yul\":37138:37141   */\n      dup3\n        /* \"#utility.yul\":37049:37142   */\n      tag_605\n      jump\t// in\n    tag_974:\n        /* \"#utility.yul\":37167:37169   */\n      0x20\n        /* \"#utility.yul\":37162:37165   */\n      dup3\n        /* \"#utility.yul\":37158:37170   */\n      add\n        /* \"#utility.yul\":37151:37170   */\n      swap1\n      pop\n        /* \"#utility.yul\":36810:37176   */\n      swap2\n      swap1\n      pop\n      jump\t// out\n        /* \"#utility.yul\":37182:37821   */\n    tag_182:\n        /* \"#utility.yul\":37404:37408   */\n      0x00\n        /* \"#utility.yul\":37442:37444   */\n      0x60\n        /* \"#utility.yul\":37431:37440   */\n      dup3\n        /* \"#utility.yul\":37427:37445   */\n      add\n        /* \"#utility.yul\":37419:37445   */\n      swap1\n      pop\n        /* \"#utility.yul\":37455:37526   */\n      tag_976\n        /* \"#utility.yul\":37523:37524   */\n      0x00\n        /* \"#utility.yul\":37512:37521   */\n      dup4\n        /* \"#utility.yul\":37508:37525   */\n      add\n        /* \"#utility.yul\":37499:37505   */\n      dup6\n        /* \"#utility.yul\":37455:37526   */\n      tag_552\n      jump\t// in\n    tag_976:\n        /* \"#utility.yul\":37573:37582   */\n      dup2\n        /* \"#utility.yul\":37567:37571   */\n      dup2\n        /* \"#utility.yul\":37563:37583   */\n      sub\n        /* \"#utility.yul\":37558:37560   */\n      0x20\n        /* \"#utility.yul\":37547:37556   */\n      dup4\n        /* \"#utility.yul\":37543:37561   */\n      add\n        /* \"#utility.yul\":37536:37584   */\n      mstore\n        /* \"#utility.yul\":37601:37732   */\n      tag_977\n        /* \"#utility.yul\":37727:37731   */\n      dup2\n        /* \"#utility.yul\":37601:37732   */\n      tag_606\n      jump\t// in\n    tag_977:\n        /* \"#utility.yul\":37593:37732   */\n      swap1\n      pop\n        /* \"#utility.yul\":37742:37814   */\n      tag_978\n        /* \"#utility.yul\":37810:37812   */\n      0x40\n        /* \"#utility.yul\":37799:37808   */\n      dup4\n        /* \"#utility.yul\":37795:37813   */\n      add\n        /* \"#utility.yul\":37786:37792   */\n      dup5\n        /* \"#utility.yul\":37742:37814   */\n      tag_552\n      jump\t// in\n    tag_978:\n        /* \"#utility.yul\":37182:37821   */\n      swap4\n      swap3\n      pop\n      pop\n      pop\n      jump\t// out\n        /* \"#utility.yul\":37827:37996   */\n    tag_607:\n        /* \"#utility.yul\":37967:37988   */\n      0x4f776e6572207265736572766564206f6e6c7900000000000000000000000000\n        /* \"#utility.yul\":37963:37964   */\n      0x00\n        /* \"#utility.yul\":37955:37961   */\n      dup3\n        /* \"#utility.yul\":37951:37965   */\n      add\n        /* \"#utility.yul\":37944:37989   */\n      mstore\n        /* \"#utility.yul\":37827:37996   */\n      pop\n      jump\t// out\n        /* \"#utility.yul\":38002:38368   */\n    tag_608:\n        /* \"#utility.yul\":38144:38147   */\n      0x00\n        /* \"#utility.yul\":38165:38232   */\n      tag_981\n        /* \"#utility.yul\":38229:38231   */\n      0x13\n        /* \"#utility.yul\":38224:38227   */\n      dup4\n        /* \"#utility.yul\":38165:38232   */\n      tag_534\n      jump\t// in\n    tag_981:\n        /* \"#utility.yul\":38158:38232   */\n      swap2\n      pop\n        /* \"#utility.yul\":38241:38334   */\n      tag_982\n        /* \"#utility.yul\":38330:38333   */\n      dup3\n        /* \"#utility.yul\":38241:38334   */\n      tag_607\n      jump\t// in\n    tag_982:\n        /* \"#utility.yul\":38359:38361   */\n      0x20\n        /* \"#utility.yul\":38354:38357   */\n      dup3\n        /* \"#utility.yul\":38350:38362   */\n      add\n        /* \"#utility.yul\":38343:38362   */\n      swap1\n      pop\n        /* \"#utility.yul\":38002:38368   */\n      swap2\n      swap1\n      pop\n      jump\t// out\n        /* \"#utility.yul\":38374:38793   */\n    tag_186:\n        /* \"#utility.yul\":38540:38544   */\n      0x00\n        /* \"#utility.yul\":38578:38580   */\n      0x20\n        /* \"#utility.yul\":38567:38576   */\n      dup3\n        /* \"#utility.yul\":38563:38581   */\n      add\n        /* \"#utility.yul\":38555:38581   */\n      swap1\n      pop\n        /* \"#utility.yul\":38627:38636   */\n      dup2\n        /* \"#utility.yul\":38621:38625   */\n      dup2\n        /* \"#utility.yul\":38617:38637   */\n      sub\n        /* \"#utility.yul\":38613:38614   */\n      0x00\n        /* \"#utility.yul\":38602:38611   */\n      dup4\n        /* \"#utility.yul\":38598:38615   */\n      add\n        /* \"#utility.yul\":38591:38638   */\n      mstore\n        /* \"#utility.yul\":38655:38786   */\n      tag_984\n        /* \"#utility.yul\":38781:38785   */\n      dup2\n        /* \"#utility.yul\":38655:38786   */\n      tag_608\n      jump\t// in\n    tag_984:\n        /* \"#utility.yul\":38647:38786   */\n      swap1\n      pop\n        /* \"#utility.yul\":38374:38793   */\n      swap2\n      swap1\n      pop\n      jump\t// out\n        /* \"#utility.yul\":38799:38979   */\n    tag_193:\n        /* \"#utility.yul\":38847:38924   */\n      0x4e487b7100000000000000000000000000000000000000000000000000000000\n        /* \"#utility.yul\":38844:38845   */\n      0x00\n        /* \"#utility.yul\":38837:38925   */\n      mstore\n        /* \"#utility.yul\":38944:38948   */\n      0x32\n        /* \"#utility.yul\":38941:38942   */\n      0x04\n        /* \"#utility.yul\":38934:38949   */\n      mstore\n        /* \"#utility.yul\":38968:38972   */\n      0x24\n        /* \"#utility.yul\":38965:38966   */\n      0x00\n        /* \"#utility.yul\":38958:38973   */\n      revert\n        /* \"#utility.yul\":38985:39159   */\n    tag_609:\n        /* \"#utility.yul\":39125:39151   */\n      0x50726f6a656374206e6f206c6f6e676572206f70656e65640000000000000000\n        /* \"#utility.yul\":39121:39122   */\n      0x00\n        /* \"#utility.yul\":39113:39119   */\n      dup3\n        /* \"#utility.yul\":39109:39123   */\n      add\n        /* \"#utility.yul\":39102:39152   */\n      mstore\n        /* \"#utility.yul\":38985:39159   */\n      pop\n      jump\t// out\n        /* \"#utility.yul\":39165:39531   */\n    tag_610:\n        /* \"#utility.yul\":39307:39310   */\n      0x00\n        /* \"#utility.yul\":39328:39395   */\n      tag_988\n        /* \"#utility.yul\":39392:39394   */\n      0x18\n        /* \"#utility.yul\":39387:39390   */\n      dup4\n        /* \"#utility.yul\":39328:39395   */\n      tag_534\n      jump\t// in\n    tag_988:\n        /* \"#utility.yul\":39321:39395   */\n      swap2\n      pop\n        /* \"#utility.yul\":39404:39497   */\n      tag_989\n        /* \"#utility.yul\":39493:39496   */\n      dup3\n        /* \"#utility.yul\":39404:39497   */\n      tag_609\n      jump\t// in\n    tag_989:\n        /* \"#utility.yul\":39522:39524   */\n      0x20\n        /* \"#utility.yul\":39517:39520   */\n      dup3\n        /* \"#utility.yul\":39513:39525   */\n      add\n        /* \"#utility.yul\":39506:39525   */\n      swap1\n      pop\n        /* \"#utility.yul\":39165:39531   */\n      swap2\n      swap1\n      pop\n      jump\t// out\n        /* \"#utility.yul\":39537:39956   */\n    tag_199:\n        /* \"#utility.yul\":39703:39707   */\n      0x00\n        /* \"#utility.yul\":39741:39743   */\n      0x20\n        /* \"#utility.yul\":39730:39739   */\n      dup3\n        /* \"#utility.yul\":39726:39744   */\n      add\n        /* \"#utility.yul\":39718:39744   */\n      swap1\n      pop\n        /* \"#utility.yul\":39790:39799   */\n      dup2\n        /* \"#utility.yul\":39784:39788   */\n      dup2\n        /* \"#utility.yul\":39780:39800   */\n      sub\n        /* \"#utility.yul\":39776:39777   */\n      0x00\n        /* \"#utility.yul\":39765:39774   */\n      dup4\n        /* \"#utility.yul\":39761:39778   */\n      add\n        /* \"#utility.yul\":39754:39801   */\n      mstore\n        /* \"#utility.yul\":39818:39949   */\n      tag_991\n        /* \"#utility.yul\":39944:39948   */\n      dup2\n        /* \"#utility.yul\":39818:39949   */\n      tag_610\n      jump\t// in\n    tag_991:\n        /* \"#utility.yul\":39810:39949   */\n      swap1\n      pop\n        /* \"#utility.yul\":39537:39956   */\n      swap2\n      swap1\n      pop\n      jump\t// out\n        /* \"#utility.yul\":39962:40131   */\n    tag_611:\n        /* \"#utility.yul\":40102:40123   */\n      0x556e617574686f72697a656420456e7469747900000000000000000000000000\n        /* \"#utility.yul\":40098:40099   */\n      0x00\n        /* \"#utility.yul\":40090:40096   */\n      dup3\n        /* \"#utility.yul\":40086:40100   */\n      add\n        /* \"#utility.yul\":40079:40124   */\n      mstore\n        /* \"#utility.yul\":39962:40131   */\n      pop\n      jump\t// out\n        /* \"#utility.yul\":40137:40503   */\n    tag_612:\n        /* \"#utility.yul\":40279:40282   */\n      0x00\n        /* \"#utility.yul\":40300:40367   */\n      tag_994\n        /* \"#utility.yul\":40364:40366   */\n      0x13\n        /* \"#utility.yul\":40359:40362   */\n      dup4\n        /* \"#utility.yul\":40300:40367   */\n      tag_534\n      jump\t// in\n    tag_994:\n        /* \"#utility.yul\":40293:40367   */\n      swap2\n      pop\n        /* \"#utility.yul\":40376:40469   */\n      tag_995\n        /* \"#utility.yul\":40465:40468   */\n      dup3\n        /* \"#utility.yul\":40376:40469   */\n      tag_611\n      jump\t// in\n    tag_995:\n        /* \"#utility.yul\":40494:40496   */\n      0x20\n        /* \"#utility.yul\":40489:40492   */\n      dup3\n        /* \"#utility.yul\":40485:40497   */\n      add\n        /* \"#utility.yul\":40478:40497   */\n      swap1\n      pop\n        /* \"#utility.yul\":40137:40503   */\n      swap2\n      swap1\n      pop\n      jump\t// out\n        /* \"#utility.yul\":40509:40928   */\n    tag_205:\n        /* \"#utility.yul\":40675:40679   */\n      0x00\n        /* \"#utility.yul\":40713:40715   */\n      0x20\n        /* \"#utility.yul\":40702:40711   */\n      dup3\n        /* \"#utility.yul\":40698:40716   */\n      add\n        /* \"#utility.yul\":40690:40716   */\n      swap1\n      pop\n        /* \"#utility.yul\":40762:40771   */\n      dup2\n        /* \"#utility.yul\":40756:40760   */\n      dup2\n        /* \"#utility.yul\":40752:40772   */\n      sub\n        /* \"#utility.yul\":40748:40749   */\n      0x00\n        /* \"#utility.yul\":40737:40746   */\n      dup4\n        /* \"#utility.yul\":40733:40750   */\n      add\n        /* \"#utility.yul\":40726:40773   */\n      mstore\n        /* \"#utility.yul\":40790:40921   */\n      tag_997\n        /* \"#utility.yul\":40916:40920   */\n      dup2\n        /* \"#utility.yul\":40790:40921   */\n      tag_612\n      jump\t// in\n    tag_997:\n        /* \"#utility.yul\":40782:40921   */\n      swap1\n      pop\n        /* \"#utility.yul\":40509:40928   */\n      swap2\n      swap1\n      pop\n      jump\t// out\n        /* \"#utility.yul\":40934:41099   */\n    tag_613:\n        /* \"#utility.yul\":41074:41091   */\n      0x50524f4a4543542044454c455445440000000000000000000000000000000000\n        /* \"#utility.yul\":41070:41071   */\n      0x00\n        /* \"#utility.yul\":41062:41068   */\n      dup3\n        /* \"#utility.yul\":41058:41072   */\n      add\n        /* \"#utility.yul\":41051:41092   */\n      mstore\n        /* \"#utility.yul\":40934:41099   */\n      pop\n      jump\t// out\n        /* \"#utility.yul\":41105:41471   */\n    tag_614:\n        /* \"#utility.yul\":41247:41250   */\n      0x00\n        /* \"#utility.yul\":41268:41335   */\n      tag_1000\n        /* \"#utility.yul\":41332:41334   */\n      0x0f\n        /* \"#utility.yul\":41327:41330   */\n      dup4\n        /* \"#utility.yul\":41268:41335   */\n      tag_534\n      jump\t// in\n    tag_1000:\n        /* \"#utility.yul\":41261:41335   */\n      swap2\n      pop\n        /* \"#utility.yul\":41344:41437   */\n      tag_1001\n        /* \"#utility.yul\":41433:41436   */\n      dup3\n        /* \"#utility.yul\":41344:41437   */\n      tag_613\n      jump\t// in\n    tag_1001:\n        /* \"#utility.yul\":41462:41464   */\n      0x20\n        /* \"#utility.yul\":41457:41460   */\n      dup3\n        /* \"#utility.yul\":41453:41465   */\n      add\n        /* \"#utility.yul\":41446:41465   */\n      swap1\n      pop\n        /* \"#utility.yul\":41105:41471   */\n      swap2\n      swap1\n      pop\n      jump\t// out\n        /* \"#utility.yul\":41477:42116   */\n    tag_214:\n        /* \"#utility.yul\":41699:41703   */\n      0x00\n        /* \"#utility.yul\":41737:41739   */\n      0x60\n        /* \"#utility.yul\":41726:41735   */\n      dup3\n        /* \"#utility.yul\":41722:41740   */\n      add\n        /* \"#utility.yul\":41714:41740   */\n      swap1\n      pop\n        /* \"#utility.yul\":41750:41821   */\n      tag_1003\n        /* \"#utility.yul\":41818:41819   */\n      0x00\n        /* \"#utility.yul\":41807:41816   */\n      dup4\n        /* \"#utility.yul\":41803:41820   */\n      add\n        /* \"#utility.yul\":41794:41800   */\n      dup6\n        /* \"#utility.yul\":41750:41821   */\n      tag_552\n      jump\t// in\n    tag_1003:\n        /* \"#utility.yul\":41868:41877   */\n      dup2\n        /* \"#utility.yul\":41862:41866   */\n      dup2\n        /* \"#utility.yul\":41858:41878   */\n      sub\n        /* \"#utility.yul\":41853:41855   */\n      0x20\n        /* \"#utility.yul\":41842:41851   */\n      dup4\n        /* \"#utility.yul\":41838:41856   */\n      add\n        /* \"#utility.yul\":41831:41879   */\n      mstore\n        /* \"#utility.yul\":41896:42027   */\n      tag_1004\n        /* \"#utility.yul\":42022:42026   */\n      dup2\n        /* \"#utility.yul\":41896:42027   */\n      tag_614\n      jump\t// in\n    tag_1004:\n        /* \"#utility.yul\":41888:42027   */\n      swap1\n      pop\n        /* \"#utility.yul\":42037:42109   */\n      tag_1005\n        /* \"#utility.yul\":42105:42107   */\n      0x40\n        /* \"#utility.yul\":42094:42103   */\n      dup4\n        /* \"#utility.yul\":42090:42108   */\n      add\n        /* \"#utility.yul\":42081:42087   */\n      dup5\n        /* \"#utility.yul\":42037:42109   */\n      tag_552\n      jump\t// in\n    tag_1005:\n        /* \"#utility.yul\":41477:42116   */\n      swap4\n      swap3\n      pop\n      pop\n      pop\n      jump\t// out\n        /* \"#utility.yul\":42122:42294   */\n    tag_615:\n        /* \"#utility.yul\":42262:42286   */\n      0x5379617261742063616e6e6f7420626520656d70747900000000000000000000\n        /* \"#utility.yul\":42258:42259   */\n      0x00\n        /* \"#utility.yul\":42250:42256   */\n      dup3\n        /* \"#utility.yul\":42246:42260   */\n      add\n        /* \"#utility.yul\":42239:42287   */\n      mstore\n        /* \"#utility.yul\":42122:42294   */\n      pop\n      jump\t// out\n        /* \"#utility.yul\":42300:42666   */\n    tag_616:\n        /* \"#utility.yul\":42442:42445   */\n      0x00\n        /* \"#utility.yul\":42463:42530   */\n      tag_1008\n        /* \"#utility.yul\":42527:42529   */\n      0x16\n        /* \"#utility.yul\":42522:42525   */\n      dup4\n        /* \"#utility.yul\":42463:42530   */\n      tag_534\n      jump\t// in\n    tag_1008:\n        /* \"#utility.yul\":42456:42530   */\n      swap2\n      pop\n        /* \"#utility.yul\":42539:42632   */\n      tag_1009\n        /* \"#utility.yul\":42628:42631   */\n      dup3\n        /* \"#utility.yul\":42539:42632   */\n      tag_615\n      jump\t// in\n    tag_1009:\n        /* \"#utility.yul\":42657:42659   */\n      0x20\n        /* \"#utility.yul\":42652:42655   */\n      dup3\n        /* \"#utility.yul\":42648:42660   */\n      add\n        /* \"#utility.yul\":42641:42660   */\n      swap1\n      pop\n        /* \"#utility.yul\":42300:42666   */\n      swap2\n      swap1\n      pop\n      jump\t// out\n        /* \"#utility.yul\":42672:43091   */\n    tag_229:\n        /* \"#utility.yul\":42838:42842   */\n      0x00\n        /* \"#utility.yul\":42876:42878   */\n      0x20\n        /* \"#utility.yul\":42865:42874   */\n      dup3\n        /* \"#utility.yul\":42861:42879   */\n      add\n        /* \"#utility.yul\":42853:42879   */\n      swap1\n      pop\n        /* \"#utility.yul\":42925:42934   */\n      dup2\n        /* \"#utility.yul\":42919:42923   */\n      dup2\n        /* \"#utility.yul\":42915:42935   */\n      sub\n        /* \"#utility.yul\":42911:42912   */\n      0x00\n        /* \"#utility.yul\":42900:42909   */\n      dup4\n        /* \"#utility.yul\":42896:42913   */\n      add\n        /* \"#utility.yul\":42889:42936   */\n      mstore\n        /* \"#utility.yul\":42953:43084   */\n      tag_1011\n        /* \"#utility.yul\":43079:43083   */\n      dup2\n        /* \"#utility.yul\":42953:43084   */\n      tag_616\n      jump\t// in\n    tag_1011:\n        /* \"#utility.yul\":42945:43084   */\n      swap1\n      pop\n        /* \"#utility.yul\":42672:43091   */\n      swap2\n      swap1\n      pop\n      jump\t// out\n        /* \"#utility.yul\":43097:43262   */\n    tag_617:\n        /* \"#utility.yul\":43237:43254   */\n      0x50524f4a45435420555044415445440000000000000000000000000000000000\n        /* \"#utility.yul\":43233:43234   */\n      0x00\n        /* \"#utility.yul\":43225:43231   */\n      dup3\n        /* \"#utility.yul\":43221:43235   */\n      add\n        /* \"#utility.yul\":43214:43255   */\n      mstore\n        /* \"#utility.yul\":43097:43262   */\n      pop\n      jump\t// out\n        /* \"#utility.yul\":43268:43634   */\n    tag_618:\n        /* \"#utility.yul\":43410:43413   */\n      0x00\n        /* \"#utility.yul\":43431:43498   */\n      tag_1014\n        /* \"#utility.yul\":43495:43497   */\n      0x0f\n        /* \"#utility.yul\":43490:43493   */\n      dup4\n        /* \"#utility.yul\":43431:43498   */\n      tag_534\n      jump\t// in\n    tag_1014:\n        /* \"#utility.yul\":43424:43498   */\n      swap2\n      pop\n        /* \"#utility.yul\":43507:43600   */\n      tag_1015\n        /* \"#utility.yul\":43596:43599   */\n      dup3\n        /* \"#utility.yul\":43507:43600   */\n      tag_617\n      jump\t// in\n    tag_1015:\n        /* \"#utility.yul\":43625:43627   */\n      0x20\n        /* \"#utility.yul\":43620:43623   */\n      dup3\n        /* \"#utility.yul\":43616:43628   */\n      add\n        /* \"#utility.yul\":43609:43628   */\n      swap1\n      pop\n        /* \"#utility.yul\":43268:43634   */\n      swap2\n      swap1\n      pop\n      jump\t// out\n        /* \"#utility.yul\":43640:44279   */\n    tag_250:\n        /* \"#utility.yul\":43862:43866   */\n      0x00\n        /* \"#utility.yul\":43900:43902   */\n      0x60\n        /* \"#utility.yul\":43889:43898   */\n      dup3\n        /* \"#utility.yul\":43885:43903   */\n      add\n        /* \"#utility.yul\":43877:43903   */\n      swap1\n      pop\n        /* \"#utility.yul\":43913:43984   */\n      tag_1017\n        /* \"#utility.yul\":43981:43982   */\n      0x00\n        /* \"#utility.yul\":43970:43979   */\n      dup4\n        /* \"#utility.yul\":43966:43983   */\n      add\n        /* \"#utility.yul\":43957:43963   */\n      dup6\n        /* \"#utility.yul\":43913:43984   */\n      tag_552\n      jump\t// in\n    tag_1017:\n        /* \"#utility.yul\":44031:44040   */\n      dup2\n        /* \"#utility.yul\":44025:44029   */\n      dup2\n        /* \"#utility.yul\":44021:44041   */\n      sub\n        /* \"#utility.yul\":44016:44018   */\n      0x20\n        /* \"#utility.yul\":44005:44014   */\n      dup4\n        /* \"#utility.yul\":44001:44019   */\n      add\n        /* \"#utility.yul\":43994:44042   */\n      mstore\n        /* \"#utility.yul\":44059:44190   */\n      tag_1018\n        /* \"#utility.yul\":44185:44189   */\n      dup2\n        /* \"#utility.yul\":44059:44190   */\n      tag_618\n      jump\t// in\n    tag_1018:\n        /* \"#utility.yul\":44051:44190   */\n      swap1\n      pop\n        /* \"#utility.yul\":44200:44272   */\n      tag_1019\n        /* \"#utility.yul\":44268:44270   */\n      0x40\n        /* \"#utility.yul\":44257:44266   */\n      dup4\n        /* \"#utility.yul\":44253:44271   */\n      add\n        /* \"#utility.yul\":44244:44250   */\n      dup5\n        /* \"#utility.yul\":44200:44272   */\n      tag_552\n      jump\t// in\n    tag_1019:\n        /* \"#utility.yul\":43640:44279   */\n      swap4\n      swap3\n      pop\n      pop\n      pop\n      jump\t// out\n        /* \"#utility.yul\":44285:44505   */\n    tag_619:\n        /* \"#utility.yul\":44425:44459   */\n      0x56616c696461746f7220616464726573732063616e6e6f7420626520656d7074\n        /* \"#utility.yul\":44421:44422   */\n      0x00\n        /* \"#utility.yul\":44413:44419   */\n      dup3\n        /* \"#utility.yul\":44409:44423   */\n      add\n        /* \"#utility.yul\":44402:44460   */\n      mstore\n        /* \"#utility.yul\":44494:44497   */\n      0x7900000000000000000000000000000000000000000000000000000000000000\n        /* \"#utility.yul\":44489:44491   */\n      0x20\n        /* \"#utility.yul\":44481:44487   */\n      dup3\n        /* \"#utility.yul\":44477:44492   */\n      add\n        /* \"#utility.yul\":44470:44498   */\n      mstore\n        /* \"#utility.yul\":44285:44505   */\n      pop\n      jump\t// out\n        /* \"#utility.yul\":44511:44877   */\n    tag_620:\n        /* \"#utility.yul\":44653:44656   */\n      0x00\n        /* \"#utility.yul\":44674:44741   */\n      tag_1022\n        /* \"#utility.yul\":44738:44740   */\n      0x21\n        /* \"#utility.yul\":44733:44736   */\n      dup4\n        /* \"#utility.yul\":44674:44741   */\n      tag_534\n      jump\t// in\n    tag_1022:\n        /* \"#utility.yul\":44667:44741   */\n      swap2\n      pop\n        /* \"#utility.yul\":44750:44843   */\n      tag_1023\n        /* \"#utility.yul\":44839:44842   */\n      dup3\n        /* \"#utility.yul\":44750:44843   */\n      tag_619\n      jump\t// in\n    tag_1023:\n        /* \"#utility.yul\":44868:44870   */\n      0x40\n        /* \"#utility.yul\":44863:44866   */\n      dup3\n        /* \"#utility.yul\":44859:44871   */\n      add\n        /* \"#utility.yul\":44852:44871   */\n      swap1\n      pop\n        /* \"#utility.yul\":44511:44877   */\n      swap2\n      swap1\n      pop\n      jump\t// out\n        /* \"#utility.yul\":44883:45302   */\n    tag_254:\n        /* \"#utility.yul\":45049:45053   */\n      0x00\n        /* \"#utility.yul\":45087:45089   */\n      0x20\n        /* \"#utility.yul\":45076:45085   */\n      dup3\n        /* \"#utility.yul\":45072:45090   */\n      add\n        /* \"#utility.yul\":45064:45090   */\n      swap1\n      pop\n        /* \"#utility.yul\":45136:45145   */\n      dup2\n        /* \"#utility.yul\":45130:45134   */\n      dup2\n        /* \"#utility.yul\":45126:45146   */\n      sub\n        /* \"#utility.yul\":45122:45123   */\n      0x00\n        /* \"#utility.yul\":45111:45120   */\n      dup4\n        /* \"#utility.yul\":45107:45124   */\n      add\n        /* \"#utility.yul\":45100:45147   */\n      mstore\n        /* \"#utility.yul\":45164:45295   */\n      tag_1025\n        /* \"#utility.yul\":45290:45294   */\n      dup2\n        /* \"#utility.yul\":45164:45295   */\n      tag_620\n      jump\t// in\n    tag_1025:\n        /* \"#utility.yul\":45156:45295   */\n      swap1\n      pop\n        /* \"#utility.yul\":44883:45302   */\n      swap2\n      swap1\n      pop\n      jump\t// out\n        /* \"#utility.yul\":45308:45488   */\n    tag_621:\n        /* \"#utility.yul\":45448:45480   */\n      0x56616c696461746f72204e616d652063616e6e6f7420626520656d7074790000\n        /* \"#utility.yul\":45444:45445   */\n      0x00\n        /* \"#utility.yul\":45436:45442   */\n      dup3\n        /* \"#utility.yul\":45432:45446   */\n      add\n        /* \"#utility.yul\":45425:45481   */\n      mstore\n        /* \"#utility.yul\":45308:45488   */\n      pop\n      jump\t// out\n        /* \"#utility.yul\":45494:45860   */\n    tag_622:\n        /* \"#utility.yul\":45636:45639   */\n      0x00\n        /* \"#utility.yul\":45657:45724   */\n      tag_1028\n        /* \"#utility.yul\":45721:45723   */\n      0x1e\n        /* \"#utility.yul\":45716:45719   */\n      dup4\n        /* \"#utility.yul\":45657:45724   */\n      tag_534\n      jump\t// in\n    tag_1028:\n        /* \"#utility.yul\":45650:45724   */\n      swap2\n      pop\n        /* \"#utility.yul\":45733:45826   */\n      tag_1029\n        /* \"#utility.yul\":45822:45825   */\n      dup3\n        /* \"#utility.yul\":45733:45826   */\n      tag_621\n      jump\t// in\n    tag_1029:\n        /* \"#utility.yul\":45851:45853   */\n      0x20\n        /* \"#utility.yul\":45846:45849   */\n      dup3\n        /* \"#utility.yul\":45842:45854   */\n      add\n        /* \"#utility.yul\":45835:45854   */\n      swap1\n      pop\n        /* \"#utility.yul\":45494:45860   */\n      swap2\n      swap1\n      pop\n      jump\t// out\n        /* \"#utility.yul\":45866:46285   */\n    tag_257:\n        /* \"#utility.yul\":46032:46036   */\n      0x00\n        /* \"#utility.yul\":46070:46072   */\n      0x20\n        /* \"#utility.yul\":46059:46068   */\n      dup3\n        /* \"#utility.yul\":46055:46073   */\n      add\n        /* \"#utility.yul\":46047:46073   */\n      swap1\n      pop\n        /* \"#utility.yul\":46119:46128   */\n      dup2\n        /* \"#utility.yul\":46113:46117   */\n      dup2\n        /* \"#utility.yul\":46109:46129   */\n      sub\n        /* \"#utility.yul\":46105:46106   */\n      0x00\n        /* \"#utility.yul\":46094:46103   */\n      dup4\n        /* \"#utility.yul\":46090:46107   */\n      add\n        /* \"#utility.yul\":46083:46130   */\n      mstore\n        /* \"#utility.yul\":46147:46278   */\n      tag_1031\n        /* \"#utility.yul\":46273:46277   */\n      dup2\n        /* \"#utility.yul\":46147:46278   */\n      tag_622\n      jump\t// in\n    tag_1031:\n        /* \"#utility.yul\":46139:46278   */\n      swap1\n      pop\n        /* \"#utility.yul\":45866:46285   */\n      swap2\n      swap1\n      pop\n      jump\t// out\n        /* \"#utility.yul\":46291:46518   */\n    tag_623:\n        /* \"#utility.yul\":46431:46465   */\n      0x4f6e6c792076616c696461746f72732063616e20616363657373207468697320\n        /* \"#utility.yul\":46427:46428   */\n      0x00\n        /* \"#utility.yul\":46419:46425   */\n      dup3\n        /* \"#utility.yul\":46415:46429   */\n      add\n        /* \"#utility.yul\":46408:46466   */\n      mstore\n        /* \"#utility.yul\":46500:46510   */\n      0x66756e6374696f6e000000000000000000000000000000000000000000000000\n        /* \"#utility.yul\":46495:46497   */\n      0x20\n        /* \"#utility.yul\":46487:46493   */\n      dup3\n        /* \"#utility.yul\":46483:46498   */\n      add\n        /* \"#utility.yul\":46476:46511   */\n      mstore\n        /* \"#utility.yul\":46291:46518   */\n      pop\n      jump\t// out\n        /* \"#utility.yul\":46524:46890   */\n    tag_624:\n        /* \"#utility.yul\":46666:46669   */\n      0x00\n        /* \"#utility.yul\":46687:46754   */\n      tag_1034\n        /* \"#utility.yul\":46751:46753   */\n      0x28\n        /* \"#utility.yul\":46746:46749   */\n      dup4\n        /* \"#utility.yul\":46687:46754   */\n      tag_534\n      jump\t// in\n    tag_1034:\n        /* \"#utility.yul\":46680:46754   */\n      swap2\n      pop\n        /* \"#utility.yul\":46763:46856   */\n      tag_1035\n        /* \"#utility.yul\":46852:46855   */\n      dup3\n        /* \"#utility.yul\":46763:46856   */\n      tag_623\n      jump\t// in\n    tag_1035:\n        /* \"#utility.yul\":46881:46883   */\n      0x40\n        /* \"#utility.yul\":46876:46879   */\n      dup3\n        /* \"#utility.yul\":46872:46884   */\n      add\n        /* \"#utility.yul\":46865:46884   */\n      swap1\n      pop\n        /* \"#utility.yul\":46524:46890   */\n      swap2\n      swap1\n      pop\n      jump\t// out\n        /* \"#utility.yul\":46896:47315   */\n    tag_262:\n        /* \"#utility.yul\":47062:47066   */\n      0x00\n        /* \"#utility.yul\":47100:47102   */\n      0x20\n        /* \"#utility.yul\":47089:47098   */\n      dup3\n        /* \"#utility.yul\":47085:47103   */\n      add\n        /* \"#utility.yul\":47077:47103   */\n      swap1\n      pop\n        /* \"#utility.yul\":47149:47158   */\n      dup2\n        /* \"#utility.yul\":47143:47147   */\n      dup2\n        /* \"#utility.yul\":47139:47159   */\n      sub\n        /* \"#utility.yul\":47135:47136   */\n      0x00\n        /* \"#utility.yul\":47124:47133   */\n      dup4\n        /* \"#utility.yul\":47120:47137   */\n      add\n        /* \"#utility.yul\":47113:47160   */\n      mstore\n        /* \"#utility.yul\":47177:47308   */\n      tag_1037\n        /* \"#utility.yul\":47303:47307   */\n      dup2\n        /* \"#utility.yul\":47177:47308   */\n      tag_624\n      jump\t// in\n    tag_1037:\n        /* \"#utility.yul\":47169:47308   */\n      swap1\n      pop\n        /* \"#utility.yul\":46896:47315   */\n      swap2\n      swap1\n      pop\n      jump\t// out\n        /* \"#utility.yul\":47321:47488   */\n    tag_625:\n        /* \"#utility.yul\":47461:47480   */\n      0x50726f6a656374206e6f7420666f756e64000000000000000000000000000000\n        /* \"#utility.yul\":47457:47458   */\n      0x00\n        /* \"#utility.yul\":47449:47455   */\n      dup3\n        /* \"#utility.yul\":47445:47459   */\n      add\n        /* \"#utility.yul\":47438:47481   */\n      mstore\n        /* \"#utility.yul\":47321:47488   */\n      pop\n      jump\t// out\n        /* \"#utility.yul\":47494:47860   */\n    tag_626:\n        /* \"#utility.yul\":47636:47639   */\n      0x00\n        /* \"#utility.yul\":47657:47724   */\n      tag_1040\n        /* \"#utility.yul\":47721:47723   */\n      0x11\n        /* \"#utility.yul\":47716:47719   */\n      dup4\n        /* \"#utility.yul\":47657:47724   */\n      tag_534\n      jump\t// in\n    tag_1040:\n        /* \"#utility.yul\":47650:47724   */\n      swap2\n      pop\n        /* \"#utility.yul\":47733:47826   */\n      tag_1041\n        /* \"#utility.yul\":47822:47825   */\n      dup3\n        /* \"#utility.yul\":47733:47826   */\n      tag_625\n      jump\t// in\n    tag_1041:\n        /* \"#utility.yul\":47851:47853   */\n      0x20\n        /* \"#utility.yul\":47846:47849   */\n      dup3\n        /* \"#utility.yul\":47842:47854   */\n      add\n        /* \"#utility.yul\":47835:47854   */\n      swap1\n      pop\n        /* \"#utility.yul\":47494:47860   */\n      swap2\n      swap1\n      pop\n      jump\t// out\n        /* \"#utility.yul\":47866:48285   */\n    tag_266:\n        /* \"#utility.yul\":48032:48036   */\n      0x00\n        /* \"#utility.yul\":48070:48072   */\n      0x20\n        /* \"#utility.yul\":48059:48068   */\n      dup3\n        /* \"#utility.yul\":48055:48073   */\n      add\n        /* \"#utility.yul\":48047:48073   */\n      swap1\n      pop\n        /* \"#utility.yul\":48119:48128   */\n      dup2\n        /* \"#utility.yul\":48113:48117   */\n      dup2\n        /* \"#utility.yul\":48109:48129   */\n      sub\n        /* \"#utility.yul\":48105:48106   */\n      0x00\n        /* \"#utility.yul\":48094:48103   */\n      dup4\n        /* \"#utility.yul\":48090:48107   */\n      add\n        /* \"#utility.yul\":48083:48130   */\n      mstore\n        /* \"#utility.yul\":48147:48278   */\n      tag_1043\n        /* \"#utility.yul\":48273:48277   */\n      dup2\n        /* \"#utility.yul\":48147:48278   */\n      tag_626\n      jump\t// in\n    tag_1043:\n        /* \"#utility.yul\":48139:48278   */\n      swap1\n      pop\n        /* \"#utility.yul\":47866:48285   */\n      swap2\n      swap1\n      pop\n      jump\t// out\n        /* \"#utility.yul\":48291:48469   */\n    tag_627:\n        /* \"#utility.yul\":48431:48461   */\n      0x50726f6a65637420697320416c72656164792056616c69646174656400000000\n        /* \"#utility.yul\":48427:48428   */\n      0x00\n        /* \"#utility.yul\":48419:48425   */\n      dup3\n        /* \"#utility.yul\":48415:48429   */\n      add\n        /* \"#utility.yul\":48408:48462   */\n      mstore\n        /* \"#utility.yul\":48291:48469   */\n      pop\n      jump\t// out\n        /* \"#utility.yul\":48475:48841   */\n    tag_628:\n        /* \"#utility.yul\":48617:48620   */\n      0x00\n        /* \"#utility.yul\":48638:48705   */\n      tag_1046\n        /* \"#utility.yul\":48702:48704   */\n      0x1c\n        /* \"#utility.yul\":48697:48700   */\n      dup4\n        /* \"#utility.yul\":48638:48705   */\n      tag_534\n      jump\t// in\n    tag_1046:\n        /* \"#utility.yul\":48631:48705   */\n      swap2\n      pop\n        /* \"#utility.yul\":48714:48807   */\n      tag_1047\n        /* \"#utility.yul\":48803:48806   */\n      dup3\n        /* \"#utility.yul\":48714:48807   */\n      tag_627\n      jump\t// in\n    tag_1047:\n        /* \"#utility.yul\":48832:48834   */\n      0x20\n        /* \"#utility.yul\":48827:48830   */\n      dup3\n        /* \"#utility.yul\":48823:48835   */\n      add\n        /* \"#utility.yul\":48816:48835   */\n      swap1\n      pop\n        /* \"#utility.yul\":48475:48841   */\n      swap2\n      swap1\n      pop\n      jump\t// out\n        /* \"#utility.yul\":48847:49266   */\n    tag_272:\n        /* \"#utility.yul\":49013:49017   */\n      0x00\n        /* \"#utility.yul\":49051:49053   */\n      0x20\n        /* \"#utility.yul\":49040:49049   */\n      dup3\n        /* \"#utility.yul\":49036:49054   */\n      add\n        /* \"#utility.yul\":49028:49054   */\n      swap1\n      pop\n        /* \"#utility.yul\":49100:49109   */\n      dup2\n        /* \"#utility.yul\":49094:49098   */\n      dup2\n        /* \"#utility.yul\":49090:49110   */\n      sub\n        /* \"#utility.yul\":49086:49087   */\n      0x00\n        /* \"#utility.yul\":49075:49084   */\n      dup4\n        /* \"#utility.yul\":49071:49088   */\n      add\n        /* \"#utility.yul\":49064:49111   */\n      mstore\n        /* \"#utility.yul\":49128:49259   */\n      tag_1049\n        /* \"#utility.yul\":49254:49258   */\n      dup2\n        /* \"#utility.yul\":49128:49259   */\n      tag_628\n      jump\t// in\n    tag_1049:\n        /* \"#utility.yul\":49120:49259   */\n      swap1\n      pop\n        /* \"#utility.yul\":48847:49266   */\n      swap2\n      swap1\n      pop\n      jump\t// out\n        /* \"#utility.yul\":49272:49493   */\n    tag_629:\n        /* \"#utility.yul\":49412:49446   */\n      0x56616c69646174696f6e204d6573736167652043616e6e6f7420426520456d70\n        /* \"#utility.yul\":49408:49409   */\n      0x00\n        /* \"#utility.yul\":49400:49406   */\n      dup3\n        /* \"#utility.yul\":49396:49410   */\n      add\n        /* \"#utility.yul\":49389:49447   */\n      mstore\n        /* \"#utility.yul\":49481:49485   */\n      0x7479000000000000000000000000000000000000000000000000000000000000\n        /* \"#utility.yul\":49476:49478   */\n      0x20\n        /* \"#utility.yul\":49468:49474   */\n      dup3\n        /* \"#utility.yul\":49464:49479   */\n      add\n        /* \"#utility.yul\":49457:49486   */\n      mstore\n        /* \"#utility.yul\":49272:49493   */\n      pop\n      jump\t// out\n        /* \"#utility.yul\":49499:49865   */\n    tag_630:\n        /* \"#utility.yul\":49641:49644   */\n      0x00\n        /* \"#utility.yul\":49662:49729   */\n      tag_1052\n        /* \"#utility.yul\":49726:49728   */\n      0x22\n        /* \"#utility.yul\":49721:49724   */\n      dup4\n        /* \"#utility.yul\":49662:49729   */\n      tag_534\n      jump\t// in\n    tag_1052:\n        /* \"#utility.yul\":49655:49729   */\n      swap2\n      pop\n        /* \"#utility.yul\":49738:49831   */\n      tag_1053\n        /* \"#utility.yul\":49827:49830   */\n      dup3\n        /* \"#utility.yul\":49738:49831   */\n      tag_629\n      jump\t// in\n    tag_1053:\n        /* \"#utility.yul\":49856:49858   */\n      0x40\n        /* \"#utility.yul\":49851:49854   */\n      dup3\n        /* \"#utility.yul\":49847:49859   */\n      add\n        /* \"#utility.yul\":49840:49859   */\n      swap1\n      pop\n        /* \"#utility.yul\":49499:49865   */\n      swap2\n      swap1\n      pop\n      jump\t// out\n        /* \"#utility.yul\":49871:50290   */\n    tag_275:\n        /* \"#utility.yul\":50037:50041   */\n      0x00\n        /* \"#utility.yul\":50075:50077   */\n      0x20\n        /* \"#utility.yul\":50064:50073   */\n      dup3\n        /* \"#utility.yul\":50060:50078   */\n      add\n        /* \"#utility.yul\":50052:50078   */\n      swap1\n      pop\n        /* \"#utility.yul\":50124:50133   */\n      dup2\n        /* \"#utility.yul\":50118:50122   */\n      dup2\n        /* \"#utility.yul\":50114:50134   */\n      sub\n        /* \"#utility.yul\":50110:50111   */\n      0x00\n        /* \"#utility.yul\":50099:50108   */\n      dup4\n        /* \"#utility.yul\":50095:50112   */\n      add\n        /* \"#utility.yul\":50088:50135   */\n      mstore\n        /* \"#utility.yul\":50152:50283   */\n      tag_1055\n        /* \"#utility.yul\":50278:50282   */\n      dup2\n        /* \"#utility.yul\":50152:50283   */\n      tag_630\n      jump\t// in\n    tag_1055:\n        /* \"#utility.yul\":50144:50283   */\n      swap1\n      pop\n        /* \"#utility.yul\":49871:50290   */\n      swap2\n      swap1\n      pop\n      jump\t// out\n        /* \"#utility.yul\":50296:50490   */\n    tag_289:\n        /* \"#utility.yul\":50336:50340   */\n      0x00\n        /* \"#utility.yul\":50356:50376   */\n      tag_1057\n        /* \"#utility.yul\":50374:50375   */\n      dup3\n        /* \"#utility.yul\":50356:50376   */\n      tag_547\n      jump\t// in\n    tag_1057:\n        /* \"#utility.yul\":50351:50376   */\n      swap2\n      pop\n        /* \"#utility.yul\":50390:50410   */\n      tag_1058\n        /* \"#utility.yul\":50408:50409   */\n      dup4\n        /* \"#utility.yul\":50390:50410   */\n      tag_547\n      jump\t// in\n    tag_1058:\n        /* \"#utility.yul\":50385:50410   */\n      swap3\n      pop\n        /* \"#utility.yul\":50434:50435   */\n      dup3\n        /* \"#utility.yul\":50431:50432   */\n      dup3\n        /* \"#utility.yul\":50427:50436   */\n      sub\n        /* \"#utility.yul\":50419:50436   */\n      swap1\n      pop\n        /* \"#utility.yul\":50458:50459   */\n      dup2\n        /* \"#utility.yul\":50452:50456   */\n      dup2\n        /* \"#utility.yul\":50449:50460   */\n      gt\n        /* \"#utility.yul\":50446:50483   */\n      iszero\n      tag_1059\n      jumpi\n        /* \"#utility.yul\":50463:50481   */\n      tag_1060\n      tag_604\n      jump\t// in\n    tag_1060:\n        /* \"#utility.yul\":50446:50483   */\n    tag_1059:\n        /* \"#utility.yul\":50296:50490   */\n      swap3\n      swap2\n      pop\n      pop\n      jump\t// out\n        /* \"#utility.yul\":50496:50663   */\n    tag_631:\n        /* \"#utility.yul\":50636:50655   */\n      0x50524f4a4543542056414c494441544544000000000000000000000000000000\n        /* \"#utility.yul\":50632:50633   */\n      0x00\n        /* \"#utility.yul\":50624:50630   */\n      dup3\n        /* \"#utility.yul\":50620:50634   */\n      add\n        /* \"#utility.yul\":50613:50656   */\n      mstore\n        /* \"#utility.yul\":50496:50663   */\n      pop\n      jump\t// out\n        /* \"#utility.yul\":50669:51035   */\n    tag_632:\n        /* \"#utility.yul\":50811:50814   */\n      0x00\n        /* \"#utility.yul\":50832:50899   */\n      tag_1063\n        /* \"#utility.yul\":50896:50898   */\n      0x11\n        /* \"#utility.yul\":50891:50894   */\n      dup4\n        /* \"#utility.yul\":50832:50899   */\n      tag_534\n      jump\t// in\n    tag_1063:\n        /* \"#utility.yul\":50825:50899   */\n      swap2\n      pop\n        /* \"#utility.yul\":50908:51001   */\n      tag_1064\n        /* \"#utility.yul\":50997:51000   */\n      dup3\n        /* \"#utility.yul\":50908:51001   */\n      tag_631\n      jump\t// in\n    tag_1064:\n        /* \"#utility.yul\":51026:51028   */\n      0x20\n        /* \"#utility.yul\":51021:51024   */\n      dup3\n        /* \"#utility.yul\":51017:51029   */\n      add\n        /* \"#utility.yul\":51010:51029   */\n      swap1\n      pop\n        /* \"#utility.yul\":50669:51035   */\n      swap2\n      swap1\n      pop\n      jump\t// out\n        /* \"#utility.yul\":51041:51680   */\n    tag_292:\n        /* \"#utility.yul\":51263:51267   */\n      0x00\n        /* \"#utility.yul\":51301:51303   */\n      0x60\n        /* \"#utility.yul\":51290:51299   */\n      dup3\n        /* \"#utility.yul\":51286:51304   */\n      add\n        /* \"#utility.yul\":51278:51304   */\n      swap1\n      pop\n        /* \"#utility.yul\":51314:51385   */\n      tag_1066\n        /* \"#utility.yul\":51382:51383   */\n      0x00\n        /* \"#utility.yul\":51371:51380   */\n      dup4\n        /* \"#utility.yul\":51367:51384   */\n      add\n        /* \"#utility.yul\":51358:51364   */\n      dup6\n        /* \"#utility.yul\":51314:51385   */\n      tag_552\n      jump\t// in\n    tag_1066:\n        /* \"#utility.yul\":51432:51441   */\n      dup2\n        /* \"#utility.yul\":51426:51430   */\n      dup2\n        /* \"#utility.yul\":51422:51442   */\n      sub\n        /* \"#utility.yul\":51417:51419   */\n      0x20\n        /* \"#utility.yul\":51406:51415   */\n      dup4\n        /* \"#utility.yul\":51402:51420   */\n      add\n        /* \"#utility.yul\":51395:51443   */\n      mstore\n        /* \"#utility.yul\":51460:51591   */\n      tag_1067\n        /* \"#utility.yul\":51586:51590   */\n      dup2\n        /* \"#utility.yul\":51460:51591   */\n      tag_632\n      jump\t// in\n    tag_1067:\n        /* \"#utility.yul\":51452:51591   */\n      swap1\n      pop\n        /* \"#utility.yul\":51601:51673   */\n      tag_1068\n        /* \"#utility.yul\":51669:51671   */\n      0x40\n        /* \"#utility.yul\":51658:51667   */\n      dup4\n        /* \"#utility.yul\":51654:51672   */\n      add\n        /* \"#utility.yul\":51645:51651   */\n      dup5\n        /* \"#utility.yul\":51601:51673   */\n      tag_552\n      jump\t// in\n    tag_1068:\n        /* \"#utility.yul\":51041:51680   */\n      swap4\n      swap3\n      pop\n      pop\n      pop\n      jump\t// out\n        /* \"#utility.yul\":51686:51867   */\n    tag_633:\n        /* \"#utility.yul\":51826:51859   */\n      0x4574686572206d7573742062652067726561746572207468616e207a65726f00\n        /* \"#utility.yul\":51822:51823   */\n      0x00\n        /* \"#utility.yul\":51814:51820   */\n      dup3\n        /* \"#utility.yul\":51810:51824   */\n      add\n        /* \"#utility.yul\":51803:51860   */\n      mstore\n        /* \"#utility.yul\":51686:51867   */\n      pop\n      jump\t// out\n        /* \"#utility.yul\":51873:52239   */\n    tag_634:\n        /* \"#utility.yul\":52015:52018   */\n      0x00\n        /* \"#utility.yul\":52036:52103   */\n      tag_1071\n        /* \"#utility.yul\":52100:52102   */\n      0x1f\n        /* \"#utility.yul\":52095:52098   */\n      dup4\n        /* \"#utility.yul\":52036:52103   */\n      tag_534\n      jump\t// in\n    tag_1071:\n        /* \"#utility.yul\":52029:52103   */\n      swap2\n      pop\n        /* \"#utility.yul\":52112:52205   */\n      tag_1072\n        /* \"#utility.yul\":52201:52204   */\n      dup3\n        /* \"#utility.yul\":52112:52205   */\n      tag_633\n      jump\t// in\n    tag_1072:\n        /* \"#utility.yul\":52230:52232   */\n      0x20\n        /* \"#utility.yul\":52225:52228   */\n      dup3\n        /* \"#utility.yul\":52221:52233   */\n      add\n        /* \"#utility.yul\":52214:52233   */\n      swap1\n      pop\n        /* \"#utility.yul\":51873:52239   */\n      swap2\n      swap1\n      pop\n      jump\t// out\n        /* \"#utility.yul\":52245:52664   */\n    tag_296:\n        /* \"#utility.yul\":52411:52415   */\n      0x00\n        /* \"#utility.yul\":52449:52451   */\n      0x20\n        /* \"#utility.yul\":52438:52447   */\n      dup3\n        /* \"#utility.yul\":52434:52452   */\n      add\n        /* \"#utility.yul\":52426:52452   */\n      swap1\n      pop\n        /* \"#utility.yul\":52498:52507   */\n      dup2\n        /* \"#utility.yul\":52492:52496   */\n      dup2\n        /* \"#utility.yul\":52488:52508   */\n      sub\n        /* \"#utility.yul\":52484:52485   */\n      0x00\n        /* \"#utility.yul\":52473:52482   */\n      dup4\n        /* \"#utility.yul\":52469:52486   */\n      add\n        /* \"#utility.yul\":52462:52509   */\n      mstore\n        /* \"#utility.yul\":52526:52657   */\n      tag_1074\n        /* \"#utility.yul\":52652:52656   */\n      dup2\n        /* \"#utility.yul\":52526:52657   */\n      tag_634\n      jump\t// in\n    tag_1074:\n        /* \"#utility.yul\":52518:52657   */\n      swap1\n      pop\n        /* \"#utility.yul\":52245:52664   */\n      swap2\n      swap1\n      pop\n      jump\t// out\n        /* \"#utility.yul\":52670:52897   */\n    tag_635:\n        /* \"#utility.yul\":52810:52844   */\n      0x50726f6a65637420776974682074686520676976656e20494420646f6573206e\n        /* \"#utility.yul\":52806:52807   */\n      0x00\n        /* \"#utility.yul\":52798:52804   */\n      dup3\n        /* \"#utility.yul\":52794:52808   */\n      add\n        /* \"#utility.yul\":52787:52845   */\n      mstore\n        /* \"#utility.yul\":52879:52889   */\n      0x6f74206578697374000000000000000000000000000000000000000000000000\n        /* \"#utility.yul\":52874:52876   */\n      0x20\n        /* \"#utility.yul\":52866:52872   */\n      dup3\n        /* \"#utility.yul\":52862:52877   */\n      add\n        /* \"#utility.yul\":52855:52890   */\n      mstore\n        /* \"#utility.yul\":52670:52897   */\n      pop\n      jump\t// out\n        /* \"#utility.yul\":52903:53269   */\n    tag_636:\n        /* \"#utility.yul\":53045:53048   */\n      0x00\n        /* \"#utility.yul\":53066:53133   */\n      tag_1077\n        /* \"#utility.yul\":53130:53132   */\n      0x28\n        /* \"#utility.yul\":53125:53128   */\n      dup4\n        /* \"#utility.yul\":53066:53133   */\n      tag_534\n      jump\t// in\n    tag_1077:\n        /* \"#utility.yul\":53059:53133   */\n      swap2\n      pop\n        /* \"#utility.yul\":53142:53235   */\n      tag_1078\n        /* \"#utility.yul\":53231:53234   */\n      dup3\n        /* \"#utility.yul\":53142:53235   */\n      tag_635\n      jump\t// in\n    tag_1078:\n        /* \"#utility.yul\":53260:53262   */\n      0x40\n        /* \"#utility.yul\":53255:53258   */\n      dup3\n        /* \"#utility.yul\":53251:53263   */\n      add\n        /* \"#utility.yul\":53244:53263   */\n      swap1\n      pop\n        /* \"#utility.yul\":52903:53269   */\n      swap2\n      swap1\n      pop\n      jump\t// out\n        /* \"#utility.yul\":53275:53694   */\n    tag_299:\n        /* \"#utility.yul\":53441:53445   */\n      0x00\n        /* \"#utility.yul\":53479:53481   */\n      0x20\n        /* \"#utility.yul\":53468:53477   */\n      dup3\n        /* \"#utility.yul\":53464:53482   */\n      add\n        /* \"#utility.yul\":53456:53482   */\n      swap1\n      pop\n        /* \"#utility.yul\":53528:53537   */\n      dup2\n        /* \"#utility.yul\":53522:53526   */\n      dup2\n        /* \"#utility.yul\":53518:53538   */\n      sub\n        /* \"#utility.yul\":53514:53515   */\n      0x00\n        /* \"#utility.yul\":53503:53512   */\n      dup4\n        /* \"#utility.yul\":53499:53516   */\n      add\n        /* \"#utility.yul\":53492:53539   */\n      mstore\n        /* \"#utility.yul\":53556:53687   */\n      tag_1080\n        /* \"#utility.yul\":53682:53686   */\n      dup2\n        /* \"#utility.yul\":53556:53687   */\n      tag_636\n      jump\t// in\n    tag_1080:\n        /* \"#utility.yul\":53548:53687   */\n      swap1\n      pop\n        /* \"#utility.yul\":53275:53694   */\n      swap2\n      swap1\n      pop\n      jump\t// out\n        /* \"#utility.yul\":53700:53922   */\n    tag_637:\n        /* \"#utility.yul\":53840:53874   */\n      0x546869732050726f6a6563746564206973206e6f742056616c69646174656420\n        /* \"#utility.yul\":53836:53837   */\n      0x00\n        /* \"#utility.yul\":53828:53834   */\n      dup3\n        /* \"#utility.yul\":53824:53838   */\n      add\n        /* \"#utility.yul\":53817:53875   */\n      mstore\n        /* \"#utility.yul\":53909:53914   */\n      0x5965740000000000000000000000000000000000000000000000000000000000\n        /* \"#utility.yul\":53904:53906   */\n      0x20\n        /* \"#utility.yul\":53896:53902   */\n      dup3\n        /* \"#utility.yul\":53892:53907   */\n      add\n        /* \"#utility.yul\":53885:53915   */\n      mstore\n        /* \"#utility.yul\":53700:53922   */\n      pop\n      jump\t// out\n        /* \"#utility.yul\":53928:54294   */\n    tag_638:\n        /* \"#utility.yul\":54070:54073   */\n      0x00\n        /* \"#utility.yul\":54091:54158   */\n      tag_1083\n        /* \"#utility.yul\":54155:54157   */\n      0x23\n        /* \"#utility.yul\":54150:54153   */\n      dup4\n        /* \"#utility.yul\":54091:54158   */\n      tag_534\n      jump\t// in\n    tag_1083:\n        /* \"#utility.yul\":54084:54158   */\n      swap2\n      pop\n        /* \"#utility.yul\":54167:54260   */\n      tag_1084\n        /* \"#utility.yul\":54256:54259   */\n      dup3\n        /* \"#utility.yul\":54167:54260   */\n      tag_637\n      jump\t// in\n    tag_1084:\n        /* \"#utility.yul\":54285:54287   */\n      0x40\n        /* \"#utility.yul\":54280:54283   */\n      dup3\n        /* \"#utility.yul\":54276:54288   */\n      add\n        /* \"#utility.yul\":54269:54288   */\n      swap1\n      pop\n        /* \"#utility.yul\":53928:54294   */\n      swap2\n      swap1\n      pop\n      jump\t// out\n        /* \"#utility.yul\":54300:54719   */\n    tag_305:\n        /* \"#utility.yul\":54466:54470   */\n      0x00\n        /* \"#utility.yul\":54504:54506   */\n      0x20\n        /* \"#utility.yul\":54493:54502   */\n      dup3\n        /* \"#utility.yul\":54489:54507   */\n      add\n        /* \"#utility.yul\":54481:54507   */\n      swap1\n      pop\n        /* \"#utility.yul\":54553:54562   */\n      dup2\n        /* \"#utility.yul\":54547:54551   */\n      dup2\n        /* \"#utility.yul\":54543:54563   */\n      sub\n        /* \"#utility.yul\":54539:54540   */\n      0x00\n        /* \"#utility.yul\":54528:54537   */\n      dup4\n        /* \"#utility.yul\":54524:54541   */\n      add\n        /* \"#utility.yul\":54517:54564   */\n      mstore\n        /* \"#utility.yul\":54581:54712   */\n      tag_1086\n        /* \"#utility.yul\":54707:54711   */\n      dup2\n        /* \"#utility.yul\":54581:54712   */\n      tag_638\n      jump\t// in\n    tag_1086:\n        /* \"#utility.yul\":54573:54712   */\n      swap1\n      pop\n        /* \"#utility.yul\":54300:54719   */\n      swap2\n      swap1\n      pop\n      jump\t// out\n        /* \"#utility.yul\":54725:54889   */\n    tag_639:\n        /* \"#utility.yul\":54865:54881   */\n      0x50524f4a454354204241434b4544000000000000000000000000000000000000\n        /* \"#utility.yul\":54861:54862   */\n      0x00\n        /* \"#utility.yul\":54853:54859   */\n      dup3\n        /* \"#utility.yul\":54849:54863   */\n      add\n        /* \"#utility.yul\":54842:54882   */\n      mstore\n        /* \"#utility.yul\":54725:54889   */\n      pop\n      jump\t// out\n        /* \"#utility.yul\":54895:55261   */\n    tag_640:\n        /* \"#utility.yul\":55037:55040   */\n      0x00\n        /* \"#utility.yul\":55058:55125   */\n      tag_1089\n        /* \"#utility.yul\":55122:55124   */\n      0x0e\n        /* \"#utility.yul\":55117:55120   */\n      dup4\n        /* \"#utility.yul\":55058:55125   */\n      tag_534\n      jump\t// in\n    tag_1089:\n        /* \"#utility.yul\":55051:55125   */\n      swap2\n      pop\n        /* \"#utility.yul\":55134:55227   */\n      tag_1090\n        /* \"#utility.yul\":55223:55226   */\n      dup3\n        /* \"#utility.yul\":55134:55227   */\n      tag_639\n      jump\t// in\n    tag_1090:\n        /* \"#utility.yul\":55252:55254   */\n      0x20\n        /* \"#utility.yul\":55247:55250   */\n      dup3\n        /* \"#utility.yul\":55243:55255   */\n      add\n        /* \"#utility.yul\":55236:55255   */\n      swap1\n      pop\n        /* \"#utility.yul\":54895:55261   */\n      swap2\n      swap1\n      pop\n      jump\t// out\n        /* \"#utility.yul\":55267:55906   */\n    tag_327:\n        /* \"#utility.yul\":55489:55493   */\n      0x00\n        /* \"#utility.yul\":55527:55529   */\n      0x60\n        /* \"#utility.yul\":55516:55525   */\n      dup3\n        /* \"#utility.yul\":55512:55530   */\n      add\n        /* \"#utility.yul\":55504:55530   */\n      swap1\n      pop\n        /* \"#utility.yul\":55540:55611   */\n      tag_1092\n        /* \"#utility.yul\":55608:55609   */\n      0x00\n        /* \"#utility.yul\":55597:55606   */\n      dup4\n        /* \"#utility.yul\":55593:55610   */\n      add\n        /* \"#utility.yul\":55584:55590   */\n      dup6\n        /* \"#utility.yul\":55540:55611   */\n      tag_552\n      jump\t// in\n    tag_1092:\n        /* \"#utility.yul\":55658:55667   */\n      dup2\n        /* \"#utility.yul\":55652:55656   */\n      dup2\n        /* \"#utility.yul\":55648:55668   */\n      sub\n        /* \"#utility.yul\":55643:55645   */\n      0x20\n        /* \"#utility.yul\":55632:55641   */\n      dup4\n        /* \"#utility.yul\":55628:55646   */\n      add\n        /* \"#utility.yul\":55621:55669   */\n      mstore\n        /* \"#utility.yul\":55686:55817   */\n      tag_1093\n        /* \"#utility.yul\":55812:55816   */\n      dup2\n        /* \"#utility.yul\":55686:55817   */\n      tag_640\n      jump\t// in\n    tag_1093:\n        /* \"#utility.yul\":55678:55817   */\n      swap1\n      pop\n        /* \"#utility.yul\":55827:55899   */\n      tag_1094\n        /* \"#utility.yul\":55895:55897   */\n      0x40\n        /* \"#utility.yul\":55884:55893   */\n      dup4\n        /* \"#utility.yul\":55880:55898   */\n      add\n        /* \"#utility.yul\":55871:55877   */\n      dup5\n        /* \"#utility.yul\":55827:55899   */\n      tag_552\n      jump\t// in\n    tag_1094:\n        /* \"#utility.yul\":55267:55906   */\n      swap4\n      swap3\n      pop\n      pop\n      pop\n      jump\t// out\n        /* \"#utility.yul\":55912:56137   */\n    tag_641:\n        /* \"#utility.yul\":56052:56086   */\n      0x50726f6a656374206e6f74206d61726b656420617320726576657274206f7220\n        /* \"#utility.yul\":56048:56049   */\n      0x00\n        /* \"#utility.yul\":56040:56046   */\n      dup3\n        /* \"#utility.yul\":56036:56050   */\n      add\n        /* \"#utility.yul\":56029:56087   */\n      mstore\n        /* \"#utility.yul\":56121:56129   */\n      0x64656c6574650000000000000000000000000000000000000000000000000000\n        /* \"#utility.yul\":56116:56118   */\n      0x20\n        /* \"#utility.yul\":56108:56114   */\n      dup3\n        /* \"#utility.yul\":56104:56119   */\n      add\n        /* \"#utility.yul\":56097:56130   */\n      mstore\n        /* \"#utility.yul\":55912:56137   */\n      pop\n      jump\t// out\n        /* \"#utility.yul\":56143:56509   */\n    tag_642:\n        /* \"#utility.yul\":56285:56288   */\n      0x00\n        /* \"#utility.yul\":56306:56373   */\n      tag_1097\n        /* \"#utility.yul\":56370:56372   */\n      0x26\n        /* \"#utility.yul\":56365:56368   */\n      dup4\n        /* \"#utility.yul\":56306:56373   */\n      tag_534\n      jump\t// in\n    tag_1097:\n        /* \"#utility.yul\":56299:56373   */\n      swap2\n      pop\n        /* \"#utility.yul\":56382:56475   */\n      tag_1098\n        /* \"#utility.yul\":56471:56474   */\n      dup3\n        /* \"#utility.yul\":56382:56475   */\n      tag_641\n      jump\t// in\n    tag_1098:\n        /* \"#utility.yul\":56500:56502   */\n      0x40\n        /* \"#utility.yul\":56495:56498   */\n      dup3\n        /* \"#utility.yul\":56491:56503   */\n      add\n        /* \"#utility.yul\":56484:56503   */\n      swap1\n      pop\n        /* \"#utility.yul\":56143:56509   */\n      swap2\n      swap1\n      pop\n      jump\t// out\n        /* \"#utility.yul\":56515:56934   */\n    tag_374:\n        /* \"#utility.yul\":56681:56685   */\n      0x00\n        /* \"#utility.yul\":56719:56721   */\n      0x20\n        /* \"#utility.yul\":56708:56717   */\n      dup3\n        /* \"#utility.yul\":56704:56722   */\n      add\n        /* \"#utility.yul\":56696:56722   */\n      swap1\n      pop\n        /* \"#utility.yul\":56768:56777   */\n      dup2\n        /* \"#utility.yul\":56762:56766   */\n      dup2\n        /* \"#utility.yul\":56758:56778   */\n      sub\n        /* \"#utility.yul\":56754:56755   */\n      0x00\n        /* \"#utility.yul\":56743:56752   */\n      dup4\n        /* \"#utility.yul\":56739:56756   */\n      add\n        /* \"#utility.yul\":56732:56779   */\n      mstore\n        /* \"#utility.yul\":56796:56927   */\n      tag_1100\n        /* \"#utility.yul\":56922:56926   */\n      dup2\n        /* \"#utility.yul\":56796:56927   */\n      tag_642\n      jump\t// in\n    tag_1100:\n        /* \"#utility.yul\":56788:56927   */\n      swap1\n      pop\n        /* \"#utility.yul\":56515:56934   */\n      swap2\n      swap1\n      pop\n      jump\t// out\n        /* \"#utility.yul\":56940:57110   */\n    tag_643:\n        /* \"#utility.yul\":57080:57102   */\n      0x50726f6a656374206e6f7420415050524f564544000000000000000000000000\n        /* \"#utility.yul\":57076:57077   */\n      0x00\n        /* \"#utility.yul\":57068:57074   */\n      dup3\n        /* \"#utility.yul\":57064:57078   */\n      add\n        /* \"#utility.yul\":57057:57103   */\n      mstore\n        /* \"#utility.yul\":56940:57110   */\n      pop\n      jump\t// out\n        /* \"#utility.yul\":57116:57482   */\n    tag_644:\n        /* \"#utility.yul\":57258:57261   */\n      0x00\n        /* \"#utility.yul\":57279:57346   */\n      tag_1103\n        /* \"#utility.yul\":57343:57345   */\n      0x14\n        /* \"#utility.yul\":57338:57341   */\n      dup4\n        /* \"#utility.yul\":57279:57346   */\n      tag_534\n      jump\t// in\n    tag_1103:\n        /* \"#utility.yul\":57272:57346   */\n      swap2\n      pop\n        /* \"#utility.yul\":57355:57448   */\n      tag_1104\n        /* \"#utility.yul\":57444:57447   */\n      dup3\n        /* \"#utility.yul\":57355:57448   */\n      tag_643\n      jump\t// in\n    tag_1104:\n        /* \"#utility.yul\":57473:57475   */\n      0x20\n        /* \"#utility.yul\":57468:57471   */\n      dup3\n        /* \"#utility.yul\":57464:57476   */\n      add\n        /* \"#utility.yul\":57457:57476   */\n      swap1\n      pop\n        /* \"#utility.yul\":57116:57482   */\n      swap2\n      swap1\n      pop\n      jump\t// out\n        /* \"#utility.yul\":57488:57907   */\n    tag_391:\n        /* \"#utility.yul\":57654:57658   */\n      0x00\n        /* \"#utility.yul\":57692:57694   */\n      0x20\n        /* \"#utility.yul\":57681:57690   */\n      dup3\n        /* \"#utility.yul\":57677:57695   */\n      add\n        /* \"#utility.yul\":57669:57695   */\n      swap1\n      pop\n        /* \"#utility.yul\":57741:57750   */\n      dup2\n        /* \"#utility.yul\":57735:57739   */\n      dup2\n        /* \"#utility.yul\":57731:57751   */\n      sub\n        /* \"#utility.yul\":57727:57728   */\n      0x00\n        /* \"#utility.yul\":57716:57725   */\n      dup4\n        /* \"#utility.yul\":57712:57729   */\n      add\n        /* \"#utility.yul\":57705:57752   */\n      mstore\n        /* \"#utility.yul\":57769:57900   */\n      tag_1106\n        /* \"#utility.yul\":57895:57899   */\n      dup2\n        /* \"#utility.yul\":57769:57900   */\n      tag_644\n      jump\t// in\n    tag_1106:\n        /* \"#utility.yul\":57761:57900   */\n      swap1\n      pop\n        /* \"#utility.yul\":57488:57907   */\n      swap2\n      swap1\n      pop\n      jump\t// out\n        /* \"#utility.yul\":57913:58323   */\n    tag_497:\n        /* \"#utility.yul\":57953:57960   */\n      0x00\n        /* \"#utility.yul\":57976:57996   */\n      tag_1108\n        /* \"#utility.yul\":57994:57995   */\n      dup3\n        /* \"#utility.yul\":57976:57996   */\n      tag_547\n      jump\t// in\n    tag_1108:\n        /* \"#utility.yul\":57971:57996   */\n      swap2\n      pop\n        /* \"#utility.yul\":58010:58030   */\n      tag_1109\n        /* \"#utility.yul\":58028:58029   */\n      dup4\n        /* \"#utility.yul\":58010:58030   */\n      tag_547\n      jump\t// in\n    tag_1109:\n        /* \"#utility.yul\":58005:58030   */\n      swap3\n      pop\n        /* \"#utility.yul\":58065:58066   */\n      dup3\n        /* \"#utility.yul\":58062:58063   */\n      dup3\n        /* \"#utility.yul\":58058:58067   */\n      mul\n        /* \"#utility.yul\":58087:58117   */\n      tag_1110\n        /* \"#utility.yul\":58105:58116   */\n      dup2\n        /* \"#utility.yul\":58087:58117   */\n      tag_547\n      jump\t// in\n    tag_1110:\n        /* \"#utility.yul\":58076:58117   */\n      swap2\n      pop\n        /* \"#utility.yul\":58266:58267   */\n      dup3\n        /* \"#utility.yul\":58257:58264   */\n      dup3\n        /* \"#utility.yul\":58253:58268   */\n      div\n        /* \"#utility.yul\":58250:58251   */\n      dup5\n        /* \"#utility.yul\":58247:58269   */\n      eq\n        /* \"#utility.yul\":58227:58228   */\n      dup4\n        /* \"#utility.yul\":58220:58229   */\n      iszero\n        /* \"#utility.yul\":58200:58283   */\n      or\n        /* \"#utility.yul\":58177:58316   */\n      tag_1111\n      jumpi\n        /* \"#utility.yul\":58296:58314   */\n      tag_1112\n      tag_604\n      jump\t// in\n    tag_1112:\n        /* \"#utility.yul\":58177:58316   */\n    tag_1111:\n        /* \"#utility.yul\":57961:58323   */\n      pop\n        /* \"#utility.yul\":57913:58323   */\n      swap3\n      swap2\n      pop\n      pop\n      jump\t// out\n        /* \"#utility.yul\":58329:58509   */\n    tag_645:\n        /* \"#utility.yul\":58377:58454   */\n      0x4e487b7100000000000000000000000000000000000000000000000000000000\n        /* \"#utility.yul\":58374:58375   */\n      0x00\n        /* \"#utility.yul\":58367:58455   */\n      mstore\n        /* \"#utility.yul\":58474:58478   */\n      0x12\n        /* \"#utility.yul\":58471:58472   */\n      0x04\n        /* \"#utility.yul\":58464:58479   */\n      mstore\n        /* \"#utility.yul\":58498:58502   */\n      0x24\n        /* \"#utility.yul\":58495:58496   */\n      0x00\n        /* \"#utility.yul\":58488:58503   */\n      revert\n        /* \"#utility.yul\":58515:58700   */\n    tag_499:\n        /* \"#utility.yul\":58555:58556   */\n      0x00\n        /* \"#utility.yul\":58572:58592   */\n      tag_1115\n        /* \"#utility.yul\":58590:58591   */\n      dup3\n        /* \"#utility.yul\":58572:58592   */\n      tag_547\n      jump\t// in\n    tag_1115:\n        /* \"#utility.yul\":58567:58592   */\n      swap2\n      pop\n        /* \"#utility.yul\":58606:58626   */\n      tag_1116\n        /* \"#utility.yul\":58624:58625   */\n      dup4\n        /* \"#utility.yul\":58606:58626   */\n      tag_547\n      jump\t// in\n    tag_1116:\n        /* \"#utility.yul\":58601:58626   */\n      swap3\n      pop\n        /* \"#utility.yul\":58645:58646   */\n      dup3\n        /* \"#utility.yul\":58635:58670   */\n      tag_1117\n      jumpi\n        /* \"#utility.yul\":58650:58668   */\n      tag_1118\n      tag_645\n      jump\t// in\n    tag_1118:\n        /* \"#utility.yul\":58635:58670   */\n    tag_1117:\n        /* \"#utility.yul\":58692:58693   */\n      dup3\n        /* \"#utility.yul\":58689:58690   */\n      dup3\n        /* \"#utility.yul\":58685:58694   */\n      div\n        /* \"#utility.yul\":58680:58694   */\n      swap1\n      pop\n        /* \"#utility.yul\":58515:58700   */\n      swap3\n      swap2\n      pop\n      pop\n      jump\t// out\n        /* \"#utility.yul\":58706:58872   */\n    tag_646:\n        /* \"#utility.yul\":58846:58864   */\n      0x50524f4a4543542050414944204f555400000000000000000000000000000000\n        /* \"#utility.yul\":58842:58843   */\n      0x00\n        /* \"#utility.yul\":58834:58840   */\n      dup3\n        /* \"#utility.yul\":58830:58844   */\n      add\n        /* \"#utility.yul\":58823:58865   */\n      mstore\n        /* \"#utility.yul\":58706:58872   */\n      pop\n      jump\t// out\n        /* \"#utility.yul\":58878:59244   */\n    tag_647:\n        /* \"#utility.yul\":59020:59023   */\n      0x00\n        /* \"#utility.yul\":59041:59108   */\n      tag_1121\n        /* \"#utility.yul\":59105:59107   */\n      0x10\n        /* \"#utility.yul\":59100:59103   */\n      dup4\n        /* \"#utility.yul\":59041:59108   */\n      tag_534\n      jump\t// in\n    tag_1121:\n        /* \"#utility.yul\":59034:59108   */\n      swap2\n      pop\n        /* \"#utility.yul\":59117:59210   */\n      tag_1122\n        /* \"#utility.yul\":59206:59209   */\n      dup3\n        /* \"#utility.yul\":59117:59210   */\n      tag_646\n      jump\t// in\n    tag_1122:\n        /* \"#utility.yul\":59235:59237   */\n      0x20\n        /* \"#utility.yul\":59230:59233   */\n      dup3\n        /* \"#utility.yul\":59226:59238   */\n      add\n        /* \"#utility.yul\":59219:59238   */\n      swap1\n      pop\n        /* \"#utility.yul\":58878:59244   */\n      swap2\n      swap1\n      pop\n      jump\t// out\n        /* \"#utility.yul\":59250:59889   */\n    tag_516:\n        /* \"#utility.yul\":59472:59476   */\n      0x00\n        /* \"#utility.yul\":59510:59512   */\n      0x60\n        /* \"#utility.yul\":59499:59508   */\n      dup3\n        /* \"#utility.yul\":59495:59513   */\n      add\n        /* \"#utility.yul\":59487:59513   */\n      swap1\n      pop\n        /* \"#utility.yul\":59523:59594   */\n      tag_1124\n        /* \"#utility.yul\":59591:59592   */\n      0x00\n        /* \"#utility.yul\":59580:59589   */\n      dup4\n        /* \"#utility.yul\":59576:59593   */\n      add\n        /* \"#utility.yul\":59567:59573   */\n      dup6\n        /* \"#utility.yul\":59523:59594   */\n      tag_552\n      jump\t// in\n    tag_1124:\n        /* \"#utility.yul\":59641:59650   */\n      dup2\n        /* \"#utility.yul\":59635:59639   */\n      dup2\n        /* \"#utility.yul\":59631:59651   */\n      sub\n        /* \"#utility.yul\":59626:59628   */\n      0x20\n        /* \"#utility.yul\":59615:59624   */\n      dup4\n        /* \"#utility.yul\":59611:59629   */\n      add\n        /* \"#utility.yul\":59604:59652   */\n      mstore\n        /* \"#utility.yul\":59669:59800   */\n      tag_1125\n        /* \"#utility.yul\":59795:59799   */\n      dup2\n        /* \"#utility.yul\":59669:59800   */\n      tag_647\n      jump\t// in\n    tag_1125:\n        /* \"#utility.yul\":59661:59800   */\n      swap1\n      pop\n        /* \"#utility.yul\":59810:59882   */\n      tag_1126\n        /* \"#utility.yul\":59878:59880   */\n      0x40\n        /* \"#utility.yul\":59867:59876   */\n      dup4\n        /* \"#utility.yul\":59863:59881   */\n      add\n        /* \"#utility.yul\":59854:59860   */\n      dup5\n        /* \"#utility.yul\":59810:59882   */\n      tag_552\n      jump\t// in\n    tag_1126:\n        /* \"#utility.yul\":59250:59889   */\n      swap4\n      swap3\n      pop\n      pop\n      pop\n      jump\t// out\n        /* \"#utility.yul\":59895:60042   */\n    tag_648:\n        /* \"#utility.yul\":59996:60007   */\n      0x00\n        /* \"#utility.yul\":60033:60036   */\n      dup2\n        /* \"#utility.yul\":60018:60036   */\n      swap1\n      pop\n        /* \"#utility.yul\":59895:60042   */\n      swap3\n      swap2\n      pop\n      pop\n      jump\t// out\n        /* \"#utility.yul\":60048:60162   */\n    tag_649:\n      pop\n      jump\t// out\n        /* \"#utility.yul\":60168:60566   */\n    tag_650:\n        /* \"#utility.yul\":60327:60330   */\n      0x00\n        /* \"#utility.yul\":60348:60431   */\n      tag_1130\n        /* \"#utility.yul\":60429:60430   */\n      0x00\n        /* \"#utility.yul\":60424:60427   */\n      dup4\n        /* \"#utility.yul\":60348:60431   */\n      tag_648\n      jump\t// in\n    tag_1130:\n        /* \"#utility.yul\":60341:60431   */\n      swap2\n      pop\n        /* \"#utility.yul\":60440:60533   */\n      tag_1131\n        /* \"#utility.yul\":60529:60532   */\n      dup3\n        /* \"#utility.yul\":60440:60533   */\n      tag_649\n      jump\t// in\n    tag_1131:\n        /* \"#utility.yul\":60558:60559   */\n      0x00\n        /* \"#utility.yul\":60553:60556   */\n      dup3\n        /* \"#utility.yul\":60549:60560   */\n      add\n        /* \"#utility.yul\":60542:60560   */\n      swap1\n      pop\n        /* \"#utility.yul\":60168:60566   */\n      swap2\n      swap1\n      pop\n      jump\t// out\n        /* \"#utility.yul\":60572:60951   */\n    tag_519:\n        /* \"#utility.yul\":60756:60759   */\n      0x00\n        /* \"#utility.yul\":60778:60925   */\n      tag_1133\n        /* \"#utility.yul\":60921:60924   */\n      dup3\n        /* \"#utility.yul\":60778:60925   */\n      tag_650\n      jump\t// in\n    tag_1133:\n        /* \"#utility.yul\":60771:60925   */\n      swap2\n      pop\n        /* \"#utility.yul\":60942:60945   */\n      dup2\n        /* \"#utility.yul\":60935:60945   */\n      swap1\n      pop\n        /* \"#utility.yul\":60572:60951   */\n      swap2\n      swap1\n      pop\n      jump\t// out\n    stop\n    data_757a967fde73ff28bd1aae10840307133baa1cde440836373b3a39a35bb5c708 546869732050726f6a6563746564206973206e6f742056616c69646174656420596574\n\n    auxdata: 0xa26469706673582212202cc658db72e26911b9618717236a52983fd1b8afd9fce8774b2a8da3f490392764736f6c634300081a0033\n}\n",
				"bytecode": {
					"linkReferences": {},
					"object": "6080604052348015600e575f80fd5b506040516149853803806149858339818101604052810190602e919060ab565b335f806101000a81548173ffffffffffffffffffffffffffffffffffffffff021916908373ffffffffffffffffffffffffffffffffffffffff160217905550806001819055505060d1565b5f80fd5b5f819050919050565b608d81607d565b81146096575f80fd5b50565b5f8151905060a5816086565b92915050565b5f6020828403121560bd5760bc6079565b5b5f60c8848285016099565b91505092915050565b6148a7806100de5f395ff3fe60806040526004361061011e575f3560e01c80639f39a1941161009f578063d24cd3ec11610063578063d24cd3ec1461043c578063d80528ae14610466578063dcc6012814610494578063f0f3f2c8146104be578063fa52c7d8146104fa5761011e565b80639f39a1941461032e578063a4b2409e1461035e578063b531dcba1461039a578063b69ef8a8146103d6578063c9168b72146104005761011e565b806350fc6d76116100e657806350fc6d761461022857806375c0f6b214610264578063812be1231461028c5780638593054b146102c85780638da5cb5b146103045761011e565b806301b77599146101225780631fb497121461015e57806336fbad261461019a5780633e45c8af146101c45780634cd0cb28146101ec575b5f80fd5b34801561012d575f80fd5b5061014860048036038101906101439190612c38565b610536565b6040516101559190612cd3565b60405180910390f35b348015610169575f80fd5b50610184600480360381019061017f9190612e52565b6105d1565b6040516101919190612f65565b60405180910390f35b3480156101a5575f80fd5b506101ae610bfd565b6040516101bb9190612f8d565b60405180910390f35b3480156101cf575f80fd5b506101ea60048036038101906101e59190612fa6565b610c03565b005b3480156101f7575f80fd5b50610212600480360381019061020d9190612fa6565b610c9a565b60405161021f9190612f65565b60405180910390f35b348015610233575f80fd5b5061024e60048036038101906102499190612fd1565b610e8e565b60405161025b9190612f65565b60405180910390f35b34801561026f575f80fd5b5061028a600480360381019061028591906130ca565b611195565b005b348015610297575f80fd5b506102b260048036038101906102ad9190613124565b6112ea565b6040516102bf9190612f65565b60405180910390f35b3480156102d3575f80fd5b506102ee60048036038101906102e99190612fa6565b6115cc565b6040516102fb9190612f65565b60405180910390f35b34801561030f575f80fd5b506103186115e9565b604051610325919061318d565b60405180910390f35b61034860048036038101906103439190612fa6565b61160c565b6040516103559190612f65565b60405180910390f35b348015610369575f80fd5b50610384600480360381019061037f9190612fa6565b611b11565b6040516103919190612f65565b60405180910390f35b3480156103a5575f80fd5b506103c060048036038101906103bb9190612fa6565b611c65565b6040516103cd9190612f65565b60405180910390f35b3480156103e1575f80fd5b506103ea611e13565b6040516103f79190612f8d565b60405180910390f35b34801561040b575f80fd5b5061042660048036038101906104219190612fa6565b611e19565b60405161043391906132ce565b60405180910390f35b348015610447575f80fd5b50610450611f08565b60405161045d9190612f8d565b60405180910390f35b348015610471575f80fd5b5061047a611f0e565b60405161048b9594939291906132ee565b60405180910390f35b34801561049f575f80fd5b506104a8611f31565b6040516104b591906135fc565b60405180910390f35b3480156104c9575f80fd5b506104e460048036038101906104df9190612fa6565b612342565b6040516104f19190613763565b60405180910390f35b348015610505575f80fd5b50610520600480360381019061051b9190612c38565b61278e565b60405161052d9190612f65565b60405180910390f35b600e602052805f5260405f205f915090508054610552906137b0565b80601f016020809104026020016040519081016040528092919081815260200182805461057e906137b0565b80156105c95780601f106105a0576101008083540402835291602001916105c9565b820191905f5260205f20905b8154815290600101906020018083116105ac57829003601f168201915b505050505081565b5f80875111610615576040517f08c379a000000000000000000000000000000000000000000000000000000000815260040161060c9061382a565b60405180910390fd5b5f865111610658576040517f08c379a000000000000000000000000000000000000000000000000000000000815260040161064f90613892565b60405180910390fd5b5f85511161069b576040517f08c379a0000000000000000000000000000000000000000000000000000000008152600401610692906138fa565b60405180910390fd5b5f84116106dd576040517f08c379a00000000000000000000000000000000000000000000000000000000081526004016106d490613962565b60405180910390fd5b5f825111610720576040517f08c379a0000000000000000000000000000000000000000000000000000000008152600401610717906139ca565b60405180910390fd5b610728612b3d565b600254815f01818152505033816020019073ffffffffffffffffffffffffffffffffffffffff16908173ffffffffffffffffffffffffffffffffffffffff1681525050878160400181905250868160600181905250858160800181905250848160a0018181525050428160e00181815250508381610100018181525050828161016001819052505f81610140019060058111156107c8576107c76133b0565b5b908160058111156107dc576107db6133b0565b5b815250505f8161018001901515908115158152505060405180606001604052806023815260200161484f60239139816101a00181905250600981908060018154018082558091505060019003905f5260205f2090600e02015f909190919091505f820151815f01556020820151816001015f6101000a81548173ffffffffffffffffffffffffffffffffffffffff021916908373ffffffffffffffffffffffffffffffffffffffff160217905550604082015181600201908161089f9190613b85565b5060608201518160030190816108b59190613b85565b5060808201518160040190816108cb9190613b85565b5060a0820151816005015560c0820151816006015560e082015181600701556101008201518160080155610120820151816009015561014082015181600a015f6101000a81548160ff0219169083600581111561092b5761092a6133b0565b5b021790555061016082015181600b0190816109469190613b85565b5061018082015181600c015f6101000a81548160ff0219169083151502179055506101a082015181600d01908161097d9190613b85565b5050506001600c5f60025481526020019081526020015f205f6101000a81548160ff021916908315150217905550600a5f3373ffffffffffffffffffffffffffffffffffffffff1673ffffffffffffffffffffffffffffffffffffffff1681526020019081526020015f2081908060018154018082558091505060019003905f5260205f2090600e02015f909190919091505f820151815f01556020820151816001015f6101000a81548173ffffffffffffffffffffffffffffffffffffffff021916908373ffffffffffffffffffffffffffffffffffffffff1602179055506040820151816002019081610a729190613b85565b506060820151816003019081610a889190613b85565b506080820151816004019081610a9e9190613b85565b5060a0820151816005015560c0820151816006015560e082015181600701556101008201518160080155610120820151816009015561014082015181600a015f6101000a81548160ff02191690836005811115610afe57610afd6133b0565b5b021790555061016082015181600b019081610b199190613b85565b5061018082015181600c015f6101000a81548160ff0219169083151502179055506101a082015181600d019081610b509190613b85565b505050600160045f015f828254610b679190613c81565b925050819055506001600480015f828254610b829190613c81565b925050819055503373ffffffffffffffffffffffffffffffffffffffff167faee8e5d3bbb2f71a951b5632cee20f7ac487b9f8ab4f66a236f7694b13af7c6a60025f815480929190610bd390613cb4565b9190505542604051610be6929190613d45565b60405180910390a260019150509695505050505050565b60025481565b5f8054906101000a900473ffffffffffffffffffffffffffffffffffffffff1673ffffffffffffffffffffffffffffffffffffffff163373ffffffffffffffffffffffffffffffffffffffff1614610c90576040517f08c379a0000000000000000000000000000000000000000000000000000000008152600401610c8790613dc9565b60405180910390fd5b8060018190555050565b5f60016005811115610caf57610cae6133b0565b5b60098381548110610cc357610cc2613de7565b5b905f5260205f2090600e0201600a015f9054906101000a900460ff166005811115610cf157610cf06133b0565b5b14610d31576040517f08c379a0000000000000000000000000000000000000000000000000000000008152600401610d2890613e5e565b60405180910390fd5b60098281548110610d4557610d44613de7565b5b905f5260205f2090600e02016001015f9054906101000a900473ffffffffffffffffffffffffffffffffffffffff1673ffffffffffffffffffffffffffffffffffffffff163373ffffffffffffffffffffffffffffffffffffffff1614610de1576040517f08c379a0000000000000000000000000000000000000000000000000000000008152600401610dd890613ec6565b60405180910390fd5b600460098381548110610df757610df6613de7565b5b905f5260205f2090600e0201600a015f6101000a81548160ff02191690836005811115610e2757610e266133b0565b5b0217905550610e35826127ab565b3373ffffffffffffffffffffffffffffffffffffffff167faee8e5d3bbb2f71a951b5632cee20f7ac487b9f8ab4f66a236f7694b13af7c6a8342604051610e7d929190613f2e565b60405180910390a260019050919050565b5f60098781548110610ea357610ea2613de7565b5b905f5260205f2090600e02016001015f9054906101000a900473ffffffffffffffffffffffffffffffffffffffff1673ffffffffffffffffffffffffffffffffffffffff163373ffffffffffffffffffffffffffffffffffffffff1614610f3f576040517f08c379a0000000000000000000000000000000000000000000000000000000008152600401610f3690613ec6565b60405180910390fd5b5f865111610f82576040517f08c379a0000000000000000000000000000000000000000000000000000000008152600401610f799061382a565b60405180910390fd5b5f855111610fc5576040517f08c379a0000000000000000000000000000000000000000000000000000000008152600401610fbc90613892565b60405180910390fd5b5f845111611008576040517f08c379a0000000000000000000000000000000000000000000000000000000008152600401610fff906138fa565b60405180910390fd5b5f82511161104b576040517f08c379a000000000000000000000000000000000000000000000000000000000815260040161104290613fb2565b60405180910390fd5b85600988815481106110605761105f613de7565b5b905f5260205f2090600e0201600201908161107b9190613b85565b50846009888154811061109157611090613de7565b5b905f5260205f2090600e020160030190816110ac9190613b85565b5083600988815481106110c2576110c1613de7565b5b905f5260205f2090600e020160040190816110dd9190613b85565b5082600988815481106110f3576110f2613de7565b5b905f5260205f2090600e020160080181905550816009888154811061111b5761111a613de7565b5b905f5260205f2090600e0201600b0190816111369190613b85565b503373ffffffffffffffffffffffffffffffffffffffff167faee8e5d3bbb2f71a951b5632cee20f7ac487b9f8ab4f66a236f7694b13af7c6a884260405161117f92919061401a565b60405180910390a2600190509695505050505050565b5f73ffffffffffffffffffffffffffffffffffffffff168273ffffffffffffffffffffffffffffffffffffffff1603611203576040517f08c379a00000000000000000000000000000000000000000000000000000000081526004016111fa906140c4565b60405180910390fd5b5f815111611246576040517f08c379a000000000000000000000000000000000000000000000000000000000815260040161123d9061412c565b60405180910390fd5b6001600d5f8473ffffffffffffffffffffffffffffffffffffffff1673ffffffffffffffffffffffffffffffffffffffff1681526020019081526020015f205f6101000a81548160ff02191690831515021790555080600e5f8473ffffffffffffffffffffffffffffffffffffffff1673ffffffffffffffffffffffffffffffffffffffff1681526020019081526020015f2090816112e59190613b85565b505050565b5f600d5f3373ffffffffffffffffffffffffffffffffffffffff1673ffffffffffffffffffffffffffffffffffffffff1681526020019081526020015f205f9054906101000a900460ff16611374576040517f08c379a000000000000000000000000000000000000000000000000000000000815260040161136b906141ba565b60405180910390fd5b600c5f8481526020019081526020015f205f9054906101000a900460ff166113d1576040517f08c379a00000000000000000000000000000000000000000000000000000000081526004016113c890614222565b60405180910390fd5b600983815481106113e5576113e4613de7565b5b905f5260205f2090600e0201600c015f9054906101000a900460ff1615611441576040517f08c379a00000000000000000000000000000000000000000000000000000000081526004016114389061428a565b60405180910390fd5b5f825111611484576040517f08c379a000000000000000000000000000000000000000000000000000000000815260040161147b90614318565b60405180910390fd5b60016009848154811061149a57611499613de7565b5b905f5260205f2090600e0201600a015f6101000a81548160ff021916908360058111156114ca576114c96133b0565b5b02179055506001600984815481106114e5576114e4613de7565b5b905f5260205f2090600e0201600c015f6101000a81548160ff021916908315150217905550816009848154811061151f5761151e613de7565b5b905f5260205f2090600e0201600d01908161153a9190613b85565b506001600480015f82825461154f9190614336565b92505081905550600160046003015f82825461156b9190613c81565b925050819055503373ffffffffffffffffffffffffffffffffffffffff167faee8e5d3bbb2f71a951b5632cee20f7ac487b9f8ab4f66a236f7694b13af7c6a84426040516115ba9291906143b3565b60405180910390a26001905092915050565b600c602052805f5260405f205f915054906101000a900460ff1681565b5f8054906101000a900473ffffffffffffffffffffffffffffffffffffffff1681565b5f80341161164f576040517f08c379a000000000000000000000000000000000000000000000000000000000815260040161164690614437565b60405180910390fd5b600c5f8381526020019081526020015f205f9054906101000a900460ff166116ac576040517f08c379a00000000000000000000000000000000000000000000000000000000081526004016116a3906144c5565b60405180910390fd5b60011515600983815481106116c4576116c3613de7565b5b905f5260205f2090600e0201600c015f9054906101000a900460ff16151514611722576040517f08c379a000000000000000000000000000000000000000000000000000000000815260040161171990614553565b60405180910390fd5b60016005811115611736576117356133b0565b5b6009838154811061174a57611749613de7565b5b905f5260205f2090600e0201600a015f9054906101000a900460ff166005811115611778576117776133b0565b5b146117b8576040517f08c379a00000000000000000000000000000000000000000000000000000000081526004016117af90613e5e565b60405180910390fd5b6001600983815481106117ce576117cd613de7565b5b905f5260205f2090600e02016009015f8282546117eb9190613c81565b92505081905550600160046001015f8282546118079190613c81565b92505081905550346009838154811061182357611822613de7565b5b905f5260205f2090600e02016006015f8282546118409190613c81565b925050819055503460046002015f82825461185b9190613c81565b92505081905550600b5f8381526020019081526020015f2060405180608001604052803373ffffffffffffffffffffffffffffffffffffffff1681526020013481526020014281526020015f1515815250908060018154018082558091505060019003905f5260205f2090600402015f909190919091505f820151815f015f6101000a81548173ffffffffffffffffffffffffffffffffffffffff021916908373ffffffffffffffffffffffffffffffffffffffff16021790555060208201518160010155604082015181600201556060820151816003015f6101000a81548160ff02191690831515021790555050503373ffffffffffffffffffffffffffffffffffffffff167faee8e5d3bbb2f71a951b5632cee20f7ac487b9f8ab4f66a236f7694b13af7c6a83426040516119939291906145bb565b60405180910390a2600982815481106119af576119ae613de7565b5b905f5260205f2090600e020160050154600983815481106119d3576119d2613de7565b5b905f5260205f2090600e02016006015410611a80576002600983815481106119fe576119fd613de7565b5b905f5260205f2090600e0201600a015f6101000a81548160ff02191690836005811115611a2e57611a2d6133b0565b5b021790555060098281548110611a4757611a46613de7565b5b905f5260205f2090600e02016006015460035f828254611a679190613c81565b92505081905550611a7782612928565b60019050611b0c565b60098281548110611a9457611a93613de7565b5b905f5260205f2090600e0201600801544210611b0757600360098381548110611ac057611abf613de7565b5b905f5260205f2090600e0201600a015f6101000a81548160ff02191690836005811115611af057611aef6133b0565b5b0217905550611afe826127ab565b60019050611b0c565b600190505b919050565b5f60036005811115611b2657611b256133b0565b5b60098381548110611b3a57611b39613de7565b5b905f5260205f2090600e0201600a015f9054906101000a900460ff166005811115611b6857611b676133b0565b5b141580611bc9575060046005811115611b8457611b836133b0565b5b60098381548110611b9857611b97613de7565b5b905f5260205f2090600e0201600a015f9054906101000a900460ff166005811115611bc657611bc56133b0565b5b14155b611c08576040517f08c379a0000000000000000000000000000000000000000000000000000000008152600401611bff90614665565b60405180910390fd5b600360098381548110611c1e57611c1d613de7565b5b905f5260205f2090600e0201600a015f6101000a81548160ff02191690836005811115611c4e57611c4d6133b0565b5b0217905550611c5c826127ab565b60019050919050565b5f60026005811115611c7a57611c796133b0565b5b60098381548110611c8e57611c8d613de7565b5b905f5260205f2090600e0201600a015f9054906101000a900460ff166005811115611cbc57611cbb6133b0565b5b14611cfc576040517f08c379a0000000000000000000000000000000000000000000000000000000008152600401611cf3906146cd565b60405180910390fd5b60098281548110611d1057611d0f613de7565b5b905f5260205f2090600e02016001015f9054906101000a900473ffffffffffffffffffffffffffffffffffffffff1673ffffffffffffffffffffffffffffffffffffffff163373ffffffffffffffffffffffffffffffffffffffff161480611dc257505f8054906101000a900473ffffffffffffffffffffffffffffffffffffffff1673ffffffffffffffffffffffffffffffffffffffff163373ffffffffffffffffffffffffffffffffffffffff16145b611e01576040517f08c379a0000000000000000000000000000000000000000000000000000000008152600401611df890613ec6565b60405180910390fd5b611e0a82612928565b60019050919050565b60035481565b6060600b5f8381526020019081526020015f20805480602002602001604051908101604052809291908181526020015f905b82821015611efd578382905f5260205f2090600402016040518060800160405290815f82015f9054906101000a900473ffffffffffffffffffffffffffffffffffffffff1673ffffffffffffffffffffffffffffffffffffffff1673ffffffffffffffffffffffffffffffffffffffff1681526020016001820154815260200160028201548152602001600382015f9054906101000a900460ff16151515158152505081526020019060010190611e4b565b505050509050919050565b60015481565b6004805f0154908060010154908060020154908060030154908060040154905085565b60606009805480602002602001604051908101604052809291908181526020015f905b82821015612339578382905f5260205f2090600e0201604051806101c00160405290815f8201548152602001600182015f9054906101000a900473ffffffffffffffffffffffffffffffffffffffff1673ffffffffffffffffffffffffffffffffffffffff1673ffffffffffffffffffffffffffffffffffffffff168152602001600282018054611fe4906137b0565b80601f0160208091040260200160405190810160405280929190818152602001828054612010906137b0565b801561205b5780601f106120325761010080835404028352916020019161205b565b820191905f5260205f20905b81548152906001019060200180831161203e57829003601f168201915b50505050508152602001600382018054612074906137b0565b80601f01602080910402602001604051908101604052809291908181526020018280546120a0906137b0565b80156120eb5780601f106120c2576101008083540402835291602001916120eb565b820191905f5260205f20905b8154815290600101906020018083116120ce57829003601f168201915b50505050508152602001600482018054612104906137b0565b80601f0160208091040260200160405190810160405280929190818152602001828054612130906137b0565b801561217b5780601f106121525761010080835404028352916020019161217b565b820191905f5260205f20905b81548152906001019060200180831161215e57829003601f168201915b505050505081526020016005820154815260200160068201548152602001600782015481526020016008820154815260200160098201548152602001600a82015f9054906101000a900460ff1660058111156121da576121d96133b0565b5b60058111156121ec576121eb6133b0565b5b8152602001600b82018054612200906137b0565b80601f016020809104026020016040519081016040528092919081815260200182805461222c906137b0565b80156122775780601f1061224e57610100808354040283529160200191612277565b820191905f5260205f20905b81548152906001019060200180831161225a57829003601f168201915b50505050508152602001600c82015f9054906101000a900460ff16151515158152602001600d820180546122aa906137b0565b80601f01602080910402602001604051908101604052809291908181526020018280546122d6906137b0565b80156123215780601f106122f857610100808354040283529160200191612321565b820191905f5260205f20905b81548152906001019060200180831161230457829003601f168201915b50505050508152505081526020019060010190611f54565b50505050905090565b61234a612b3d565b600c5f8381526020019081526020015f205f9054906101000a900460ff166123a7576040517f08c379a000000000000000000000000000000000000000000000000000000000815260040161239e90614222565b60405180910390fd5b600982815481106123bb576123ba613de7565b5b905f5260205f2090600e0201604051806101c00160405290815f8201548152602001600182015f9054906101000a900473ffffffffffffffffffffffffffffffffffffffff1673ffffffffffffffffffffffffffffffffffffffff1673ffffffffffffffffffffffffffffffffffffffff168152602001600282018054612441906137b0565b80601f016020809104026020016040519081016040528092919081815260200182805461246d906137b0565b80156124b85780601f1061248f576101008083540402835291602001916124b8565b820191905f5260205f20905b81548152906001019060200180831161249b57829003601f168201915b505050505081526020016003820180546124d1906137b0565b80601f01602080910402602001604051908101604052809291908181526020018280546124fd906137b0565b80156125485780601f1061251f57610100808354040283529160200191612548565b820191905f5260205f20905b81548152906001019060200180831161252b57829003601f168201915b50505050508152602001600482018054612561906137b0565b80601f016020809104026020016040519081016040528092919081815260200182805461258d906137b0565b80156125d85780601f106125af576101008083540402835291602001916125d8565b820191905f5260205f20905b8154815290600101906020018083116125bb57829003601f168201915b505050505081526020016005820154815260200160068201548152602001600782015481526020016008820154815260200160098201548152602001600a82015f9054906101000a900460ff166005811115612637576126366133b0565b5b6005811115612649576126486133b0565b5b8152602001600b8201805461265d906137b0565b80601f0160208091040260200160405190810160405280929190818152602001828054612689906137b0565b80156126d45780601f106126ab576101008083540402835291602001916126d4565b820191905f5260205f20905b8154815290600101906020018083116126b757829003601f168201915b50505050508152602001600c82015f9054906101000a900460ff16151515158152602001600d82018054612707906137b0565b80601f0160208091040260200160405190810160405280929190818152602001828054612733906137b0565b801561277e5780601f106127555761010080835404028352916020019161277e565b820191905f5260205f20905b81548152906001019060200180831161276157829003601f168201915b5050505050815250509050919050565b600d602052805f5260405f205f915054906101000a900460ff1681565b5f5b600b5f8381526020019081526020015f2080549050811015612924575f600b5f8481526020019081526020015f2082815481106127ed576127ec613de7565b5b905f5260205f2090600402015f015f9054906101000a900473ffffffffffffffffffffffffffffffffffffffff1690505f600b5f8581526020019081526020015f20838154811061284157612840613de7565b5b905f5260205f2090600402016001015490506001600b5f8681526020019081526020015f20848154811061287857612877613de7565b5b905f5260205f2090600402016003015f6101000a81548160ff02191690831515021790555042600b5f8681526020019081526020015f2084815481106128c1576128c0613de7565b5b905f5260205f209060040201600201819055506128de8282612ac7565b600160046001015f8282546128f39190614336565b925050819055508060046002015f82825461290e9190614336565b92505081905550505080806001019150506127ad565b5050565b5f6009828154811061293d5761293c613de7565b5b905f5260205f2090600e02016006015490505f60646001548361296091906146eb565b61296a9190614759565b905060056009848154811061298257612981613de7565b5b905f5260205f2090600e0201600a015f6101000a81548160ff021916908360058111156129b2576129b16133b0565b5b0217905550612a0e600984815481106129ce576129cd613de7565b5b905f5260205f2090600e02016001015f9054906101000a900473ffffffffffffffffffffffffffffffffffffffff168284612a099190614336565b612ac7565b612a375f8054906101000a900473ffffffffffffffffffffffffffffffffffffffff1682612ac7565b60098381548110612a4b57612a4a613de7565b5b905f5260205f2090600e02016006015460035f828254612a6b9190614336565b925050819055503373ffffffffffffffffffffffffffffffffffffffff167faee8e5d3bbb2f71a951b5632cee20f7ac487b9f8ab4f66a236f7694b13af7c6a8442604051612aba9291906147d3565b60405180910390a2505050565b5f8273ffffffffffffffffffffffffffffffffffffffff1682604051612aec9061483a565b5f6040518083038185875af1925050503d805f8114612b26576040519150601f19603f3d011682016040523d82523d5f602084013e612b2b565b606091505b5050905080612b38575f80fd5b505050565b604051806101c001604052805f81526020015f73ffffffffffffffffffffffffffffffffffffffff1681526020016060815260200160608152602001606081526020015f81526020015f81526020015f81526020015f81526020015f81526020015f6005811115612bb157612bb06133b0565b5b8152602001606081526020015f15158152602001606081525090565b5f604051905090565b5f80fd5b5f80fd5b5f73ffffffffffffffffffffffffffffffffffffffff82169050919050565b5f612c0782612bde565b9050919050565b612c1781612bfd565b8114612c21575f80fd5b50565b5f81359050612c3281612c0e565b92915050565b5f60208284031215612c4d57612c4c612bd6565b5b5f612c5a84828501612c24565b91505092915050565b5f81519050919050565b5f82825260208201905092915050565b8281835e5f83830152505050565b5f601f19601f8301169050919050565b5f612ca582612c63565b612caf8185612c6d565b9350612cbf818560208601612c7d565b612cc881612c8b565b840191505092915050565b5f6020820190508181035f830152612ceb8184612c9b565b905092915050565b5f80fd5b5f80fd5b7f4e487b71000000000000000000000000000000000000000000000000000000005f52604160045260245ffd5b612d3182612c8b565b810181811067ffffffffffffffff82111715612d5057612d4f612cfb565b5b80604052505050565b5f612d62612bcd565b9050612d6e8282612d28565b919050565b5f67ffffffffffffffff821115612d8d57612d8c612cfb565b5b612d9682612c8b565b9050602081019050919050565b828183375f83830152505050565b5f612dc3612dbe84612d73565b612d59565b905082815260208101848484011115612ddf57612dde612cf7565b5b612dea848285612da3565b509392505050565b5f82601f830112612e0657612e05612cf3565b5b8135612e16848260208601612db1565b91505092915050565b5f819050919050565b612e3181612e1f565b8114612e3b575f80fd5b50565b5f81359050612e4c81612e28565b92915050565b5f805f805f8060c08789031215612e6c57612e6b612bd6565b5b5f87013567ffffffffffffffff811115612e8957612e88612bda565b5b612e9589828a01612df2565b965050602087013567ffffffffffffffff811115612eb657612eb5612bda565b5b612ec289828a01612df2565b955050604087013567ffffffffffffffff811115612ee357612ee2612bda565b5b612eef89828a01612df2565b9450506060612f0089828a01612e3e565b9350506080612f1189828a01612e3e565b92505060a087013567ffffffffffffffff811115612f3257612f31612bda565b5b612f3e89828a01612df2565b9150509295509295509295565b5f8115159050919050565b612f5f81612f4b565b82525050565b5f602082019050612f785f830184612f56565b92915050565b612f8781612e1f565b82525050565b5f602082019050612fa05f830184612f7e565b92915050565b5f60208284031215612fbb57612fba612bd6565b5b5f612fc884828501612e3e565b91505092915050565b5f805f805f8060c08789031215612feb57612fea612bd6565b5b5f612ff889828a01612e3e565b965050602087013567ffffffffffffffff81111561301957613018612bda565b5b61302589828a01612df2565b955050604087013567ffffffffffffffff81111561304657613045612bda565b5b61305289828a01612df2565b945050606087013567ffffffffffffffff81111561307357613072612bda565b5b61307f89828a01612df2565b935050608061309089828a01612e3e565b92505060a087013567ffffffffffffffff8111156130b1576130b0612bda565b5b6130bd89828a01612df2565b9150509295509295509295565b5f80604083850312156130e0576130df612bd6565b5b5f6130ed85828601612c24565b925050602083013567ffffffffffffffff81111561310e5761310d612bda565b5b61311a85828601612df2565b9150509250929050565b5f806040838503121561313a57613139612bd6565b5b5f61314785828601612e3e565b925050602083013567ffffffffffffffff81111561316857613167612bda565b5b61317485828601612df2565b9150509250929050565b61318781612bfd565b82525050565b5f6020820190506131a05f83018461317e565b92915050565b5f81519050919050565b5f82825260208201905092915050565b5f819050602082019050919050565b6131d881612bfd565b82525050565b6131e781612e1f565b82525050565b6131f681612f4b565b82525050565b608082015f8201516132105f8501826131cf565b50602082015161322360208501826131de565b50604082015161323660408501826131de565b50606082015161324960608501826131ed565b50505050565b5f61325a83836131fc565b60808301905092915050565b5f602082019050919050565b5f61327c826131a6565b61328681856131b0565b9350613291836131c0565b805f5b838110156132c15781516132a8888261324f565b97506132b383613266565b925050600181019050613294565b5085935050505092915050565b5f6020820190508181035f8301526132e68184613272565b905092915050565b5f60a0820190506133015f830188612f7e565b61330e6020830187612f7e565b61331b6040830186612f7e565b6133286060830185612f7e565b6133356080830184612f7e565b9695505050505050565b5f81519050919050565b5f82825260208201905092915050565b5f819050602082019050919050565b5f82825260208201905092915050565b5f61338282612c63565b61338c8185613368565b935061339c818560208601612c7d565b6133a581612c8b565b840191505092915050565b7f4e487b71000000000000000000000000000000000000000000000000000000005f52602160045260245ffd5b600681106133ee576133ed6133b0565b5b50565b5f8190506133fe826133dd565b919050565b5f61340d826133f1565b9050919050565b61341d81613403565b82525050565b5f6101c083015f8301516134395f8601826131de565b50602083015161344c60208601826131cf565b50604083015184820360408601526134648282613378565b9150506060830151848203606086015261347e8282613378565b915050608083015184820360808601526134988282613378565b91505060a08301516134ad60a08601826131de565b5060c08301516134c060c08601826131de565b5060e08301516134d360e08601826131de565b506101008301516134e86101008601826131de565b506101208301516134fd6101208601826131de565b50610140830151613512610140860182613414565b5061016083015184820361016086015261352c8282613378565b9150506101808301516135436101808601826131ed565b506101a08301518482036101a086015261355d8282613378565b9150508091505092915050565b5f6135758383613423565b905092915050565b5f602082019050919050565b5f6135938261333f565b61359d8185613349565b9350836020820285016135af85613359565b805f5b858110156135ea57848403895281516135cb858261356a565b94506135d68361357d565b925060208a019950506001810190506135b2565b50829750879550505050505092915050565b5f6020820190508181035f8301526136148184613589565b905092915050565b5f6101c083015f8301516136325f8601826131de565b50602083015161364560208601826131cf565b506040830151848203604086015261365d8282613378565b915050606083015184820360608601526136778282613378565b915050608083015184820360808601526136918282613378565b91505060a08301516136a660a08601826131de565b5060c08301516136b960c08601826131de565b5060e08301516136cc60e08601826131de565b506101008301516136e16101008601826131de565b506101208301516136f66101208601826131de565b5061014083015161370b610140860182613414565b506101608301518482036101608601526137258282613378565b91505061018083015161373c6101808601826131ed565b506101a08301518482036101a08601526137568282613378565b9150508091505092915050565b5f6020820190508181035f83015261377b818461361c565b905092915050565b7f4e487b71000000000000000000000000000000000000000000000000000000005f52602260045260245ffd5b5f60028204905060018216806137c757607f821691505b6020821081036137da576137d9613783565b5b50919050565b7f5469746c652063616e6e6f7420626520656d70747900000000000000000000005f82015250565b5f613814601583612c6d565b915061381f826137e0565b602082019050919050565b5f6020820190508181035f83015261384181613808565b9050919050565b7f4465736372697074696f6e2063616e6e6f7420626520656d70747900000000005f82015250565b5f61387c601b83612c6d565b915061388782613848565b602082019050919050565b5f6020820190508181035f8301526138a981613870565b9050919050565b7f496d61676555524c2063616e6e6f7420626520656d70747900000000000000005f82015250565b5f6138e4601883612c6d565b91506138ef826138b0565b602082019050919050565b5f6020820190508181035f830152613911816138d8565b9050919050565b7f436f73742063616e6e6f74206265207a65726f000000000000000000000000005f82015250565b5f61394c601383612c6d565b915061395782613918565b602082019050919050565b5f6020820190508181035f83015261397981613940565b9050919050565b7f5379617261742055524c2063616e6e6f7420626520656d7074790000000000005f82015250565b5f6139b4601a83612c6d565b91506139bf82613980565b602082019050919050565b5f6020820190508181035f8301526139e1816139a8565b9050919050565b5f819050815f5260205f209050919050565b5f6020601f8301049050919050565b5f82821b905092915050565b5f60088302613a447fffffffffffffffffffffffffffffffffffffffffffffffffffffffffffffffff82613a09565b613a4e8683613a09565b95508019841693508086168417925050509392505050565b5f819050919050565b5f613a89613a84613a7f84612e1f565b613a66565b612e1f565b9050919050565b5f819050919050565b613aa283613a6f565b613ab6613aae82613a90565b848454613a15565b825550505050565b5f90565b613aca613abe565b613ad5818484613a99565b505050565b5b81811015613af857613aed5f82613ac2565b600181019050613adb565b5050565b601f821115613b3d57613b0e816139e8565b613b17846139fa565b81016020851015613b26578190505b613b3a613b32856139fa565b830182613ada565b50505b505050565b5f82821c905092915050565b5f613b5d5f1984600802613b42565b1980831691505092915050565b5f613b758383613b4e565b9150826002028217905092915050565b613b8e82612c63565b67ffffffffffffffff811115613ba757613ba6612cfb565b5b613bb182546137b0565b613bbc828285613afc565b5f60209050601f831160018114613bed575f8415613bdb578287015190505b613be58582613b6a565b865550613c4c565b601f198416613bfb866139e8565b5f5b82811015613c2257848901518255600182019150602085019450602081019050613bfd565b86831015613c3f5784890151613c3b601f891682613b4e565b8355505b6001600288020188555050505b505050505050565b7f4e487b71000000000000000000000000000000000000000000000000000000005f52601160045260245ffd5b5f613c8b82612e1f565b9150613c9683612e1f565b9250828201905080821115613cae57613cad613c54565b5b92915050565b5f613cbe82612e1f565b91507fffffffffffffffffffffffffffffffffffffffffffffffffffffffffffffffff8203613cf057613cef613c54565b5b600182019050919050565b7f50524f4a454354204352454154454400000000000000000000000000000000005f82015250565b5f613d2f600f83612c6d565b9150613d3a82613cfb565b602082019050919050565b5f606082019050613d585f830185612f7e565b8181036020830152613d6981613d23565b9050613d786040830184612f7e565b9392505050565b7f4f776e6572207265736572766564206f6e6c79000000000000000000000000005f82015250565b5f613db3601383612c6d565b9150613dbe82613d7f565b602082019050919050565b5f6020820190508181035f830152613de081613da7565b9050919050565b7f4e487b71000000000000000000000000000000000000000000000000000000005f52603260045260245ffd5b7f50726f6a656374206e6f206c6f6e676572206f70656e656400000000000000005f82015250565b5f613e48601883612c6d565b9150613e5382613e14565b602082019050919050565b5f6020820190508181035f830152613e7581613e3c565b9050919050565b7f556e617574686f72697a656420456e74697479000000000000000000000000005f82015250565b5f613eb0601383612c6d565b9150613ebb82613e7c565b602082019050919050565b5f6020820190508181035f830152613edd81613ea4565b9050919050565b7f50524f4a4543542044454c4554454400000000000000000000000000000000005f82015250565b5f613f18600f83612c6d565b9150613f2382613ee4565b602082019050919050565b5f606082019050613f415f830185612f7e565b8181036020830152613f5281613f0c565b9050613f616040830184612f7e565b9392505050565b7f5379617261742063616e6e6f7420626520656d707479000000000000000000005f82015250565b5f613f9c601683612c6d565b9150613fa782613f68565b602082019050919050565b5f6020820190508181035f830152613fc981613f90565b9050919050565b7f50524f4a454354205550444154454400000000000000000000000000000000005f82015250565b5f614004600f83612c6d565b915061400f82613fd0565b602082019050919050565b5f60608201905061402d5f830185612f7e565b818103602083015261403e81613ff8565b905061404d6040830184612f7e565b9392505050565b7f56616c696461746f7220616464726573732063616e6e6f7420626520656d70745f8201527f7900000000000000000000000000000000000000000000000000000000000000602082015250565b5f6140ae602183612c6d565b91506140b982614054565b604082019050919050565b5f6020820190508181035f8301526140db816140a2565b9050919050565b7f56616c696461746f72204e616d652063616e6e6f7420626520656d70747900005f82015250565b5f614116601e83612c6d565b9150614121826140e2565b602082019050919050565b5f6020820190508181035f8301526141438161410a565b9050919050565b7f4f6e6c792076616c696461746f72732063616e206163636573732074686973205f8201527f66756e6374696f6e000000000000000000000000000000000000000000000000602082015250565b5f6141a4602883612c6d565b91506141af8261414a565b604082019050919050565b5f6020820190508181035f8301526141d181614198565b9050919050565b7f50726f6a656374206e6f7420666f756e640000000000000000000000000000005f82015250565b5f61420c601183612c6d565b9150614217826141d8565b602082019050919050565b5f6020820190508181035f83015261423981614200565b9050919050565b7f50726f6a65637420697320416c72656164792056616c696461746564000000005f82015250565b5f614274601c83612c6d565b915061427f82614240565b602082019050919050565b5f6020820190508181035f8301526142a181614268565b9050919050565b7f56616c69646174696f6e204d6573736167652043616e6e6f7420426520456d705f8201527f7479000000000000000000000000000000000000000000000000000000000000602082015250565b5f614302602283612c6d565b915061430d826142a8565b604082019050919050565b5f6020820190508181035f83015261432f816142f6565b9050919050565b5f61434082612e1f565b915061434b83612e1f565b925082820390508181111561436357614362613c54565b5b92915050565b7f50524f4a4543542056414c4944415445440000000000000000000000000000005f82015250565b5f61439d601183612c6d565b91506143a882614369565b602082019050919050565b5f6060820190506143c65f830185612f7e565b81810360208301526143d781614391565b90506143e66040830184612f7e565b9392505050565b7f4574686572206d7573742062652067726561746572207468616e207a65726f005f82015250565b5f614421601f83612c6d565b915061442c826143ed565b602082019050919050565b5f6020820190508181035f83015261444e81614415565b9050919050565b7f50726f6a65637420776974682074686520676976656e20494420646f6573206e5f8201527f6f74206578697374000000000000000000000000000000000000000000000000602082015250565b5f6144af602883612c6d565b91506144ba82614455565b604082019050919050565b5f6020820190508181035f8301526144dc816144a3565b9050919050565b7f546869732050726f6a6563746564206973206e6f742056616c696461746564205f8201527f5965740000000000000000000000000000000000000000000000000000000000602082015250565b5f61453d602383612c6d565b9150614548826144e3565b604082019050919050565b5f6020820190508181035f83015261456a81614531565b9050919050565b7f50524f4a454354204241434b45440000000000000000000000000000000000005f82015250565b5f6145a5600e83612c6d565b91506145b082614571565b602082019050919050565b5f6060820190506145ce5f830185612f7e565b81810360208301526145df81614599565b90506145ee6040830184612f7e565b9392505050565b7f50726f6a656374206e6f74206d61726b656420617320726576657274206f72205f8201527f64656c6574650000000000000000000000000000000000000000000000000000602082015250565b5f61464f602683612c6d565b915061465a826145f5565b604082019050919050565b5f6020820190508181035f83015261467c81614643565b9050919050565b7f50726f6a656374206e6f7420415050524f5645440000000000000000000000005f82015250565b5f6146b7601483612c6d565b91506146c282614683565b602082019050919050565b5f6020820190508181035f8301526146e4816146ab565b9050919050565b5f6146f582612e1f565b915061470083612e1f565b925082820261470e81612e1f565b9150828204841483151761472557614724613c54565b5b5092915050565b7f4e487b71000000000000000000000000000000000000000000000000000000005f52601260045260245ffd5b5f61476382612e1f565b915061476e83612e1f565b92508261477e5761477d61472c565b5b828204905092915050565b7f50524f4a4543542050414944204f5554000000000000000000000000000000005f82015250565b5f6147bd601083612c6d565b91506147c882614789565b602082019050919050565b5f6060820190506147e65f830185612f7e565b81810360208301526147f7816147b1565b90506148066040830184612f7e565b9392505050565b5f81905092915050565b50565b5f6148255f8361480d565b915061483082614817565b5f82019050919050565b5f6148448261481a565b915081905091905056fe546869732050726f6a6563746564206973206e6f742056616c69646174656420596574a26469706673582212202cc658db72e26911b9618717236a52983fd1b8afd9fce8774b2a8da3f490392764736f6c634300081a0033",
					"opcodes": "PUSH1 0x80 PUSH1 0x40 MSTORE CALLVALUE DUP1 ISZERO PUSH1 0xE JUMPI PUSH0 DUP1 REVERT JUMPDEST POP PUSH1 0x40 MLOAD PUSH2 0x4985 CODESIZE SUB DUP1 PUSH2 0x4985 DUP4 CODECOPY DUP2 DUP2 ADD PUSH1 0x40 MSTORE DUP2 ADD SWAP1 PUSH1 0x2E SWAP2 SWAP1 PUSH1 0xAB JUMP JUMPDEST CALLER PUSH0 DUP1 PUSH2 0x100 EXP DUP2 SLOAD DUP2 PUSH20 0xFFFFFFFFFFFFFFFFFFFFFFFFFFFFFFFFFFFFFFFF MUL NOT AND SWAP1 DUP4 PUSH20 0xFFFFFFFFFFFFFFFFFFFFFFFFFFFFFFFFFFFFFFFF AND MUL OR SWAP1 SSTORE POP DUP1 PUSH1 0x1 DUP2 SWAP1 SSTORE POP POP PUSH1 0xD1 JUMP JUMPDEST PUSH0 DUP1 REVERT JUMPDEST PUSH0 DUP2 SWAP1 POP SWAP2 SWAP1 POP JUMP JUMPDEST PUSH1 0x8D DUP2 PUSH1 0x7D JUMP JUMPDEST DUP2 EQ PUSH1 0x96 JUMPI PUSH0 DUP1 REVERT JUMPDEST POP JUMP JUMPDEST PUSH0 DUP2 MLOAD SWAP1 POP PUSH1 0xA5 DUP2 PUSH1 0x86 JUMP JUMPDEST SWAP3 SWAP2 POP POP JUMP JUMPDEST PUSH0 PUSH1 0x20 DUP3 DUP5 SUB SLT ISZERO PUSH1 0xBD JUMPI PUSH1 0xBC PUSH1 0x79 JUMP JUMPDEST JUMPDEST PUSH0 PUSH1 0xC8 DUP5 DUP3 DUP6 ADD PUSH1 0x99 JUMP JUMPDEST SWAP2 POP POP SWAP3 SWAP2 POP POP JUMP JUMPDEST PUSH2 0x48A7 DUP1 PUSH2 0xDE PUSH0 CODECOPY PUSH0 RETURN INVALID PUSH1 0x80 PUSH1 0x40 MSTORE PUSH1 0x4 CALLDATASIZE LT PUSH2 0x11E JUMPI PUSH0 CALLDATALOAD PUSH1 0xE0 SHR DUP1 PUSH4 0x9F39A194 GT PUSH2 0x9F JUMPI DUP1 PUSH4 0xD24CD3EC GT PUSH2 0x63 JUMPI DUP1 PUSH4 0xD24CD3EC EQ PUSH2 0x43C JUMPI DUP1 PUSH4 0xD80528AE EQ PUSH2 0x466 JUMPI DUP1 PUSH4 0xDCC60128 EQ PUSH2 0x494 JUMPI DUP1 PUSH4 0xF0F3F2C8 EQ PUSH2 0x4BE JUMPI DUP1 PUSH4 0xFA52C7D8 EQ PUSH2 0x4FA JUMPI PUSH2 0x11E JUMP JUMPDEST DUP1 PUSH4 0x9F39A194 EQ PUSH2 0x32E JUMPI DUP1 PUSH4 0xA4B2409E EQ PUSH2 0x35E JUMPI DUP1 PUSH4 0xB531DCBA EQ PUSH2 0x39A JUMPI DUP1 PUSH4 0xB69EF8A8 EQ PUSH2 0x3D6 JUMPI DUP1 PUSH4 0xC9168B72 EQ PUSH2 0x400 JUMPI PUSH2 0x11E JUMP JUMPDEST DUP1 PUSH4 0x50FC6D76 GT PUSH2 0xE6 JUMPI DUP1 PUSH4 0x50FC6D76 EQ PUSH2 0x228 JUMPI DUP1 PUSH4 0x75C0F6B2 EQ PUSH2 0x264 JUMPI DUP1 PUSH4 0x812BE123 EQ PUSH2 0x28C JUMPI DUP1 PUSH4 0x8593054B EQ PUSH2 0x2C8 JUMPI DUP1 PUSH4 0x8DA5CB5B EQ PUSH2 0x304 JUMPI PUSH2 0x11E JUMP JUMPDEST DUP1 PUSH4 0x1B77599 EQ PUSH2 0x122 JUMPI DUP1 PUSH4 0x1FB49712 EQ PUSH2 0x15E JUMPI DUP1 PUSH4 0x36FBAD26 EQ PUSH2 0x19A JUMPI DUP1 PUSH4 0x3E45C8AF EQ PUSH2 0x1C4 JUMPI DUP1 PUSH4 0x4CD0CB28 EQ PUSH2 0x1EC JUMPI JUMPDEST PUSH0 DUP1 REVERT JUMPDEST CALLVALUE DUP1 ISZERO PUSH2 0x12D JUMPI PUSH0 DUP1 REVERT JUMPDEST POP PUSH2 0x148 PUSH1 0x4 DUP1 CALLDATASIZE SUB DUP2 ADD SWAP1 PUSH2 0x143 SWAP2 SWAP1 PUSH2 0x2C38 JUMP JUMPDEST PUSH2 0x536 JUMP JUMPDEST PUSH1 0x40 MLOAD PUSH2 0x155 SWAP2 SWAP1 PUSH2 0x2CD3 JUMP JUMPDEST PUSH1 0x40 MLOAD DUP1 SWAP2 SUB SWAP1 RETURN JUMPDEST CALLVALUE DUP1 ISZERO PUSH2 0x169 JUMPI PUSH0 DUP1 REVERT JUMPDEST POP PUSH2 0x184 PUSH1 0x4 DUP1 CALLDATASIZE SUB DUP2 ADD SWAP1 PUSH2 0x17F SWAP2 SWAP1 PUSH2 0x2E52 JUMP JUMPDEST PUSH2 0x5D1 JUMP JUMPDEST PUSH1 0x40 MLOAD PUSH2 0x191 SWAP2 SWAP1 PUSH2 0x2F65 JUMP JUMPDEST PUSH1 0x40 MLOAD DUP1 SWAP2 SUB SWAP1 RETURN JUMPDEST CALLVALUE DUP1 ISZERO PUSH2 0x1A5 JUMPI PUSH0 DUP1 REVERT JUMPDEST POP PUSH2 0x1AE PUSH2 0xBFD JUMP JUMPDEST PUSH1 0x40 MLOAD PUSH2 0x1BB SWAP2 SWAP1 PUSH2 0x2F8D JUMP JUMPDEST PUSH1 0x40 MLOAD DUP1 SWAP2 SUB SWAP1 RETURN JUMPDEST CALLVALUE DUP1 ISZERO PUSH2 0x1CF JUMPI PUSH0 DUP1 REVERT JUMPDEST POP PUSH2 0x1EA PUSH1 0x4 DUP1 CALLDATASIZE SUB DUP2 ADD SWAP1 PUSH2 0x1E5 SWAP2 SWAP1 PUSH2 0x2FA6 JUMP JUMPDEST PUSH2 0xC03 JUMP JUMPDEST STOP JUMPDEST CALLVALUE DUP1 ISZERO PUSH2 0x1F7 JUMPI PUSH0 DUP1 REVERT JUMPDEST POP PUSH2 0x212 PUSH1 0x4 DUP1 CALLDATASIZE SUB DUP2 ADD SWAP1 PUSH2 0x20D SWAP2 SWAP1 PUSH2 0x2FA6 JUMP JUMPDEST PUSH2 0xC9A JUMP JUMPDEST PUSH1 0x40 MLOAD PUSH2 0x21F SWAP2 SWAP1 PUSH2 0x2F65 JUMP JUMPDEST PUSH1 0x40 MLOAD DUP1 SWAP2 SUB SWAP1 RETURN JUMPDEST CALLVALUE DUP1 ISZERO PUSH2 0x233 JUMPI PUSH0 DUP1 REVERT JUMPDEST POP PUSH2 0x24E PUSH1 0x4 DUP1 CALLDATASIZE SUB DUP2 ADD SWAP1 PUSH2 0x249 SWAP2 SWAP1 PUSH2 0x2FD1 JUMP JUMPDEST PUSH2 0xE8E JUMP JUMPDEST PUSH1 0x40 MLOAD PUSH2 0x25B SWAP2 SWAP1 PUSH2 0x2F65 JUMP JUMPDEST PUSH1 0x40 MLOAD DUP1 SWAP2 SUB SWAP1 RETURN JUMPDEST CALLVALUE DUP1 ISZERO PUSH2 0x26F JUMPI PUSH0 DUP1 REVERT JUMPDEST POP PUSH2 0x28A PUSH1 0x4 DUP1 CALLDATASIZE SUB DUP2 ADD SWAP1 PUSH2 0x285 SWAP2 SWAP1 PUSH2 0x30CA JUMP JUMPDEST PUSH2 0x1195 JUMP JUMPDEST STOP JUMPDEST CALLVALUE DUP1 ISZERO PUSH2 0x297 JUMPI PUSH0 DUP1 REVERT JUMPDEST POP PUSH2 0x2B2 PUSH1 0x4 DUP1 CALLDATASIZE SUB DUP2 ADD SWAP1 PUSH2 0x2AD SWAP2 SWAP1 PUSH2 0x3124 JUMP JUMPDEST PUSH2 0x12EA JUMP JUMPDEST PUSH1 0x40 MLOAD PUSH2 0x2BF SWAP2 SWAP1 PUSH2 0x2F65 JUMP JUMPDEST PUSH1 0x40 MLOAD DUP1 SWAP2 SUB SWAP1 RETURN JUMPDEST CALLVALUE DUP1 ISZERO PUSH2 0x2D3 JUMPI PUSH0 DUP1 REVERT JUMPDEST POP PUSH2 0x2EE PUSH1 0x4 DUP1 CALLDATASIZE SUB DUP2 ADD SWAP1 PUSH2 0x2E9 SWAP2 SWAP1 PUSH2 0x2FA6 JUMP JUMPDEST PUSH2 0x15CC JUMP JUMPDEST PUSH1 0x40 MLOAD PUSH2 0x2FB SWAP2 SWAP1 PUSH2 0x2F65 JUMP JUMPDEST PUSH1 0x40 MLOAD DUP1 SWAP2 SUB SWAP1 RETURN JUMPDEST CALLVALUE DUP1 ISZERO PUSH2 0x30F JUMPI PUSH0 DUP1 REVERT JUMPDEST POP PUSH2 0x318 PUSH2 0x15E9 JUMP JUMPDEST PUSH1 0x40 MLOAD PUSH2 0x325 SWAP2 SWAP1 PUSH2 0x318D JUMP JUMPDEST PUSH1 0x40 MLOAD DUP1 SWAP2 SUB SWAP1 RETURN JUMPDEST PUSH2 0x348 PUSH1 0x4 DUP1 CALLDATASIZE SUB DUP2 ADD SWAP1 PUSH2 0x343 SWAP2 SWAP1 PUSH2 0x2FA6 JUMP JUMPDEST PUSH2 0x160C JUMP JUMPDEST PUSH1 0x40 MLOAD PUSH2 0x355 SWAP2 SWAP1 PUSH2 0x2F65 JUMP JUMPDEST PUSH1 0x40 MLOAD DUP1 SWAP2 SUB SWAP1 RETURN JUMPDEST CALLVALUE DUP1 ISZERO PUSH2 0x369 JUMPI PUSH0 DUP1 REVERT JUMPDEST POP PUSH2 0x384 PUSH1 0x4 DUP1 CALLDATASIZE SUB DUP2 ADD SWAP1 PUSH2 0x37F SWAP2 SWAP1 PUSH2 0x2FA6 JUMP JUMPDEST PUSH2 0x1B11 JUMP JUMPDEST PUSH1 0x40 MLOAD PUSH2 0x391 SWAP2 SWAP1 PUSH2 0x2F65 JUMP JUMPDEST PUSH1 0x40 MLOAD DUP1 SWAP2 SUB SWAP1 RETURN JUMPDEST CALLVALUE DUP1 ISZERO PUSH2 0x3A5 JUMPI PUSH0 DUP1 REVERT JUMPDEST POP PUSH2 0x3C0 PUSH1 0x4 DUP1 CALLDATASIZE SUB DUP2 ADD SWAP1 PUSH2 0x3BB SWAP2 SWAP1 PUSH2 0x2FA6 JUMP JUMPDEST PUSH2 0x1C65 JUMP JUMPDEST PUSH1 0x40 MLOAD PUSH2 0x3CD SWAP2 SWAP1 PUSH2 0x2F65 JUMP JUMPDEST PUSH1 0x40 MLOAD DUP1 SWAP2 SUB SWAP1 RETURN JUMPDEST CALLVALUE DUP1 ISZERO PUSH2 0x3E1 JUMPI PUSH0 DUP1 REVERT JUMPDEST POP PUSH2 0x3EA PUSH2 0x1E13 JUMP JUMPDEST PUSH1 0x40 MLOAD PUSH2 0x3F7 SWAP2 SWAP1 PUSH2 0x2F8D JUMP JUMPDEST PUSH1 0x40 MLOAD DUP1 SWAP2 SUB SWAP1 RETURN JUMPDEST CALLVALUE DUP1 ISZERO PUSH2 0x40B JUMPI PUSH0 DUP1 REVERT JUMPDEST POP PUSH2 0x426 PUSH1 0x4 DUP1 CALLDATASIZE SUB DUP2 ADD SWAP1 PUSH2 0x421 SWAP2 SWAP1 PUSH2 0x2FA6 JUMP JUMPDEST PUSH2 0x1E19 JUMP JUMPDEST PUSH1 0x40 MLOAD PUSH2 0x433 SWAP2 SWAP1 PUSH2 0x32CE JUMP JUMPDEST PUSH1 0x40 MLOAD DUP1 SWAP2 SUB SWAP1 RETURN JUMPDEST CALLVALUE DUP1 ISZERO PUSH2 0x447 JUMPI PUSH0 DUP1 REVERT JUMPDEST POP PUSH2 0x450 PUSH2 0x1F08 JUMP JUMPDEST PUSH1 0x40 MLOAD PUSH2 0x45D SWAP2 SWAP1 PUSH2 0x2F8D JUMP JUMPDEST PUSH1 0x40 MLOAD DUP1 SWAP2 SUB SWAP1 RETURN JUMPDEST CALLVALUE DUP1 ISZERO PUSH2 0x471 JUMPI PUSH0 DUP1 REVERT JUMPDEST POP PUSH2 0x47A PUSH2 0x1F0E JUMP JUMPDEST PUSH1 0x40 MLOAD PUSH2 0x48B SWAP6 SWAP5 SWAP4 SWAP3 SWAP2 SWAP1 PUSH2 0x32EE JUMP JUMPDEST PUSH1 0x40 MLOAD DUP1 SWAP2 SUB SWAP1 RETURN JUMPDEST CALLVALUE DUP1 ISZERO PUSH2 0x49F JUMPI PUSH0 DUP1 REVERT JUMPDEST POP PUSH2 0x4A8 PUSH2 0x1F31 JUMP JUMPDEST PUSH1 0x40 MLOAD PUSH2 0x4B5 SWAP2 SWAP1 PUSH2 0x35FC JUMP JUMPDEST PUSH1 0x40 MLOAD DUP1 SWAP2 SUB SWAP1 RETURN JUMPDEST CALLVALUE DUP1 ISZERO PUSH2 0x4C9 JUMPI PUSH0 DUP1 REVERT JUMPDEST POP PUSH2 0x4E4 PUSH1 0x4 DUP1 CALLDATASIZE SUB DUP2 ADD SWAP1 PUSH2 0x4DF SWAP2 SWAP1 PUSH2 0x2FA6 JUMP JUMPDEST PUSH2 0x2342 JUMP JUMPDEST PUSH1 0x40 MLOAD PUSH2 0x4F1 SWAP2 SWAP1 PUSH2 0x3763 JUMP JUMPDEST PUSH1 0x40 MLOAD DUP1 SWAP2 SUB SWAP1 RETURN JUMPDEST CALLVALUE DUP1 ISZERO PUSH2 0x505 JUMPI PUSH0 DUP1 REVERT JUMPDEST POP PUSH2 0x520 PUSH1 0x4 DUP1 CALLDATASIZE SUB DUP2 ADD SWAP1 PUSH2 0x51B SWAP2 SWAP1 PUSH2 0x2C38 JUMP JUMPDEST PUSH2 0x278E JUMP JUMPDEST PUSH1 0x40 MLOAD PUSH2 0x52D SWAP2 SWAP1 PUSH2 0x2F65 JUMP JUMPDEST PUSH1 0x40 MLOAD DUP1 SWAP2 SUB SWAP1 RETURN JUMPDEST PUSH1 0xE PUSH1 0x20 MSTORE DUP1 PUSH0 MSTORE PUSH1 0x40 PUSH0 KECCAK256 PUSH0 SWAP2 POP SWAP1 POP DUP1 SLOAD PUSH2 0x552 SWAP1 PUSH2 0x37B0 JUMP JUMPDEST DUP1 PUSH1 0x1F ADD PUSH1 0x20 DUP1 SWAP2 DIV MUL PUSH1 0x20 ADD PUSH1 0x40 MLOAD SWAP1 DUP2 ADD PUSH1 0x40 MSTORE DUP1 SWAP3 SWAP2 SWAP1 DUP2 DUP2 MSTORE PUSH1 0x20 ADD DUP3 DUP1 SLOAD PUSH2 0x57E SWAP1 PUSH2 0x37B0 JUMP JUMPDEST DUP1 ISZERO PUSH2 0x5C9 JUMPI DUP1 PUSH1 0x1F LT PUSH2 0x5A0 JUMPI PUSH2 0x100 DUP1 DUP4 SLOAD DIV MUL DUP4 MSTORE SWAP2 PUSH1 0x20 ADD SWAP2 PUSH2 0x5C9 JUMP JUMPDEST DUP3 ADD SWAP2 SWAP1 PUSH0 MSTORE PUSH1 0x20 PUSH0 KECCAK256 SWAP1 JUMPDEST DUP2 SLOAD DUP2 MSTORE SWAP1 PUSH1 0x1 ADD SWAP1 PUSH1 0x20 ADD DUP1 DUP4 GT PUSH2 0x5AC JUMPI DUP3 SWAP1 SUB PUSH1 0x1F AND DUP3 ADD SWAP2 JUMPDEST POP POP POP POP POP DUP2 JUMP JUMPDEST PUSH0 DUP1 DUP8 MLOAD GT PUSH2 0x615 JUMPI PUSH1 0x40 MLOAD PUSH32 0x8C379A000000000000000000000000000000000000000000000000000000000 DUP2 MSTORE PUSH1 0x4 ADD PUSH2 0x60C SWAP1 PUSH2 0x382A JUMP JUMPDEST PUSH1 0x40 MLOAD DUP1 SWAP2 SUB SWAP1 REVERT JUMPDEST PUSH0 DUP7 MLOAD GT PUSH2 0x658 JUMPI PUSH1 0x40 MLOAD PUSH32 0x8C379A000000000000000000000000000000000000000000000000000000000 DUP2 MSTORE PUSH1 0x4 ADD PUSH2 0x64F SWAP1 PUSH2 0x3892 JUMP JUMPDEST PUSH1 0x40 MLOAD DUP1 SWAP2 SUB SWAP1 REVERT JUMPDEST PUSH0 DUP6 MLOAD GT PUSH2 0x69B JUMPI PUSH1 0x40 MLOAD PUSH32 0x8C379A000000000000000000000000000000000000000000000000000000000 DUP2 MSTORE PUSH1 0x4 ADD PUSH2 0x692 SWAP1 PUSH2 0x38FA JUMP JUMPDEST PUSH1 0x40 MLOAD DUP1 SWAP2 SUB SWAP1 REVERT JUMPDEST PUSH0 DUP5 GT PUSH2 0x6DD JUMPI PUSH1 0x40 MLOAD PUSH32 0x8C379A000000000000000000000000000000000000000000000000000000000 DUP2 MSTORE PUSH1 0x4 ADD PUSH2 0x6D4 SWAP1 PUSH2 0x3962 JUMP JUMPDEST PUSH1 0x40 MLOAD DUP1 SWAP2 SUB SWAP1 REVERT JUMPDEST PUSH0 DUP3 MLOAD GT PUSH2 0x720 JUMPI PUSH1 0x40 MLOAD PUSH32 0x8C379A000000000000000000000000000000000000000000000000000000000 DUP2 MSTORE PUSH1 0x4 ADD PUSH2 0x717 SWAP1 PUSH2 0x39CA JUMP JUMPDEST PUSH1 0x40 MLOAD DUP1 SWAP2 SUB SWAP1 REVERT JUMPDEST PUSH2 0x728 PUSH2 0x2B3D JUMP JUMPDEST PUSH1 0x2 SLOAD DUP2 PUSH0 ADD DUP2 DUP2 MSTORE POP POP CALLER DUP2 PUSH1 0x20 ADD SWAP1 PUSH20 0xFFFFFFFFFFFFFFFFFFFFFFFFFFFFFFFFFFFFFFFF AND SWAP1 DUP2 PUSH20 0xFFFFFFFFFFFFFFFFFFFFFFFFFFFFFFFFFFFFFFFF AND DUP2 MSTORE POP POP DUP8 DUP2 PUSH1 0x40 ADD DUP2 SWAP1 MSTORE POP DUP7 DUP2 PUSH1 0x60 ADD DUP2 SWAP1 MSTORE POP DUP6 DUP2 PUSH1 0x80 ADD DUP2 SWAP1 MSTORE POP DUP5 DUP2 PUSH1 0xA0 ADD DUP2 DUP2 MSTORE POP POP TIMESTAMP DUP2 PUSH1 0xE0 ADD DUP2 DUP2 MSTORE POP POP DUP4 DUP2 PUSH2 0x100 ADD DUP2 DUP2 MSTORE POP POP DUP3 DUP2 PUSH2 0x160 ADD DUP2 SWAP1 MSTORE POP PUSH0 DUP2 PUSH2 0x140 ADD SWAP1 PUSH1 0x5 DUP2 GT ISZERO PUSH2 0x7C8 JUMPI PUSH2 0x7C7 PUSH2 0x33B0 JUMP JUMPDEST JUMPDEST SWAP1 DUP2 PUSH1 0x5 DUP2 GT ISZERO PUSH2 0x7DC JUMPI PUSH2 0x7DB PUSH2 0x33B0 JUMP JUMPDEST JUMPDEST DUP2 MSTORE POP POP PUSH0 DUP2 PUSH2 0x180 ADD SWAP1 ISZERO ISZERO SWAP1 DUP2 ISZERO ISZERO DUP2 MSTORE POP POP PUSH1 0x40 MLOAD DUP1 PUSH1 0x60 ADD PUSH1 0x40 MSTORE DUP1 PUSH1 0x23 DUP2 MSTORE PUSH1 0x20 ADD PUSH2 0x484F PUSH1 0x23 SWAP2 CODECOPY DUP2 PUSH2 0x1A0 ADD DUP2 SWAP1 MSTORE POP PUSH1 0x9 DUP2 SWAP1 DUP1 PUSH1 0x1 DUP2 SLOAD ADD DUP1 DUP3 SSTORE DUP1 SWAP2 POP POP PUSH1 0x1 SWAP1 SUB SWAP1 PUSH0 MSTORE PUSH1 0x20 PUSH0 KECCAK256 SWAP1 PUSH1 0xE MUL ADD PUSH0 SWAP1 SWAP2 SWAP1 SWAP2 SWAP1 SWAP2 POP PUSH0 DUP3 ADD MLOAD DUP2 PUSH0 ADD SSTORE PUSH1 0x20 DUP3 ADD MLOAD DUP2 PUSH1 0x1 ADD PUSH0 PUSH2 0x100 EXP DUP2 SLOAD DUP2 PUSH20 0xFFFFFFFFFFFFFFFFFFFFFFFFFFFFFFFFFFFFFFFF MUL NOT AND SWAP1 DUP4 PUSH20 0xFFFFFFFFFFFFFFFFFFFFFFFFFFFFFFFFFFFFFFFF AND MUL OR SWAP1 SSTORE POP PUSH1 0x40 DUP3 ADD MLOAD DUP2 PUSH1 0x2 ADD SWAP1 DUP2 PUSH2 0x89F SWAP2 SWAP1 PUSH2 0x3B85 JUMP JUMPDEST POP PUSH1 0x60 DUP3 ADD MLOAD DUP2 PUSH1 0x3 ADD SWAP1 DUP2 PUSH2 0x8B5 SWAP2 SWAP1 PUSH2 0x3B85 JUMP JUMPDEST POP PUSH1 0x80 DUP3 ADD MLOAD DUP2 PUSH1 0x4 ADD SWAP1 DUP2 PUSH2 0x8CB SWAP2 SWAP1 PUSH2 0x3B85 JUMP JUMPDEST POP PUSH1 0xA0 DUP3 ADD MLOAD DUP2 PUSH1 0x5 ADD SSTORE PUSH1 0xC0 DUP3 ADD MLOAD DUP2 PUSH1 0x6 ADD SSTORE PUSH1 0xE0 DUP3 ADD MLOAD DUP2 PUSH1 0x7 ADD SSTORE PUSH2 0x100 DUP3 ADD MLOAD DUP2 PUSH1 0x8 ADD SSTORE PUSH2 0x120 DUP3 ADD MLOAD DUP2 PUSH1 0x9 ADD SSTORE PUSH2 0x140 DUP3 ADD MLOAD DUP2 PUSH1 0xA ADD PUSH0 PUSH2 0x100 EXP DUP2 SLOAD DUP2 PUSH1 0xFF MUL NOT AND SWAP1 DUP4 PUSH1 0x5 DUP2 GT ISZERO PUSH2 0x92B JUMPI PUSH2 0x92A PUSH2 0x33B0 JUMP JUMPDEST JUMPDEST MUL OR SWAP1 SSTORE POP PUSH2 0x160 DUP3 ADD MLOAD DUP2 PUSH1 0xB ADD SWAP1 DUP2 PUSH2 0x946 SWAP2 SWAP1 PUSH2 0x3B85 JUMP JUMPDEST POP PUSH2 0x180 DUP3 ADD MLOAD DUP2 PUSH1 0xC ADD PUSH0 PUSH2 0x100 EXP DUP2 SLOAD DUP2 PUSH1 0xFF MUL NOT AND SWAP1 DUP4 ISZERO ISZERO MUL OR SWAP1 SSTORE POP PUSH2 0x1A0 DUP3 ADD MLOAD DUP2 PUSH1 0xD ADD SWAP1 DUP2 PUSH2 0x97D SWAP2 SWAP1 PUSH2 0x3B85 JUMP JUMPDEST POP POP POP PUSH1 0x1 PUSH1 0xC PUSH0 PUSH1 0x2 SLOAD DUP2 MSTORE PUSH1 0x20 ADD SWAP1 DUP2 MSTORE PUSH1 0x20 ADD PUSH0 KECCAK256 PUSH0 PUSH2 0x100 EXP DUP2 SLOAD DUP2 PUSH1 0xFF MUL NOT AND SWAP1 DUP4 ISZERO ISZERO MUL OR SWAP1 SSTORE POP PUSH1 0xA PUSH0 CALLER PUSH20 0xFFFFFFFFFFFFFFFFFFFFFFFFFFFFFFFFFFFFFFFF AND PUSH20 0xFFFFFFFFFFFFFFFFFFFFFFFFFFFFFFFFFFFFFFFF AND DUP2 MSTORE PUSH1 0x20 ADD SWAP1 DUP2 MSTORE PUSH1 0x20 ADD PUSH0 KECCAK256 DUP2 SWAP1 DUP1 PUSH1 0x1 DUP2 SLOAD ADD DUP1 DUP3 SSTORE DUP1 SWAP2 POP POP PUSH1 0x1 SWAP1 SUB SWAP1 PUSH0 MSTORE PUSH1 0x20 PUSH0 KECCAK256 SWAP1 PUSH1 0xE MUL ADD PUSH0 SWAP1 SWAP2 SWAP1 SWAP2 SWAP1 SWAP2 POP PUSH0 DUP3 ADD MLOAD DUP2 PUSH0 ADD SSTORE PUSH1 0x20 DUP3 ADD MLOAD DUP2 PUSH1 0x1 ADD PUSH0 PUSH2 0x100 EXP DUP2 SLOAD DUP2 PUSH20 0xFFFFFFFFFFFFFFFFFFFFFFFFFFFFFFFFFFFFFFFF MUL NOT AND SWAP1 DUP4 PUSH20 0xFFFFFFFFFFFFFFFFFFFFFFFFFFFFFFFFFFFFFFFF AND MUL OR SWAP1 SSTORE POP PUSH1 0x40 DUP3 ADD MLOAD DUP2 PUSH1 0x2 ADD SWAP1 DUP2 PUSH2 0xA72 SWAP2 SWAP1 PUSH2 0x3B85 JUMP JUMPDEST POP PUSH1 0x60 DUP3 ADD MLOAD DUP2 PUSH1 0x3 ADD SWAP1 DUP2 PUSH2 0xA88 SWAP2 SWAP1 PUSH2 0x3B85 JUMP JUMPDEST POP PUSH1 0x80 DUP3 ADD MLOAD DUP2 PUSH1 0x4 ADD SWAP1 DUP2 PUSH2 0xA9E SWAP2 SWAP1 PUSH2 0x3B85 JUMP JUMPDEST POP PUSH1 0xA0 DUP3 ADD MLOAD DUP2 PUSH1 0x5 ADD SSTORE PUSH1 0xC0 DUP3 ADD MLOAD DUP2 PUSH1 0x6 ADD SSTORE PUSH1 0xE0 DUP3 ADD MLOAD DUP2 PUSH1 0x7 ADD SSTORE PUSH2 0x100 DUP3 ADD MLOAD DUP2 PUSH1 0x8 ADD SSTORE PUSH2 0x120 DUP3 ADD MLOAD DUP2 PUSH1 0x9 ADD SSTORE PUSH2 0x140 DUP3 ADD MLOAD DUP2 PUSH1 0xA ADD PUSH0 PUSH2 0x100 EXP DUP2 SLOAD DUP2 PUSH1 0xFF MUL NOT AND SWAP1 DUP4 PUSH1 0x5 DUP2 GT ISZERO PUSH2 0xAFE JUMPI PUSH2 0xAFD PUSH2 0x33B0 JUMP JUMPDEST JUMPDEST MUL OR SWAP1 SSTORE POP PUSH2 0x160 DUP3 ADD MLOAD DUP2 PUSH1 0xB ADD SWAP1 DUP2 PUSH2 0xB19 SWAP2 SWAP1 PUSH2 0x3B85 JUMP JUMPDEST POP PUSH2 0x180 DUP3 ADD MLOAD DUP2 PUSH1 0xC ADD PUSH0 PUSH2 0x100 EXP DUP2 SLOAD DUP2 PUSH1 0xFF MUL NOT AND SWAP1 DUP4 ISZERO ISZERO MUL OR SWAP1 SSTORE POP PUSH2 0x1A0 DUP3 ADD MLOAD DUP2 PUSH1 0xD ADD SWAP1 DUP2 PUSH2 0xB50 SWAP2 SWAP1 PUSH2 0x3B85 JUMP JUMPDEST POP POP POP PUSH1 0x1 PUSH1 0x4 PUSH0 ADD PUSH0 DUP3 DUP3 SLOAD PUSH2 0xB67 SWAP2 SWAP1 PUSH2 0x3C81 JUMP JUMPDEST SWAP3 POP POP DUP2 SWAP1 SSTORE POP PUSH1 0x1 PUSH1 0x4 DUP1 ADD PUSH0 DUP3 DUP3 SLOAD PUSH2 0xB82 SWAP2 SWAP1 PUSH2 0x3C81 JUMP JUMPDEST SWAP3 POP POP DUP2 SWAP1 SSTORE POP CALLER PUSH20 0xFFFFFFFFFFFFFFFFFFFFFFFFFFFFFFFFFFFFFFFF AND PUSH32 0xAEE8E5D3BBB2F71A951B5632CEE20F7AC487B9F8AB4F66A236F7694B13AF7C6A PUSH1 0x2 PUSH0 DUP2 SLOAD DUP1 SWAP3 SWAP2 SWAP1 PUSH2 0xBD3 SWAP1 PUSH2 0x3CB4 JUMP JUMPDEST SWAP2 SWAP1 POP SSTORE TIMESTAMP PUSH1 0x40 MLOAD PUSH2 0xBE6 SWAP3 SWAP2 SWAP1 PUSH2 0x3D45 JUMP JUMPDEST PUSH1 0x40 MLOAD DUP1 SWAP2 SUB SWAP1 LOG2 PUSH1 0x1 SWAP2 POP POP SWAP7 SWAP6 POP POP POP POP POP POP JUMP JUMPDEST PUSH1 0x2 SLOAD DUP2 JUMP JUMPDEST PUSH0 DUP1 SLOAD SWAP1 PUSH2 0x100 EXP SWAP1 DIV PUSH20 0xFFFFFFFFFFFFFFFFFFFFFFFFFFFFFFFFFFFFFFFF AND PUSH20 0xFFFFFFFFFFFFFFFFFFFFFFFFFFFFFFFFFFFFFFFF AND CALLER PUSH20 0xFFFFFFFFFFFFFFFFFFFFFFFFFFFFFFFFFFFFFFFF AND EQ PUSH2 0xC90 JUMPI PUSH1 0x40 MLOAD PUSH32 0x8C379A000000000000000000000000000000000000000000000000000000000 DUP2 MSTORE PUSH1 0x4 ADD PUSH2 0xC87 SWAP1 PUSH2 0x3DC9 JUMP JUMPDEST PUSH1 0x40 MLOAD DUP1 SWAP2 SUB SWAP1 REVERT JUMPDEST DUP1 PUSH1 0x1 DUP2 SWAP1 SSTORE POP POP JUMP JUMPDEST PUSH0 PUSH1 0x1 PUSH1 0x5 DUP2 GT ISZERO PUSH2 0xCAF JUMPI PUSH2 0xCAE PUSH2 0x33B0 JUMP JUMPDEST JUMPDEST PUSH1 0x9 DUP4 DUP2 SLOAD DUP2 LT PUSH2 0xCC3 JUMPI PUSH2 0xCC2 PUSH2 0x3DE7 JUMP JUMPDEST JUMPDEST SWAP1 PUSH0 MSTORE PUSH1 0x20 PUSH0 KECCAK256 SWAP1 PUSH1 0xE MUL ADD PUSH1 0xA ADD PUSH0 SWAP1 SLOAD SWAP1 PUSH2 0x100 EXP SWAP1 DIV PUSH1 0xFF AND PUSH1 0x5 DUP2 GT ISZERO PUSH2 0xCF1 JUMPI PUSH2 0xCF0 PUSH2 0x33B0 JUMP JUMPDEST JUMPDEST EQ PUSH2 0xD31 JUMPI PUSH1 0x40 MLOAD PUSH32 0x8C379A000000000000000000000000000000000000000000000000000000000 DUP2 MSTORE PUSH1 0x4 ADD PUSH2 0xD28 SWAP1 PUSH2 0x3E5E JUMP JUMPDEST PUSH1 0x40 MLOAD DUP1 SWAP2 SUB SWAP1 REVERT JUMPDEST PUSH1 0x9 DUP3 DUP2 SLOAD DUP2 LT PUSH2 0xD45 JUMPI PUSH2 0xD44 PUSH2 0x3DE7 JUMP JUMPDEST JUMPDEST SWAP1 PUSH0 MSTORE PUSH1 0x20 PUSH0 KECCAK256 SWAP1 PUSH1 0xE MUL ADD PUSH1 0x1 ADD PUSH0 SWAP1 SLOAD SWAP1 PUSH2 0x100 EXP SWAP1 DIV PUSH20 0xFFFFFFFFFFFFFFFFFFFFFFFFFFFFFFFFFFFFFFFF AND PUSH20 0xFFFFFFFFFFFFFFFFFFFFFFFFFFFFFFFFFFFFFFFF AND CALLER PUSH20 0xFFFFFFFFFFFFFFFFFFFFFFFFFFFFFFFFFFFFFFFF AND EQ PUSH2 0xDE1 JUMPI PUSH1 0x40 MLOAD PUSH32 0x8C379A000000000000000000000000000000000000000000000000000000000 DUP2 MSTORE PUSH1 0x4 ADD PUSH2 0xDD8 SWAP1 PUSH2 0x3EC6 JUMP JUMPDEST PUSH1 0x40 MLOAD DUP1 SWAP2 SUB SWAP1 REVERT JUMPDEST PUSH1 0x4 PUSH1 0x9 DUP4 DUP2 SLOAD DUP2 LT PUSH2 0xDF7 JUMPI PUSH2 0xDF6 PUSH2 0x3DE7 JUMP JUMPDEST JUMPDEST SWAP1 PUSH0 MSTORE PUSH1 0x20 PUSH0 KECCAK256 SWAP1 PUSH1 0xE MUL ADD PUSH1 0xA ADD PUSH0 PUSH2 0x100 EXP DUP2 SLOAD DUP2 PUSH1 0xFF MUL NOT AND SWAP1 DUP4 PUSH1 0x5 DUP2 GT ISZERO PUSH2 0xE27 JUMPI PUSH2 0xE26 PUSH2 0x33B0 JUMP JUMPDEST JUMPDEST MUL OR SWAP1 SSTORE POP PUSH2 0xE35 DUP3 PUSH2 0x27AB JUMP JUMPDEST CALLER PUSH20 0xFFFFFFFFFFFFFFFFFFFFFFFFFFFFFFFFFFFFFFFF AND PUSH32 0xAEE8E5D3BBB2F71A951B5632CEE20F7AC487B9F8AB4F66A236F7694B13AF7C6A DUP4 TIMESTAMP PUSH1 0x40 MLOAD PUSH2 0xE7D SWAP3 SWAP2 SWAP1 PUSH2 0x3F2E JUMP JUMPDEST PUSH1 0x40 MLOAD DUP1 SWAP2 SUB SWAP1 LOG2 PUSH1 0x1 SWAP1 POP SWAP2 SWAP1 POP JUMP JUMPDEST PUSH0 PUSH1 0x9 DUP8 DUP2 SLOAD DUP2 LT PUSH2 0xEA3 JUMPI PUSH2 0xEA2 PUSH2 0x3DE7 JUMP JUMPDEST JUMPDEST SWAP1 PUSH0 MSTORE PUSH1 0x20 PUSH0 KECCAK256 SWAP1 PUSH1 0xE MUL ADD PUSH1 0x1 ADD PUSH0 SWAP1 SLOAD SWAP1 PUSH2 0x100 EXP SWAP1 DIV PUSH20 0xFFFFFFFFFFFFFFFFFFFFFFFFFFFFFFFFFFFFFFFF AND PUSH20 0xFFFFFFFFFFFFFFFFFFFFFFFFFFFFFFFFFFFFFFFF AND CALLER PUSH20 0xFFFFFFFFFFFFFFFFFFFFFFFFFFFFFFFFFFFFFFFF AND EQ PUSH2 0xF3F JUMPI PUSH1 0x40 MLOAD PUSH32 0x8C379A000000000000000000000000000000000000000000000000000000000 DUP2 MSTORE PUSH1 0x4 ADD PUSH2 0xF36 SWAP1 PUSH2 0x3EC6 JUMP JUMPDEST PUSH1 0x40 MLOAD DUP1 SWAP2 SUB SWAP1 REVERT JUMPDEST PUSH0 DUP7 MLOAD GT PUSH2 0xF82 JUMPI PUSH1 0x40 MLOAD PUSH32 0x8C379A000000000000000000000000000000000000000000000000000000000 DUP2 MSTORE PUSH1 0x4 ADD PUSH2 0xF79 SWAP1 PUSH2 0x382A JUMP JUMPDEST PUSH1 0x40 MLOAD DUP1 SWAP2 SUB SWAP1 REVERT JUMPDEST PUSH0 DUP6 MLOAD GT PUSH2 0xFC5 JUMPI PUSH1 0x40 MLOAD PUSH32 0x8C379A000000000000000000000000000000000000000000000000000000000 DUP2 MSTORE PUSH1 0x4 ADD PUSH2 0xFBC SWAP1 PUSH2 0x3892 JUMP JUMPDEST PUSH1 0x40 MLOAD DUP1 SWAP2 SUB SWAP1 REVERT JUMPDEST PUSH0 DUP5 MLOAD GT PUSH2 0x1008 JUMPI PUSH1 0x40 MLOAD PUSH32 0x8C379A000000000000000000000000000000000000000000000000000000000 DUP2 MSTORE PUSH1 0x4 ADD PUSH2 0xFFF SWAP1 PUSH2 0x38FA JUMP JUMPDEST PUSH1 0x40 MLOAD DUP1 SWAP2 SUB SWAP1 REVERT JUMPDEST PUSH0 DUP3 MLOAD GT PUSH2 0x104B JUMPI PUSH1 0x40 MLOAD PUSH32 0x8C379A000000000000000000000000000000000000000000000000000000000 DUP2 MSTORE PUSH1 0x4 ADD PUSH2 0x1042 SWAP1 PUSH2 0x3FB2 JUMP JUMPDEST PUSH1 0x40 MLOAD DUP1 SWAP2 SUB SWAP1 REVERT JUMPDEST DUP6 PUSH1 0x9 DUP9 DUP2 SLOAD DUP2 LT PUSH2 0x1060 JUMPI PUSH2 0x105F PUSH2 0x3DE7 JUMP JUMPDEST JUMPDEST SWAP1 PUSH0 MSTORE PUSH1 0x20 PUSH0 KECCAK256 SWAP1 PUSH1 0xE MUL ADD PUSH1 0x2 ADD SWAP1 DUP2 PUSH2 0x107B SWAP2 SWAP1 PUSH2 0x3B85 JUMP JUMPDEST POP DUP5 PUSH1 0x9 DUP9 DUP2 SLOAD DUP2 LT PUSH2 0x1091 JUMPI PUSH2 0x1090 PUSH2 0x3DE7 JUMP JUMPDEST JUMPDEST SWAP1 PUSH0 MSTORE PUSH1 0x20 PUSH0 KECCAK256 SWAP1 PUSH1 0xE MUL ADD PUSH1 0x3 ADD SWAP1 DUP2 PUSH2 0x10AC SWAP2 SWAP1 PUSH2 0x3B85 JUMP JUMPDEST POP DUP4 PUSH1 0x9 DUP9 DUP2 SLOAD DUP2 LT PUSH2 0x10C2 JUMPI PUSH2 0x10C1 PUSH2 0x3DE7 JUMP JUMPDEST JUMPDEST SWAP1 PUSH0 MSTORE PUSH1 0x20 PUSH0 KECCAK256 SWAP1 PUSH1 0xE MUL ADD PUSH1 0x4 ADD SWAP1 DUP2 PUSH2 0x10DD SWAP2 SWAP1 PUSH2 0x3B85 JUMP JUMPDEST POP DUP3 PUSH1 0x9 DUP9 DUP2 SLOAD DUP2 LT PUSH2 0x10F3 JUMPI PUSH2 0x10F2 PUSH2 0x3DE7 JUMP JUMPDEST JUMPDEST SWAP1 PUSH0 MSTORE PUSH1 0x20 PUSH0 KECCAK256 SWAP1 PUSH1 0xE MUL ADD PUSH1 0x8 ADD DUP2 SWAP1 SSTORE POP DUP2 PUSH1 0x9 DUP9 DUP2 SLOAD DUP2 LT PUSH2 0x111B JUMPI PUSH2 0x111A PUSH2 0x3DE7 JUMP JUMPDEST JUMPDEST SWAP1 PUSH0 MSTORE PUSH1 0x20 PUSH0 KECCAK256 SWAP1 PUSH1 0xE MUL ADD PUSH1 0xB ADD SWAP1 DUP2 PUSH2 0x1136 SWAP2 SWAP1 PUSH2 0x3B85 JUMP JUMPDEST POP CALLER PUSH20 0xFFFFFFFFFFFFFFFFFFFFFFFFFFFFFFFFFFFFFFFF AND PUSH32 0xAEE8E5D3BBB2F71A951B5632CEE20F7AC487B9F8AB4F66A236F7694B13AF7C6A DUP9 TIMESTAMP PUSH1 0x40 MLOAD PUSH2 0x117F SWAP3 SWAP2 SWAP1 PUSH2 0x401A JUMP JUMPDEST PUSH1 0x40 MLOAD DUP1 SWAP2 SUB SWAP1 LOG2 PUSH1 0x1 SWAP1 POP SWAP7 SWAP6 POP POP POP POP POP POP JUMP JUMPDEST PUSH0 PUSH20 0xFFFFFFFFFFFFFFFFFFFFFFFFFFFFFFFFFFFFFFFF AND DUP3 PUSH20 0xFFFFFFFFFFFFFFFFFFFFFFFFFFFFFFFFFFFFFFFF AND SUB PUSH2 0x1203 JUMPI PUSH1 0x40 MLOAD PUSH32 0x8C379A000000000000000000000000000000000000000000000000000000000 DUP2 MSTORE PUSH1 0x4 ADD PUSH2 0x11FA SWAP1 PUSH2 0x40C4 JUMP JUMPDEST PUSH1 0x40 MLOAD DUP1 SWAP2 SUB SWAP1 REVERT JUMPDEST PUSH0 DUP2 MLOAD GT PUSH2 0x1246 JUMPI PUSH1 0x40 MLOAD PUSH32 0x8C379A000000000000000000000000000000000000000000000000000000000 DUP2 MSTORE PUSH1 0x4 ADD PUSH2 0x123D SWAP1 PUSH2 0x412C JUMP JUMPDEST PUSH1 0x40 MLOAD DUP1 SWAP2 SUB SWAP1 REVERT JUMPDEST PUSH1 0x1 PUSH1 0xD PUSH0 DUP5 PUSH20 0xFFFFFFFFFFFFFFFFFFFFFFFFFFFFFFFFFFFFFFFF AND PUSH20 0xFFFFFFFFFFFFFFFFFFFFFFFFFFFFFFFFFFFFFFFF AND DUP2 MSTORE PUSH1 0x20 ADD SWAP1 DUP2 MSTORE PUSH1 0x20 ADD PUSH0 KECCAK256 PUSH0 PUSH2 0x100 EXP DUP2 SLOAD DUP2 PUSH1 0xFF MUL NOT AND SWAP1 DUP4 ISZERO ISZERO MUL OR SWAP1 SSTORE POP DUP1 PUSH1 0xE PUSH0 DUP5 PUSH20 0xFFFFFFFFFFFFFFFFFFFFFFFFFFFFFFFFFFFFFFFF AND PUSH20 0xFFFFFFFFFFFFFFFFFFFFFFFFFFFFFFFFFFFFFFFF AND DUP2 MSTORE PUSH1 0x20 ADD SWAP1 DUP2 MSTORE PUSH1 0x20 ADD PUSH0 KECCAK256 SWAP1 DUP2 PUSH2 0x12E5 SWAP2 SWAP1 PUSH2 0x3B85 JUMP JUMPDEST POP POP POP JUMP JUMPDEST PUSH0 PUSH1 0xD PUSH0 CALLER PUSH20 0xFFFFFFFFFFFFFFFFFFFFFFFFFFFFFFFFFFFFFFFF AND PUSH20 0xFFFFFFFFFFFFFFFFFFFFFFFFFFFFFFFFFFFFFFFF AND DUP2 MSTORE PUSH1 0x20 ADD SWAP1 DUP2 MSTORE PUSH1 0x20 ADD PUSH0 KECCAK256 PUSH0 SWAP1 SLOAD SWAP1 PUSH2 0x100 EXP SWAP1 DIV PUSH1 0xFF AND PUSH2 0x1374 JUMPI PUSH1 0x40 MLOAD PUSH32 0x8C379A000000000000000000000000000000000000000000000000000000000 DUP2 MSTORE PUSH1 0x4 ADD PUSH2 0x136B SWAP1 PUSH2 0x41BA JUMP JUMPDEST PUSH1 0x40 MLOAD DUP1 SWAP2 SUB SWAP1 REVERT JUMPDEST PUSH1 0xC PUSH0 DUP5 DUP2 MSTORE PUSH1 0x20 ADD SWAP1 DUP2 MSTORE PUSH1 0x20 ADD PUSH0 KECCAK256 PUSH0 SWAP1 SLOAD SWAP1 PUSH2 0x100 EXP SWAP1 DIV PUSH1 0xFF AND PUSH2 0x13D1 JUMPI PUSH1 0x40 MLOAD PUSH32 0x8C379A000000000000000000000000000000000000000000000000000000000 DUP2 MSTORE PUSH1 0x4 ADD PUSH2 0x13C8 SWAP1 PUSH2 0x4222 JUMP JUMPDEST PUSH1 0x40 MLOAD DUP1 SWAP2 SUB SWAP1 REVERT JUMPDEST PUSH1 0x9 DUP4 DUP2 SLOAD DUP2 LT PUSH2 0x13E5 JUMPI PUSH2 0x13E4 PUSH2 0x3DE7 JUMP JUMPDEST JUMPDEST SWAP1 PUSH0 MSTORE PUSH1 0x20 PUSH0 KECCAK256 SWAP1 PUSH1 0xE MUL ADD PUSH1 0xC ADD PUSH0 SWAP1 SLOAD SWAP1 PUSH2 0x100 EXP SWAP1 DIV PUSH1 0xFF AND ISZERO PUSH2 0x1441 JUMPI PUSH1 0x40 MLOAD PUSH32 0x8C379A000000000000000000000000000000000000000000000000000000000 DUP2 MSTORE PUSH1 0x4 ADD PUSH2 0x1438 SWAP1 PUSH2 0x428A JUMP JUMPDEST PUSH1 0x40 MLOAD DUP1 SWAP2 SUB SWAP1 REVERT JUMPDEST PUSH0 DUP3 MLOAD GT PUSH2 0x1484 JUMPI PUSH1 0x40 MLOAD PUSH32 0x8C379A000000000000000000000000000000000000000000000000000000000 DUP2 MSTORE PUSH1 0x4 ADD PUSH2 0x147B SWAP1 PUSH2 0x4318 JUMP JUMPDEST PUSH1 0x40 MLOAD DUP1 SWAP2 SUB SWAP1 REVERT JUMPDEST PUSH1 0x1 PUSH1 0x9 DUP5 DUP2 SLOAD DUP2 LT PUSH2 0x149A JUMPI PUSH2 0x1499 PUSH2 0x3DE7 JUMP JUMPDEST JUMPDEST SWAP1 PUSH0 MSTORE PUSH1 0x20 PUSH0 KECCAK256 SWAP1 PUSH1 0xE MUL ADD PUSH1 0xA ADD PUSH0 PUSH2 0x100 EXP DUP2 SLOAD DUP2 PUSH1 0xFF MUL NOT AND SWAP1 DUP4 PUSH1 0x5 DUP2 GT ISZERO PUSH2 0x14CA JUMPI PUSH2 0x14C9 PUSH2 0x33B0 JUMP JUMPDEST JUMPDEST MUL OR SWAP1 SSTORE POP PUSH1 0x1 PUSH1 0x9 DUP5 DUP2 SLOAD DUP2 LT PUSH2 0x14E5 JUMPI PUSH2 0x14E4 PUSH2 0x3DE7 JUMP JUMPDEST JUMPDEST SWAP1 PUSH0 MSTORE PUSH1 0x20 PUSH0 KECCAK256 SWAP1 PUSH1 0xE MUL ADD PUSH1 0xC ADD PUSH0 PUSH2 0x100 EXP DUP2 SLOAD DUP2 PUSH1 0xFF MUL NOT AND SWAP1 DUP4 ISZERO ISZERO MUL OR SWAP1 SSTORE POP DUP2 PUSH1 0x9 DUP5 DUP2 SLOAD DUP2 LT PUSH2 0x151F JUMPI PUSH2 0x151E PUSH2 0x3DE7 JUMP JUMPDEST JUMPDEST SWAP1 PUSH0 MSTORE PUSH1 0x20 PUSH0 KECCAK256 SWAP1 PUSH1 0xE MUL ADD PUSH1 0xD ADD SWAP1 DUP2 PUSH2 0x153A SWAP2 SWAP1 PUSH2 0x3B85 JUMP JUMPDEST POP PUSH1 0x1 PUSH1 0x4 DUP1 ADD PUSH0 DUP3 DUP3 SLOAD PUSH2 0x154F SWAP2 SWAP1 PUSH2 0x4336 JUMP JUMPDEST SWAP3 POP POP DUP2 SWAP1 SSTORE POP PUSH1 0x1 PUSH1 0x4 PUSH1 0x3 ADD PUSH0 DUP3 DUP3 SLOAD PUSH2 0x156B SWAP2 SWAP1 PUSH2 0x3C81 JUMP JUMPDEST SWAP3 POP POP DUP2 SWAP1 SSTORE POP CALLER PUSH20 0xFFFFFFFFFFFFFFFFFFFFFFFFFFFFFFFFFFFFFFFF AND PUSH32 0xAEE8E5D3BBB2F71A951B5632CEE20F7AC487B9F8AB4F66A236F7694B13AF7C6A DUP5 TIMESTAMP PUSH1 0x40 MLOAD PUSH2 0x15BA SWAP3 SWAP2 SWAP1 PUSH2 0x43B3 JUMP JUMPDEST PUSH1 0x40 MLOAD DUP1 SWAP2 SUB SWAP1 LOG2 PUSH1 0x1 SWAP1 POP SWAP3 SWAP2 POP POP JUMP JUMPDEST PUSH1 0xC PUSH1 0x20 MSTORE DUP1 PUSH0 MSTORE PUSH1 0x40 PUSH0 KECCAK256 PUSH0 SWAP2 POP SLOAD SWAP1 PUSH2 0x100 EXP SWAP1 DIV PUSH1 0xFF AND DUP2 JUMP JUMPDEST PUSH0 DUP1 SLOAD SWAP1 PUSH2 0x100 EXP SWAP1 DIV PUSH20 0xFFFFFFFFFFFFFFFFFFFFFFFFFFFFFFFFFFFFFFFF AND DUP2 JUMP JUMPDEST PUSH0 DUP1 CALLVALUE GT PUSH2 0x164F JUMPI PUSH1 0x40 MLOAD PUSH32 0x8C379A000000000000000000000000000000000000000000000000000000000 DUP2 MSTORE PUSH1 0x4 ADD PUSH2 0x1646 SWAP1 PUSH2 0x4437 JUMP JUMPDEST PUSH1 0x40 MLOAD DUP1 SWAP2 SUB SWAP1 REVERT JUMPDEST PUSH1 0xC PUSH0 DUP4 DUP2 MSTORE PUSH1 0x20 ADD SWAP1 DUP2 MSTORE PUSH1 0x20 ADD PUSH0 KECCAK256 PUSH0 SWAP1 SLOAD SWAP1 PUSH2 0x100 EXP SWAP1 DIV PUSH1 0xFF AND PUSH2 0x16AC JUMPI PUSH1 0x40 MLOAD PUSH32 0x8C379A000000000000000000000000000000000000000000000000000000000 DUP2 MSTORE PUSH1 0x4 ADD PUSH2 0x16A3 SWAP1 PUSH2 0x44C5 JUMP JUMPDEST PUSH1 0x40 MLOAD DUP1 SWAP2 SUB SWAP1 REVERT JUMPDEST PUSH1 0x1 ISZERO ISZERO PUSH1 0x9 DUP4 DUP2 SLOAD DUP2 LT PUSH2 0x16C4 JUMPI PUSH2 0x16C3 PUSH2 0x3DE7 JUMP JUMPDEST JUMPDEST SWAP1 PUSH0 MSTORE PUSH1 0x20 PUSH0 KECCAK256 SWAP1 PUSH1 0xE MUL ADD PUSH1 0xC ADD PUSH0 SWAP1 SLOAD SWAP1 PUSH2 0x100 EXP SWAP1 DIV PUSH1 0xFF AND ISZERO ISZERO EQ PUSH2 0x1722 JUMPI PUSH1 0x40 MLOAD PUSH32 0x8C379A000000000000000000000000000000000000000000000000000000000 DUP2 MSTORE PUSH1 0x4 ADD PUSH2 0x1719 SWAP1 PUSH2 0x4553 JUMP JUMPDEST PUSH1 0x40 MLOAD DUP1 SWAP2 SUB SWAP1 REVERT JUMPDEST PUSH1 0x1 PUSH1 0x5 DUP2 GT ISZERO PUSH2 0x1736 JUMPI PUSH2 0x1735 PUSH2 0x33B0 JUMP JUMPDEST JUMPDEST PUSH1 0x9 DUP4 DUP2 SLOAD DUP2 LT PUSH2 0x174A JUMPI PUSH2 0x1749 PUSH2 0x3DE7 JUMP JUMPDEST JUMPDEST SWAP1 PUSH0 MSTORE PUSH1 0x20 PUSH0 KECCAK256 SWAP1 PUSH1 0xE MUL ADD PUSH1 0xA ADD PUSH0 SWAP1 SLOAD SWAP1 PUSH2 0x100 EXP SWAP1 DIV PUSH1 0xFF AND PUSH1 0x5 DUP2 GT ISZERO PUSH2 0x1778 JUMPI PUSH2 0x1777 PUSH2 0x33B0 JUMP JUMPDEST JUMPDEST EQ PUSH2 0x17B8 JUMPI PUSH1 0x40 MLOAD PUSH32 0x8C379A000000000000000000000000000000000000000000000000000000000 DUP2 MSTORE PUSH1 0x4 ADD PUSH2 0x17AF SWAP1 PUSH2 0x3E5E JUMP JUMPDEST PUSH1 0x40 MLOAD DUP1 SWAP2 SUB SWAP1 REVERT JUMPDEST PUSH1 0x1 PUSH1 0x9 DUP4 DUP2 SLOAD DUP2 LT PUSH2 0x17CE JUMPI PUSH2 0x17CD PUSH2 0x3DE7 JUMP JUMPDEST JUMPDEST SWAP1 PUSH0 MSTORE PUSH1 0x20 PUSH0 KECCAK256 SWAP1 PUSH1 0xE MUL ADD PUSH1 0x9 ADD PUSH0 DUP3 DUP3 SLOAD PUSH2 0x17EB SWAP2 SWAP1 PUSH2 0x3C81 JUMP JUMPDEST SWAP3 POP POP DUP2 SWAP1 SSTORE POP PUSH1 0x1 PUSH1 0x4 PUSH1 0x1 ADD PUSH0 DUP3 DUP3 SLOAD PUSH2 0x1807 SWAP2 SWAP1 PUSH2 0x3C81 JUMP JUMPDEST SWAP3 POP POP DUP2 SWAP1 SSTORE POP CALLVALUE PUSH1 0x9 DUP4 DUP2 SLOAD DUP2 LT PUSH2 0x1823 JUMPI PUSH2 0x1822 PUSH2 0x3DE7 JUMP JUMPDEST JUMPDEST SWAP1 PUSH0 MSTORE PUSH1 0x20 PUSH0 KECCAK256 SWAP1 PUSH1 0xE MUL ADD PUSH1 0x6 ADD PUSH0 DUP3 DUP3 SLOAD PUSH2 0x1840 SWAP2 SWAP1 PUSH2 0x3C81 JUMP JUMPDEST SWAP3 POP POP DUP2 SWAP1 SSTORE POP CALLVALUE PUSH1 0x4 PUSH1 0x2 ADD PUSH0 DUP3 DUP3 SLOAD PUSH2 0x185B SWAP2 SWAP1 PUSH2 0x3C81 JUMP JUMPDEST SWAP3 POP POP DUP2 SWAP1 SSTORE POP PUSH1 0xB PUSH0 DUP4 DUP2 MSTORE PUSH1 0x20 ADD SWAP1 DUP2 MSTORE PUSH1 0x20 ADD PUSH0 KECCAK256 PUSH1 0x40 MLOAD DUP1 PUSH1 0x80 ADD PUSH1 0x40 MSTORE DUP1 CALLER PUSH20 0xFFFFFFFFFFFFFFFFFFFFFFFFFFFFFFFFFFFFFFFF AND DUP2 MSTORE PUSH1 0x20 ADD CALLVALUE DUP2 MSTORE PUSH1 0x20 ADD TIMESTAMP DUP2 MSTORE PUSH1 0x20 ADD PUSH0 ISZERO ISZERO DUP2 MSTORE POP SWAP1 DUP1 PUSH1 0x1 DUP2 SLOAD ADD DUP1 DUP3 SSTORE DUP1 SWAP2 POP POP PUSH1 0x1 SWAP1 SUB SWAP1 PUSH0 MSTORE PUSH1 0x20 PUSH0 KECCAK256 SWAP1 PUSH1 0x4 MUL ADD PUSH0 SWAP1 SWAP2 SWAP1 SWAP2 SWAP1 SWAP2 POP PUSH0 DUP3 ADD MLOAD DUP2 PUSH0 ADD PUSH0 PUSH2 0x100 EXP DUP2 SLOAD DUP2 PUSH20 0xFFFFFFFFFFFFFFFFFFFFFFFFFFFFFFFFFFFFFFFF MUL NOT AND SWAP1 DUP4 PUSH20 0xFFFFFFFFFFFFFFFFFFFFFFFFFFFFFFFFFFFFFFFF AND MUL OR SWAP1 SSTORE POP PUSH1 0x20 DUP3 ADD MLOAD DUP2 PUSH1 0x1 ADD SSTORE PUSH1 0x40 DUP3 ADD MLOAD DUP2 PUSH1 0x2 ADD SSTORE PUSH1 0x60 DUP3 ADD MLOAD DUP2 PUSH1 0x3 ADD PUSH0 PUSH2 0x100 EXP DUP2 SLOAD DUP2 PUSH1 0xFF MUL NOT AND SWAP1 DUP4 ISZERO ISZERO MUL OR SWAP1 SSTORE POP POP POP CALLER PUSH20 0xFFFFFFFFFFFFFFFFFFFFFFFFFFFFFFFFFFFFFFFF AND PUSH32 0xAEE8E5D3BBB2F71A951B5632CEE20F7AC487B9F8AB4F66A236F7694B13AF7C6A DUP4 TIMESTAMP PUSH1 0x40 MLOAD PUSH2 0x1993 SWAP3 SWAP2 SWAP1 PUSH2 0x45BB JUMP JUMPDEST PUSH1 0x40 MLOAD DUP1 SWAP2 SUB SWAP1 LOG2 PUSH1 0x9 DUP3 DUP2 SLOAD DUP2 LT PUSH2 0x19AF JUMPI PUSH2 0x19AE PUSH2 0x3DE7 JUMP JUMPDEST JUMPDEST SWAP1 PUSH0 MSTORE PUSH1 0x20 PUSH0 KECCAK256 SWAP1 PUSH1 0xE MUL ADD PUSH1 0x5 ADD SLOAD PUSH1 0x9 DUP4 DUP2 SLOAD DUP2 LT PUSH2 0x19D3 JUMPI PUSH2 0x19D2 PUSH2 0x3DE7 JUMP JUMPDEST JUMPDEST SWAP1 PUSH0 MSTORE PUSH1 0x20 PUSH0 KECCAK256 SWAP1 PUSH1 0xE MUL ADD PUSH1 0x6 ADD SLOAD LT PUSH2 0x1A80 JUMPI PUSH1 0x2 PUSH1 0x9 DUP4 DUP2 SLOAD DUP2 LT PUSH2 0x19FE JUMPI PUSH2 0x19FD PUSH2 0x3DE7 JUMP JUMPDEST JUMPDEST SWAP1 PUSH0 MSTORE PUSH1 0x20 PUSH0 KECCAK256 SWAP1 PUSH1 0xE MUL ADD PUSH1 0xA ADD PUSH0 PUSH2 0x100 EXP DUP2 SLOAD DUP2 PUSH1 0xFF MUL NOT AND SWAP1 DUP4 PUSH1 0x5 DUP2 GT ISZERO PUSH2 0x1A2E JUMPI PUSH2 0x1A2D PUSH2 0x33B0 JUMP JUMPDEST JUMPDEST MUL OR SWAP1 SSTORE POP PUSH1 0x9 DUP3 DUP2 SLOAD DUP2 LT PUSH2 0x1A47 JUMPI PUSH2 0x1A46 PUSH2 0x3DE7 JUMP JUMPDEST JUMPDEST SWAP1 PUSH0 MSTORE PUSH1 0x20 PUSH0 KECCAK256 SWAP1 PUSH1 0xE MUL ADD PUSH1 0x6 ADD SLOAD PUSH1 0x3 PUSH0 DUP3 DUP3 SLOAD PUSH2 0x1A67 SWAP2 SWAP1 PUSH2 0x3C81 JUMP JUMPDEST SWAP3 POP POP DUP2 SWAP1 SSTORE POP PUSH2 0x1A77 DUP3 PUSH2 0x2928 JUMP JUMPDEST PUSH1 0x1 SWAP1 POP PUSH2 0x1B0C JUMP JUMPDEST PUSH1 0x9 DUP3 DUP2 SLOAD DUP2 LT PUSH2 0x1A94 JUMPI PUSH2 0x1A93 PUSH2 0x3DE7 JUMP JUMPDEST JUMPDEST SWAP1 PUSH0 MSTORE PUSH1 0x20 PUSH0 KECCAK256 SWAP1 PUSH1 0xE MUL ADD PUSH1 0x8 ADD SLOAD TIMESTAMP LT PUSH2 0x1B07 JUMPI PUSH1 0x3 PUSH1 0x9 DUP4 DUP2 SLOAD DUP2 LT PUSH2 0x1AC0 JUMPI PUSH2 0x1ABF PUSH2 0x3DE7 JUMP JUMPDEST JUMPDEST SWAP1 PUSH0 MSTORE PUSH1 0x20 PUSH0 KECCAK256 SWAP1 PUSH1 0xE MUL ADD PUSH1 0xA ADD PUSH0 PUSH2 0x100 EXP DUP2 SLOAD DUP2 PUSH1 0xFF MUL NOT AND SWAP1 DUP4 PUSH1 0x5 DUP2 GT ISZERO PUSH2 0x1AF0 JUMPI PUSH2 0x1AEF PUSH2 0x33B0 JUMP JUMPDEST JUMPDEST MUL OR SWAP1 SSTORE POP PUSH2 0x1AFE DUP3 PUSH2 0x27AB JUMP JUMPDEST PUSH1 0x1 SWAP1 POP PUSH2 0x1B0C JUMP JUMPDEST PUSH1 0x1 SWAP1 POP JUMPDEST SWAP2 SWAP1 POP JUMP JUMPDEST PUSH0 PUSH1 0x3 PUSH1 0x5 DUP2 GT ISZERO PUSH2 0x1B26 JUMPI PUSH2 0x1B25 PUSH2 0x33B0 JUMP JUMPDEST JUMPDEST PUSH1 0x9 DUP4 DUP2 SLOAD DUP2 LT PUSH2 0x1B3A JUMPI PUSH2 0x1B39 PUSH2 0x3DE7 JUMP JUMPDEST JUMPDEST SWAP1 PUSH0 MSTORE PUSH1 0x20 PUSH0 KECCAK256 SWAP1 PUSH1 0xE MUL ADD PUSH1 0xA ADD PUSH0 SWAP1 SLOAD SWAP1 PUSH2 0x100 EXP SWAP1 DIV PUSH1 0xFF AND PUSH1 0x5 DUP2 GT ISZERO PUSH2 0x1B68 JUMPI PUSH2 0x1B67 PUSH2 0x33B0 JUMP JUMPDEST JUMPDEST EQ ISZERO DUP1 PUSH2 0x1BC9 JUMPI POP PUSH1 0x4 PUSH1 0x5 DUP2 GT ISZERO PUSH2 0x1B84 JUMPI PUSH2 0x1B83 PUSH2 0x33B0 JUMP JUMPDEST JUMPDEST PUSH1 0x9 DUP4 DUP2 SLOAD DUP2 LT PUSH2 0x1B98 JUMPI PUSH2 0x1B97 PUSH2 0x3DE7 JUMP JUMPDEST JUMPDEST SWAP1 PUSH0 MSTORE PUSH1 0x20 PUSH0 KECCAK256 SWAP1 PUSH1 0xE MUL ADD PUSH1 0xA ADD PUSH0 SWAP1 SLOAD SWAP1 PUSH2 0x100 EXP SWAP1 DIV PUSH1 0xFF AND PUSH1 0x5 DUP2 GT ISZERO PUSH2 0x1BC6 JUMPI PUSH2 0x1BC5 PUSH2 0x33B0 JUMP JUMPDEST JUMPDEST EQ ISZERO JUMPDEST PUSH2 0x1C08 JUMPI PUSH1 0x40 MLOAD PUSH32 0x8C379A000000000000000000000000000000000000000000000000000000000 DUP2 MSTORE PUSH1 0x4 ADD PUSH2 0x1BFF SWAP1 PUSH2 0x4665 JUMP JUMPDEST PUSH1 0x40 MLOAD DUP1 SWAP2 SUB SWAP1 REVERT JUMPDEST PUSH1 0x3 PUSH1 0x9 DUP4 DUP2 SLOAD DUP2 LT PUSH2 0x1C1E JUMPI PUSH2 0x1C1D PUSH2 0x3DE7 JUMP JUMPDEST JUMPDEST SWAP1 PUSH0 MSTORE PUSH1 0x20 PUSH0 KECCAK256 SWAP1 PUSH1 0xE MUL ADD PUSH1 0xA ADD PUSH0 PUSH2 0x100 EXP DUP2 SLOAD DUP2 PUSH1 0xFF MUL NOT AND SWAP1 DUP4 PUSH1 0x5 DUP2 GT ISZERO PUSH2 0x1C4E JUMPI PUSH2 0x1C4D PUSH2 0x33B0 JUMP JUMPDEST JUMPDEST MUL OR SWAP1 SSTORE POP PUSH2 0x1C5C DUP3 PUSH2 0x27AB JUMP JUMPDEST PUSH1 0x1 SWAP1 POP SWAP2 SWAP1 POP JUMP JUMPDEST PUSH0 PUSH1 0x2 PUSH1 0x5 DUP2 GT ISZERO PUSH2 0x1C7A JUMPI PUSH2 0x1C79 PUSH2 0x33B0 JUMP JUMPDEST JUMPDEST PUSH1 0x9 DUP4 DUP2 SLOAD DUP2 LT PUSH2 0x1C8E JUMPI PUSH2 0x1C8D PUSH2 0x3DE7 JUMP JUMPDEST JUMPDEST SWAP1 PUSH0 MSTORE PUSH1 0x20 PUSH0 KECCAK256 SWAP1 PUSH1 0xE MUL ADD PUSH1 0xA ADD PUSH0 SWAP1 SLOAD SWAP1 PUSH2 0x100 EXP SWAP1 DIV PUSH1 0xFF AND PUSH1 0x5 DUP2 GT ISZERO PUSH2 0x1CBC JUMPI PUSH2 0x1CBB PUSH2 0x33B0 JUMP JUMPDEST JUMPDEST EQ PUSH2 0x1CFC JUMPI PUSH1 0x40 MLOAD PUSH32 0x8C379A000000000000000000000000000000000000000000000000000000000 DUP2 MSTORE PUSH1 0x4 ADD PUSH2 0x1CF3 SWAP1 PUSH2 0x46CD JUMP JUMPDEST PUSH1 0x40 MLOAD DUP1 SWAP2 SUB SWAP1 REVERT JUMPDEST PUSH1 0x9 DUP3 DUP2 SLOAD DUP2 LT PUSH2 0x1D10 JUMPI PUSH2 0x1D0F PUSH2 0x3DE7 JUMP JUMPDEST JUMPDEST SWAP1 PUSH0 MSTORE PUSH1 0x20 PUSH0 KECCAK256 SWAP1 PUSH1 0xE MUL ADD PUSH1 0x1 ADD PUSH0 SWAP1 SLOAD SWAP1 PUSH2 0x100 EXP SWAP1 DIV PUSH20 0xFFFFFFFFFFFFFFFFFFFFFFFFFFFFFFFFFFFFFFFF AND PUSH20 0xFFFFFFFFFFFFFFFFFFFFFFFFFFFFFFFFFFFFFFFF AND CALLER PUSH20 0xFFFFFFFFFFFFFFFFFFFFFFFFFFFFFFFFFFFFFFFF AND EQ DUP1 PUSH2 0x1DC2 JUMPI POP PUSH0 DUP1 SLOAD SWAP1 PUSH2 0x100 EXP SWAP1 DIV PUSH20 0xFFFFFFFFFFFFFFFFFFFFFFFFFFFFFFFFFFFFFFFF AND PUSH20 0xFFFFFFFFFFFFFFFFFFFFFFFFFFFFFFFFFFFFFFFF AND CALLER PUSH20 0xFFFFFFFFFFFFFFFFFFFFFFFFFFFFFFFFFFFFFFFF AND EQ JUMPDEST PUSH2 0x1E01 JUMPI PUSH1 0x40 MLOAD PUSH32 0x8C379A000000000000000000000000000000000000000000000000000000000 DUP2 MSTORE PUSH1 0x4 ADD PUSH2 0x1DF8 SWAP1 PUSH2 0x3EC6 JUMP JUMPDEST PUSH1 0x40 MLOAD DUP1 SWAP2 SUB SWAP1 REVERT JUMPDEST PUSH2 0x1E0A DUP3 PUSH2 0x2928 JUMP JUMPDEST PUSH1 0x1 SWAP1 POP SWAP2 SWAP1 POP JUMP JUMPDEST PUSH1 0x3 SLOAD DUP2 JUMP JUMPDEST PUSH1 0x60 PUSH1 0xB PUSH0 DUP4 DUP2 MSTORE PUSH1 0x20 ADD SWAP1 DUP2 MSTORE PUSH1 0x20 ADD PUSH0 KECCAK256 DUP1 SLOAD DUP1 PUSH1 0x20 MUL PUSH1 0x20 ADD PUSH1 0x40 MLOAD SWAP1 DUP2 ADD PUSH1 0x40 MSTORE DUP1 SWAP3 SWAP2 SWAP1 DUP2 DUP2 MSTORE PUSH1 0x20 ADD PUSH0 SWAP1 JUMPDEST DUP3 DUP3 LT ISZERO PUSH2 0x1EFD JUMPI DUP4 DUP3 SWAP1 PUSH0 MSTORE PUSH1 0x20 PUSH0 KECCAK256 SWAP1 PUSH1 0x4 MUL ADD PUSH1 0x40 MLOAD DUP1 PUSH1 0x80 ADD PUSH1 0x40 MSTORE SWAP1 DUP2 PUSH0 DUP3 ADD PUSH0 SWAP1 SLOAD SWAP1 PUSH2 0x100 EXP SWAP1 DIV PUSH20 0xFFFFFFFFFFFFFFFFFFFFFFFFFFFFFFFFFFFFFFFF AND PUSH20 0xFFFFFFFFFFFFFFFFFFFFFFFFFFFFFFFFFFFFFFFF AND PUSH20 0xFFFFFFFFFFFFFFFFFFFFFFFFFFFFFFFFFFFFFFFF AND DUP2 MSTORE PUSH1 0x20 ADD PUSH1 0x1 DUP3 ADD SLOAD DUP2 MSTORE PUSH1 0x20 ADD PUSH1 0x2 DUP3 ADD SLOAD DUP2 MSTORE PUSH1 0x20 ADD PUSH1 0x3 DUP3 ADD PUSH0 SWAP1 SLOAD SWAP1 PUSH2 0x100 EXP SWAP1 DIV PUSH1 0xFF AND ISZERO ISZERO ISZERO ISZERO DUP2 MSTORE POP POP DUP2 MSTORE PUSH1 0x20 ADD SWAP1 PUSH1 0x1 ADD SWAP1 PUSH2 0x1E4B JUMP JUMPDEST POP POP POP POP SWAP1 POP SWAP2 SWAP1 POP JUMP JUMPDEST PUSH1 0x1 SLOAD DUP2 JUMP JUMPDEST PUSH1 0x4 DUP1 PUSH0 ADD SLOAD SWAP1 DUP1 PUSH1 0x1 ADD SLOAD SWAP1 DUP1 PUSH1 0x2 ADD SLOAD SWAP1 DUP1 PUSH1 0x3 ADD SLOAD SWAP1 DUP1 PUSH1 0x4 ADD SLOAD SWAP1 POP DUP6 JUMP JUMPDEST PUSH1 0x60 PUSH1 0x9 DUP1 SLOAD DUP1 PUSH1 0x20 MUL PUSH1 0x20 ADD PUSH1 0x40 MLOAD SWAP1 DUP2 ADD PUSH1 0x40 MSTORE DUP1 SWAP3 SWAP2 SWAP1 DUP2 DUP2 MSTORE PUSH1 0x20 ADD PUSH0 SWAP1 JUMPDEST DUP3 DUP3 LT ISZERO PUSH2 0x2339 JUMPI DUP4 DUP3 SWAP1 PUSH0 MSTORE PUSH1 0x20 PUSH0 KECCAK256 SWAP1 PUSH1 0xE MUL ADD PUSH1 0x40 MLOAD DUP1 PUSH2 0x1C0 ADD PUSH1 0x40 MSTORE SWAP1 DUP2 PUSH0 DUP3 ADD SLOAD DUP2 MSTORE PUSH1 0x20 ADD PUSH1 0x1 DUP3 ADD PUSH0 SWAP1 SLOAD SWAP1 PUSH2 0x100 EXP SWAP1 DIV PUSH20 0xFFFFFFFFFFFFFFFFFFFFFFFFFFFFFFFFFFFFFFFF AND PUSH20 0xFFFFFFFFFFFFFFFFFFFFFFFFFFFFFFFFFFFFFFFF AND PUSH20 0xFFFFFFFFFFFFFFFFFFFFFFFFFFFFFFFFFFFFFFFF AND DUP2 MSTORE PUSH1 0x20 ADD PUSH1 0x2 DUP3 ADD DUP1 SLOAD PUSH2 0x1FE4 SWAP1 PUSH2 0x37B0 JUMP JUMPDEST DUP1 PUSH1 0x1F ADD PUSH1 0x20 DUP1 SWAP2 DIV MUL PUSH1 0x20 ADD PUSH1 0x40 MLOAD SWAP1 DUP2 ADD PUSH1 0x40 MSTORE DUP1 SWAP3 SWAP2 SWAP1 DUP2 DUP2 MSTORE PUSH1 0x20 ADD DUP3 DUP1 SLOAD PUSH2 0x2010 SWAP1 PUSH2 0x37B0 JUMP JUMPDEST DUP1 ISZERO PUSH2 0x205B JUMPI DUP1 PUSH1 0x1F LT PUSH2 0x2032 JUMPI PUSH2 0x100 DUP1 DUP4 SLOAD DIV MUL DUP4 MSTORE SWAP2 PUSH1 0x20 ADD SWAP2 PUSH2 0x205B JUMP JUMPDEST DUP3 ADD SWAP2 SWAP1 PUSH0 MSTORE PUSH1 0x20 PUSH0 KECCAK256 SWAP1 JUMPDEST DUP2 SLOAD DUP2 MSTORE SWAP1 PUSH1 0x1 ADD SWAP1 PUSH1 0x20 ADD DUP1 DUP4 GT PUSH2 0x203E JUMPI DUP3 SWAP1 SUB PUSH1 0x1F AND DUP3 ADD SWAP2 JUMPDEST POP POP POP POP POP DUP2 MSTORE PUSH1 0x20 ADD PUSH1 0x3 DUP3 ADD DUP1 SLOAD PUSH2 0x2074 SWAP1 PUSH2 0x37B0 JUMP JUMPDEST DUP1 PUSH1 0x1F ADD PUSH1 0x20 DUP1 SWAP2 DIV MUL PUSH1 0x20 ADD PUSH1 0x40 MLOAD SWAP1 DUP2 ADD PUSH1 0x40 MSTORE DUP1 SWAP3 SWAP2 SWAP1 DUP2 DUP2 MSTORE PUSH1 0x20 ADD DUP3 DUP1 SLOAD PUSH2 0x20A0 SWAP1 PUSH2 0x37B0 JUMP JUMPDEST DUP1 ISZERO PUSH2 0x20EB JUMPI DUP1 PUSH1 0x1F LT PUSH2 0x20C2 JUMPI PUSH2 0x100 DUP1 DUP4 SLOAD DIV MUL DUP4 MSTORE SWAP2 PUSH1 0x20 ADD SWAP2 PUSH2 0x20EB JUMP JUMPDEST DUP3 ADD SWAP2 SWAP1 PUSH0 MSTORE PUSH1 0x20 PUSH0 KECCAK256 SWAP1 JUMPDEST DUP2 SLOAD DUP2 MSTORE SWAP1 PUSH1 0x1 ADD SWAP1 PUSH1 0x20 ADD DUP1 DUP4 GT PUSH2 0x20CE JUMPI DUP3 SWAP1 SUB PUSH1 0x1F AND DUP3 ADD SWAP2 JUMPDEST POP POP POP POP POP DUP2 MSTORE PUSH1 0x20 ADD PUSH1 0x4 DUP3 ADD DUP1 SLOAD PUSH2 0x2104 SWAP1 PUSH2 0x37B0 JUMP JUMPDEST DUP1 PUSH1 0x1F ADD PUSH1 0x20 DUP1 SWAP2 DIV MUL PUSH1 0x20 ADD PUSH1 0x40 MLOAD SWAP1 DUP2 ADD PUSH1 0x40 MSTORE DUP1 SWAP3 SWAP2 SWAP1 DUP2 DUP2 MSTORE PUSH1 0x20 ADD DUP3 DUP1 SLOAD PUSH2 0x2130 SWAP1 PUSH2 0x37B0 JUMP JUMPDEST DUP1 ISZERO PUSH2 0x217B JUMPI DUP1 PUSH1 0x1F LT PUSH2 0x2152 JUMPI PUSH2 0x100 DUP1 DUP4 SLOAD DIV MUL DUP4 MSTORE SWAP2 PUSH1 0x20 ADD SWAP2 PUSH2 0x217B JUMP JUMPDEST DUP3 ADD SWAP2 SWAP1 PUSH0 MSTORE PUSH1 0x20 PUSH0 KECCAK256 SWAP1 JUMPDEST DUP2 SLOAD DUP2 MSTORE SWAP1 PUSH1 0x1 ADD SWAP1 PUSH1 0x20 ADD DUP1 DUP4 GT PUSH2 0x215E JUMPI DUP3 SWAP1 SUB PUSH1 0x1F AND DUP3 ADD SWAP2 JUMPDEST POP POP POP POP POP DUP2 MSTORE PUSH1 0x20 ADD PUSH1 0x5 DUP3 ADD SLOAD DUP2 MSTORE PUSH1 0x20 ADD PUSH1 0x6 DUP3 ADD SLOAD DUP2 MSTORE PUSH1 0x20 ADD PUSH1 0x7 DUP3 ADD SLOAD DUP2 MSTORE PUSH1 0x20 ADD PUSH1 0x8 DUP3 ADD SLOAD DUP2 MSTORE PUSH1 0x20 ADD PUSH1 0x9 DUP3 ADD SLOAD DUP2 MSTORE PUSH1 0x20 ADD PUSH1 0xA DUP3 ADD PUSH0 SWAP1 SLOAD SWAP1 PUSH2 0x100 EXP SWAP1 DIV PUSH1 0xFF AND PUSH1 0x5 DUP2 GT ISZERO PUSH2 0x21DA JUMPI PUSH2 0x21D9 PUSH2 0x33B0 JUMP JUMPDEST JUMPDEST PUSH1 0x5 DUP2 GT ISZERO PUSH2 0x21EC JUMPI PUSH2 0x21EB PUSH2 0x33B0 JUMP JUMPDEST JUMPDEST DUP2 MSTORE PUSH1 0x20 ADD PUSH1 0xB DUP3 ADD DUP1 SLOAD PUSH2 0x2200 SWAP1 PUSH2 0x37B0 JUMP JUMPDEST DUP1 PUSH1 0x1F ADD PUSH1 0x20 DUP1 SWAP2 DIV MUL PUSH1 0x20 ADD PUSH1 0x40 MLOAD SWAP1 DUP2 ADD PUSH1 0x40 MSTORE DUP1 SWAP3 SWAP2 SWAP1 DUP2 DUP2 MSTORE PUSH1 0x20 ADD DUP3 DUP1 SLOAD PUSH2 0x222C SWAP1 PUSH2 0x37B0 JUMP JUMPDEST DUP1 ISZERO PUSH2 0x2277 JUMPI DUP1 PUSH1 0x1F LT PUSH2 0x224E JUMPI PUSH2 0x100 DUP1 DUP4 SLOAD DIV MUL DUP4 MSTORE SWAP2 PUSH1 0x20 ADD SWAP2 PUSH2 0x2277 JUMP JUMPDEST DUP3 ADD SWAP2 SWAP1 PUSH0 MSTORE PUSH1 0x20 PUSH0 KECCAK256 SWAP1 JUMPDEST DUP2 SLOAD DUP2 MSTORE SWAP1 PUSH1 0x1 ADD SWAP1 PUSH1 0x20 ADD DUP1 DUP4 GT PUSH2 0x225A JUMPI DUP3 SWAP1 SUB PUSH1 0x1F AND DUP3 ADD SWAP2 JUMPDEST POP POP POP POP POP DUP2 MSTORE PUSH1 0x20 ADD PUSH1 0xC DUP3 ADD PUSH0 SWAP1 SLOAD SWAP1 PUSH2 0x100 EXP SWAP1 DIV PUSH1 0xFF AND ISZERO ISZERO ISZERO ISZERO DUP2 MSTORE PUSH1 0x20 ADD PUSH1 0xD DUP3 ADD DUP1 SLOAD PUSH2 0x22AA SWAP1 PUSH2 0x37B0 JUMP JUMPDEST DUP1 PUSH1 0x1F ADD PUSH1 0x20 DUP1 SWAP2 DIV MUL PUSH1 0x20 ADD PUSH1 0x40 MLOAD SWAP1 DUP2 ADD PUSH1 0x40 MSTORE DUP1 SWAP3 SWAP2 SWAP1 DUP2 DUP2 MSTORE PUSH1 0x20 ADD DUP3 DUP1 SLOAD PUSH2 0x22D6 SWAP1 PUSH2 0x37B0 JUMP JUMPDEST DUP1 ISZERO PUSH2 0x2321 JUMPI DUP1 PUSH1 0x1F LT PUSH2 0x22F8 JUMPI PUSH2 0x100 DUP1 DUP4 SLOAD DIV MUL DUP4 MSTORE SWAP2 PUSH1 0x20 ADD SWAP2 PUSH2 0x2321 JUMP JUMPDEST DUP3 ADD SWAP2 SWAP1 PUSH0 MSTORE PUSH1 0x20 PUSH0 KECCAK256 SWAP1 JUMPDEST DUP2 SLOAD DUP2 MSTORE SWAP1 PUSH1 0x1 ADD SWAP1 PUSH1 0x20 ADD DUP1 DUP4 GT PUSH2 0x2304 JUMPI DUP3 SWAP1 SUB PUSH1 0x1F AND DUP3 ADD SWAP2 JUMPDEST POP POP POP POP POP DUP2 MSTORE POP POP DUP2 MSTORE PUSH1 0x20 ADD SWAP1 PUSH1 0x1 ADD SWAP1 PUSH2 0x1F54 JUMP JUMPDEST POP POP POP POP SWAP1 POP SWAP1 JUMP JUMPDEST PUSH2 0x234A PUSH2 0x2B3D JUMP JUMPDEST PUSH1 0xC PUSH0 DUP4 DUP2 MSTORE PUSH1 0x20 ADD SWAP1 DUP2 MSTORE PUSH1 0x20 ADD PUSH0 KECCAK256 PUSH0 SWAP1 SLOAD SWAP1 PUSH2 0x100 EXP SWAP1 DIV PUSH1 0xFF AND PUSH2 0x23A7 JUMPI PUSH1 0x40 MLOAD PUSH32 0x8C379A000000000000000000000000000000000000000000000000000000000 DUP2 MSTORE PUSH1 0x4 ADD PUSH2 0x239E SWAP1 PUSH2 0x4222 JUMP JUMPDEST PUSH1 0x40 MLOAD DUP1 SWAP2 SUB SWAP1 REVERT JUMPDEST PUSH1 0x9 DUP3 DUP2 SLOAD DUP2 LT PUSH2 0x23BB JUMPI PUSH2 0x23BA PUSH2 0x3DE7 JUMP JUMPDEST JUMPDEST SWAP1 PUSH0 MSTORE PUSH1 0x20 PUSH0 KECCAK256 SWAP1 PUSH1 0xE MUL ADD PUSH1 0x40 MLOAD DUP1 PUSH2 0x1C0 ADD PUSH1 0x40 MSTORE SWAP1 DUP2 PUSH0 DUP3 ADD SLOAD DUP2 MSTORE PUSH1 0x20 ADD PUSH1 0x1 DUP3 ADD PUSH0 SWAP1 SLOAD SWAP1 PUSH2 0x100 EXP SWAP1 DIV PUSH20 0xFFFFFFFFFFFFFFFFFFFFFFFFFFFFFFFFFFFFFFFF AND PUSH20 0xFFFFFFFFFFFFFFFFFFFFFFFFFFFFFFFFFFFFFFFF AND PUSH20 0xFFFFFFFFFFFFFFFFFFFFFFFFFFFFFFFFFFFFFFFF AND DUP2 MSTORE PUSH1 0x20 ADD PUSH1 0x2 DUP3 ADD DUP1 SLOAD PUSH2 0x2441 SWAP1 PUSH2 0x37B0 JUMP JUMPDEST DUP1 PUSH1 0x1F ADD PUSH1 0x20 DUP1 SWAP2 DIV MUL PUSH1 0x20 ADD PUSH1 0x40 MLOAD SWAP1 DUP2 ADD PUSH1 0x40 MSTORE DUP1 SWAP3 SWAP2 SWAP1 DUP2 DUP2 MSTORE PUSH1 0x20 ADD DUP3 DUP1 SLOAD PUSH2 0x246D SWAP1 PUSH2 0x37B0 JUMP JUMPDEST DUP1 ISZERO PUSH2 0x24B8 JUMPI DUP1 PUSH1 0x1F LT PUSH2 0x248F JUMPI PUSH2 0x100 DUP1 DUP4 SLOAD DIV MUL DUP4 MSTORE SWAP2 PUSH1 0x20 ADD SWAP2 PUSH2 0x24B8 JUMP JUMPDEST DUP3 ADD SWAP2 SWAP1 PUSH0 MSTORE PUSH1 0x20 PUSH0 KECCAK256 SWAP1 JUMPDEST DUP2 SLOAD DUP2 MSTORE SWAP1 PUSH1 0x1 ADD SWAP1 PUSH1 0x20 ADD DUP1 DUP4 GT PUSH2 0x249B JUMPI DUP3 SWAP1 SUB PUSH1 0x1F AND DUP3 ADD SWAP2 JUMPDEST POP POP POP POP POP DUP2 MSTORE PUSH1 0x20 ADD PUSH1 0x3 DUP3 ADD DUP1 SLOAD PUSH2 0x24D1 SWAP1 PUSH2 0x37B0 JUMP JUMPDEST DUP1 PUSH1 0x1F ADD PUSH1 0x20 DUP1 SWAP2 DIV MUL PUSH1 0x20 ADD PUSH1 0x40 MLOAD SWAP1 DUP2 ADD PUSH1 0x40 MSTORE DUP1 SWAP3 SWAP2 SWAP1 DUP2 DUP2 MSTORE PUSH1 0x20 ADD DUP3 DUP1 SLOAD PUSH2 0x24FD SWAP1 PUSH2 0x37B0 JUMP JUMPDEST DUP1 ISZERO PUSH2 0x2548 JUMPI DUP1 PUSH1 0x1F LT PUSH2 0x251F JUMPI PUSH2 0x100 DUP1 DUP4 SLOAD DIV MUL DUP4 MSTORE SWAP2 PUSH1 0x20 ADD SWAP2 PUSH2 0x2548 JUMP JUMPDEST DUP3 ADD SWAP2 SWAP1 PUSH0 MSTORE PUSH1 0x20 PUSH0 KECCAK256 SWAP1 JUMPDEST DUP2 SLOAD DUP2 MSTORE SWAP1 PUSH1 0x1 ADD SWAP1 PUSH1 0x20 ADD DUP1 DUP4 GT PUSH2 0x252B JUMPI DUP3 SWAP1 SUB PUSH1 0x1F AND DUP3 ADD SWAP2 JUMPDEST POP POP POP POP POP DUP2 MSTORE PUSH1 0x20 ADD PUSH1 0x4 DUP3 ADD DUP1 SLOAD PUSH2 0x2561 SWAP1 PUSH2 0x37B0 JUMP JUMPDEST DUP1 PUSH1 0x1F ADD PUSH1 0x20 DUP1 SWAP2 DIV MUL PUSH1 0x20 ADD PUSH1 0x40 MLOAD SWAP1 DUP2 ADD PUSH1 0x40 MSTORE DUP1 SWAP3 SWAP2 SWAP1 DUP2 DUP2 MSTORE PUSH1 0x20 ADD DUP3 DUP1 SLOAD PUSH2 0x258D SWAP1 PUSH2 0x37B0 JUMP JUMPDEST DUP1 ISZERO PUSH2 0x25D8 JUMPI DUP1 PUSH1 0x1F LT PUSH2 0x25AF JUMPI PUSH2 0x100 DUP1 DUP4 SLOAD DIV MUL DUP4 MSTORE SWAP2 PUSH1 0x20 ADD SWAP2 PUSH2 0x25D8 JUMP JUMPDEST DUP3 ADD SWAP2 SWAP1 PUSH0 MSTORE PUSH1 0x20 PUSH0 KECCAK256 SWAP1 JUMPDEST DUP2 SLOAD DUP2 MSTORE SWAP1 PUSH1 0x1 ADD SWAP1 PUSH1 0x20 ADD DUP1 DUP4 GT PUSH2 0x25BB JUMPI DUP3 SWAP1 SUB PUSH1 0x1F AND DUP3 ADD SWAP2 JUMPDEST POP POP POP POP POP DUP2 MSTORE PUSH1 0x20 ADD PUSH1 0x5 DUP3 ADD SLOAD DUP2 MSTORE PUSH1 0x20 ADD PUSH1 0x6 DUP3 ADD SLOAD DUP2 MSTORE PUSH1 0x20 ADD PUSH1 0x7 DUP3 ADD SLOAD DUP2 MSTORE PUSH1 0x20 ADD PUSH1 0x8 DUP3 ADD SLOAD DUP2 MSTORE PUSH1 0x20 ADD PUSH1 0x9 DUP3 ADD SLOAD DUP2 MSTORE PUSH1 0x20 ADD PUSH1 0xA DUP3 ADD PUSH0 SWAP1 SLOAD SWAP1 PUSH2 0x100 EXP SWAP1 DIV PUSH1 0xFF AND PUSH1 0x5 DUP2 GT ISZERO PUSH2 0x2637 JUMPI PUSH2 0x2636 PUSH2 0x33B0 JUMP JUMPDEST JUMPDEST PUSH1 0x5 DUP2 GT ISZERO PUSH2 0x2649 JUMPI PUSH2 0x2648 PUSH2 0x33B0 JUMP JUMPDEST JUMPDEST DUP2 MSTORE PUSH1 0x20 ADD PUSH1 0xB DUP3 ADD DUP1 SLOAD PUSH2 0x265D SWAP1 PUSH2 0x37B0 JUMP JUMPDEST DUP1 PUSH1 0x1F ADD PUSH1 0x20 DUP1 SWAP2 DIV MUL PUSH1 0x20 ADD PUSH1 0x40 MLOAD SWAP1 DUP2 ADD PUSH1 0x40 MSTORE DUP1 SWAP3 SWAP2 SWAP1 DUP2 DUP2 MSTORE PUSH1 0x20 ADD DUP3 DUP1 SLOAD PUSH2 0x2689 SWAP1 PUSH2 0x37B0 JUMP JUMPDEST DUP1 ISZERO PUSH2 0x26D4 JUMPI DUP1 PUSH1 0x1F LT PUSH2 0x26AB JUMPI PUSH2 0x100 DUP1 DUP4 SLOAD DIV MUL DUP4 MSTORE SWAP2 PUSH1 0x20 ADD SWAP2 PUSH2 0x26D4 JUMP JUMPDEST DUP3 ADD SWAP2 SWAP1 PUSH0 MSTORE PUSH1 0x20 PUSH0 KECCAK256 SWAP1 JUMPDEST DUP2 SLOAD DUP2 MSTORE SWAP1 PUSH1 0x1 ADD SWAP1 PUSH1 0x20 ADD DUP1 DUP4 GT PUSH2 0x26B7 JUMPI DUP3 SWAP1 SUB PUSH1 0x1F AND DUP3 ADD SWAP2 JUMPDEST POP POP POP POP POP DUP2 MSTORE PUSH1 0x20 ADD PUSH1 0xC DUP3 ADD PUSH0 SWAP1 SLOAD SWAP1 PUSH2 0x100 EXP SWAP1 DIV PUSH1 0xFF AND ISZERO ISZERO ISZERO ISZERO DUP2 MSTORE PUSH1 0x20 ADD PUSH1 0xD DUP3 ADD DUP1 SLOAD PUSH2 0x2707 SWAP1 PUSH2 0x37B0 JUMP JUMPDEST DUP1 PUSH1 0x1F ADD PUSH1 0x20 DUP1 SWAP2 DIV MUL PUSH1 0x20 ADD PUSH1 0x40 MLOAD SWAP1 DUP2 ADD PUSH1 0x40 MSTORE DUP1 SWAP3 SWAP2 SWAP1 DUP2 DUP2 MSTORE PUSH1 0x20 ADD DUP3 DUP1 SLOAD PUSH2 0x2733 SWAP1 PUSH2 0x37B0 JUMP JUMPDEST DUP1 ISZERO PUSH2 0x277E JUMPI DUP1 PUSH1 0x1F LT PUSH2 0x2755 JUMPI PUSH2 0x100 DUP1 DUP4 SLOAD DIV MUL DUP4 MSTORE SWAP2 PUSH1 0x20 ADD SWAP2 PUSH2 0x277E JUMP JUMPDEST DUP3 ADD SWAP2 SWAP1 PUSH0 MSTORE PUSH1 0x20 PUSH0 KECCAK256 SWAP1 JUMPDEST DUP2 SLOAD DUP2 MSTORE SWAP1 PUSH1 0x1 ADD SWAP1 PUSH1 0x20 ADD DUP1 DUP4 GT PUSH2 0x2761 JUMPI DUP3 SWAP1 SUB PUSH1 0x1F AND DUP3 ADD SWAP2 JUMPDEST POP POP POP POP POP DUP2 MSTORE POP POP SWAP1 POP SWAP2 SWAP1 POP JUMP JUMPDEST PUSH1 0xD PUSH1 0x20 MSTORE DUP1 PUSH0 MSTORE PUSH1 0x40 PUSH0 KECCAK256 PUSH0 SWAP2 POP SLOAD SWAP1 PUSH2 0x100 EXP SWAP1 DIV PUSH1 0xFF AND DUP2 JUMP JUMPDEST PUSH0 JUMPDEST PUSH1 0xB PUSH0 DUP4 DUP2 MSTORE PUSH1 0x20 ADD SWAP1 DUP2 MSTORE PUSH1 0x20 ADD PUSH0 KECCAK256 DUP1 SLOAD SWAP1 POP DUP2 LT ISZERO PUSH2 0x2924 JUMPI PUSH0 PUSH1 0xB PUSH0 DUP5 DUP2 MSTORE PUSH1 0x20 ADD SWAP1 DUP2 MSTORE PUSH1 0x20 ADD PUSH0 KECCAK256 DUP3 DUP2 SLOAD DUP2 LT PUSH2 0x27ED JUMPI PUSH2 0x27EC PUSH2 0x3DE7 JUMP JUMPDEST JUMPDEST SWAP1 PUSH0 MSTORE PUSH1 0x20 PUSH0 KECCAK256 SWAP1 PUSH1 0x4 MUL ADD PUSH0 ADD PUSH0 SWAP1 SLOAD SWAP1 PUSH2 0x100 EXP SWAP1 DIV PUSH20 0xFFFFFFFFFFFFFFFFFFFFFFFFFFFFFFFFFFFFFFFF AND SWAP1 POP PUSH0 PUSH1 0xB PUSH0 DUP6 DUP2 MSTORE PUSH1 0x20 ADD SWAP1 DUP2 MSTORE PUSH1 0x20 ADD PUSH0 KECCAK256 DUP4 DUP2 SLOAD DUP2 LT PUSH2 0x2841 JUMPI PUSH2 0x2840 PUSH2 0x3DE7 JUMP JUMPDEST JUMPDEST SWAP1 PUSH0 MSTORE PUSH1 0x20 PUSH0 KECCAK256 SWAP1 PUSH1 0x4 MUL ADD PUSH1 0x1 ADD SLOAD SWAP1 POP PUSH1 0x1 PUSH1 0xB PUSH0 DUP7 DUP2 MSTORE PUSH1 0x20 ADD SWAP1 DUP2 MSTORE PUSH1 0x20 ADD PUSH0 KECCAK256 DUP5 DUP2 SLOAD DUP2 LT PUSH2 0x2878 JUMPI PUSH2 0x2877 PUSH2 0x3DE7 JUMP JUMPDEST JUMPDEST SWAP1 PUSH0 MSTORE PUSH1 0x20 PUSH0 KECCAK256 SWAP1 PUSH1 0x4 MUL ADD PUSH1 0x3 ADD PUSH0 PUSH2 0x100 EXP DUP2 SLOAD DUP2 PUSH1 0xFF MUL NOT AND SWAP1 DUP4 ISZERO ISZERO MUL OR SWAP1 SSTORE POP TIMESTAMP PUSH1 0xB PUSH0 DUP7 DUP2 MSTORE PUSH1 0x20 ADD SWAP1 DUP2 MSTORE PUSH1 0x20 ADD PUSH0 KECCAK256 DUP5 DUP2 SLOAD DUP2 LT PUSH2 0x28C1 JUMPI PUSH2 0x28C0 PUSH2 0x3DE7 JUMP JUMPDEST JUMPDEST SWAP1 PUSH0 MSTORE PUSH1 0x20 PUSH0 KECCAK256 SWAP1 PUSH1 0x4 MUL ADD PUSH1 0x2 ADD DUP2 SWAP1 SSTORE POP PUSH2 0x28DE DUP3 DUP3 PUSH2 0x2AC7 JUMP JUMPDEST PUSH1 0x1 PUSH1 0x4 PUSH1 0x1 ADD PUSH0 DUP3 DUP3 SLOAD PUSH2 0x28F3 SWAP2 SWAP1 PUSH2 0x4336 JUMP JUMPDEST SWAP3 POP POP DUP2 SWAP1 SSTORE POP DUP1 PUSH1 0x4 PUSH1 0x2 ADD PUSH0 DUP3 DUP3 SLOAD PUSH2 0x290E SWAP2 SWAP1 PUSH2 0x4336 JUMP JUMPDEST SWAP3 POP POP DUP2 SWAP1 SSTORE POP POP POP DUP1 DUP1 PUSH1 0x1 ADD SWAP2 POP POP PUSH2 0x27AD JUMP JUMPDEST POP POP JUMP JUMPDEST PUSH0 PUSH1 0x9 DUP3 DUP2 SLOAD DUP2 LT PUSH2 0x293D JUMPI PUSH2 0x293C PUSH2 0x3DE7 JUMP JUMPDEST JUMPDEST SWAP1 PUSH0 MSTORE PUSH1 0x20 PUSH0 KECCAK256 SWAP1 PUSH1 0xE MUL ADD PUSH1 0x6 ADD SLOAD SWAP1 POP PUSH0 PUSH1 0x64 PUSH1 0x1 SLOAD DUP4 PUSH2 0x2960 SWAP2 SWAP1 PUSH2 0x46EB JUMP JUMPDEST PUSH2 0x296A SWAP2 SWAP1 PUSH2 0x4759 JUMP JUMPDEST SWAP1 POP PUSH1 0x5 PUSH1 0x9 DUP5 DUP2 SLOAD DUP2 LT PUSH2 0x2982 JUMPI PUSH2 0x2981 PUSH2 0x3DE7 JUMP JUMPDEST JUMPDEST SWAP1 PUSH0 MSTORE PUSH1 0x20 PUSH0 KECCAK256 SWAP1 PUSH1 0xE MUL ADD PUSH1 0xA ADD PUSH0 PUSH2 0x100 EXP DUP2 SLOAD DUP2 PUSH1 0xFF MUL NOT AND SWAP1 DUP4 PUSH1 0x5 DUP2 GT ISZERO PUSH2 0x29B2 JUMPI PUSH2 0x29B1 PUSH2 0x33B0 JUMP JUMPDEST JUMPDEST MUL OR SWAP1 SSTORE POP PUSH2 0x2A0E PUSH1 0x9 DUP5 DUP2 SLOAD DUP2 LT PUSH2 0x29CE JUMPI PUSH2 0x29CD PUSH2 0x3DE7 JUMP JUMPDEST JUMPDEST SWAP1 PUSH0 MSTORE PUSH1 0x20 PUSH0 KECCAK256 SWAP1 PUSH1 0xE MUL ADD PUSH1 0x1 ADD PUSH0 SWAP1 SLOAD SWAP1 PUSH2 0x100 EXP SWAP1 DIV PUSH20 0xFFFFFFFFFFFFFFFFFFFFFFFFFFFFFFFFFFFFFFFF AND DUP3 DUP5 PUSH2 0x2A09 SWAP2 SWAP1 PUSH2 0x4336 JUMP JUMPDEST PUSH2 0x2AC7 JUMP JUMPDEST PUSH2 0x2A37 PUSH0 DUP1 SLOAD SWAP1 PUSH2 0x100 EXP SWAP1 DIV PUSH20 0xFFFFFFFFFFFFFFFFFFFFFFFFFFFFFFFFFFFFFFFF AND DUP3 PUSH2 0x2AC7 JUMP JUMPDEST PUSH1 0x9 DUP4 DUP2 SLOAD DUP2 LT PUSH2 0x2A4B JUMPI PUSH2 0x2A4A PUSH2 0x3DE7 JUMP JUMPDEST JUMPDEST SWAP1 PUSH0 MSTORE PUSH1 0x20 PUSH0 KECCAK256 SWAP1 PUSH1 0xE MUL ADD PUSH1 0x6 ADD SLOAD PUSH1 0x3 PUSH0 DUP3 DUP3 SLOAD PUSH2 0x2A6B SWAP2 SWAP1 PUSH2 0x4336 JUMP JUMPDEST SWAP3 POP POP DUP2 SWAP1 SSTORE POP CALLER PUSH20 0xFFFFFFFFFFFFFFFFFFFFFFFFFFFFFFFFFFFFFFFF AND PUSH32 0xAEE8E5D3BBB2F71A951B5632CEE20F7AC487B9F8AB4F66A236F7694B13AF7C6A DUP5 TIMESTAMP PUSH1 0x40 MLOAD PUSH2 0x2ABA SWAP3 SWAP2 SWAP1 PUSH2 0x47D3 JUMP JUMPDEST PUSH1 0x40 MLOAD DUP1 SWAP2 SUB SWAP1 LOG2 POP POP POP JUMP JUMPDEST PUSH0 DUP3 PUSH20 0xFFFFFFFFFFFFFFFFFFFFFFFFFFFFFFFFFFFFFFFF AND DUP3 PUSH1 0x40 MLOAD PUSH2 0x2AEC SWAP1 PUSH2 0x483A JUMP JUMPDEST PUSH0 PUSH1 0x40 MLOAD DUP1 DUP4 SUB DUP2 DUP6 DUP8 GAS CALL SWAP3 POP POP POP RETURNDATASIZE DUP1 PUSH0 DUP2 EQ PUSH2 0x2B26 JUMPI PUSH1 0x40 MLOAD SWAP2 POP PUSH1 0x1F NOT PUSH1 0x3F RETURNDATASIZE ADD AND DUP3 ADD PUSH1 0x40 MSTORE RETURNDATASIZE DUP3 MSTORE RETURNDATASIZE PUSH0 PUSH1 0x20 DUP5 ADD RETURNDATACOPY PUSH2 0x2B2B JUMP JUMPDEST PUSH1 0x60 SWAP2 POP JUMPDEST POP POP SWAP1 POP DUP1 PUSH2 0x2B38 JUMPI PUSH0 DUP1 REVERT JUMPDEST POP POP POP JUMP JUMPDEST PUSH1 0x40 MLOAD DUP1 PUSH2 0x1C0 ADD PUSH1 0x40 MSTORE DUP1 PUSH0 DUP2 MSTORE PUSH1 0x20 ADD PUSH0 PUSH20 0xFFFFFFFFFFFFFFFFFFFFFFFFFFFFFFFFFFFFFFFF AND DUP2 MSTORE PUSH1 0x20 ADD PUSH1 0x60 DUP2 MSTORE PUSH1 0x20 ADD PUSH1 0x60 DUP2 MSTORE PUSH1 0x20 ADD PUSH1 0x60 DUP2 MSTORE PUSH1 0x20 ADD PUSH0 DUP2 MSTORE PUSH1 0x20 ADD PUSH0 DUP2 MSTORE PUSH1 0x20 ADD PUSH0 DUP2 MSTORE PUSH1 0x20 ADD PUSH0 DUP2 MSTORE PUSH1 0x20 ADD PUSH0 DUP2 MSTORE PUSH1 0x20 ADD PUSH0 PUSH1 0x5 DUP2 GT ISZERO PUSH2 0x2BB1 JUMPI PUSH2 0x2BB0 PUSH2 0x33B0 JUMP JUMPDEST JUMPDEST DUP2 MSTORE PUSH1 0x20 ADD PUSH1 0x60 DUP2 MSTORE PUSH1 0x20 ADD PUSH0 ISZERO ISZERO DUP2 MSTORE PUSH1 0x20 ADD PUSH1 0x60 DUP2 MSTORE POP SWAP1 JUMP JUMPDEST PUSH0 PUSH1 0x40 MLOAD SWAP1 POP SWAP1 JUMP JUMPDEST PUSH0 DUP1 REVERT JUMPDEST PUSH0 DUP1 REVERT JUMPDEST PUSH0 PUSH20 0xFFFFFFFFFFFFFFFFFFFFFFFFFFFFFFFFFFFFFFFF DUP3 AND SWAP1 POP SWAP2 SWAP1 POP JUMP JUMPDEST PUSH0 PUSH2 0x2C07 DUP3 PUSH2 0x2BDE JUMP JUMPDEST SWAP1 POP SWAP2 SWAP1 POP JUMP JUMPDEST PUSH2 0x2C17 DUP2 PUSH2 0x2BFD JUMP JUMPDEST DUP2 EQ PUSH2 0x2C21 JUMPI PUSH0 DUP1 REVERT JUMPDEST POP JUMP JUMPDEST PUSH0 DUP2 CALLDATALOAD SWAP1 POP PUSH2 0x2C32 DUP2 PUSH2 0x2C0E JUMP JUMPDEST SWAP3 SWAP2 POP POP JUMP JUMPDEST PUSH0 PUSH1 0x20 DUP3 DUP5 SUB SLT ISZERO PUSH2 0x2C4D JUMPI PUSH2 0x2C4C PUSH2 0x2BD6 JUMP JUMPDEST JUMPDEST PUSH0 PUSH2 0x2C5A DUP5 DUP3 DUP6 ADD PUSH2 0x2C24 JUMP JUMPDEST SWAP2 POP POP SWAP3 SWAP2 POP POP JUMP JUMPDEST PUSH0 DUP2 MLOAD SWAP1 POP SWAP2 SWAP1 POP JUMP JUMPDEST PUSH0 DUP3 DUP3 MSTORE PUSH1 0x20 DUP3 ADD SWAP1 POP SWAP3 SWAP2 POP POP JUMP JUMPDEST DUP3 DUP2 DUP4 MCOPY PUSH0 DUP4 DUP4 ADD MSTORE POP POP POP JUMP JUMPDEST PUSH0 PUSH1 0x1F NOT PUSH1 0x1F DUP4 ADD AND SWAP1 POP SWAP2 SWAP1 POP JUMP JUMPDEST PUSH0 PUSH2 0x2CA5 DUP3 PUSH2 0x2C63 JUMP JUMPDEST PUSH2 0x2CAF DUP2 DUP6 PUSH2 0x2C6D JUMP JUMPDEST SWAP4 POP PUSH2 0x2CBF DUP2 DUP6 PUSH1 0x20 DUP7 ADD PUSH2 0x2C7D JUMP JUMPDEST PUSH2 0x2CC8 DUP2 PUSH2 0x2C8B JUMP JUMPDEST DUP5 ADD SWAP2 POP POP SWAP3 SWAP2 POP POP JUMP JUMPDEST PUSH0 PUSH1 0x20 DUP3 ADD SWAP1 POP DUP2 DUP2 SUB PUSH0 DUP4 ADD MSTORE PUSH2 0x2CEB DUP2 DUP5 PUSH2 0x2C9B JUMP JUMPDEST SWAP1 POP SWAP3 SWAP2 POP POP JUMP JUMPDEST PUSH0 DUP1 REVERT JUMPDEST PUSH0 DUP1 REVERT JUMPDEST PUSH32 0x4E487B7100000000000000000000000000000000000000000000000000000000 PUSH0 MSTORE PUSH1 0x41 PUSH1 0x4 MSTORE PUSH1 0x24 PUSH0 REVERT JUMPDEST PUSH2 0x2D31 DUP3 PUSH2 0x2C8B JUMP JUMPDEST DUP2 ADD DUP2 DUP2 LT PUSH8 0xFFFFFFFFFFFFFFFF DUP3 GT OR ISZERO PUSH2 0x2D50 JUMPI PUSH2 0x2D4F PUSH2 0x2CFB JUMP JUMPDEST JUMPDEST DUP1 PUSH1 0x40 MSTORE POP POP POP JUMP JUMPDEST PUSH0 PUSH2 0x2D62 PUSH2 0x2BCD JUMP JUMPDEST SWAP1 POP PUSH2 0x2D6E DUP3 DUP3 PUSH2 0x2D28 JUMP JUMPDEST SWAP2 SWAP1 POP JUMP JUMPDEST PUSH0 PUSH8 0xFFFFFFFFFFFFFFFF DUP3 GT ISZERO PUSH2 0x2D8D JUMPI PUSH2 0x2D8C PUSH2 0x2CFB JUMP JUMPDEST JUMPDEST PUSH2 0x2D96 DUP3 PUSH2 0x2C8B JUMP JUMPDEST SWAP1 POP PUSH1 0x20 DUP2 ADD SWAP1 POP SWAP2 SWAP1 POP JUMP JUMPDEST DUP3 DUP2 DUP4 CALLDATACOPY PUSH0 DUP4 DUP4 ADD MSTORE POP POP POP JUMP JUMPDEST PUSH0 PUSH2 0x2DC3 PUSH2 0x2DBE DUP5 PUSH2 0x2D73 JUMP JUMPDEST PUSH2 0x2D59 JUMP JUMPDEST SWAP1 POP DUP3 DUP2 MSTORE PUSH1 0x20 DUP2 ADD DUP5 DUP5 DUP5 ADD GT ISZERO PUSH2 0x2DDF JUMPI PUSH2 0x2DDE PUSH2 0x2CF7 JUMP JUMPDEST JUMPDEST PUSH2 0x2DEA DUP5 DUP3 DUP6 PUSH2 0x2DA3 JUMP JUMPDEST POP SWAP4 SWAP3 POP POP POP JUMP JUMPDEST PUSH0 DUP3 PUSH1 0x1F DUP4 ADD SLT PUSH2 0x2E06 JUMPI PUSH2 0x2E05 PUSH2 0x2CF3 JUMP JUMPDEST JUMPDEST DUP2 CALLDATALOAD PUSH2 0x2E16 DUP5 DUP3 PUSH1 0x20 DUP7 ADD PUSH2 0x2DB1 JUMP JUMPDEST SWAP2 POP POP SWAP3 SWAP2 POP POP JUMP JUMPDEST PUSH0 DUP2 SWAP1 POP SWAP2 SWAP1 POP JUMP JUMPDEST PUSH2 0x2E31 DUP2 PUSH2 0x2E1F JUMP JUMPDEST DUP2 EQ PUSH2 0x2E3B JUMPI PUSH0 DUP1 REVERT JUMPDEST POP JUMP JUMPDEST PUSH0 DUP2 CALLDATALOAD SWAP1 POP PUSH2 0x2E4C DUP2 PUSH2 0x2E28 JUMP JUMPDEST SWAP3 SWAP2 POP POP JUMP JUMPDEST PUSH0 DUP1 PUSH0 DUP1 PUSH0 DUP1 PUSH1 0xC0 DUP8 DUP10 SUB SLT ISZERO PUSH2 0x2E6C JUMPI PUSH2 0x2E6B PUSH2 0x2BD6 JUMP JUMPDEST JUMPDEST PUSH0 DUP8 ADD CALLDATALOAD PUSH8 0xFFFFFFFFFFFFFFFF DUP2 GT ISZERO PUSH2 0x2E89 JUMPI PUSH2 0x2E88 PUSH2 0x2BDA JUMP JUMPDEST JUMPDEST PUSH2 0x2E95 DUP10 DUP3 DUP11 ADD PUSH2 0x2DF2 JUMP JUMPDEST SWAP7 POP POP PUSH1 0x20 DUP8 ADD CALLDATALOAD PUSH8 0xFFFFFFFFFFFFFFFF DUP2 GT ISZERO PUSH2 0x2EB6 JUMPI PUSH2 0x2EB5 PUSH2 0x2BDA JUMP JUMPDEST JUMPDEST PUSH2 0x2EC2 DUP10 DUP3 DUP11 ADD PUSH2 0x2DF2 JUMP JUMPDEST SWAP6 POP POP PUSH1 0x40 DUP8 ADD CALLDATALOAD PUSH8 0xFFFFFFFFFFFFFFFF DUP2 GT ISZERO PUSH2 0x2EE3 JUMPI PUSH2 0x2EE2 PUSH2 0x2BDA JUMP JUMPDEST JUMPDEST PUSH2 0x2EEF DUP10 DUP3 DUP11 ADD PUSH2 0x2DF2 JUMP JUMPDEST SWAP5 POP POP PUSH1 0x60 PUSH2 0x2F00 DUP10 DUP3 DUP11 ADD PUSH2 0x2E3E JUMP JUMPDEST SWAP4 POP POP PUSH1 0x80 PUSH2 0x2F11 DUP10 DUP3 DUP11 ADD PUSH2 0x2E3E JUMP JUMPDEST SWAP3 POP POP PUSH1 0xA0 DUP8 ADD CALLDATALOAD PUSH8 0xFFFFFFFFFFFFFFFF DUP2 GT ISZERO PUSH2 0x2F32 JUMPI PUSH2 0x2F31 PUSH2 0x2BDA JUMP JUMPDEST JUMPDEST PUSH2 0x2F3E DUP10 DUP3 DUP11 ADD PUSH2 0x2DF2 JUMP JUMPDEST SWAP2 POP POP SWAP3 SWAP6 POP SWAP3 SWAP6 POP SWAP3 SWAP6 JUMP JUMPDEST PUSH0 DUP2 ISZERO ISZERO SWAP1 POP SWAP2 SWAP1 POP JUMP JUMPDEST PUSH2 0x2F5F DUP2 PUSH2 0x2F4B JUMP JUMPDEST DUP3 MSTORE POP POP JUMP JUMPDEST PUSH0 PUSH1 0x20 DUP3 ADD SWAP1 POP PUSH2 0x2F78 PUSH0 DUP4 ADD DUP5 PUSH2 0x2F56 JUMP JUMPDEST SWAP3 SWAP2 POP POP JUMP JUMPDEST PUSH2 0x2F87 DUP2 PUSH2 0x2E1F JUMP JUMPDEST DUP3 MSTORE POP POP JUMP JUMPDEST PUSH0 PUSH1 0x20 DUP3 ADD SWAP1 POP PUSH2 0x2FA0 PUSH0 DUP4 ADD DUP5 PUSH2 0x2F7E JUMP JUMPDEST SWAP3 SWAP2 POP POP JUMP JUMPDEST PUSH0 PUSH1 0x20 DUP3 DUP5 SUB SLT ISZERO PUSH2 0x2FBB JUMPI PUSH2 0x2FBA PUSH2 0x2BD6 JUMP JUMPDEST JUMPDEST PUSH0 PUSH2 0x2FC8 DUP5 DUP3 DUP6 ADD PUSH2 0x2E3E JUMP JUMPDEST SWAP2 POP POP SWAP3 SWAP2 POP POP JUMP JUMPDEST PUSH0 DUP1 PUSH0 DUP1 PUSH0 DUP1 PUSH1 0xC0 DUP8 DUP10 SUB SLT ISZERO PUSH2 0x2FEB JUMPI PUSH2 0x2FEA PUSH2 0x2BD6 JUMP JUMPDEST JUMPDEST PUSH0 PUSH2 0x2FF8 DUP10 DUP3 DUP11 ADD PUSH2 0x2E3E JUMP JUMPDEST SWAP7 POP POP PUSH1 0x20 DUP8 ADD CALLDATALOAD PUSH8 0xFFFFFFFFFFFFFFFF DUP2 GT ISZERO PUSH2 0x3019 JUMPI PUSH2 0x3018 PUSH2 0x2BDA JUMP JUMPDEST JUMPDEST PUSH2 0x3025 DUP10 DUP3 DUP11 ADD PUSH2 0x2DF2 JUMP JUMPDEST SWAP6 POP POP PUSH1 0x40 DUP8 ADD CALLDATALOAD PUSH8 0xFFFFFFFFFFFFFFFF DUP2 GT ISZERO PUSH2 0x3046 JUMPI PUSH2 0x3045 PUSH2 0x2BDA JUMP JUMPDEST JUMPDEST PUSH2 0x3052 DUP10 DUP3 DUP11 ADD PUSH2 0x2DF2 JUMP JUMPDEST SWAP5 POP POP PUSH1 0x60 DUP8 ADD CALLDATALOAD PUSH8 0xFFFFFFFFFFFFFFFF DUP2 GT ISZERO PUSH2 0x3073 JUMPI PUSH2 0x3072 PUSH2 0x2BDA JUMP JUMPDEST JUMPDEST PUSH2 0x307F DUP10 DUP3 DUP11 ADD PUSH2 0x2DF2 JUMP JUMPDEST SWAP4 POP POP PUSH1 0x80 PUSH2 0x3090 DUP10 DUP3 DUP11 ADD PUSH2 0x2E3E JUMP JUMPDEST SWAP3 POP POP PUSH1 0xA0 DUP8 ADD CALLDATALOAD PUSH8 0xFFFFFFFFFFFFFFFF DUP2 GT ISZERO PUSH2 0x30B1 JUMPI PUSH2 0x30B0 PUSH2 0x2BDA JUMP JUMPDEST JUMPDEST PUSH2 0x30BD DUP10 DUP3 DUP11 ADD PUSH2 0x2DF2 JUMP JUMPDEST SWAP2 POP POP SWAP3 SWAP6 POP SWAP3 SWAP6 POP SWAP3 SWAP6 JUMP JUMPDEST PUSH0 DUP1 PUSH1 0x40 DUP4 DUP6 SUB SLT ISZERO PUSH2 0x30E0 JUMPI PUSH2 0x30DF PUSH2 0x2BD6 JUMP JUMPDEST JUMPDEST PUSH0 PUSH2 0x30ED DUP6 DUP3 DUP7 ADD PUSH2 0x2C24 JUMP JUMPDEST SWAP3 POP POP PUSH1 0x20 DUP4 ADD CALLDATALOAD PUSH8 0xFFFFFFFFFFFFFFFF DUP2 GT ISZERO PUSH2 0x310E JUMPI PUSH2 0x310D PUSH2 0x2BDA JUMP JUMPDEST JUMPDEST PUSH2 0x311A DUP6 DUP3 DUP7 ADD PUSH2 0x2DF2 JUMP JUMPDEST SWAP2 POP POP SWAP3 POP SWAP3 SWAP1 POP JUMP JUMPDEST PUSH0 DUP1 PUSH1 0x40 DUP4 DUP6 SUB SLT ISZERO PUSH2 0x313A JUMPI PUSH2 0x3139 PUSH2 0x2BD6 JUMP JUMPDEST JUMPDEST PUSH0 PUSH2 0x3147 DUP6 DUP3 DUP7 ADD PUSH2 0x2E3E JUMP JUMPDEST SWAP3 POP POP PUSH1 0x20 DUP4 ADD CALLDATALOAD PUSH8 0xFFFFFFFFFFFFFFFF DUP2 GT ISZERO PUSH2 0x3168 JUMPI PUSH2 0x3167 PUSH2 0x2BDA JUMP JUMPDEST JUMPDEST PUSH2 0x3174 DUP6 DUP3 DUP7 ADD PUSH2 0x2DF2 JUMP JUMPDEST SWAP2 POP POP SWAP3 POP SWAP3 SWAP1 POP JUMP JUMPDEST PUSH2 0x3187 DUP2 PUSH2 0x2BFD JUMP JUMPDEST DUP3 MSTORE POP POP JUMP JUMPDEST PUSH0 PUSH1 0x20 DUP3 ADD SWAP1 POP PUSH2 0x31A0 PUSH0 DUP4 ADD DUP5 PUSH2 0x317E JUMP JUMPDEST SWAP3 SWAP2 POP POP JUMP JUMPDEST PUSH0 DUP2 MLOAD SWAP1 POP SWAP2 SWAP1 POP JUMP JUMPDEST PUSH0 DUP3 DUP3 MSTORE PUSH1 0x20 DUP3 ADD SWAP1 POP SWAP3 SWAP2 POP POP JUMP JUMPDEST PUSH0 DUP2 SWAP1 POP PUSH1 0x20 DUP3 ADD SWAP1 POP SWAP2 SWAP1 POP JUMP JUMPDEST PUSH2 0x31D8 DUP2 PUSH2 0x2BFD JUMP JUMPDEST DUP3 MSTORE POP POP JUMP JUMPDEST PUSH2 0x31E7 DUP2 PUSH2 0x2E1F JUMP JUMPDEST DUP3 MSTORE POP POP JUMP JUMPDEST PUSH2 0x31F6 DUP2 PUSH2 0x2F4B JUMP JUMPDEST DUP3 MSTORE POP POP JUMP JUMPDEST PUSH1 0x80 DUP3 ADD PUSH0 DUP3 ADD MLOAD PUSH2 0x3210 PUSH0 DUP6 ADD DUP3 PUSH2 0x31CF JUMP JUMPDEST POP PUSH1 0x20 DUP3 ADD MLOAD PUSH2 0x3223 PUSH1 0x20 DUP6 ADD DUP3 PUSH2 0x31DE JUMP JUMPDEST POP PUSH1 0x40 DUP3 ADD MLOAD PUSH2 0x3236 PUSH1 0x40 DUP6 ADD DUP3 PUSH2 0x31DE JUMP JUMPDEST POP PUSH1 0x60 DUP3 ADD MLOAD PUSH2 0x3249 PUSH1 0x60 DUP6 ADD DUP3 PUSH2 0x31ED JUMP JUMPDEST POP POP POP POP JUMP JUMPDEST PUSH0 PUSH2 0x325A DUP4 DUP4 PUSH2 0x31FC JUMP JUMPDEST PUSH1 0x80 DUP4 ADD SWAP1 POP SWAP3 SWAP2 POP POP JUMP JUMPDEST PUSH0 PUSH1 0x20 DUP3 ADD SWAP1 POP SWAP2 SWAP1 POP JUMP JUMPDEST PUSH0 PUSH2 0x327C DUP3 PUSH2 0x31A6 JUMP JUMPDEST PUSH2 0x3286 DUP2 DUP6 PUSH2 0x31B0 JUMP JUMPDEST SWAP4 POP PUSH2 0x3291 DUP4 PUSH2 0x31C0 JUMP JUMPDEST DUP1 PUSH0 JUMPDEST DUP4 DUP2 LT ISZERO PUSH2 0x32C1 JUMPI DUP2 MLOAD PUSH2 0x32A8 DUP9 DUP3 PUSH2 0x324F JUMP JUMPDEST SWAP8 POP PUSH2 0x32B3 DUP4 PUSH2 0x3266 JUMP JUMPDEST SWAP3 POP POP PUSH1 0x1 DUP2 ADD SWAP1 POP PUSH2 0x3294 JUMP JUMPDEST POP DUP6 SWAP4 POP POP POP POP SWAP3 SWAP2 POP POP JUMP JUMPDEST PUSH0 PUSH1 0x20 DUP3 ADD SWAP1 POP DUP2 DUP2 SUB PUSH0 DUP4 ADD MSTORE PUSH2 0x32E6 DUP2 DUP5 PUSH2 0x3272 JUMP JUMPDEST SWAP1 POP SWAP3 SWAP2 POP POP JUMP JUMPDEST PUSH0 PUSH1 0xA0 DUP3 ADD SWAP1 POP PUSH2 0x3301 PUSH0 DUP4 ADD DUP9 PUSH2 0x2F7E JUMP JUMPDEST PUSH2 0x330E PUSH1 0x20 DUP4 ADD DUP8 PUSH2 0x2F7E JUMP JUMPDEST PUSH2 0x331B PUSH1 0x40 DUP4 ADD DUP7 PUSH2 0x2F7E JUMP JUMPDEST PUSH2 0x3328 PUSH1 0x60 DUP4 ADD DUP6 PUSH2 0x2F7E JUMP JUMPDEST PUSH2 0x3335 PUSH1 0x80 DUP4 ADD DUP5 PUSH2 0x2F7E JUMP JUMPDEST SWAP7 SWAP6 POP POP POP POP POP POP JUMP JUMPDEST PUSH0 DUP2 MLOAD SWAP1 POP SWAP2 SWAP1 POP JUMP JUMPDEST PUSH0 DUP3 DUP3 MSTORE PUSH1 0x20 DUP3 ADD SWAP1 POP SWAP3 SWAP2 POP POP JUMP JUMPDEST PUSH0 DUP2 SWAP1 POP PUSH1 0x20 DUP3 ADD SWAP1 POP SWAP2 SWAP1 POP JUMP JUMPDEST PUSH0 DUP3 DUP3 MSTORE PUSH1 0x20 DUP3 ADD SWAP1 POP SWAP3 SWAP2 POP POP JUMP JUMPDEST PUSH0 PUSH2 0x3382 DUP3 PUSH2 0x2C63 JUMP JUMPDEST PUSH2 0x338C DUP2 DUP6 PUSH2 0x3368 JUMP JUMPDEST SWAP4 POP PUSH2 0x339C DUP2 DUP6 PUSH1 0x20 DUP7 ADD PUSH2 0x2C7D JUMP JUMPDEST PUSH2 0x33A5 DUP2 PUSH2 0x2C8B JUMP JUMPDEST DUP5 ADD SWAP2 POP POP SWAP3 SWAP2 POP POP JUMP JUMPDEST PUSH32 0x4E487B7100000000000000000000000000000000000000000000000000000000 PUSH0 MSTORE PUSH1 0x21 PUSH1 0x4 MSTORE PUSH1 0x24 PUSH0 REVERT JUMPDEST PUSH1 0x6 DUP2 LT PUSH2 0x33EE JUMPI PUSH2 0x33ED PUSH2 0x33B0 JUMP JUMPDEST JUMPDEST POP JUMP JUMPDEST PUSH0 DUP2 SWAP1 POP PUSH2 0x33FE DUP3 PUSH2 0x33DD JUMP JUMPDEST SWAP2 SWAP1 POP JUMP JUMPDEST PUSH0 PUSH2 0x340D DUP3 PUSH2 0x33F1 JUMP JUMPDEST SWAP1 POP SWAP2 SWAP1 POP JUMP JUMPDEST PUSH2 0x341D DUP2 PUSH2 0x3403 JUMP JUMPDEST DUP3 MSTORE POP POP JUMP JUMPDEST PUSH0 PUSH2 0x1C0 DUP4 ADD PUSH0 DUP4 ADD MLOAD PUSH2 0x3439 PUSH0 DUP7 ADD DUP3 PUSH2 0x31DE JUMP JUMPDEST POP PUSH1 0x20 DUP4 ADD MLOAD PUSH2 0x344C PUSH1 0x20 DUP7 ADD DUP3 PUSH2 0x31CF JUMP JUMPDEST POP PUSH1 0x40 DUP4 ADD MLOAD DUP5 DUP3 SUB PUSH1 0x40 DUP7 ADD MSTORE PUSH2 0x3464 DUP3 DUP3 PUSH2 0x3378 JUMP JUMPDEST SWAP2 POP POP PUSH1 0x60 DUP4 ADD MLOAD DUP5 DUP3 SUB PUSH1 0x60 DUP7 ADD MSTORE PUSH2 0x347E DUP3 DUP3 PUSH2 0x3378 JUMP JUMPDEST SWAP2 POP POP PUSH1 0x80 DUP4 ADD MLOAD DUP5 DUP3 SUB PUSH1 0x80 DUP7 ADD MSTORE PUSH2 0x3498 DUP3 DUP3 PUSH2 0x3378 JUMP JUMPDEST SWAP2 POP POP PUSH1 0xA0 DUP4 ADD MLOAD PUSH2 0x34AD PUSH1 0xA0 DUP7 ADD DUP3 PUSH2 0x31DE JUMP JUMPDEST POP PUSH1 0xC0 DUP4 ADD MLOAD PUSH2 0x34C0 PUSH1 0xC0 DUP7 ADD DUP3 PUSH2 0x31DE JUMP JUMPDEST POP PUSH1 0xE0 DUP4 ADD MLOAD PUSH2 0x34D3 PUSH1 0xE0 DUP7 ADD DUP3 PUSH2 0x31DE JUMP JUMPDEST POP PUSH2 0x100 DUP4 ADD MLOAD PUSH2 0x34E8 PUSH2 0x100 DUP7 ADD DUP3 PUSH2 0x31DE JUMP JUMPDEST POP PUSH2 0x120 DUP4 ADD MLOAD PUSH2 0x34FD PUSH2 0x120 DUP7 ADD DUP3 PUSH2 0x31DE JUMP JUMPDEST POP PUSH2 0x140 DUP4 ADD MLOAD PUSH2 0x3512 PUSH2 0x140 DUP7 ADD DUP3 PUSH2 0x3414 JUMP JUMPDEST POP PUSH2 0x160 DUP4 ADD MLOAD DUP5 DUP3 SUB PUSH2 0x160 DUP7 ADD MSTORE PUSH2 0x352C DUP3 DUP3 PUSH2 0x3378 JUMP JUMPDEST SWAP2 POP POP PUSH2 0x180 DUP4 ADD MLOAD PUSH2 0x3543 PUSH2 0x180 DUP7 ADD DUP3 PUSH2 0x31ED JUMP JUMPDEST POP PUSH2 0x1A0 DUP4 ADD MLOAD DUP5 DUP3 SUB PUSH2 0x1A0 DUP7 ADD MSTORE PUSH2 0x355D DUP3 DUP3 PUSH2 0x3378 JUMP JUMPDEST SWAP2 POP POP DUP1 SWAP2 POP POP SWAP3 SWAP2 POP POP JUMP JUMPDEST PUSH0 PUSH2 0x3575 DUP4 DUP4 PUSH2 0x3423 JUMP JUMPDEST SWAP1 POP SWAP3 SWAP2 POP POP JUMP JUMPDEST PUSH0 PUSH1 0x20 DUP3 ADD SWAP1 POP SWAP2 SWAP1 POP JUMP JUMPDEST PUSH0 PUSH2 0x3593 DUP3 PUSH2 0x333F JUMP JUMPDEST PUSH2 0x359D DUP2 DUP6 PUSH2 0x3349 JUMP JUMPDEST SWAP4 POP DUP4 PUSH1 0x20 DUP3 MUL DUP6 ADD PUSH2 0x35AF DUP6 PUSH2 0x3359 JUMP JUMPDEST DUP1 PUSH0 JUMPDEST DUP6 DUP2 LT ISZERO PUSH2 0x35EA JUMPI DUP5 DUP5 SUB DUP10 MSTORE DUP2 MLOAD PUSH2 0x35CB DUP6 DUP3 PUSH2 0x356A JUMP JUMPDEST SWAP5 POP PUSH2 0x35D6 DUP4 PUSH2 0x357D JUMP JUMPDEST SWAP3 POP PUSH1 0x20 DUP11 ADD SWAP10 POP POP PUSH1 0x1 DUP2 ADD SWAP1 POP PUSH2 0x35B2 JUMP JUMPDEST POP DUP3 SWAP8 POP DUP8 SWAP6 POP POP POP POP POP POP SWAP3 SWAP2 POP POP JUMP JUMPDEST PUSH0 PUSH1 0x20 DUP3 ADD SWAP1 POP DUP2 DUP2 SUB PUSH0 DUP4 ADD MSTORE PUSH2 0x3614 DUP2 DUP5 PUSH2 0x3589 JUMP JUMPDEST SWAP1 POP SWAP3 SWAP2 POP POP JUMP JUMPDEST PUSH0 PUSH2 0x1C0 DUP4 ADD PUSH0 DUP4 ADD MLOAD PUSH2 0x3632 PUSH0 DUP7 ADD DUP3 PUSH2 0x31DE JUMP JUMPDEST POP PUSH1 0x20 DUP4 ADD MLOAD PUSH2 0x3645 PUSH1 0x20 DUP7 ADD DUP3 PUSH2 0x31CF JUMP JUMPDEST POP PUSH1 0x40 DUP4 ADD MLOAD DUP5 DUP3 SUB PUSH1 0x40 DUP7 ADD MSTORE PUSH2 0x365D DUP3 DUP3 PUSH2 0x3378 JUMP JUMPDEST SWAP2 POP POP PUSH1 0x60 DUP4 ADD MLOAD DUP5 DUP3 SUB PUSH1 0x60 DUP7 ADD MSTORE PUSH2 0x3677 DUP3 DUP3 PUSH2 0x3378 JUMP JUMPDEST SWAP2 POP POP PUSH1 0x80 DUP4 ADD MLOAD DUP5 DUP3 SUB PUSH1 0x80 DUP7 ADD MSTORE PUSH2 0x3691 DUP3 DUP3 PUSH2 0x3378 JUMP JUMPDEST SWAP2 POP POP PUSH1 0xA0 DUP4 ADD MLOAD PUSH2 0x36A6 PUSH1 0xA0 DUP7 ADD DUP3 PUSH2 0x31DE JUMP JUMPDEST POP PUSH1 0xC0 DUP4 ADD MLOAD PUSH2 0x36B9 PUSH1 0xC0 DUP7 ADD DUP3 PUSH2 0x31DE JUMP JUMPDEST POP PUSH1 0xE0 DUP4 ADD MLOAD PUSH2 0x36CC PUSH1 0xE0 DUP7 ADD DUP3 PUSH2 0x31DE JUMP JUMPDEST POP PUSH2 0x100 DUP4 ADD MLOAD PUSH2 0x36E1 PUSH2 0x100 DUP7 ADD DUP3 PUSH2 0x31DE JUMP JUMPDEST POP PUSH2 0x120 DUP4 ADD MLOAD PUSH2 0x36F6 PUSH2 0x120 DUP7 ADD DUP3 PUSH2 0x31DE JUMP JUMPDEST POP PUSH2 0x140 DUP4 ADD MLOAD PUSH2 0x370B PUSH2 0x140 DUP7 ADD DUP3 PUSH2 0x3414 JUMP JUMPDEST POP PUSH2 0x160 DUP4 ADD MLOAD DUP5 DUP3 SUB PUSH2 0x160 DUP7 ADD MSTORE PUSH2 0x3725 DUP3 DUP3 PUSH2 0x3378 JUMP JUMPDEST SWAP2 POP POP PUSH2 0x180 DUP4 ADD MLOAD PUSH2 0x373C PUSH2 0x180 DUP7 ADD DUP3 PUSH2 0x31ED JUMP JUMPDEST POP PUSH2 0x1A0 DUP4 ADD MLOAD DUP5 DUP3 SUB PUSH2 0x1A0 DUP7 ADD MSTORE PUSH2 0x3756 DUP3 DUP3 PUSH2 0x3378 JUMP JUMPDEST SWAP2 POP POP DUP1 SWAP2 POP POP SWAP3 SWAP2 POP POP JUMP JUMPDEST PUSH0 PUSH1 0x20 DUP3 ADD SWAP1 POP DUP2 DUP2 SUB PUSH0 DUP4 ADD MSTORE PUSH2 0x377B DUP2 DUP5 PUSH2 0x361C JUMP JUMPDEST SWAP1 POP SWAP3 SWAP2 POP POP JUMP JUMPDEST PUSH32 0x4E487B7100000000000000000000000000000000000000000000000000000000 PUSH0 MSTORE PUSH1 0x22 PUSH1 0x4 MSTORE PUSH1 0x24 PUSH0 REVERT JUMPDEST PUSH0 PUSH1 0x2 DUP3 DIV SWAP1 POP PUSH1 0x1 DUP3 AND DUP1 PUSH2 0x37C7 JUMPI PUSH1 0x7F DUP3 AND SWAP2 POP JUMPDEST PUSH1 0x20 DUP3 LT DUP2 SUB PUSH2 0x37DA JUMPI PUSH2 0x37D9 PUSH2 0x3783 JUMP JUMPDEST JUMPDEST POP SWAP2 SWAP1 POP JUMP JUMPDEST PUSH32 0x5469746C652063616E6E6F7420626520656D7074790000000000000000000000 PUSH0 DUP3 ADD MSTORE POP JUMP JUMPDEST PUSH0 PUSH2 0x3814 PUSH1 0x15 DUP4 PUSH2 0x2C6D JUMP JUMPDEST SWAP2 POP PUSH2 0x381F DUP3 PUSH2 0x37E0 JUMP JUMPDEST PUSH1 0x20 DUP3 ADD SWAP1 POP SWAP2 SWAP1 POP JUMP JUMPDEST PUSH0 PUSH1 0x20 DUP3 ADD SWAP1 POP DUP2 DUP2 SUB PUSH0 DUP4 ADD MSTORE PUSH2 0x3841 DUP2 PUSH2 0x3808 JUMP JUMPDEST SWAP1 POP SWAP2 SWAP1 POP JUMP JUMPDEST PUSH32 0x4465736372697074696F6E2063616E6E6F7420626520656D7074790000000000 PUSH0 DUP3 ADD MSTORE POP JUMP JUMPDEST PUSH0 PUSH2 0x387C PUSH1 0x1B DUP4 PUSH2 0x2C6D JUMP JUMPDEST SWAP2 POP PUSH2 0x3887 DUP3 PUSH2 0x3848 JUMP JUMPDEST PUSH1 0x20 DUP3 ADD SWAP1 POP SWAP2 SWAP1 POP JUMP JUMPDEST PUSH0 PUSH1 0x20 DUP3 ADD SWAP1 POP DUP2 DUP2 SUB PUSH0 DUP4 ADD MSTORE PUSH2 0x38A9 DUP2 PUSH2 0x3870 JUMP JUMPDEST SWAP1 POP SWAP2 SWAP1 POP JUMP JUMPDEST PUSH32 0x496D61676555524C2063616E6E6F7420626520656D7074790000000000000000 PUSH0 DUP3 ADD MSTORE POP JUMP JUMPDEST PUSH0 PUSH2 0x38E4 PUSH1 0x18 DUP4 PUSH2 0x2C6D JUMP JUMPDEST SWAP2 POP PUSH2 0x38EF DUP3 PUSH2 0x38B0 JUMP JUMPDEST PUSH1 0x20 DUP3 ADD SWAP1 POP SWAP2 SWAP1 POP JUMP JUMPDEST PUSH0 PUSH1 0x20 DUP3 ADD SWAP1 POP DUP2 DUP2 SUB PUSH0 DUP4 ADD MSTORE PUSH2 0x3911 DUP2 PUSH2 0x38D8 JUMP JUMPDEST SWAP1 POP SWAP2 SWAP1 POP JUMP JUMPDEST PUSH32 0x436F73742063616E6E6F74206265207A65726F00000000000000000000000000 PUSH0 DUP3 ADD MSTORE POP JUMP JUMPDEST PUSH0 PUSH2 0x394C PUSH1 0x13 DUP4 PUSH2 0x2C6D JUMP JUMPDEST SWAP2 POP PUSH2 0x3957 DUP3 PUSH2 0x3918 JUMP JUMPDEST PUSH1 0x20 DUP3 ADD SWAP1 POP SWAP2 SWAP1 POP JUMP JUMPDEST PUSH0 PUSH1 0x20 DUP3 ADD SWAP1 POP DUP2 DUP2 SUB PUSH0 DUP4 ADD MSTORE PUSH2 0x3979 DUP2 PUSH2 0x3940 JUMP JUMPDEST SWAP1 POP SWAP2 SWAP1 POP JUMP JUMPDEST PUSH32 0x5379617261742055524C2063616E6E6F7420626520656D707479000000000000 PUSH0 DUP3 ADD MSTORE POP JUMP JUMPDEST PUSH0 PUSH2 0x39B4 PUSH1 0x1A DUP4 PUSH2 0x2C6D JUMP JUMPDEST SWAP2 POP PUSH2 0x39BF DUP3 PUSH2 0x3980 JUMP JUMPDEST PUSH1 0x20 DUP3 ADD SWAP1 POP SWAP2 SWAP1 POP JUMP JUMPDEST PUSH0 PUSH1 0x20 DUP3 ADD SWAP1 POP DUP2 DUP2 SUB PUSH0 DUP4 ADD MSTORE PUSH2 0x39E1 DUP2 PUSH2 0x39A8 JUMP JUMPDEST SWAP1 POP SWAP2 SWAP1 POP JUMP JUMPDEST PUSH0 DUP2 SWAP1 POP DUP2 PUSH0 MSTORE PUSH1 0x20 PUSH0 KECCAK256 SWAP1 POP SWAP2 SWAP1 POP JUMP JUMPDEST PUSH0 PUSH1 0x20 PUSH1 0x1F DUP4 ADD DIV SWAP1 POP SWAP2 SWAP1 POP JUMP JUMPDEST PUSH0 DUP3 DUP3 SHL SWAP1 POP SWAP3 SWAP2 POP POP JUMP JUMPDEST PUSH0 PUSH1 0x8 DUP4 MUL PUSH2 0x3A44 PUSH32 0xFFFFFFFFFFFFFFFFFFFFFFFFFFFFFFFFFFFFFFFFFFFFFFFFFFFFFFFFFFFFFFFF DUP3 PUSH2 0x3A09 JUMP JUMPDEST PUSH2 0x3A4E DUP7 DUP4 PUSH2 0x3A09 JUMP JUMPDEST SWAP6 POP DUP1 NOT DUP5 AND SWAP4 POP DUP1 DUP7 AND DUP5 OR SWAP3 POP POP POP SWAP4 SWAP3 POP POP POP JUMP JUMPDEST PUSH0 DUP2 SWAP1 POP SWAP2 SWAP1 POP JUMP JUMPDEST PUSH0 PUSH2 0x3A89 PUSH2 0x3A84 PUSH2 0x3A7F DUP5 PUSH2 0x2E1F JUMP JUMPDEST PUSH2 0x3A66 JUMP JUMPDEST PUSH2 0x2E1F JUMP JUMPDEST SWAP1 POP SWAP2 SWAP1 POP JUMP JUMPDEST PUSH0 DUP2 SWAP1 POP SWAP2 SWAP1 POP JUMP JUMPDEST PUSH2 0x3AA2 DUP4 PUSH2 0x3A6F JUMP JUMPDEST PUSH2 0x3AB6 PUSH2 0x3AAE DUP3 PUSH2 0x3A90 JUMP JUMPDEST DUP5 DUP5 SLOAD PUSH2 0x3A15 JUMP JUMPDEST DUP3 SSTORE POP POP POP POP JUMP JUMPDEST PUSH0 SWAP1 JUMP JUMPDEST PUSH2 0x3ACA PUSH2 0x3ABE JUMP JUMPDEST PUSH2 0x3AD5 DUP2 DUP5 DUP5 PUSH2 0x3A99 JUMP JUMPDEST POP POP POP JUMP JUMPDEST JUMPDEST DUP2 DUP2 LT ISZERO PUSH2 0x3AF8 JUMPI PUSH2 0x3AED PUSH0 DUP3 PUSH2 0x3AC2 JUMP JUMPDEST PUSH1 0x1 DUP2 ADD SWAP1 POP PUSH2 0x3ADB JUMP JUMPDEST POP POP JUMP JUMPDEST PUSH1 0x1F DUP3 GT ISZERO PUSH2 0x3B3D JUMPI PUSH2 0x3B0E DUP2 PUSH2 0x39E8 JUMP JUMPDEST PUSH2 0x3B17 DUP5 PUSH2 0x39FA JUMP JUMPDEST DUP2 ADD PUSH1 0x20 DUP6 LT ISZERO PUSH2 0x3B26 JUMPI DUP2 SWAP1 POP JUMPDEST PUSH2 0x3B3A PUSH2 0x3B32 DUP6 PUSH2 0x39FA JUMP JUMPDEST DUP4 ADD DUP3 PUSH2 0x3ADA JUMP JUMPDEST POP POP JUMPDEST POP POP POP JUMP JUMPDEST PUSH0 DUP3 DUP3 SHR SWAP1 POP SWAP3 SWAP2 POP POP JUMP JUMPDEST PUSH0 PUSH2 0x3B5D PUSH0 NOT DUP5 PUSH1 0x8 MUL PUSH2 0x3B42 JUMP JUMPDEST NOT DUP1 DUP4 AND SWAP2 POP POP SWAP3 SWAP2 POP POP JUMP JUMPDEST PUSH0 PUSH2 0x3B75 DUP4 DUP4 PUSH2 0x3B4E JUMP JUMPDEST SWAP2 POP DUP3 PUSH1 0x2 MUL DUP3 OR SWAP1 POP SWAP3 SWAP2 POP POP JUMP JUMPDEST PUSH2 0x3B8E DUP3 PUSH2 0x2C63 JUMP JUMPDEST PUSH8 0xFFFFFFFFFFFFFFFF DUP2 GT ISZERO PUSH2 0x3BA7 JUMPI PUSH2 0x3BA6 PUSH2 0x2CFB JUMP JUMPDEST JUMPDEST PUSH2 0x3BB1 DUP3 SLOAD PUSH2 0x37B0 JUMP JUMPDEST PUSH2 0x3BBC DUP3 DUP3 DUP6 PUSH2 0x3AFC JUMP JUMPDEST PUSH0 PUSH1 0x20 SWAP1 POP PUSH1 0x1F DUP4 GT PUSH1 0x1 DUP2 EQ PUSH2 0x3BED JUMPI PUSH0 DUP5 ISZERO PUSH2 0x3BDB JUMPI DUP3 DUP8 ADD MLOAD SWAP1 POP JUMPDEST PUSH2 0x3BE5 DUP6 DUP3 PUSH2 0x3B6A JUMP JUMPDEST DUP7 SSTORE POP PUSH2 0x3C4C JUMP JUMPDEST PUSH1 0x1F NOT DUP5 AND PUSH2 0x3BFB DUP7 PUSH2 0x39E8 JUMP JUMPDEST PUSH0 JUMPDEST DUP3 DUP2 LT ISZERO PUSH2 0x3C22 JUMPI DUP5 DUP10 ADD MLOAD DUP3 SSTORE PUSH1 0x1 DUP3 ADD SWAP2 POP PUSH1 0x20 DUP6 ADD SWAP5 POP PUSH1 0x20 DUP2 ADD SWAP1 POP PUSH2 0x3BFD JUMP JUMPDEST DUP7 DUP4 LT ISZERO PUSH2 0x3C3F JUMPI DUP5 DUP10 ADD MLOAD PUSH2 0x3C3B PUSH1 0x1F DUP10 AND DUP3 PUSH2 0x3B4E JUMP JUMPDEST DUP4 SSTORE POP JUMPDEST PUSH1 0x1 PUSH1 0x2 DUP9 MUL ADD DUP9 SSTORE POP POP POP JUMPDEST POP POP POP POP POP POP JUMP JUMPDEST PUSH32 0x4E487B7100000000000000000000000000000000000000000000000000000000 PUSH0 MSTORE PUSH1 0x11 PUSH1 0x4 MSTORE PUSH1 0x24 PUSH0 REVERT JUMPDEST PUSH0 PUSH2 0x3C8B DUP3 PUSH2 0x2E1F JUMP JUMPDEST SWAP2 POP PUSH2 0x3C96 DUP4 PUSH2 0x2E1F JUMP JUMPDEST SWAP3 POP DUP3 DUP3 ADD SWAP1 POP DUP1 DUP3 GT ISZERO PUSH2 0x3CAE JUMPI PUSH2 0x3CAD PUSH2 0x3C54 JUMP JUMPDEST JUMPDEST SWAP3 SWAP2 POP POP JUMP JUMPDEST PUSH0 PUSH2 0x3CBE DUP3 PUSH2 0x2E1F JUMP JUMPDEST SWAP2 POP PUSH32 0xFFFFFFFFFFFFFFFFFFFFFFFFFFFFFFFFFFFFFFFFFFFFFFFFFFFFFFFFFFFFFFFF DUP3 SUB PUSH2 0x3CF0 JUMPI PUSH2 0x3CEF PUSH2 0x3C54 JUMP JUMPDEST JUMPDEST PUSH1 0x1 DUP3 ADD SWAP1 POP SWAP2 SWAP1 POP JUMP JUMPDEST PUSH32 0x50524F4A45435420435245415445440000000000000000000000000000000000 PUSH0 DUP3 ADD MSTORE POP JUMP JUMPDEST PUSH0 PUSH2 0x3D2F PUSH1 0xF DUP4 PUSH2 0x2C6D JUMP JUMPDEST SWAP2 POP PUSH2 0x3D3A DUP3 PUSH2 0x3CFB JUMP JUMPDEST PUSH1 0x20 DUP3 ADD SWAP1 POP SWAP2 SWAP1 POP JUMP JUMPDEST PUSH0 PUSH1 0x60 DUP3 ADD SWAP1 POP PUSH2 0x3D58 PUSH0 DUP4 ADD DUP6 PUSH2 0x2F7E JUMP JUMPDEST DUP2 DUP2 SUB PUSH1 0x20 DUP4 ADD MSTORE PUSH2 0x3D69 DUP2 PUSH2 0x3D23 JUMP JUMPDEST SWAP1 POP PUSH2 0x3D78 PUSH1 0x40 DUP4 ADD DUP5 PUSH2 0x2F7E JUMP JUMPDEST SWAP4 SWAP3 POP POP POP JUMP JUMPDEST PUSH32 0x4F776E6572207265736572766564206F6E6C7900000000000000000000000000 PUSH0 DUP3 ADD MSTORE POP JUMP JUMPDEST PUSH0 PUSH2 0x3DB3 PUSH1 0x13 DUP4 PUSH2 0x2C6D JUMP JUMPDEST SWAP2 POP PUSH2 0x3DBE DUP3 PUSH2 0x3D7F JUMP JUMPDEST PUSH1 0x20 DUP3 ADD SWAP1 POP SWAP2 SWAP1 POP JUMP JUMPDEST PUSH0 PUSH1 0x20 DUP3 ADD SWAP1 POP DUP2 DUP2 SUB PUSH0 DUP4 ADD MSTORE PUSH2 0x3DE0 DUP2 PUSH2 0x3DA7 JUMP JUMPDEST SWAP1 POP SWAP2 SWAP1 POP JUMP JUMPDEST PUSH32 0x4E487B7100000000000000000000000000000000000000000000000000000000 PUSH0 MSTORE PUSH1 0x32 PUSH1 0x4 MSTORE PUSH1 0x24 PUSH0 REVERT JUMPDEST PUSH32 0x50726F6A656374206E6F206C6F6E676572206F70656E65640000000000000000 PUSH0 DUP3 ADD MSTORE POP JUMP JUMPDEST PUSH0 PUSH2 0x3E48 PUSH1 0x18 DUP4 PUSH2 0x2C6D JUMP JUMPDEST SWAP2 POP PUSH2 0x3E53 DUP3 PUSH2 0x3E14 JUMP JUMPDEST PUSH1 0x20 DUP3 ADD SWAP1 POP SWAP2 SWAP1 POP JUMP JUMPDEST PUSH0 PUSH1 0x20 DUP3 ADD SWAP1 POP DUP2 DUP2 SUB PUSH0 DUP4 ADD MSTORE PUSH2 0x3E75 DUP2 PUSH2 0x3E3C JUMP JUMPDEST SWAP1 POP SWAP2 SWAP1 POP JUMP JUMPDEST PUSH32 0x556E617574686F72697A656420456E7469747900000000000000000000000000 PUSH0 DUP3 ADD MSTORE POP JUMP JUMPDEST PUSH0 PUSH2 0x3EB0 PUSH1 0x13 DUP4 PUSH2 0x2C6D JUMP JUMPDEST SWAP2 POP PUSH2 0x3EBB DUP3 PUSH2 0x3E7C JUMP JUMPDEST PUSH1 0x20 DUP3 ADD SWAP1 POP SWAP2 SWAP1 POP JUMP JUMPDEST PUSH0 PUSH1 0x20 DUP3 ADD SWAP1 POP DUP2 DUP2 SUB PUSH0 DUP4 ADD MSTORE PUSH2 0x3EDD DUP2 PUSH2 0x3EA4 JUMP JUMPDEST SWAP1 POP SWAP2 SWAP1 POP JUMP JUMPDEST PUSH32 0x50524F4A4543542044454C455445440000000000000000000000000000000000 PUSH0 DUP3 ADD MSTORE POP JUMP JUMPDEST PUSH0 PUSH2 0x3F18 PUSH1 0xF DUP4 PUSH2 0x2C6D JUMP JUMPDEST SWAP2 POP PUSH2 0x3F23 DUP3 PUSH2 0x3EE4 JUMP JUMPDEST PUSH1 0x20 DUP3 ADD SWAP1 POP SWAP2 SWAP1 POP JUMP JUMPDEST PUSH0 PUSH1 0x60 DUP3 ADD SWAP1 POP PUSH2 0x3F41 PUSH0 DUP4 ADD DUP6 PUSH2 0x2F7E JUMP JUMPDEST DUP2 DUP2 SUB PUSH1 0x20 DUP4 ADD MSTORE PUSH2 0x3F52 DUP2 PUSH2 0x3F0C JUMP JUMPDEST SWAP1 POP PUSH2 0x3F61 PUSH1 0x40 DUP4 ADD DUP5 PUSH2 0x2F7E JUMP JUMPDEST SWAP4 SWAP3 POP POP POP JUMP JUMPDEST PUSH32 0x5379617261742063616E6E6F7420626520656D70747900000000000000000000 PUSH0 DUP3 ADD MSTORE POP JUMP JUMPDEST PUSH0 PUSH2 0x3F9C PUSH1 0x16 DUP4 PUSH2 0x2C6D JUMP JUMPDEST SWAP2 POP PUSH2 0x3FA7 DUP3 PUSH2 0x3F68 JUMP JUMPDEST PUSH1 0x20 DUP3 ADD SWAP1 POP SWAP2 SWAP1 POP JUMP JUMPDEST PUSH0 PUSH1 0x20 DUP3 ADD SWAP1 POP DUP2 DUP2 SUB PUSH0 DUP4 ADD MSTORE PUSH2 0x3FC9 DUP2 PUSH2 0x3F90 JUMP JUMPDEST SWAP1 POP SWAP2 SWAP1 POP JUMP JUMPDEST PUSH32 0x50524F4A45435420555044415445440000000000000000000000000000000000 PUSH0 DUP3 ADD MSTORE POP JUMP JUMPDEST PUSH0 PUSH2 0x4004 PUSH1 0xF DUP4 PUSH2 0x2C6D JUMP JUMPDEST SWAP2 POP PUSH2 0x400F DUP3 PUSH2 0x3FD0 JUMP JUMPDEST PUSH1 0x20 DUP3 ADD SWAP1 POP SWAP2 SWAP1 POP JUMP JUMPDEST PUSH0 PUSH1 0x60 DUP3 ADD SWAP1 POP PUSH2 0x402D PUSH0 DUP4 ADD DUP6 PUSH2 0x2F7E JUMP JUMPDEST DUP2 DUP2 SUB PUSH1 0x20 DUP4 ADD MSTORE PUSH2 0x403E DUP2 PUSH2 0x3FF8 JUMP JUMPDEST SWAP1 POP PUSH2 0x404D PUSH1 0x40 DUP4 ADD DUP5 PUSH2 0x2F7E JUMP JUMPDEST SWAP4 SWAP3 POP POP POP JUMP JUMPDEST PUSH32 0x56616C696461746F7220616464726573732063616E6E6F7420626520656D7074 PUSH0 DUP3 ADD MSTORE PUSH32 0x7900000000000000000000000000000000000000000000000000000000000000 PUSH1 0x20 DUP3 ADD MSTORE POP JUMP JUMPDEST PUSH0 PUSH2 0x40AE PUSH1 0x21 DUP4 PUSH2 0x2C6D JUMP JUMPDEST SWAP2 POP PUSH2 0x40B9 DUP3 PUSH2 0x4054 JUMP JUMPDEST PUSH1 0x40 DUP3 ADD SWAP1 POP SWAP2 SWAP1 POP JUMP JUMPDEST PUSH0 PUSH1 0x20 DUP3 ADD SWAP1 POP DUP2 DUP2 SUB PUSH0 DUP4 ADD MSTORE PUSH2 0x40DB DUP2 PUSH2 0x40A2 JUMP JUMPDEST SWAP1 POP SWAP2 SWAP1 POP JUMP JUMPDEST PUSH32 0x56616C696461746F72204E616D652063616E6E6F7420626520656D7074790000 PUSH0 DUP3 ADD MSTORE POP JUMP JUMPDEST PUSH0 PUSH2 0x4116 PUSH1 0x1E DUP4 PUSH2 0x2C6D JUMP JUMPDEST SWAP2 POP PUSH2 0x4121 DUP3 PUSH2 0x40E2 JUMP JUMPDEST PUSH1 0x20 DUP3 ADD SWAP1 POP SWAP2 SWAP1 POP JUMP JUMPDEST PUSH0 PUSH1 0x20 DUP3 ADD SWAP1 POP DUP2 DUP2 SUB PUSH0 DUP4 ADD MSTORE PUSH2 0x4143 DUP2 PUSH2 0x410A JUMP JUMPDEST SWAP1 POP SWAP2 SWAP1 POP JUMP JUMPDEST PUSH32 0x4F6E6C792076616C696461746F72732063616E20616363657373207468697320 PUSH0 DUP3 ADD MSTORE PUSH32 0x66756E6374696F6E000000000000000000000000000000000000000000000000 PUSH1 0x20 DUP3 ADD MSTORE POP JUMP JUMPDEST PUSH0 PUSH2 0x41A4 PUSH1 0x28 DUP4 PUSH2 0x2C6D JUMP JUMPDEST SWAP2 POP PUSH2 0x41AF DUP3 PUSH2 0x414A JUMP JUMPDEST PUSH1 0x40 DUP3 ADD SWAP1 POP SWAP2 SWAP1 POP JUMP JUMPDEST PUSH0 PUSH1 0x20 DUP3 ADD SWAP1 POP DUP2 DUP2 SUB PUSH0 DUP4 ADD MSTORE PUSH2 0x41D1 DUP2 PUSH2 0x4198 JUMP JUMPDEST SWAP1 POP SWAP2 SWAP1 POP JUMP JUMPDEST PUSH32 0x50726F6A656374206E6F7420666F756E64000000000000000000000000000000 PUSH0 DUP3 ADD MSTORE POP JUMP JUMPDEST PUSH0 PUSH2 0x420C PUSH1 0x11 DUP4 PUSH2 0x2C6D JUMP JUMPDEST SWAP2 POP PUSH2 0x4217 DUP3 PUSH2 0x41D8 JUMP JUMPDEST PUSH1 0x20 DUP3 ADD SWAP1 POP SWAP2 SWAP1 POP JUMP JUMPDEST PUSH0 PUSH1 0x20 DUP3 ADD SWAP1 POP DUP2 DUP2 SUB PUSH0 DUP4 ADD MSTORE PUSH2 0x4239 DUP2 PUSH2 0x4200 JUMP JUMPDEST SWAP1 POP SWAP2 SWAP1 POP JUMP JUMPDEST PUSH32 0x50726F6A65637420697320416C72656164792056616C69646174656400000000 PUSH0 DUP3 ADD MSTORE POP JUMP JUMPDEST PUSH0 PUSH2 0x4274 PUSH1 0x1C DUP4 PUSH2 0x2C6D JUMP JUMPDEST SWAP2 POP PUSH2 0x427F DUP3 PUSH2 0x4240 JUMP JUMPDEST PUSH1 0x20 DUP3 ADD SWAP1 POP SWAP2 SWAP1 POP JUMP JUMPDEST PUSH0 PUSH1 0x20 DUP3 ADD SWAP1 POP DUP2 DUP2 SUB PUSH0 DUP4 ADD MSTORE PUSH2 0x42A1 DUP2 PUSH2 0x4268 JUMP JUMPDEST SWAP1 POP SWAP2 SWAP1 POP JUMP JUMPDEST PUSH32 0x56616C69646174696F6E204D6573736167652043616E6E6F7420426520456D70 PUSH0 DUP3 ADD MSTORE PUSH32 0x7479000000000000000000000000000000000000000000000000000000000000 PUSH1 0x20 DUP3 ADD MSTORE POP JUMP JUMPDEST PUSH0 PUSH2 0x4302 PUSH1 0x22 DUP4 PUSH2 0x2C6D JUMP JUMPDEST SWAP2 POP PUSH2 0x430D DUP3 PUSH2 0x42A8 JUMP JUMPDEST PUSH1 0x40 DUP3 ADD SWAP1 POP SWAP2 SWAP1 POP JUMP JUMPDEST PUSH0 PUSH1 0x20 DUP3 ADD SWAP1 POP DUP2 DUP2 SUB PUSH0 DUP4 ADD MSTORE PUSH2 0x432F DUP2 PUSH2 0x42F6 JUMP JUMPDEST SWAP1 POP SWAP2 SWAP1 POP JUMP JUMPDEST PUSH0 PUSH2 0x4340 DUP3 PUSH2 0x2E1F JUMP JUMPDEST SWAP2 POP PUSH2 0x434B DUP4 PUSH2 0x2E1F JUMP JUMPDEST SWAP3 POP DUP3 DUP3 SUB SWAP1 POP DUP2 DUP2 GT ISZERO PUSH2 0x4363 JUMPI PUSH2 0x4362 PUSH2 0x3C54 JUMP JUMPDEST JUMPDEST SWAP3 SWAP2 POP POP JUMP JUMPDEST PUSH32 0x50524F4A4543542056414C494441544544000000000000000000000000000000 PUSH0 DUP3 ADD MSTORE POP JUMP JUMPDEST PUSH0 PUSH2 0x439D PUSH1 0x11 DUP4 PUSH2 0x2C6D JUMP JUMPDEST SWAP2 POP PUSH2 0x43A8 DUP3 PUSH2 0x4369 JUMP JUMPDEST PUSH1 0x20 DUP3 ADD SWAP1 POP SWAP2 SWAP1 POP JUMP JUMPDEST PUSH0 PUSH1 0x60 DUP3 ADD SWAP1 POP PUSH2 0x43C6 PUSH0 DUP4 ADD DUP6 PUSH2 0x2F7E JUMP JUMPDEST DUP2 DUP2 SUB PUSH1 0x20 DUP4 ADD MSTORE PUSH2 0x43D7 DUP2 PUSH2 0x4391 JUMP JUMPDEST SWAP1 POP PUSH2 0x43E6 PUSH1 0x40 DUP4 ADD DUP5 PUSH2 0x2F7E JUMP JUMPDEST SWAP4 SWAP3 POP POP POP JUMP JUMPDEST PUSH32 0x4574686572206D7573742062652067726561746572207468616E207A65726F00 PUSH0 DUP3 ADD MSTORE POP JUMP JUMPDEST PUSH0 PUSH2 0x4421 PUSH1 0x1F DUP4 PUSH2 0x2C6D JUMP JUMPDEST SWAP2 POP PUSH2 0x442C DUP3 PUSH2 0x43ED JUMP JUMPDEST PUSH1 0x20 DUP3 ADD SWAP1 POP SWAP2 SWAP1 POP JUMP JUMPDEST PUSH0 PUSH1 0x20 DUP3 ADD SWAP1 POP DUP2 DUP2 SUB PUSH0 DUP4 ADD MSTORE PUSH2 0x444E DUP2 PUSH2 0x4415 JUMP JUMPDEST SWAP1 POP SWAP2 SWAP1 POP JUMP JUMPDEST PUSH32 0x50726F6A65637420776974682074686520676976656E20494420646F6573206E PUSH0 DUP3 ADD MSTORE PUSH32 0x6F74206578697374000000000000000000000000000000000000000000000000 PUSH1 0x20 DUP3 ADD MSTORE POP JUMP JUMPDEST PUSH0 PUSH2 0x44AF PUSH1 0x28 DUP4 PUSH2 0x2C6D JUMP JUMPDEST SWAP2 POP PUSH2 0x44BA DUP3 PUSH2 0x4455 JUMP JUMPDEST PUSH1 0x40 DUP3 ADD SWAP1 POP SWAP2 SWAP1 POP JUMP JUMPDEST PUSH0 PUSH1 0x20 DUP3 ADD SWAP1 POP DUP2 DUP2 SUB PUSH0 DUP4 ADD MSTORE PUSH2 0x44DC DUP2 PUSH2 0x44A3 JUMP JUMPDEST SWAP1 POP SWAP2 SWAP1 POP JUMP JUMPDEST PUSH32 0x546869732050726F6A6563746564206973206E6F742056616C69646174656420 PUSH0 DUP3 ADD MSTORE PUSH32 0x5965740000000000000000000000000000000000000000000000000000000000 PUSH1 0x20 DUP3 ADD MSTORE POP JUMP JUMPDEST PUSH0 PUSH2 0x453D PUSH1 0x23 DUP4 PUSH2 0x2C6D JUMP JUMPDEST SWAP2 POP PUSH2 0x4548 DUP3 PUSH2 0x44E3 JUMP JUMPDEST PUSH1 0x40 DUP3 ADD SWAP1 POP SWAP2 SWAP1 POP JUMP JUMPDEST PUSH0 PUSH1 0x20 DUP3 ADD SWAP1 POP DUP2 DUP2 SUB PUSH0 DUP4 ADD MSTORE PUSH2 0x456A DUP2 PUSH2 0x4531 JUMP JUMPDEST SWAP1 POP SWAP2 SWAP1 POP JUMP JUMPDEST PUSH32 0x50524F4A454354204241434B4544000000000000000000000000000000000000 PUSH0 DUP3 ADD MSTORE POP JUMP JUMPDEST PUSH0 PUSH2 0x45A5 PUSH1 0xE DUP4 PUSH2 0x2C6D JUMP JUMPDEST SWAP2 POP PUSH2 0x45B0 DUP3 PUSH2 0x4571 JUMP JUMPDEST PUSH1 0x20 DUP3 ADD SWAP1 POP SWAP2 SWAP1 POP JUMP JUMPDEST PUSH0 PUSH1 0x60 DUP3 ADD SWAP1 POP PUSH2 0x45CE PUSH0 DUP4 ADD DUP6 PUSH2 0x2F7E JUMP JUMPDEST DUP2 DUP2 SUB PUSH1 0x20 DUP4 ADD MSTORE PUSH2 0x45DF DUP2 PUSH2 0x4599 JUMP JUMPDEST SWAP1 POP PUSH2 0x45EE PUSH1 0x40 DUP4 ADD DUP5 PUSH2 0x2F7E JUMP JUMPDEST SWAP4 SWAP3 POP POP POP JUMP JUMPDEST PUSH32 0x50726F6A656374206E6F74206D61726B656420617320726576657274206F7220 PUSH0 DUP3 ADD MSTORE PUSH32 0x64656C6574650000000000000000000000000000000000000000000000000000 PUSH1 0x20 DUP3 ADD MSTORE POP JUMP JUMPDEST PUSH0 PUSH2 0x464F PUSH1 0x26 DUP4 PUSH2 0x2C6D JUMP JUMPDEST SWAP2 POP PUSH2 0x465A DUP3 PUSH2 0x45F5 JUMP JUMPDEST PUSH1 0x40 DUP3 ADD SWAP1 POP SWAP2 SWAP1 POP JUMP JUMPDEST PUSH0 PUSH1 0x20 DUP3 ADD SWAP1 POP DUP2 DUP2 SUB PUSH0 DUP4 ADD MSTORE PUSH2 0x467C DUP2 PUSH2 0x4643 JUMP JUMPDEST SWAP1 POP SWAP2 SWAP1 POP JUMP JUMPDEST PUSH32 0x50726F6A656374206E6F7420415050524F564544000000000000000000000000 PUSH0 DUP3 ADD MSTORE POP JUMP JUMPDEST PUSH0 PUSH2 0x46B7 PUSH1 0x14 DUP4 PUSH2 0x2C6D JUMP JUMPDEST SWAP2 POP PUSH2 0x46C2 DUP3 PUSH2 0x4683 JUMP JUMPDEST PUSH1 0x20 DUP3 ADD SWAP1 POP SWAP2 SWAP1 POP JUMP JUMPDEST PUSH0 PUSH1 0x20 DUP3 ADD SWAP1 POP DUP2 DUP2 SUB PUSH0 DUP4 ADD MSTORE PUSH2 0x46E4 DUP2 PUSH2 0x46AB JUMP JUMPDEST SWAP1 POP SWAP2 SWAP1 POP JUMP JUMPDEST PUSH0 PUSH2 0x46F5 DUP3 PUSH2 0x2E1F JUMP JUMPDEST SWAP2 POP PUSH2 0x4700 DUP4 PUSH2 0x2E1F JUMP JUMPDEST SWAP3 POP DUP3 DUP3 MUL PUSH2 0x470E DUP2 PUSH2 0x2E1F JUMP JUMPDEST SWAP2 POP DUP3 DUP3 DIV DUP5 EQ DUP4 ISZERO OR PUSH2 0x4725 JUMPI PUSH2 0x4724 PUSH2 0x3C54 JUMP JUMPDEST JUMPDEST POP SWAP3 SWAP2 POP POP JUMP JUMPDEST PUSH32 0x4E487B7100000000000000000000000000000000000000000000000000000000 PUSH0 MSTORE PUSH1 0x12 PUSH1 0x4 MSTORE PUSH1 0x24 PUSH0 REVERT JUMPDEST PUSH0 PUSH2 0x4763 DUP3 PUSH2 0x2E1F JUMP JUMPDEST SWAP2 POP PUSH2 0x476E DUP4 PUSH2 0x2E1F JUMP JUMPDEST SWAP3 POP DUP3 PUSH2 0x477E JUMPI PUSH2 0x477D PUSH2 0x472C JUMP JUMPDEST JUMPDEST DUP3 DUP3 DIV SWAP1 POP SWAP3 SWAP2 POP POP JUMP JUMPDEST PUSH32 0x50524F4A4543542050414944204F555400000000000000000000000000000000 PUSH0 DUP3 ADD MSTORE POP JUMP JUMPDEST PUSH0 PUSH2 0x47BD PUSH1 0x10 DUP4 PUSH2 0x2C6D JUMP JUMPDEST SWAP2 POP PUSH2 0x47C8 DUP3 PUSH2 0x4789 JUMP JUMPDEST PUSH1 0x20 DUP3 ADD SWAP1 POP SWAP2 SWAP1 POP JUMP JUMPDEST PUSH0 PUSH1 0x60 DUP3 ADD SWAP1 POP PUSH2 0x47E6 PUSH0 DUP4 ADD DUP6 PUSH2 0x2F7E JUMP JUMPDEST DUP2 DUP2 SUB PUSH1 0x20 DUP4 ADD MSTORE PUSH2 0x47F7 DUP2 PUSH2 0x47B1 JUMP JUMPDEST SWAP1 POP PUSH2 0x4806 PUSH1 0x40 DUP4 ADD DUP5 PUSH2 0x2F7E JUMP JUMPDEST SWAP4 SWAP3 POP POP POP JUMP JUMPDEST PUSH0 DUP2 SWAP1 POP SWAP3 SWAP2 POP POP JUMP JUMPDEST POP JUMP JUMPDEST PUSH0 PUSH2 0x4825 PUSH0 DUP4 PUSH2 0x480D JUMP JUMPDEST SWAP2 POP PUSH2 0x4830 DUP3 PUSH2 0x4817 JUMP JUMPDEST PUSH0 DUP3 ADD SWAP1 POP SWAP2 SWAP1 POP JUMP JUMPDEST PUSH0 PUSH2 0x4844 DUP3 PUSH2 0x481A JUMP JUMPDEST SWAP2 POP DUP2 SWAP1 POP SWAP2 SWAP1 POP JUMP INVALID SLOAD PUSH9 0x69732050726F6A6563 PUSH21 0x6564206973206E6F742056616C6964617465642059 PUSH6 0x74A264697066 PUSH20 0x582212202CC658DB72E26911B9618717236A5298 EXTCODEHASH 0xD1 0xB8 0xAF 0xD9 0xFC 0xE8 PUSH24 0x4B2A8DA3F490392764736F6C634300081A00330000000000 "
				},
				"gasEstimates": {
					"creation": {
						"codeDepositCost": "3719800",
						"executionCost": "infinite",
						"totalCost": "infinite"
					},
					"external": {
						"backProject(uint256)": "infinite",
						"balance()": "2514",
						"changeTax(uint256)": "24771",
						"createProject(string,string,string,uint256,uint256,string)": "infinite",
						"deleteProject(uint256)": "infinite",
						"getBackers(uint256)": "infinite",
						"getProject(uint256)": "infinite",
						"getProjects()": "infinite",
						"owner()": "2616",
						"payOutProject(uint256)": "infinite",
						"projectCount()": "2493",
						"projectExist(uint256)": "2874",
						"projectTax()": "2447",
						"registerValidator(address,string)": "infinite",
						"requestRefund(uint256)": "infinite",
						"stats()": "infinite",
						"updateProject(uint256,string,string,string,uint256,string)": "infinite",
						"validateProject(uint256,string)": "infinite",
						"validatorNames(address)": "infinite",
						"validators(address)": "2943"
					},
					"internal": {
						"payTo(address,uint256)": "infinite",
						"performPayout(uint256)": "infinite",
						"performRefund(uint256)": "infinite"
					}
				},
				"methodIdentifiers": {
					"backProject(uint256)": "9f39a194",
					"balance()": "b69ef8a8",
					"changeTax(uint256)": "3e45c8af",
					"createProject(string,string,string,uint256,uint256,string)": "1fb49712",
					"deleteProject(uint256)": "4cd0cb28",
					"getBackers(uint256)": "c9168b72",
					"getProject(uint256)": "f0f3f2c8",
					"getProjects()": "dcc60128",
					"owner()": "8da5cb5b",
					"payOutProject(uint256)": "b531dcba",
					"projectCount()": "36fbad26",
					"projectExist(uint256)": "8593054b",
					"projectTax()": "d24cd3ec",
					"registerValidator(address,string)": "75c0f6b2",
					"requestRefund(uint256)": "a4b2409e",
					"stats()": "d80528ae",
					"updateProject(uint256,string,string,string,uint256,string)": "50fc6d76",
					"validateProject(uint256,string)": "812be123",
					"validatorNames(address)": "01b77599",
					"validators(address)": "fa52c7d8"
				}
			},
			"storageLayout": {
				"storage": [
					{
						"astId": 3,
						"contract": "src/contracts/NewGenesisMaster.sol:Genesis",
						"label": "owner",
						"offset": 0,
						"slot": "0",
						"type": "t_address"
					},
					{
						"astId": 5,
						"contract": "src/contracts/NewGenesisMaster.sol:Genesis",
						"label": "projectTax",
						"offset": 0,
						"slot": "1",
						"type": "t_uint256"
					},
					{
						"astId": 7,
						"contract": "src/contracts/NewGenesisMaster.sol:Genesis",
						"label": "projectCount",
						"offset": 0,
						"slot": "2",
						"type": "t_uint256"
					},
					{
						"astId": 9,
						"contract": "src/contracts/NewGenesisMaster.sol:Genesis",
						"label": "balance",
						"offset": 0,
						"slot": "3",
						"type": "t_uint256"
					},
					{
						"astId": 12,
						"contract": "src/contracts/NewGenesisMaster.sol:Genesis",
						"label": "stats",
						"offset": 0,
						"slot": "4",
						"type": "t_struct(statsStruct)58_storage"
					},
					{
						"astId": 16,
						"contract": "src/contracts/NewGenesisMaster.sol:Genesis",
						"label": "projects",
						"offset": 0,
						"slot": "9",
						"type": "t_array(t_struct(projectStruct)97_storage)dyn_storage"
					},
					{
						"astId": 22,
						"contract": "src/contracts/NewGenesisMaster.sol:Genesis",
						"label": "projectsOf",
						"offset": 0,
						"slot": "10",
						"type": "t_mapping(t_address,t_array(t_struct(projectStruct)97_storage)dyn_storage)"
					},
					{
						"astId": 28,
						"contract": "src/contracts/NewGenesisMaster.sol:Genesis",
						"label": "backersOf",
						"offset": 0,
						"slot": "11",
						"type": "t_mapping(t_uint256,t_array(t_struct(backerStruct)67_storage)dyn_storage)"
					},
					{
						"astId": 32,
						"contract": "src/contracts/NewGenesisMaster.sol:Genesis",
						"label": "projectExist",
						"offset": 0,
						"slot": "12",
						"type": "t_mapping(t_uint256,t_bool)"
					},
					{
						"astId": 36,
						"contract": "src/contracts/NewGenesisMaster.sol:Genesis",
						"label": "validators",
						"offset": 0,
						"slot": "13",
						"type": "t_mapping(t_address,t_bool)"
					},
					{
						"astId": 40,
						"contract": "src/contracts/NewGenesisMaster.sol:Genesis",
						"label": "validatorNames",
						"offset": 0,
						"slot": "14",
						"type": "t_mapping(t_address,t_string_storage)"
					}
				],
				"types": {
					"t_address": {
						"encoding": "inplace",
						"label": "address",
						"numberOfBytes": "20"
					},
					"t_array(t_struct(backerStruct)67_storage)dyn_storage": {
						"base": "t_struct(backerStruct)67_storage",
						"encoding": "dynamic_array",
						"label": "struct Genesis.backerStruct[]",
						"numberOfBytes": "32"
					},
					"t_array(t_struct(projectStruct)97_storage)dyn_storage": {
						"base": "t_struct(projectStruct)97_storage",
						"encoding": "dynamic_array",
						"label": "struct Genesis.projectStruct[]",
						"numberOfBytes": "32"
					},
					"t_bool": {
						"encoding": "inplace",
						"label": "bool",
						"numberOfBytes": "1"
					},
					"t_enum(statusEnum)47": {
						"encoding": "inplace",
						"label": "enum Genesis.statusEnum",
						"numberOfBytes": "1"
					},
					"t_mapping(t_address,t_array(t_struct(projectStruct)97_storage)dyn_storage)": {
						"encoding": "mapping",
						"key": "t_address",
						"label": "mapping(address => struct Genesis.projectStruct[])",
						"numberOfBytes": "32",
						"value": "t_array(t_struct(projectStruct)97_storage)dyn_storage"
					},
					"t_mapping(t_address,t_bool)": {
						"encoding": "mapping",
						"key": "t_address",
						"label": "mapping(address => bool)",
						"numberOfBytes": "32",
						"value": "t_bool"
					},
					"t_mapping(t_address,t_string_storage)": {
						"encoding": "mapping",
						"key": "t_address",
						"label": "mapping(address => string)",
						"numberOfBytes": "32",
						"value": "t_string_storage"
					},
					"t_mapping(t_uint256,t_array(t_struct(backerStruct)67_storage)dyn_storage)": {
						"encoding": "mapping",
						"key": "t_uint256",
						"label": "mapping(uint256 => struct Genesis.backerStruct[])",
						"numberOfBytes": "32",
						"value": "t_array(t_struct(backerStruct)67_storage)dyn_storage"
					},
					"t_mapping(t_uint256,t_bool)": {
						"encoding": "mapping",
						"key": "t_uint256",
						"label": "mapping(uint256 => bool)",
						"numberOfBytes": "32",
						"value": "t_bool"
					},
					"t_string_storage": {
						"encoding": "bytes",
						"label": "string",
						"numberOfBytes": "32"
					},
					"t_struct(backerStruct)67_storage": {
						"encoding": "inplace",
						"label": "struct Genesis.backerStruct",
						"members": [
							{
								"astId": 60,
								"contract": "src/contracts/NewGenesisMaster.sol:Genesis",
								"label": "owner",
								"offset": 0,
								"slot": "0",
								"type": "t_address"
							},
							{
								"astId": 62,
								"contract": "src/contracts/NewGenesisMaster.sol:Genesis",
								"label": "contribution",
								"offset": 0,
								"slot": "1",
								"type": "t_uint256"
							},
							{
								"astId": 64,
								"contract": "src/contracts/NewGenesisMaster.sol:Genesis",
								"label": "timestamp",
								"offset": 0,
								"slot": "2",
								"type": "t_uint256"
							},
							{
								"astId": 66,
								"contract": "src/contracts/NewGenesisMaster.sol:Genesis",
								"label": "refunded",
								"offset": 0,
								"slot": "3",
								"type": "t_bool"
							}
						],
						"numberOfBytes": "128"
					},
					"t_struct(projectStruct)97_storage": {
						"encoding": "inplace",
						"label": "struct Genesis.projectStruct",
						"members": [
							{
								"astId": 69,
								"contract": "src/contracts/NewGenesisMaster.sol:Genesis",
								"label": "id",
								"offset": 0,
								"slot": "0",
								"type": "t_uint256"
							},
							{
								"astId": 71,
								"contract": "src/contracts/NewGenesisMaster.sol:Genesis",
								"label": "owner",
								"offset": 0,
								"slot": "1",
								"type": "t_address"
							},
							{
								"astId": 73,
								"contract": "src/contracts/NewGenesisMaster.sol:Genesis",
								"label": "title",
								"offset": 0,
								"slot": "2",
								"type": "t_string_storage"
							},
							{
								"astId": 75,
								"contract": "src/contracts/NewGenesisMaster.sol:Genesis",
								"label": "description",
								"offset": 0,
								"slot": "3",
								"type": "t_string_storage"
							},
							{
								"astId": 77,
								"contract": "src/contracts/NewGenesisMaster.sol:Genesis",
								"label": "imageURL",
								"offset": 0,
								"slot": "4",
								"type": "t_string_storage"
							},
							{
								"astId": 79,
								"contract": "src/contracts/NewGenesisMaster.sol:Genesis",
								"label": "cost",
								"offset": 0,
								"slot": "5",
								"type": "t_uint256"
							},
							{
								"astId": 81,
								"contract": "src/contracts/NewGenesisMaster.sol:Genesis",
								"label": "raised",
								"offset": 0,
								"slot": "6",
								"type": "t_uint256"
							},
							{
								"astId": 83,
								"contract": "src/contracts/NewGenesisMaster.sol:Genesis",
								"label": "timestamp",
								"offset": 0,
								"slot": "7",
								"type": "t_uint256"
							},
							{
								"astId": 85,
								"contract": "src/contracts/NewGenesisMaster.sol:Genesis",
								"label": "expiresAt",
								"offset": 0,
								"slot": "8",
								"type": "t_uint256"
							},
							{
								"astId": 87,
								"contract": "src/contracts/NewGenesisMaster.sol:Genesis",
								"label": "backers",
								"offset": 0,
								"slot": "9",
								"type": "t_uint256"
							},
							{
								"astId": 90,
								"contract": "src/contracts/NewGenesisMaster.sol:Genesis",
								"label": "status",
								"offset": 0,
								"slot": "10",
								"type": "t_enum(statusEnum)47"
							},
							{
								"astId": 92,
								"contract": "src/contracts/NewGenesisMaster.sol:Genesis",
								"label": "Syarat",
								"offset": 0,
								"slot": "11",
								"type": "t_string_storage"
							},
							{
								"astId": 94,
								"contract": "src/contracts/NewGenesisMaster.sol:Genesis",
								"label": "validated",
								"offset": 0,
								"slot": "12",
								"type": "t_bool"
							},
							{
								"astId": 96,
								"contract": "src/contracts/NewGenesisMaster.sol:Genesis",
								"label": "validationMessage",
								"offset": 0,
								"slot": "13",
								"type": "t_string_storage"
							}
						],
						"numberOfBytes": "448"
					},
					"t_struct(statsStruct)58_storage": {
						"encoding": "inplace",
						"label": "struct Genesis.statsStruct",
						"members": [
							{
								"astId": 49,
								"contract": "src/contracts/NewGenesisMaster.sol:Genesis",
								"label": "totalProjects",
								"offset": 0,
								"slot": "0",
								"type": "t_uint256"
							},
							{
								"astId": 51,
								"contract": "src/contracts/NewGenesisMaster.sol:Genesis",
								"label": "totalBacking",
								"offset": 0,
								"slot": "1",
								"type": "t_uint256"
							},
							{
								"astId": 53,
								"contract": "src/contracts/NewGenesisMaster.sol:Genesis",
								"label": "totalDonations",
								"offset": 0,
								"slot": "2",
								"type": "t_uint256"
							},
							{
								"astId": 55,
								"contract": "src/contracts/NewGenesisMaster.sol:Genesis",
								"label": "validatedProjects",
								"offset": 0,
								"slot": "3",
								"type": "t_uint256"
							},
							{
								"astId": 57,
								"contract": "src/contracts/NewGenesisMaster.sol:Genesis",
								"label": "nonValidatedProjects",
								"offset": 0,
								"slot": "4",
								"type": "t_uint256"
							}
						],
						"numberOfBytes": "160"
					},
					"t_uint256": {
						"encoding": "inplace",
						"label": "uint256",
						"numberOfBytes": "32"
					}
				}
			},
			"userdoc": {
				"kind": "user",
				"methods": {},
				"version": 1
			}
		}
	}
}